{
	"Final Project/FinalProject_Contract.sol": {
		"P2PFileShare": {
			"abi": [
				{
					"anonymous": false,
					"inputs": [
						{
							"indexed": false,
							"internalType": "uint256",
							"name": "_fileID",
							"type": "uint256"
						},
						{
							"components": [
								{
									"internalType": "uint256",
									"name": "fileID",
									"type": "uint256"
								},
								{
									"internalType": "string",
									"name": "ipfs",
									"type": "string"
								},
								{
									"internalType": "string",
									"name": "subject",
									"type": "string"
								},
								{
									"internalType": "string",
									"name": "fileName",
									"type": "string"
								},
								{
									"internalType": "address",
									"name": "uploader",
									"type": "address"
								}
							],
							"indexed": false,
							"internalType": "struct P2PFileShare.FileInfo",
							"name": "info",
							"type": "tuple"
						},
						{
							"indexed": false,
							"internalType": "string",
							"name": "downloadUrl",
							"type": "string"
						}
					],
					"name": "FileDownloaded",
					"type": "event"
				},
				{
					"anonymous": false,
					"inputs": [
						{
							"indexed": false,
							"internalType": "uint256",
							"name": "fileID",
							"type": "uint256"
						},
						{
							"indexed": false,
							"internalType": "string",
							"name": "ipfs",
							"type": "string"
						},
						{
							"indexed": true,
							"internalType": "string",
							"name": "subject",
							"type": "string"
						},
						{
							"indexed": false,
							"internalType": "string",
							"name": "fileName",
							"type": "string"
						},
						{
							"indexed": true,
							"internalType": "address",
							"name": "uploader",
							"type": "address"
						}
					],
					"name": "FileUploaded",
					"type": "event"
				},
				{
					"inputs": [],
					"name": "fileCount",
					"outputs": [
						{
							"internalType": "uint256",
							"name": "",
							"type": "uint256"
						}
					],
					"stateMutability": "view",
					"type": "function"
				},
				{
					"inputs": [
						{
							"internalType": "uint256",
							"name": "",
							"type": "uint256"
						}
					],
					"name": "files",
					"outputs": [
						{
							"internalType": "uint256",
							"name": "fileID",
							"type": "uint256"
						},
						{
							"internalType": "string",
							"name": "ipfs",
							"type": "string"
						},
						{
							"internalType": "string",
							"name": "subject",
							"type": "string"
						},
						{
							"internalType": "string",
							"name": "fileName",
							"type": "string"
						},
						{
							"internalType": "address",
							"name": "uploader",
							"type": "address"
						}
					],
					"stateMutability": "view",
					"type": "function"
				},
				{
					"inputs": [
						{
							"internalType": "string",
							"name": "_subject",
							"type": "string"
						}
					],
					"name": "getCourse",
					"outputs": [
						{
							"components": [
								{
									"internalType": "uint256",
									"name": "fileID",
									"type": "uint256"
								},
								{
									"internalType": "string",
									"name": "fileName",
									"type": "string"
								}
							],
							"internalType": "struct P2PFileShare.FileSummary[]",
							"name": "",
							"type": "tuple[]"
						}
					],
					"stateMutability": "view",
					"type": "function"
				},
				{
					"inputs": [
						{
							"internalType": "uint256",
							"name": "_fileID",
							"type": "uint256"
						}
					],
					"name": "getFile",
					"outputs": [
						{
							"components": [
								{
									"internalType": "uint256",
									"name": "fileID",
									"type": "uint256"
								},
								{
									"internalType": "string",
									"name": "ipfs",
									"type": "string"
								},
								{
									"internalType": "string",
									"name": "subject",
									"type": "string"
								},
								{
									"internalType": "string",
									"name": "fileName",
									"type": "string"
								},
								{
									"internalType": "address",
									"name": "uploader",
									"type": "address"
								}
							],
							"internalType": "struct P2PFileShare.FileInfo",
							"name": "info",
							"type": "tuple"
						},
						{
							"internalType": "string",
							"name": "downloadUrl",
							"type": "string"
						}
					],
					"stateMutability": "nonpayable",
					"type": "function"
				},
				{
					"inputs": [
						{
							"internalType": "string",
							"name": "_ipfs",
							"type": "string"
						},
						{
							"internalType": "string",
							"name": "_fileName",
							"type": "string"
						},
						{
							"internalType": "string",
							"name": "_subject",
							"type": "string"
						}
					],
					"name": "uploadFile",
					"outputs": [],
					"stateMutability": "nonpayable",
					"type": "function"
				}
			],
			"devdoc": {
				"events": {
					"FileDownloaded(uint256,(uint256,string,string,string,address),string)": {
						"params": {
							"_fileID": "Unique file identifier",
							"downloadUrl": "Download link for the file",
							"info": "Information of file being downloaded"
						}
					},
					"FileUploaded(uint256,string,string,string,address)": {
						"params": {
							"fileID": "Unique file identifier",
							"fileName": "Name of the file including the filetype extension (ex: \"Assignment_1.pdf\")",
							"ipfs": "Hash of the file location on IPFS",
							"subject": "Allows searching by subject course code; official course code for the subject the file is for (ex: \"CSCI 101.14\", \"THEO 12\", \"MSYS 41\")",
							"uploader": "Allows searching by uploader; address of the uploader"
						}
					}
				},
				"kind": "dev",
				"methods": {
					"getCourse(string)": {
						"params": {
							"_subject": "Official course code of that subject"
						}
					},
					"getFile(uint256)": {
						"params": {
							"_fileID": "File ID for the file being downloaded"
						},
						"returns": {
							"downloadUrl": "URL that allows users to download the file",
							"info": "Metadata from the uploaded file"
						}
					},
					"uploadFile(string,string,string)": {
						"params": {
							"_fileName": "Filename with filetype extension",
							"_ipfs": "IPFS file location hash for the file",
							"_subject": "Official course code for the subject that file is being uploaded for"
						}
					}
				},
				"stateVariables": {
					"BASE_GATEWAY": {
						"details": "(Copy this url + the hash and paste it in browser to grab the file)(No need to download IPFS desktop)"
					}
				},
				"version": 1
			},
			"evm": {
				"assembly": "    /* \"Final Project/FinalProject_Contract.sol\":883:6048  contract P2PFileShare{... */\n  mstore(0x40, 0x80)\n    /* \"Final Project/FinalProject_Contract.sol\":1249:1250  0 */\n  0x00\n    /* \"Final Project/FinalProject_Contract.sol\":1222:1250  uint256 public fileCount = 0 */\n  0x00\n  sstore\n    /* \"Final Project/FinalProject_Contract.sol\":883:6048  contract P2PFileShare{... */\n  callvalue\n  dup1\n  iszero\n  tag_1\n  jumpi\n  revert(0x00, 0x00)\ntag_1:\n  pop\n  dataSize(sub_0)\n  dup1\n  dataOffset(sub_0)\n  0x00\n  codecopy\n  0x00\n  return\nstop\n\nsub_0: assembly {\n        /* \"Final Project/FinalProject_Contract.sol\":883:6048  contract P2PFileShare{... */\n      mstore(0x40, 0x80)\n      callvalue\n      dup1\n      iszero\n      tag_1\n      jumpi\n      revert(0x00, 0x00)\n    tag_1:\n      pop\n      jumpi(tag_2, lt(calldatasize, 0x04))\n      shr(0xe0, calldataload(0x00))\n      dup1\n      0x2bfda313\n      eq\n      tag_3\n      jumpi\n      dup1\n      0x43953519\n      eq\n      tag_4\n      jumpi\n      dup1\n      0x92bb481a\n      eq\n      tag_5\n      jumpi\n      dup1\n      0xda618161\n      eq\n      tag_6\n      jumpi\n      dup1\n      0xf4c714b4\n      eq\n      tag_7\n      jumpi\n    tag_2:\n      revert(0x00, 0x00)\n        /* \"Final Project/FinalProject_Contract.sol\":4909:5381  function getFile(uint _fileID) public returns (FileInfo memory info, string memory downloadUrl) {... */\n    tag_3:\n      tag_8\n      0x04\n      dup1\n      calldatasize\n      sub\n      dup2\n      add\n      swap1\n      tag_9\n      swap2\n      swap1\n      tag_10\n      jump\t// in\n    tag_9:\n      tag_11\n      jump\t// in\n    tag_8:\n      mload(0x40)\n      tag_12\n      swap3\n      swap2\n      swap1\n      tag_13\n      jump\t// in\n    tag_12:\n      mload(0x40)\n      dup1\n      swap2\n      sub\n      swap1\n      return\n        /* \"Final Project/FinalProject_Contract.sol\":1222:1250  uint256 public fileCount = 0 */\n    tag_4:\n      tag_14\n      tag_15\n      jump\t// in\n    tag_14:\n      mload(0x40)\n      tag_16\n      swap2\n      swap1\n      tag_17\n      jump\t// in\n    tag_16:\n      mload(0x40)\n      dup1\n      swap2\n      sub\n      swap1\n      return\n        /* \"Final Project/FinalProject_Contract.sol\":3773:4657  function uploadFile(string memory _ipfs, string memory _fileName, string memory _subject) public {... */\n    tag_5:\n      tag_18\n      0x04\n      dup1\n      calldatasize\n      sub\n      dup2\n      add\n      swap1\n      tag_19\n      swap2\n      swap1\n      tag_20\n      jump\t// in\n    tag_19:\n      tag_21\n      jump\t// in\n    tag_18:\n      stop\n        /* \"Final Project/FinalProject_Contract.sol\":5514:6045  function getCourse(string memory _subject) public view returns (FileSummary[] memory){... */\n    tag_6:\n      tag_22\n      0x04\n      dup1\n      calldatasize\n      sub\n      dup2\n      add\n      swap1\n      tag_23\n      swap2\n      swap1\n      tag_24\n      jump\t// in\n    tag_23:\n      tag_25\n      jump\t// in\n    tag_22:\n      mload(0x40)\n      tag_26\n      swap2\n      swap1\n      tag_27\n      jump\t// in\n    tag_26:\n      mload(0x40)\n      dup1\n      swap2\n      sub\n      swap1\n      return\n        /* \"Final Project/FinalProject_Contract.sol\":2105:2146  mapping(uint256 => FileInfo) public files */\n    tag_7:\n      tag_28\n      0x04\n      dup1\n      calldatasize\n      sub\n      dup2\n      add\n      swap1\n      tag_29\n      swap2\n      swap1\n      tag_10\n      jump\t// in\n    tag_29:\n      tag_30\n      jump\t// in\n    tag_28:\n      mload(0x40)\n      tag_31\n      swap6\n      swap5\n      swap4\n      swap3\n      swap2\n      swap1\n      tag_32\n      jump\t// in\n    tag_31:\n      mload(0x40)\n      dup1\n      swap2\n      sub\n      swap1\n      return\n        /* \"Final Project/FinalProject_Contract.sol\":4909:5381  function getFile(uint _fileID) public returns (FileInfo memory info, string memory downloadUrl) {... */\n    tag_11:\n        /* \"Final Project/FinalProject_Contract.sol\":4956:4976  FileInfo memory info */\n      tag_33\n      tag_34\n      jump\t// in\n    tag_33:\n        /* \"Final Project/FinalProject_Contract.sol\":4978:5003  string memory downloadUrl */\n      0x60\n        /* \"Final Project/FinalProject_Contract.sol\":5016:5036  FileInfo memory file */\n      0x00\n        /* \"Final Project/FinalProject_Contract.sol\":5039:5044  files */\n      0x01\n        /* \"Final Project/FinalProject_Contract.sol\":5039:5053  files[_fileID] */\n      0x00\n        /* \"Final Project/FinalProject_Contract.sol\":5045:5052  _fileID */\n      dup6\n        /* \"Final Project/FinalProject_Contract.sol\":5039:5053  files[_fileID] */\n      dup2\n      mstore\n      0x20\n      add\n      swap1\n      dup2\n      mstore\n      0x20\n      add\n      0x00\n      keccak256\n        /* \"Final Project/FinalProject_Contract.sol\":5016:5053  FileInfo memory file = files[_fileID] */\n      mload(0x40)\n      dup1\n      0xa0\n      add\n      0x40\n      mstore\n      swap1\n      dup2\n      0x00\n      dup3\n      add\n      sload\n      dup2\n      mstore\n      0x20\n      add\n      0x01\n      dup3\n      add\n      dup1\n      sload\n      tag_36\n      swap1\n      tag_37\n      jump\t// in\n    tag_36:\n      dup1\n      0x1f\n      add\n      0x20\n      dup1\n      swap2\n      div\n      mul\n      0x20\n      add\n      mload(0x40)\n      swap1\n      dup2\n      add\n      0x40\n      mstore\n      dup1\n      swap3\n      swap2\n      swap1\n      dup2\n      dup2\n      mstore\n      0x20\n      add\n      dup3\n      dup1\n      sload\n      tag_38\n      swap1\n      tag_37\n      jump\t// in\n    tag_38:\n      dup1\n      iszero\n      tag_39\n      jumpi\n      dup1\n      0x1f\n      lt\n      tag_40\n      jumpi\n      0x0100\n      dup1\n      dup4\n      sload\n      div\n      mul\n      dup4\n      mstore\n      swap2\n      0x20\n      add\n      swap2\n      jump(tag_39)\n    tag_40:\n      dup3\n      add\n      swap2\n      swap1\n      0x00\n      mstore\n      keccak256(0x00, 0x20)\n      swap1\n    tag_41:\n      dup2\n      sload\n      dup2\n      mstore\n      swap1\n      0x01\n      add\n      swap1\n      0x20\n      add\n      dup1\n      dup4\n      gt\n      tag_41\n      jumpi\n      dup3\n      swap1\n      sub\n      0x1f\n      and\n      dup3\n      add\n      swap2\n    tag_39:\n      pop\n      pop\n      pop\n      pop\n      pop\n      dup2\n      mstore\n      0x20\n      add\n      0x02\n      dup3\n      add\n      dup1\n      sload\n      tag_42\n      swap1\n      tag_37\n      jump\t// in\n    tag_42:\n      dup1\n      0x1f\n      add\n      0x20\n      dup1\n      swap2\n      div\n      mul\n      0x20\n      add\n      mload(0x40)\n      swap1\n      dup2\n      add\n      0x40\n      mstore\n      dup1\n      swap3\n      swap2\n      swap1\n      dup2\n      dup2\n      mstore\n      0x20\n      add\n      dup3\n      dup1\n      sload\n      tag_43\n      swap1\n      tag_37\n      jump\t// in\n    tag_43:\n      dup1\n      iszero\n      tag_44\n      jumpi\n      dup1\n      0x1f\n      lt\n      tag_45\n      jumpi\n      0x0100\n      dup1\n      dup4\n      sload\n      div\n      mul\n      dup4\n      mstore\n      swap2\n      0x20\n      add\n      swap2\n      jump(tag_44)\n    tag_45:\n      dup3\n      add\n      swap2\n      swap1\n      0x00\n      mstore\n      keccak256(0x00, 0x20)\n      swap1\n    tag_46:\n      dup2\n      sload\n      dup2\n      mstore\n      swap1\n      0x01\n      add\n      swap1\n      0x20\n      add\n      dup1\n      dup4\n      gt\n      tag_46\n      jumpi\n      dup3\n      swap1\n      sub\n      0x1f\n      and\n      dup3\n      add\n      swap2\n    tag_44:\n      pop\n      pop\n      pop\n      pop\n      pop\n      dup2\n      mstore\n      0x20\n      add\n      0x03\n      dup3\n      add\n      dup1\n      sload\n      tag_47\n      swap1\n      tag_37\n      jump\t// in\n    tag_47:\n      dup1\n      0x1f\n      add\n      0x20\n      dup1\n      swap2\n      div\n      mul\n      0x20\n      add\n      mload(0x40)\n      swap1\n      dup2\n      add\n      0x40\n      mstore\n      dup1\n      swap3\n      swap2\n      swap1\n      dup2\n      dup2\n      mstore\n      0x20\n      add\n      dup3\n      dup1\n      sload\n      tag_48\n      swap1\n      tag_37\n      jump\t// in\n    tag_48:\n      dup1\n      iszero\n      tag_49\n      jumpi\n      dup1\n      0x1f\n      lt\n      tag_50\n      jumpi\n      0x0100\n      dup1\n      dup4\n      sload\n      div\n      mul\n      dup4\n      mstore\n      swap2\n      0x20\n      add\n      swap2\n      jump(tag_49)\n    tag_50:\n      dup3\n      add\n      swap2\n      swap1\n      0x00\n      mstore\n      keccak256(0x00, 0x20)\n      swap1\n    tag_51:\n      dup2\n      sload\n      dup2\n      mstore\n      swap1\n      0x01\n      add\n      swap1\n      0x20\n      add\n      dup1\n      dup4\n      gt\n      tag_51\n      jumpi\n      dup3\n      swap1\n      sub\n      0x1f\n      and\n      dup3\n      add\n      swap2\n    tag_49:\n      pop\n      pop\n      pop\n      pop\n      pop\n      dup2\n      mstore\n      0x20\n      add\n      0x04\n      dup3\n      add\n      0x00\n      swap1\n      sload\n      swap1\n      0x0100\n      exp\n      swap1\n      div\n      0xffffffffffffffffffffffffffffffffffffffff\n      and\n      0xffffffffffffffffffffffffffffffffffffffff\n      and\n      0xffffffffffffffffffffffffffffffffffffffff\n      and\n      dup2\n      mstore\n      pop\n      pop\n      swap1\n      pop\n        /* \"Final Project/FinalProject_Contract.sol\":5162:5183  string memory fullUrl */\n      0x00\n        /* \"Final Project/FinalProject_Contract.sol\":5210:5222  BASE_GATEWAY */\n      mload(0x40)\n      dup1\n      0x40\n      add\n      0x40\n      mstore\n      dup1\n      0x15\n      dup2\n      mstore\n      0x20\n      add\n      0x68747470733a2f2f697066732e696f2f697066732f0000000000000000000000\n      dup2\n      mstore\n      pop\n        /* \"Final Project/FinalProject_Contract.sol\":5224:5228  file */\n      dup3\n        /* \"Final Project/FinalProject_Contract.sol\":5224:5233  file.ipfs */\n      0x20\n      add\n      mload\n        /* \"Final Project/FinalProject_Contract.sol\":5193:5234  abi.encodePacked(BASE_GATEWAY, file.ipfs) */\n      add(0x20, mload(0x40))\n      tag_52\n      swap3\n      swap2\n      swap1\n      tag_53\n      jump\t// in\n    tag_52:\n      mload(0x40)\n      0x20\n      dup2\n      dup4\n      sub\n      sub\n      dup2\n      mstore\n      swap1\n      0x40\n      mstore\n        /* \"Final Project/FinalProject_Contract.sol\":5162:5235  string memory fullUrl = string(abi.encodePacked(BASE_GATEWAY, file.ipfs)) */\n      swap1\n      pop\n        /* \"Final Project/FinalProject_Contract.sol\":5300:5338  FileDownloaded(_fileID, file, fullUrl) */\n      0x4d781b133740938e4a2e41d654ec743d6f306ae4b8240a07bb71504cbcd21b14\n        /* \"Final Project/FinalProject_Contract.sol\":5315:5322  _fileID */\n      dup6\n        /* \"Final Project/FinalProject_Contract.sol\":5324:5328  file */\n      dup4\n        /* \"Final Project/FinalProject_Contract.sol\":5330:5337  fullUrl */\n      dup4\n        /* \"Final Project/FinalProject_Contract.sol\":5300:5338  FileDownloaded(_fileID, file, fullUrl) */\n      mload(0x40)\n      tag_54\n      swap4\n      swap3\n      swap2\n      swap1\n      tag_55\n      jump\t// in\n    tag_54:\n      mload(0x40)\n      dup1\n      swap2\n      sub\n      swap1\n      log1\n        /* \"Final Project/FinalProject_Contract.sol\":5359:5363  file */\n      dup2\n        /* \"Final Project/FinalProject_Contract.sol\":5365:5372  fullUrl */\n      dup2\n        /* \"Final Project/FinalProject_Contract.sol\":5351:5373  return (file, fullUrl) */\n      swap4\n      pop\n      swap4\n      pop\n      pop\n      pop\n        /* \"Final Project/FinalProject_Contract.sol\":4909:5381  function getFile(uint _fileID) public returns (FileInfo memory info, string memory downloadUrl) {... */\n      swap2\n      pop\n      swap2\n      jump\t// out\n        /* \"Final Project/FinalProject_Contract.sol\":1222:1250  uint256 public fileCount = 0 */\n    tag_15:\n      sload(0x00)\n      dup2\n      jump\t// out\n        /* \"Final Project/FinalProject_Contract.sol\":3773:4657  function uploadFile(string memory _ipfs, string memory _fileName, string memory _subject) public {... */\n    tag_21:\n        /* \"Final Project/FinalProject_Contract.sol\":3911:3912  0 */\n      0x00\n        /* \"Final Project/FinalProject_Contract.sol\":3895:3900  _ipfs */\n      dup4\n        /* \"Final Project/FinalProject_Contract.sol\":3889:3908  bytes(_ipfs).length */\n      mload\n        /* \"Final Project/FinalProject_Contract.sol\":3889:3912  bytes(_ipfs).length > 0 */\n      gt\n        /* \"Final Project/FinalProject_Contract.sol\":3881:3938  require(bytes(_ipfs).length > 0, \"IPFS Hash is required\") */\n      tag_57\n      jumpi\n      mload(0x40)\n      0x08c379a000000000000000000000000000000000000000000000000000000000\n      dup2\n      mstore\n      0x04\n      add\n      tag_58\n      swap1\n      tag_59\n      jump\t// in\n    tag_58:\n      mload(0x40)\n      dup1\n      swap2\n      sub\n      swap1\n      revert\n    tag_57:\n        /* \"Final Project/FinalProject_Contract.sol\":3983:3984  0 */\n      0x00\n        /* \"Final Project/FinalProject_Contract.sol\":3963:3972  _fileName */\n      dup3\n        /* \"Final Project/FinalProject_Contract.sol\":3957:3980  bytes(_fileName).length */\n      mload\n        /* \"Final Project/FinalProject_Contract.sol\":3957:3984  bytes(_fileName).length > 0 */\n      gt\n        /* \"Final Project/FinalProject_Contract.sol\":3949:4010  require(bytes(_fileName).length > 0, \"File Name is required\") */\n      tag_60\n      jumpi\n      mload(0x40)\n      0x08c379a000000000000000000000000000000000000000000000000000000000\n      dup2\n      mstore\n      0x04\n      add\n      tag_61\n      swap1\n      tag_62\n      jump\t// in\n    tag_61:\n      mload(0x40)\n      dup1\n      swap2\n      sub\n      swap1\n      revert\n    tag_60:\n        /* \"Final Project/FinalProject_Contract.sol\":4054:4055  0 */\n      0x00\n        /* \"Final Project/FinalProject_Contract.sol\":4035:4043  _subject */\n      dup2\n        /* \"Final Project/FinalProject_Contract.sol\":4029:4051  bytes(_subject).length */\n      mload\n        /* \"Final Project/FinalProject_Contract.sol\":4029:4055  bytes(_subject).length > 0 */\n      gt\n        /* \"Final Project/FinalProject_Contract.sol\":4021:4079  require(bytes(_subject).length > 0, \"Subject is required\") */\n      tag_63\n      jumpi\n      mload(0x40)\n      0x08c379a000000000000000000000000000000000000000000000000000000000\n      dup2\n      mstore\n      0x04\n      add\n      tag_64\n      swap1\n      tag_65\n      jump\t// in\n    tag_64:\n      mload(0x40)\n      dup1\n      swap2\n      sub\n      swap1\n      revert\n    tag_63:\n        /* \"Final Project/FinalProject_Contract.sol\":4173:4182  fileCount */\n      0x00\n      0x00\n        /* \"Final Project/FinalProject_Contract.sol\":4173:4184  fileCount++ */\n      dup2\n      sload\n      dup1\n      swap3\n      swap2\n      swap1\n      tag_66\n      swap1\n      tag_67\n      jump\t// in\n    tag_66:\n      swap2\n      swap1\n      pop\n      sstore\n      pop\n        /* \"Final Project/FinalProject_Contract.sol\":4277:4412  FileInfo(... */\n      mload(0x40)\n      dup1\n      0xa0\n      add\n      0x40\n      mstore\n      dup1\n        /* \"Final Project/FinalProject_Contract.sol\":4300:4309  fileCount */\n      sload(0x00)\n        /* \"Final Project/FinalProject_Contract.sol\":4277:4412  FileInfo(... */\n      dup2\n      mstore\n      0x20\n      add\n        /* \"Final Project/FinalProject_Contract.sol\":4324:4329  _ipfs */\n      dup5\n        /* \"Final Project/FinalProject_Contract.sol\":4277:4412  FileInfo(... */\n      dup2\n      mstore\n      0x20\n      add\n        /* \"Final Project/FinalProject_Contract.sol\":4344:4352  _subject */\n      dup3\n        /* \"Final Project/FinalProject_Contract.sol\":4277:4412  FileInfo(... */\n      dup2\n      mstore\n      0x20\n      add\n        /* \"Final Project/FinalProject_Contract.sol\":4367:4376  _fileName */\n      dup4\n        /* \"Final Project/FinalProject_Contract.sol\":4277:4412  FileInfo(... */\n      dup2\n      mstore\n      0x20\n      add\n        /* \"Final Project/FinalProject_Contract.sol\":4391:4401  msg.sender */\n      caller\n        /* \"Final Project/FinalProject_Contract.sol\":4277:4412  FileInfo(... */\n      0xffffffffffffffffffffffffffffffffffffffff\n      and\n      dup2\n      mstore\n      pop\n        /* \"Final Project/FinalProject_Contract.sol\":4258:4263  files */\n      0x01\n        /* \"Final Project/FinalProject_Contract.sol\":4258:4274  files[fileCount] */\n      0x00\n        /* \"Final Project/FinalProject_Contract.sol\":4264:4273  fileCount */\n      sload(0x00)\n        /* \"Final Project/FinalProject_Contract.sol\":4258:4274  files[fileCount] */\n      dup2\n      mstore\n      0x20\n      add\n      swap1\n      dup2\n      mstore\n      0x20\n      add\n      0x00\n      keccak256\n        /* \"Final Project/FinalProject_Contract.sol\":4258:4412  files[fileCount] = FileInfo(... */\n      0x00\n      dup3\n      add\n      mload\n      dup2\n      0x00\n      add\n      sstore\n      0x20\n      dup3\n      add\n      mload\n      dup2\n      0x01\n      add\n      swap1\n      dup2\n      tag_68\n      swap2\n      swap1\n      tag_69\n      jump\t// in\n    tag_68:\n      pop\n      0x40\n      dup3\n      add\n      mload\n      dup2\n      0x02\n      add\n      swap1\n      dup2\n      tag_70\n      swap2\n      swap1\n      tag_69\n      jump\t// in\n    tag_70:\n      pop\n      0x60\n      dup3\n      add\n      mload\n      dup2\n      0x03\n      add\n      swap1\n      dup2\n      tag_71\n      swap2\n      swap1\n      tag_69\n      jump\t// in\n    tag_71:\n      pop\n      0x80\n      dup3\n      add\n      mload\n      dup2\n      0x04\n      add\n      exp(0x0100, 0x00)\n      dup2\n      sload\n      dup2\n      0xffffffffffffffffffffffffffffffffffffffff\n      mul\n      not\n      and\n      swap1\n      dup4\n      0xffffffffffffffffffffffffffffffffffffffff\n      and\n      mul\n      or\n      swap1\n      sstore\n      pop\n      swap1\n      pop\n      pop\n        /* \"Final Project/FinalProject_Contract.sol\":4489:4497  _courses */\n      0x02\n        /* \"Final Project/FinalProject_Contract.sol\":4498:4506  _subject */\n      dup2\n        /* \"Final Project/FinalProject_Contract.sol\":4489:4507  _courses[_subject] */\n      mload(0x40)\n      tag_72\n      swap2\n      swap1\n      tag_73\n      jump\t// in\n    tag_72:\n      swap1\n      dup2\n      mstore\n      0x20\n      add\n      mload(0x40)\n      dup1\n      swap2\n      sub\n      swap1\n      keccak256\n        /* \"Final Project/FinalProject_Contract.sol\":4513:4522  fileCount */\n      sload(0x00)\n        /* \"Final Project/FinalProject_Contract.sol\":4489:4523  _courses[_subject].push(fileCount) */\n      swap1\n      dup1\n      0x01\n      dup2\n      sload\n      add\n      dup1\n      dup3\n      sstore\n      dup1\n      swap2\n      pop\n      pop\n      0x01\n      swap1\n      sub\n      swap1\n      0x00\n      mstore\n      keccak256(0x00, 0x20)\n      add\n      0x00\n      swap1\n      swap2\n      swap1\n      swap2\n      swap1\n      swap2\n      pop\n      sstore\n        /* \"Final Project/FinalProject_Contract.sol\":4638:4648  msg.sender */\n      caller\n        /* \"Final Project/FinalProject_Contract.sol\":4586:4649  FileUploaded(fileCount, _ipfs, _subject, _fileName, msg.sender) */\n      0xffffffffffffffffffffffffffffffffffffffff\n      and\n        /* \"Final Project/FinalProject_Contract.sol\":4617:4625  _subject */\n      dup2\n        /* \"Final Project/FinalProject_Contract.sol\":4586:4649  FileUploaded(fileCount, _ipfs, _subject, _fileName, msg.sender) */\n      mload(0x40)\n      tag_75\n      swap2\n      swap1\n      tag_73\n      jump\t// in\n    tag_75:\n      mload(0x40)\n      dup1\n      swap2\n      sub\n      swap1\n      keccak256\n      0xa840b93cbcb6e31291b2769d43a3ae3e9518b9eddbf4bc0737e3073f93476e0e\n        /* \"Final Project/FinalProject_Contract.sol\":4599:4608  fileCount */\n      sload(0x00)\n        /* \"Final Project/FinalProject_Contract.sol\":4610:4615  _ipfs */\n      dup7\n        /* \"Final Project/FinalProject_Contract.sol\":4627:4636  _fileName */\n      dup7\n        /* \"Final Project/FinalProject_Contract.sol\":4586:4649  FileUploaded(fileCount, _ipfs, _subject, _fileName, msg.sender) */\n      mload(0x40)\n      tag_76\n      swap4\n      swap3\n      swap2\n      swap1\n      tag_77\n      jump\t// in\n    tag_76:\n      mload(0x40)\n      dup1\n      swap2\n      sub\n      swap1\n      log3\n        /* \"Final Project/FinalProject_Contract.sol\":3773:4657  function uploadFile(string memory _ipfs, string memory _fileName, string memory _subject) public {... */\n      pop\n      pop\n      pop\n      jump\t// out\n        /* \"Final Project/FinalProject_Contract.sol\":5514:6045  function getCourse(string memory _subject) public view returns (FileSummary[] memory){... */\n    tag_25:\n        /* \"Final Project/FinalProject_Contract.sol\":5578:5598  FileSummary[] memory */\n      0x60\n        /* \"Final Project/FinalProject_Contract.sol\":5610:5630  uint256[] memory ids */\n      0x00\n        /* \"Final Project/FinalProject_Contract.sol\":5633:5641  _courses */\n      0x02\n        /* \"Final Project/FinalProject_Contract.sol\":5642:5650  _subject */\n      dup4\n        /* \"Final Project/FinalProject_Contract.sol\":5633:5651  _courses[_subject] */\n      mload(0x40)\n      tag_79\n      swap2\n      swap1\n      tag_73\n      jump\t// in\n    tag_79:\n      swap1\n      dup2\n      mstore\n      0x20\n      add\n      mload(0x40)\n      dup1\n      swap2\n      sub\n      swap1\n      keccak256\n        /* \"Final Project/FinalProject_Contract.sol\":5610:5651  uint256[] memory ids = _courses[_subject] */\n      dup1\n      sload\n      dup1\n      0x20\n      mul\n      0x20\n      add\n      mload(0x40)\n      swap1\n      dup2\n      add\n      0x40\n      mstore\n      dup1\n      swap3\n      swap2\n      swap1\n      dup2\n      dup2\n      mstore\n      0x20\n      add\n      dup3\n      dup1\n      sload\n      dup1\n      iszero\n      tag_80\n      jumpi\n      0x20\n      mul\n      dup3\n      add\n      swap2\n      swap1\n      0x00\n      mstore\n      keccak256(0x00, 0x20)\n      swap1\n    tag_81:\n      dup2\n      sload\n      dup2\n      mstore\n      0x20\n      add\n      swap1\n      0x01\n      add\n      swap1\n      dup1\n      dup4\n      gt\n      tag_81\n      jumpi\n    tag_80:\n      pop\n      pop\n      pop\n      pop\n      pop\n      swap1\n      pop\n        /* \"Final Project/FinalProject_Contract.sol\":5719:5746  FileSummary[] memory result */\n      0x00\n        /* \"Final Project/FinalProject_Contract.sol\":5767:5770  ids */\n      dup2\n        /* \"Final Project/FinalProject_Contract.sol\":5767:5777  ids.length */\n      mload\n        /* \"Final Project/FinalProject_Contract.sol\":5749:5778  new FileSummary[](ids.length) */\n      0xffffffffffffffff\n      dup2\n      gt\n      iszero\n      tag_82\n      jumpi\n      tag_83\n      tag_84\n      jump\t// in\n    tag_83:\n    tag_82:\n      mload(0x40)\n      swap1\n      dup1\n      dup3\n      mstore\n      dup1\n      0x20\n      mul\n      0x20\n      add\n      dup3\n      add\n      0x40\n      mstore\n      dup1\n      iszero\n      tag_85\n      jumpi\n      dup2\n      0x20\n      add\n    tag_86:\n      tag_87\n      tag_88\n      jump\t// in\n    tag_87:\n      dup2\n      mstore\n      0x20\n      add\n      swap1\n      0x01\n      swap1\n      sub\n      swap1\n      dup2\n      tag_86\n      jumpi\n      swap1\n      pop\n    tag_85:\n      pop\n        /* \"Final Project/FinalProject_Contract.sol\":5719:5778  FileSummary[] memory result = new FileSummary[](ids.length) */\n      swap1\n      pop\n        /* \"Final Project/FinalProject_Contract.sol\":5853:5859  uint i */\n      0x00\n        /* \"Final Project/FinalProject_Contract.sol\":5862:5863  0 */\n      0x00\n        /* \"Final Project/FinalProject_Contract.sol\":5853:5863  uint i = 0 */\n      swap1\n      pop\n        /* \"Final Project/FinalProject_Contract.sol\":5848:6012  for (uint i = 0; i < ids.length; i++) {... */\n    tag_89:\n        /* \"Final Project/FinalProject_Contract.sol\":5869:5872  ids */\n      dup3\n        /* \"Final Project/FinalProject_Contract.sol\":5869:5879  ids.length */\n      mload\n        /* \"Final Project/FinalProject_Contract.sol\":5865:5866  i */\n      dup2\n        /* \"Final Project/FinalProject_Contract.sol\":5865:5879  i < ids.length */\n      lt\n        /* \"Final Project/FinalProject_Contract.sol\":5848:6012  for (uint i = 0; i < ids.length; i++) {... */\n      iszero\n      tag_90\n      jumpi\n        /* \"Final Project/FinalProject_Contract.sol\":5901:5915  uint currentId */\n      0x00\n        /* \"Final Project/FinalProject_Contract.sol\":5918:5921  ids */\n      dup4\n        /* \"Final Project/FinalProject_Contract.sol\":5922:5923  i */\n      dup3\n        /* \"Final Project/FinalProject_Contract.sol\":5918:5924  ids[i] */\n      dup2\n      mload\n      dup2\n      lt\n      tag_92\n      jumpi\n      tag_93\n      tag_94\n      jump\t// in\n    tag_93:\n    tag_92:\n      0x20\n      mul\n      0x20\n      add\n      add\n      mload\n        /* \"Final Project/FinalProject_Contract.sol\":5901:5924  uint currentId = ids[i] */\n      swap1\n      pop\n        /* \"Final Project/FinalProject_Contract.sol\":5951:6000  FileSummary(currentId, files[currentId].fileName) */\n      mload(0x40)\n      dup1\n      0x40\n      add\n      0x40\n      mstore\n      dup1\n        /* \"Final Project/FinalProject_Contract.sol\":5963:5972  currentId */\n      dup3\n        /* \"Final Project/FinalProject_Contract.sol\":5951:6000  FileSummary(currentId, files[currentId].fileName) */\n      dup2\n      mstore\n      0x20\n      add\n        /* \"Final Project/FinalProject_Contract.sol\":5974:5979  files */\n      0x01\n        /* \"Final Project/FinalProject_Contract.sol\":5974:5990  files[currentId] */\n      0x00\n        /* \"Final Project/FinalProject_Contract.sol\":5980:5989  currentId */\n      dup5\n        /* \"Final Project/FinalProject_Contract.sol\":5974:5990  files[currentId] */\n      dup2\n      mstore\n      0x20\n      add\n      swap1\n      dup2\n      mstore\n      0x20\n      add\n      0x00\n      keccak256\n        /* \"Final Project/FinalProject_Contract.sol\":5974:5999  files[currentId].fileName */\n      0x03\n      add\n        /* \"Final Project/FinalProject_Contract.sol\":5951:6000  FileSummary(currentId, files[currentId].fileName) */\n      dup1\n      sload\n      tag_95\n      swap1\n      tag_37\n      jump\t// in\n    tag_95:\n      dup1\n      0x1f\n      add\n      0x20\n      dup1\n      swap2\n      div\n      mul\n      0x20\n      add\n      mload(0x40)\n      swap1\n      dup2\n      add\n      0x40\n      mstore\n      dup1\n      swap3\n      swap2\n      swap1\n      dup2\n      dup2\n      mstore\n      0x20\n      add\n      dup3\n      dup1\n      sload\n      tag_96\n      swap1\n      tag_37\n      jump\t// in\n    tag_96:\n      dup1\n      iszero\n      tag_97\n      jumpi\n      dup1\n      0x1f\n      lt\n      tag_98\n      jumpi\n      0x0100\n      dup1\n      dup4\n      sload\n      div\n      mul\n      dup4\n      mstore\n      swap2\n      0x20\n      add\n      swap2\n      jump(tag_97)\n    tag_98:\n      dup3\n      add\n      swap2\n      swap1\n      0x00\n      mstore\n      keccak256(0x00, 0x20)\n      swap1\n    tag_99:\n      dup2\n      sload\n      dup2\n      mstore\n      swap1\n      0x01\n      add\n      swap1\n      0x20\n      add\n      dup1\n      dup4\n      gt\n      tag_99\n      jumpi\n      dup3\n      swap1\n      sub\n      0x1f\n      and\n      dup3\n      add\n      swap2\n    tag_97:\n      pop\n      pop\n      pop\n      pop\n      pop\n      dup2\n      mstore\n      pop\n        /* \"Final Project/FinalProject_Contract.sol\":5939:5945  result */\n      dup4\n        /* \"Final Project/FinalProject_Contract.sol\":5946:5947  i */\n      dup4\n        /* \"Final Project/FinalProject_Contract.sol\":5939:5948  result[i] */\n      dup2\n      mload\n      dup2\n      lt\n      tag_100\n      jumpi\n      tag_101\n      tag_94\n      jump\t// in\n    tag_101:\n    tag_100:\n      0x20\n      mul\n      0x20\n      add\n      add\n        /* \"Final Project/FinalProject_Contract.sol\":5939:6000  result[i] = FileSummary(currentId, files[currentId].fileName) */\n      dup2\n      swap1\n      mstore\n      pop\n        /* \"Final Project/FinalProject_Contract.sol\":5886:6012  {... */\n      pop\n        /* \"Final Project/FinalProject_Contract.sol\":5881:5884  i++ */\n      dup1\n      dup1\n      0x01\n      add\n      swap2\n      pop\n      pop\n        /* \"Final Project/FinalProject_Contract.sol\":5848:6012  for (uint i = 0; i < ids.length; i++) {... */\n      jump(tag_89)\n    tag_90:\n      pop\n        /* \"Final Project/FinalProject_Contract.sol\":6031:6037  result */\n      dup1\n        /* \"Final Project/FinalProject_Contract.sol\":6024:6037  return result */\n      swap3\n      pop\n      pop\n      pop\n        /* \"Final Project/FinalProject_Contract.sol\":5514:6045  function getCourse(string memory _subject) public view returns (FileSummary[] memory){... */\n      swap2\n      swap1\n      pop\n      jump\t// out\n        /* \"Final Project/FinalProject_Contract.sol\":2105:2146  mapping(uint256 => FileInfo) public files */\n    tag_30:\n      mstore(0x20, 0x01)\n      dup1\n      0x00\n      mstore\n      keccak256(0x00, 0x40)\n      0x00\n      swap2\n      pop\n      swap1\n      pop\n      dup1\n      0x00\n      add\n      sload\n      swap1\n      dup1\n      0x01\n      add\n      dup1\n      sload\n      tag_102\n      swap1\n      tag_37\n      jump\t// in\n    tag_102:\n      dup1\n      0x1f\n      add\n      0x20\n      dup1\n      swap2\n      div\n      mul\n      0x20\n      add\n      mload(0x40)\n      swap1\n      dup2\n      add\n      0x40\n      mstore\n      dup1\n      swap3\n      swap2\n      swap1\n      dup2\n      dup2\n      mstore\n      0x20\n      add\n      dup3\n      dup1\n      sload\n      tag_103\n      swap1\n      tag_37\n      jump\t// in\n    tag_103:\n      dup1\n      iszero\n      tag_104\n      jumpi\n      dup1\n      0x1f\n      lt\n      tag_105\n      jumpi\n      0x0100\n      dup1\n      dup4\n      sload\n      div\n      mul\n      dup4\n      mstore\n      swap2\n      0x20\n      add\n      swap2\n      jump(tag_104)\n    tag_105:\n      dup3\n      add\n      swap2\n      swap1\n      0x00\n      mstore\n      keccak256(0x00, 0x20)\n      swap1\n    tag_106:\n      dup2\n      sload\n      dup2\n      mstore\n      swap1\n      0x01\n      add\n      swap1\n      0x20\n      add\n      dup1\n      dup4\n      gt\n      tag_106\n      jumpi\n      dup3\n      swap1\n      sub\n      0x1f\n      and\n      dup3\n      add\n      swap2\n    tag_104:\n      pop\n      pop\n      pop\n      pop\n      pop\n      swap1\n      dup1\n      0x02\n      add\n      dup1\n      sload\n      tag_107\n      swap1\n      tag_37\n      jump\t// in\n    tag_107:\n      dup1\n      0x1f\n      add\n      0x20\n      dup1\n      swap2\n      div\n      mul\n      0x20\n      add\n      mload(0x40)\n      swap1\n      dup2\n      add\n      0x40\n      mstore\n      dup1\n      swap3\n      swap2\n      swap1\n      dup2\n      dup2\n      mstore\n      0x20\n      add\n      dup3\n      dup1\n      sload\n      tag_108\n      swap1\n      tag_37\n      jump\t// in\n    tag_108:\n      dup1\n      iszero\n      tag_109\n      jumpi\n      dup1\n      0x1f\n      lt\n      tag_110\n      jumpi\n      0x0100\n      dup1\n      dup4\n      sload\n      div\n      mul\n      dup4\n      mstore\n      swap2\n      0x20\n      add\n      swap2\n      jump(tag_109)\n    tag_110:\n      dup3\n      add\n      swap2\n      swap1\n      0x00\n      mstore\n      keccak256(0x00, 0x20)\n      swap1\n    tag_111:\n      dup2\n      sload\n      dup2\n      mstore\n      swap1\n      0x01\n      add\n      swap1\n      0x20\n      add\n      dup1\n      dup4\n      gt\n      tag_111\n      jumpi\n      dup3\n      swap1\n      sub\n      0x1f\n      and\n      dup3\n      add\n      swap2\n    tag_109:\n      pop\n      pop\n      pop\n      pop\n      pop\n      swap1\n      dup1\n      0x03\n      add\n      dup1\n      sload\n      tag_112\n      swap1\n      tag_37\n      jump\t// in\n    tag_112:\n      dup1\n      0x1f\n      add\n      0x20\n      dup1\n      swap2\n      div\n      mul\n      0x20\n      add\n      mload(0x40)\n      swap1\n      dup2\n      add\n      0x40\n      mstore\n      dup1\n      swap3\n      swap2\n      swap1\n      dup2\n      dup2\n      mstore\n      0x20\n      add\n      dup3\n      dup1\n      sload\n      tag_113\n      swap1\n      tag_37\n      jump\t// in\n    tag_113:\n      dup1\n      iszero\n      tag_114\n      jumpi\n      dup1\n      0x1f\n      lt\n      tag_115\n      jumpi\n      0x0100\n      dup1\n      dup4\n      sload\n      div\n      mul\n      dup4\n      mstore\n      swap2\n      0x20\n      add\n      swap2\n      jump(tag_114)\n    tag_115:\n      dup3\n      add\n      swap2\n      swap1\n      0x00\n      mstore\n      keccak256(0x00, 0x20)\n      swap1\n    tag_116:\n      dup2\n      sload\n      dup2\n      mstore\n      swap1\n      0x01\n      add\n      swap1\n      0x20\n      add\n      dup1\n      dup4\n      gt\n      tag_116\n      jumpi\n      dup3\n      swap1\n      sub\n      0x1f\n      and\n      dup3\n      add\n      swap2\n    tag_114:\n      pop\n      pop\n      pop\n      pop\n      pop\n      swap1\n      dup1\n      0x04\n      add\n      0x00\n      swap1\n      sload\n      swap1\n      0x0100\n      exp\n      swap1\n      div\n      0xffffffffffffffffffffffffffffffffffffffff\n      and\n      swap1\n      pop\n      dup6\n      jump\t// out\n    tag_34:\n      mload(0x40)\n      dup1\n      0xa0\n      add\n      0x40\n      mstore\n      dup1\n      0x00\n      dup2\n      mstore\n      0x20\n      add\n      0x60\n      dup2\n      mstore\n      0x20\n      add\n      0x60\n      dup2\n      mstore\n      0x20\n      add\n      0x60\n      dup2\n      mstore\n      0x20\n      add\n      and(0xffffffffffffffffffffffffffffffffffffffff, 0x00)\n      dup2\n      mstore\n      pop\n      swap1\n      jump\t// out\n    tag_88:\n      mload(0x40)\n      dup1\n      0x40\n      add\n      0x40\n      mstore\n      dup1\n      0x00\n      dup2\n      mstore\n      0x20\n      add\n      0x60\n      dup2\n      mstore\n      pop\n      swap1\n      jump\t// out\n        /* \"#utility.yul\":7:82   */\n    tag_117:\n        /* \"#utility.yul\":40:46   */\n      0x00\n        /* \"#utility.yul\":73:75   */\n      0x40\n        /* \"#utility.yul\":67:76   */\n      mload\n        /* \"#utility.yul\":57:76   */\n      swap1\n      pop\n        /* \"#utility.yul\":7:82   */\n      swap1\n      jump\t// out\n        /* \"#utility.yul\":88:205   */\n    tag_118:\n        /* \"#utility.yul\":197:198   */\n      0x00\n        /* \"#utility.yul\":194:195   */\n      0x00\n        /* \"#utility.yul\":187:199   */\n      revert\n        /* \"#utility.yul\":211:328   */\n    tag_119:\n        /* \"#utility.yul\":320:321   */\n      0x00\n        /* \"#utility.yul\":317:318   */\n      0x00\n        /* \"#utility.yul\":310:322   */\n      revert\n        /* \"#utility.yul\":334:411   */\n    tag_120:\n        /* \"#utility.yul\":371:378   */\n      0x00\n        /* \"#utility.yul\":400:405   */\n      dup2\n        /* \"#utility.yul\":389:405   */\n      swap1\n      pop\n        /* \"#utility.yul\":334:411   */\n      swap2\n      swap1\n      pop\n      jump\t// out\n        /* \"#utility.yul\":417:539   */\n    tag_121:\n        /* \"#utility.yul\":490:514   */\n      tag_183\n        /* \"#utility.yul\":508:513   */\n      dup2\n        /* \"#utility.yul\":490:514   */\n      tag_120\n      jump\t// in\n    tag_183:\n        /* \"#utility.yul\":483:488   */\n      dup2\n        /* \"#utility.yul\":480:515   */\n      eq\n        /* \"#utility.yul\":470:533   */\n      tag_184\n      jumpi\n        /* \"#utility.yul\":529:530   */\n      0x00\n        /* \"#utility.yul\":526:527   */\n      0x00\n        /* \"#utility.yul\":519:531   */\n      revert\n        /* \"#utility.yul\":470:533   */\n    tag_184:\n        /* \"#utility.yul\":417:539   */\n      pop\n      jump\t// out\n        /* \"#utility.yul\":545:684   */\n    tag_122:\n        /* \"#utility.yul\":591:596   */\n      0x00\n        /* \"#utility.yul\":629:635   */\n      dup2\n        /* \"#utility.yul\":616:636   */\n      calldataload\n        /* \"#utility.yul\":607:636   */\n      swap1\n      pop\n        /* \"#utility.yul\":645:678   */\n      tag_186\n        /* \"#utility.yul\":672:677   */\n      dup2\n        /* \"#utility.yul\":645:678   */\n      tag_121\n      jump\t// in\n    tag_186:\n        /* \"#utility.yul\":545:684   */\n      swap3\n      swap2\n      pop\n      pop\n      jump\t// out\n        /* \"#utility.yul\":690:1019   */\n    tag_10:\n        /* \"#utility.yul\":749:755   */\n      0x00\n        /* \"#utility.yul\":798:800   */\n      0x20\n        /* \"#utility.yul\":786:795   */\n      dup3\n        /* \"#utility.yul\":777:784   */\n      dup5\n        /* \"#utility.yul\":773:796   */\n      sub\n        /* \"#utility.yul\":769:801   */\n      slt\n        /* \"#utility.yul\":766:885   */\n      iszero\n      tag_188\n      jumpi\n        /* \"#utility.yul\":804:883   */\n      tag_189\n      tag_118\n      jump\t// in\n    tag_189:\n        /* \"#utility.yul\":766:885   */\n    tag_188:\n        /* \"#utility.yul\":924:925   */\n      0x00\n        /* \"#utility.yul\":949:1002   */\n      tag_190\n        /* \"#utility.yul\":994:1001   */\n      dup5\n        /* \"#utility.yul\":985:991   */\n      dup3\n        /* \"#utility.yul\":974:983   */\n      dup6\n        /* \"#utility.yul\":970:992   */\n      add\n        /* \"#utility.yul\":949:1002   */\n      tag_122\n      jump\t// in\n    tag_190:\n        /* \"#utility.yul\":939:1002   */\n      swap2\n      pop\n        /* \"#utility.yul\":895:1012   */\n      pop\n        /* \"#utility.yul\":690:1019   */\n      swap3\n      swap2\n      pop\n      pop\n      jump\t// out\n        /* \"#utility.yul\":1025:1133   */\n    tag_123:\n        /* \"#utility.yul\":1102:1126   */\n      tag_192\n        /* \"#utility.yul\":1120:1125   */\n      dup2\n        /* \"#utility.yul\":1102:1126   */\n      tag_120\n      jump\t// in\n    tag_192:\n        /* \"#utility.yul\":1097:1100   */\n      dup3\n        /* \"#utility.yul\":1090:1127   */\n      mstore\n        /* \"#utility.yul\":1025:1133   */\n      pop\n      pop\n      jump\t// out\n        /* \"#utility.yul\":1139:1238   */\n    tag_124:\n        /* \"#utility.yul\":1191:1197   */\n      0x00\n        /* \"#utility.yul\":1225:1230   */\n      dup2\n        /* \"#utility.yul\":1219:1231   */\n      mload\n        /* \"#utility.yul\":1209:1231   */\n      swap1\n      pop\n        /* \"#utility.yul\":1139:1238   */\n      swap2\n      swap1\n      pop\n      jump\t// out\n        /* \"#utility.yul\":1244:1403   */\n    tag_125:\n        /* \"#utility.yul\":1318:1329   */\n      0x00\n        /* \"#utility.yul\":1352:1358   */\n      dup3\n        /* \"#utility.yul\":1347:1350   */\n      dup3\n        /* \"#utility.yul\":1340:1359   */\n      mstore\n        /* \"#utility.yul\":1392:1396   */\n      0x20\n        /* \"#utility.yul\":1387:1390   */\n      dup3\n        /* \"#utility.yul\":1383:1397   */\n      add\n        /* \"#utility.yul\":1368:1397   */\n      swap1\n      pop\n        /* \"#utility.yul\":1244:1403   */\n      swap3\n      swap2\n      pop\n      pop\n      jump\t// out\n        /* \"#utility.yul\":1409:1548   */\n    tag_126:\n        /* \"#utility.yul\":1498:1504   */\n      dup3\n        /* \"#utility.yul\":1493:1496   */\n      dup2\n        /* \"#utility.yul\":1488:1491   */\n      dup4\n        /* \"#utility.yul\":1482:1505   */\n      mcopy\n        /* \"#utility.yul\":1539:1540   */\n      0x00\n        /* \"#utility.yul\":1530:1536   */\n      dup4\n        /* \"#utility.yul\":1525:1528   */\n      dup4\n        /* \"#utility.yul\":1521:1537   */\n      add\n        /* \"#utility.yul\":1514:1541   */\n      mstore\n        /* \"#utility.yul\":1409:1548   */\n      pop\n      pop\n      pop\n      jump\t// out\n        /* \"#utility.yul\":1554:1656   */\n    tag_127:\n        /* \"#utility.yul\":1595:1601   */\n      0x00\n        /* \"#utility.yul\":1646:1648   */\n      0x1f\n        /* \"#utility.yul\":1642:1649   */\n      not\n        /* \"#utility.yul\":1637:1639   */\n      0x1f\n        /* \"#utility.yul\":1630:1635   */\n      dup4\n        /* \"#utility.yul\":1626:1640   */\n      add\n        /* \"#utility.yul\":1622:1650   */\n      and\n        /* \"#utility.yul\":1612:1650   */\n      swap1\n      pop\n        /* \"#utility.yul\":1554:1656   */\n      swap2\n      swap1\n      pop\n      jump\t// out\n        /* \"#utility.yul\":1662:2019   */\n    tag_128:\n        /* \"#utility.yul\":1740:1743   */\n      0x00\n        /* \"#utility.yul\":1768:1807   */\n      tag_198\n        /* \"#utility.yul\":1801:1806   */\n      dup3\n        /* \"#utility.yul\":1768:1807   */\n      tag_124\n      jump\t// in\n    tag_198:\n        /* \"#utility.yul\":1823:1884   */\n      tag_199\n        /* \"#utility.yul\":1877:1883   */\n      dup2\n        /* \"#utility.yul\":1872:1875   */\n      dup6\n        /* \"#utility.yul\":1823:1884   */\n      tag_125\n      jump\t// in\n    tag_199:\n        /* \"#utility.yul\":1816:1884   */\n      swap4\n      pop\n        /* \"#utility.yul\":1893:1958   */\n      tag_200\n        /* \"#utility.yul\":1951:1957   */\n      dup2\n        /* \"#utility.yul\":1946:1949   */\n      dup6\n        /* \"#utility.yul\":1939:1943   */\n      0x20\n        /* \"#utility.yul\":1932:1937   */\n      dup7\n        /* \"#utility.yul\":1928:1944   */\n      add\n        /* \"#utility.yul\":1893:1958   */\n      tag_126\n      jump\t// in\n    tag_200:\n        /* \"#utility.yul\":1983:2012   */\n      tag_201\n        /* \"#utility.yul\":2005:2011   */\n      dup2\n        /* \"#utility.yul\":1983:2012   */\n      tag_127\n      jump\t// in\n    tag_201:\n        /* \"#utility.yul\":1978:1981   */\n      dup5\n        /* \"#utility.yul\":1974:2013   */\n      add\n        /* \"#utility.yul\":1967:2013   */\n      swap2\n      pop\n        /* \"#utility.yul\":1744:2019   */\n      pop\n        /* \"#utility.yul\":1662:2019   */\n      swap3\n      swap2\n      pop\n      pop\n      jump\t// out\n        /* \"#utility.yul\":2025:2151   */\n    tag_129:\n        /* \"#utility.yul\":2062:2069   */\n      0x00\n        /* \"#utility.yul\":2102:2144   */\n      0xffffffffffffffffffffffffffffffffffffffff\n        /* \"#utility.yul\":2095:2100   */\n      dup3\n        /* \"#utility.yul\":2091:2145   */\n      and\n        /* \"#utility.yul\":2080:2145   */\n      swap1\n      pop\n        /* \"#utility.yul\":2025:2151   */\n      swap2\n      swap1\n      pop\n      jump\t// out\n        /* \"#utility.yul\":2157:2253   */\n    tag_130:\n        /* \"#utility.yul\":2194:2201   */\n      0x00\n        /* \"#utility.yul\":2223:2247   */\n      tag_204\n        /* \"#utility.yul\":2241:2246   */\n      dup3\n        /* \"#utility.yul\":2223:2247   */\n      tag_129\n      jump\t// in\n    tag_204:\n        /* \"#utility.yul\":2212:2247   */\n      swap1\n      pop\n        /* \"#utility.yul\":2157:2253   */\n      swap2\n      swap1\n      pop\n      jump\t// out\n        /* \"#utility.yul\":2259:2367   */\n    tag_131:\n        /* \"#utility.yul\":2336:2360   */\n      tag_206\n        /* \"#utility.yul\":2354:2359   */\n      dup2\n        /* \"#utility.yul\":2336:2360   */\n      tag_130\n      jump\t// in\n    tag_206:\n        /* \"#utility.yul\":2331:2334   */\n      dup3\n        /* \"#utility.yul\":2324:2361   */\n      mstore\n        /* \"#utility.yul\":2259:2367   */\n      pop\n      pop\n      jump\t// out\n        /* \"#utility.yul\":2441:3722   */\n    tag_132:\n        /* \"#utility.yul\":2558:2561   */\n      0x00\n        /* \"#utility.yul\":2594:2598   */\n      0xa0\n        /* \"#utility.yul\":2589:2592   */\n      dup4\n        /* \"#utility.yul\":2585:2599   */\n      add\n        /* \"#utility.yul\":2683:2687   */\n      0x00\n        /* \"#utility.yul\":2676:2681   */\n      dup4\n        /* \"#utility.yul\":2672:2688   */\n      add\n        /* \"#utility.yul\":2666:2689   */\n      mload\n        /* \"#utility.yul\":2702:2765   */\n      tag_208\n        /* \"#utility.yul\":2759:2763   */\n      0x00\n        /* \"#utility.yul\":2754:2757   */\n      dup7\n        /* \"#utility.yul\":2750:2764   */\n      add\n        /* \"#utility.yul\":2736:2748   */\n      dup3\n        /* \"#utility.yul\":2702:2765   */\n      tag_123\n      jump\t// in\n    tag_208:\n        /* \"#utility.yul\":2609:2775   */\n      pop\n        /* \"#utility.yul\":2857:2861   */\n      0x20\n        /* \"#utility.yul\":2850:2855   */\n      dup4\n        /* \"#utility.yul\":2846:2862   */\n      add\n        /* \"#utility.yul\":2840:2863   */\n      mload\n        /* \"#utility.yul\":2910:2913   */\n      dup5\n        /* \"#utility.yul\":2904:2908   */\n      dup3\n        /* \"#utility.yul\":2900:2914   */\n      sub\n        /* \"#utility.yul\":2893:2897   */\n      0x20\n        /* \"#utility.yul\":2888:2891   */\n      dup7\n        /* \"#utility.yul\":2884:2898   */\n      add\n        /* \"#utility.yul\":2877:2915   */\n      mstore\n        /* \"#utility.yul\":2936:3009   */\n      tag_209\n        /* \"#utility.yul\":3004:3008   */\n      dup3\n        /* \"#utility.yul\":2990:3002   */\n      dup3\n        /* \"#utility.yul\":2936:3009   */\n      tag_128\n      jump\t// in\n    tag_209:\n        /* \"#utility.yul\":2928:3009   */\n      swap2\n      pop\n        /* \"#utility.yul\":2785:3020   */\n      pop\n        /* \"#utility.yul\":3105:3109   */\n      0x40\n        /* \"#utility.yul\":3098:3103   */\n      dup4\n        /* \"#utility.yul\":3094:3110   */\n      add\n        /* \"#utility.yul\":3088:3111   */\n      mload\n        /* \"#utility.yul\":3158:3161   */\n      dup5\n        /* \"#utility.yul\":3152:3156   */\n      dup3\n        /* \"#utility.yul\":3148:3162   */\n      sub\n        /* \"#utility.yul\":3141:3145   */\n      0x40\n        /* \"#utility.yul\":3136:3139   */\n      dup7\n        /* \"#utility.yul\":3132:3146   */\n      add\n        /* \"#utility.yul\":3125:3163   */\n      mstore\n        /* \"#utility.yul\":3184:3257   */\n      tag_210\n        /* \"#utility.yul\":3252:3256   */\n      dup3\n        /* \"#utility.yul\":3238:3250   */\n      dup3\n        /* \"#utility.yul\":3184:3257   */\n      tag_128\n      jump\t// in\n    tag_210:\n        /* \"#utility.yul\":3176:3257   */\n      swap2\n      pop\n        /* \"#utility.yul\":3030:3268   */\n      pop\n        /* \"#utility.yul\":3354:3358   */\n      0x60\n        /* \"#utility.yul\":3347:3352   */\n      dup4\n        /* \"#utility.yul\":3343:3359   */\n      add\n        /* \"#utility.yul\":3337:3360   */\n      mload\n        /* \"#utility.yul\":3407:3410   */\n      dup5\n        /* \"#utility.yul\":3401:3405   */\n      dup3\n        /* \"#utility.yul\":3397:3411   */\n      sub\n        /* \"#utility.yul\":3390:3394   */\n      0x60\n        /* \"#utility.yul\":3385:3388   */\n      dup7\n        /* \"#utility.yul\":3381:3395   */\n      add\n        /* \"#utility.yul\":3374:3412   */\n      mstore\n        /* \"#utility.yul\":3433:3506   */\n      tag_211\n        /* \"#utility.yul\":3501:3505   */\n      dup3\n        /* \"#utility.yul\":3487:3499   */\n      dup3\n        /* \"#utility.yul\":3433:3506   */\n      tag_128\n      jump\t// in\n    tag_211:\n        /* \"#utility.yul\":3425:3506   */\n      swap2\n      pop\n        /* \"#utility.yul\":3278:3517   */\n      pop\n        /* \"#utility.yul\":3603:3607   */\n      0x80\n        /* \"#utility.yul\":3596:3601   */\n      dup4\n        /* \"#utility.yul\":3592:3608   */\n      add\n        /* \"#utility.yul\":3586:3609   */\n      mload\n        /* \"#utility.yul\":3622:3685   */\n      tag_212\n        /* \"#utility.yul\":3679:3683   */\n      0x80\n        /* \"#utility.yul\":3674:3677   */\n      dup7\n        /* \"#utility.yul\":3670:3684   */\n      add\n        /* \"#utility.yul\":3656:3668   */\n      dup3\n        /* \"#utility.yul\":3622:3685   */\n      tag_131\n      jump\t// in\n    tag_212:\n        /* \"#utility.yul\":3527:3695   */\n      pop\n        /* \"#utility.yul\":3712:3716   */\n      dup1\n        /* \"#utility.yul\":3705:3716   */\n      swap2\n      pop\n        /* \"#utility.yul\":2563:3722   */\n      pop\n        /* \"#utility.yul\":2441:3722   */\n      swap3\n      swap2\n      pop\n      pop\n      jump\t// out\n        /* \"#utility.yul\":3728:3897   */\n    tag_133:\n        /* \"#utility.yul\":3812:3823   */\n      0x00\n        /* \"#utility.yul\":3846:3852   */\n      dup3\n        /* \"#utility.yul\":3841:3844   */\n      dup3\n        /* \"#utility.yul\":3834:3853   */\n      mstore\n        /* \"#utility.yul\":3886:3890   */\n      0x20\n        /* \"#utility.yul\":3881:3884   */\n      dup3\n        /* \"#utility.yul\":3877:3891   */\n      add\n        /* \"#utility.yul\":3862:3891   */\n      swap1\n      pop\n        /* \"#utility.yul\":3728:3897   */\n      swap3\n      swap2\n      pop\n      pop\n      jump\t// out\n        /* \"#utility.yul\":3903:4280   */\n    tag_134:\n        /* \"#utility.yul\":3991:3994   */\n      0x00\n        /* \"#utility.yul\":4019:4058   */\n      tag_215\n        /* \"#utility.yul\":4052:4057   */\n      dup3\n        /* \"#utility.yul\":4019:4058   */\n      tag_124\n      jump\t// in\n    tag_215:\n        /* \"#utility.yul\":4074:4145   */\n      tag_216\n        /* \"#utility.yul\":4138:4144   */\n      dup2\n        /* \"#utility.yul\":4133:4136   */\n      dup6\n        /* \"#utility.yul\":4074:4145   */\n      tag_133\n      jump\t// in\n    tag_216:\n        /* \"#utility.yul\":4067:4145   */\n      swap4\n      pop\n        /* \"#utility.yul\":4154:4219   */\n      tag_217\n        /* \"#utility.yul\":4212:4218   */\n      dup2\n        /* \"#utility.yul\":4207:4210   */\n      dup6\n        /* \"#utility.yul\":4200:4204   */\n      0x20\n        /* \"#utility.yul\":4193:4198   */\n      dup7\n        /* \"#utility.yul\":4189:4205   */\n      add\n        /* \"#utility.yul\":4154:4219   */\n      tag_126\n      jump\t// in\n    tag_217:\n        /* \"#utility.yul\":4244:4273   */\n      tag_218\n        /* \"#utility.yul\":4266:4272   */\n      dup2\n        /* \"#utility.yul\":4244:4273   */\n      tag_127\n      jump\t// in\n    tag_218:\n        /* \"#utility.yul\":4239:4242   */\n      dup5\n        /* \"#utility.yul\":4235:4274   */\n      add\n        /* \"#utility.yul\":4228:4274   */\n      swap2\n      pop\n        /* \"#utility.yul\":3995:4280   */\n      pop\n        /* \"#utility.yul\":3903:4280   */\n      swap3\n      swap2\n      pop\n      pop\n      jump\t// out\n        /* \"#utility.yul\":4286:4856   */\n    tag_13:\n        /* \"#utility.yul\":4475:4479   */\n      0x00\n        /* \"#utility.yul\":4513:4515   */\n      0x40\n        /* \"#utility.yul\":4502:4511   */\n      dup3\n        /* \"#utility.yul\":4498:4516   */\n      add\n        /* \"#utility.yul\":4490:4516   */\n      swap1\n      pop\n        /* \"#utility.yul\":4562:4571   */\n      dup2\n        /* \"#utility.yul\":4556:4560   */\n      dup2\n        /* \"#utility.yul\":4552:4572   */\n      sub\n        /* \"#utility.yul\":4548:4549   */\n      0x00\n        /* \"#utility.yul\":4537:4546   */\n      dup4\n        /* \"#utility.yul\":4533:4550   */\n      add\n        /* \"#utility.yul\":4526:4573   */\n      mstore\n        /* \"#utility.yul\":4590:4696   */\n      tag_220\n        /* \"#utility.yul\":4691:4695   */\n      dup2\n        /* \"#utility.yul\":4682:4688   */\n      dup6\n        /* \"#utility.yul\":4590:4696   */\n      tag_132\n      jump\t// in\n    tag_220:\n        /* \"#utility.yul\":4582:4696   */\n      swap1\n      pop\n        /* \"#utility.yul\":4743:4752   */\n      dup2\n        /* \"#utility.yul\":4737:4741   */\n      dup2\n        /* \"#utility.yul\":4733:4753   */\n      sub\n        /* \"#utility.yul\":4728:4730   */\n      0x20\n        /* \"#utility.yul\":4717:4726   */\n      dup4\n        /* \"#utility.yul\":4713:4731   */\n      add\n        /* \"#utility.yul\":4706:4754   */\n      mstore\n        /* \"#utility.yul\":4771:4849   */\n      tag_221\n        /* \"#utility.yul\":4844:4848   */\n      dup2\n        /* \"#utility.yul\":4835:4841   */\n      dup5\n        /* \"#utility.yul\":4771:4849   */\n      tag_134\n      jump\t// in\n    tag_221:\n        /* \"#utility.yul\":4763:4849   */\n      swap1\n      pop\n        /* \"#utility.yul\":4286:4856   */\n      swap4\n      swap3\n      pop\n      pop\n      pop\n      jump\t// out\n        /* \"#utility.yul\":4862:4980   */\n    tag_135:\n        /* \"#utility.yul\":4949:4973   */\n      tag_223\n        /* \"#utility.yul\":4967:4972   */\n      dup2\n        /* \"#utility.yul\":4949:4973   */\n      tag_120\n      jump\t// in\n    tag_223:\n        /* \"#utility.yul\":4944:4947   */\n      dup3\n        /* \"#utility.yul\":4937:4974   */\n      mstore\n        /* \"#utility.yul\":4862:4980   */\n      pop\n      pop\n      jump\t// out\n        /* \"#utility.yul\":4986:5208   */\n    tag_17:\n        /* \"#utility.yul\":5079:5083   */\n      0x00\n        /* \"#utility.yul\":5117:5119   */\n      0x20\n        /* \"#utility.yul\":5106:5115   */\n      dup3\n        /* \"#utility.yul\":5102:5120   */\n      add\n        /* \"#utility.yul\":5094:5120   */\n      swap1\n      pop\n        /* \"#utility.yul\":5130:5201   */\n      tag_225\n        /* \"#utility.yul\":5198:5199   */\n      0x00\n        /* \"#utility.yul\":5187:5196   */\n      dup4\n        /* \"#utility.yul\":5183:5200   */\n      add\n        /* \"#utility.yul\":5174:5180   */\n      dup5\n        /* \"#utility.yul\":5130:5201   */\n      tag_135\n      jump\t// in\n    tag_225:\n        /* \"#utility.yul\":4986:5208   */\n      swap3\n      swap2\n      pop\n      pop\n      jump\t// out\n        /* \"#utility.yul\":5214:5331   */\n    tag_136:\n        /* \"#utility.yul\":5323:5324   */\n      0x00\n        /* \"#utility.yul\":5320:5321   */\n      0x00\n        /* \"#utility.yul\":5313:5325   */\n      revert\n        /* \"#utility.yul\":5337:5454   */\n    tag_137:\n        /* \"#utility.yul\":5446:5447   */\n      0x00\n        /* \"#utility.yul\":5443:5444   */\n      0x00\n        /* \"#utility.yul\":5436:5448   */\n      revert\n        /* \"#utility.yul\":5460:5640   */\n    tag_84:\n        /* \"#utility.yul\":5508:5585   */\n      0x4e487b7100000000000000000000000000000000000000000000000000000000\n        /* \"#utility.yul\":5505:5506   */\n      0x00\n        /* \"#utility.yul\":5498:5586   */\n      mstore\n        /* \"#utility.yul\":5605:5609   */\n      0x41\n        /* \"#utility.yul\":5602:5603   */\n      0x04\n        /* \"#utility.yul\":5595:5610   */\n      mstore\n        /* \"#utility.yul\":5629:5633   */\n      0x24\n        /* \"#utility.yul\":5626:5627   */\n      0x00\n        /* \"#utility.yul\":5619:5634   */\n      revert\n        /* \"#utility.yul\":5646:5927   */\n    tag_138:\n        /* \"#utility.yul\":5729:5756   */\n      tag_230\n        /* \"#utility.yul\":5751:5755   */\n      dup3\n        /* \"#utility.yul\":5729:5756   */\n      tag_127\n      jump\t// in\n    tag_230:\n        /* \"#utility.yul\":5721:5727   */\n      dup2\n        /* \"#utility.yul\":5717:5757   */\n      add\n        /* \"#utility.yul\":5859:5865   */\n      dup2\n        /* \"#utility.yul\":5847:5857   */\n      dup2\n        /* \"#utility.yul\":5844:5866   */\n      lt\n        /* \"#utility.yul\":5823:5841   */\n      0xffffffffffffffff\n        /* \"#utility.yul\":5811:5821   */\n      dup3\n        /* \"#utility.yul\":5808:5842   */\n      gt\n        /* \"#utility.yul\":5805:5867   */\n      or\n        /* \"#utility.yul\":5802:5890   */\n      iszero\n      tag_231\n      jumpi\n        /* \"#utility.yul\":5870:5888   */\n      tag_232\n      tag_84\n      jump\t// in\n    tag_232:\n        /* \"#utility.yul\":5802:5890   */\n    tag_231:\n        /* \"#utility.yul\":5910:5920   */\n      dup1\n        /* \"#utility.yul\":5906:5908   */\n      0x40\n        /* \"#utility.yul\":5899:5921   */\n      mstore\n        /* \"#utility.yul\":5689:5927   */\n      pop\n        /* \"#utility.yul\":5646:5927   */\n      pop\n      pop\n      jump\t// out\n        /* \"#utility.yul\":5933:6062   */\n    tag_139:\n        /* \"#utility.yul\":5967:5973   */\n      0x00\n        /* \"#utility.yul\":5994:6014   */\n      tag_234\n      tag_117\n      jump\t// in\n    tag_234:\n        /* \"#utility.yul\":5984:6014   */\n      swap1\n      pop\n        /* \"#utility.yul\":6023:6056   */\n      tag_235\n        /* \"#utility.yul\":6051:6055   */\n      dup3\n        /* \"#utility.yul\":6043:6049   */\n      dup3\n        /* \"#utility.yul\":6023:6056   */\n      tag_138\n      jump\t// in\n    tag_235:\n        /* \"#utility.yul\":5933:6062   */\n      swap2\n      swap1\n      pop\n      jump\t// out\n        /* \"#utility.yul\":6068:6376   */\n    tag_140:\n        /* \"#utility.yul\":6130:6134   */\n      0x00\n        /* \"#utility.yul\":6220:6238   */\n      0xffffffffffffffff\n        /* \"#utility.yul\":6212:6218   */\n      dup3\n        /* \"#utility.yul\":6209:6239   */\n      gt\n        /* \"#utility.yul\":6206:6262   */\n      iszero\n      tag_237\n      jumpi\n        /* \"#utility.yul\":6242:6260   */\n      tag_238\n      tag_84\n      jump\t// in\n    tag_238:\n        /* \"#utility.yul\":6206:6262   */\n    tag_237:\n        /* \"#utility.yul\":6280:6309   */\n      tag_239\n        /* \"#utility.yul\":6302:6308   */\n      dup3\n        /* \"#utility.yul\":6280:6309   */\n      tag_127\n      jump\t// in\n    tag_239:\n        /* \"#utility.yul\":6272:6309   */\n      swap1\n      pop\n        /* \"#utility.yul\":6364:6368   */\n      0x20\n        /* \"#utility.yul\":6358:6362   */\n      dup2\n        /* \"#utility.yul\":6354:6369   */\n      add\n        /* \"#utility.yul\":6346:6369   */\n      swap1\n      pop\n        /* \"#utility.yul\":6068:6376   */\n      swap2\n      swap1\n      pop\n      jump\t// out\n        /* \"#utility.yul\":6382:6530   */\n    tag_141:\n        /* \"#utility.yul\":6480:6486   */\n      dup3\n        /* \"#utility.yul\":6475:6478   */\n      dup2\n        /* \"#utility.yul\":6470:6473   */\n      dup4\n        /* \"#utility.yul\":6457:6487   */\n      calldatacopy\n        /* \"#utility.yul\":6521:6522   */\n      0x00\n        /* \"#utility.yul\":6512:6518   */\n      dup4\n        /* \"#utility.yul\":6507:6510   */\n      dup4\n        /* \"#utility.yul\":6503:6519   */\n      add\n        /* \"#utility.yul\":6496:6523   */\n      mstore\n        /* \"#utility.yul\":6382:6530   */\n      pop\n      pop\n      pop\n      jump\t// out\n        /* \"#utility.yul\":6536:6961   */\n    tag_142:\n        /* \"#utility.yul\":6614:6619   */\n      0x00\n        /* \"#utility.yul\":6639:6705   */\n      tag_242\n        /* \"#utility.yul\":6655:6704   */\n      tag_243\n        /* \"#utility.yul\":6697:6703   */\n      dup5\n        /* \"#utility.yul\":6655:6704   */\n      tag_140\n      jump\t// in\n    tag_243:\n        /* \"#utility.yul\":6639:6705   */\n      tag_139\n      jump\t// in\n    tag_242:\n        /* \"#utility.yul\":6630:6705   */\n      swap1\n      pop\n        /* \"#utility.yul\":6728:6734   */\n      dup3\n        /* \"#utility.yul\":6721:6726   */\n      dup2\n        /* \"#utility.yul\":6714:6735   */\n      mstore\n        /* \"#utility.yul\":6766:6770   */\n      0x20\n        /* \"#utility.yul\":6759:6764   */\n      dup2\n        /* \"#utility.yul\":6755:6771   */\n      add\n        /* \"#utility.yul\":6804:6807   */\n      dup5\n        /* \"#utility.yul\":6795:6801   */\n      dup5\n        /* \"#utility.yul\":6790:6793   */\n      dup5\n        /* \"#utility.yul\":6786:6802   */\n      add\n        /* \"#utility.yul\":6783:6808   */\n      gt\n        /* \"#utility.yul\":6780:6892   */\n      iszero\n      tag_244\n      jumpi\n        /* \"#utility.yul\":6811:6890   */\n      tag_245\n      tag_137\n      jump\t// in\n    tag_245:\n        /* \"#utility.yul\":6780:6892   */\n    tag_244:\n        /* \"#utility.yul\":6901:6955   */\n      tag_246\n        /* \"#utility.yul\":6948:6954   */\n      dup5\n        /* \"#utility.yul\":6943:6946   */\n      dup3\n        /* \"#utility.yul\":6938:6941   */\n      dup6\n        /* \"#utility.yul\":6901:6955   */\n      tag_141\n      jump\t// in\n    tag_246:\n        /* \"#utility.yul\":6620:6961   */\n      pop\n        /* \"#utility.yul\":6536:6961   */\n      swap4\n      swap3\n      pop\n      pop\n      pop\n      jump\t// out\n        /* \"#utility.yul\":6981:7321   */\n    tag_143:\n        /* \"#utility.yul\":7037:7042   */\n      0x00\n        /* \"#utility.yul\":7086:7089   */\n      dup3\n        /* \"#utility.yul\":7079:7083   */\n      0x1f\n        /* \"#utility.yul\":7071:7077   */\n      dup4\n        /* \"#utility.yul\":7067:7084   */\n      add\n        /* \"#utility.yul\":7063:7090   */\n      slt\n        /* \"#utility.yul\":7053:7175   */\n      tag_248\n      jumpi\n        /* \"#utility.yul\":7094:7173   */\n      tag_249\n      tag_136\n      jump\t// in\n    tag_249:\n        /* \"#utility.yul\":7053:7175   */\n    tag_248:\n        /* \"#utility.yul\":7211:7217   */\n      dup2\n        /* \"#utility.yul\":7198:7218   */\n      calldataload\n        /* \"#utility.yul\":7236:7315   */\n      tag_250\n        /* \"#utility.yul\":7311:7314   */\n      dup5\n        /* \"#utility.yul\":7303:7309   */\n      dup3\n        /* \"#utility.yul\":7296:7300   */\n      0x20\n        /* \"#utility.yul\":7288:7294   */\n      dup7\n        /* \"#utility.yul\":7284:7301   */\n      add\n        /* \"#utility.yul\":7236:7315   */\n      tag_142\n      jump\t// in\n    tag_250:\n        /* \"#utility.yul\":7227:7315   */\n      swap2\n      pop\n        /* \"#utility.yul\":7043:7321   */\n      pop\n        /* \"#utility.yul\":6981:7321   */\n      swap3\n      swap2\n      pop\n      pop\n      jump\t// out\n        /* \"#utility.yul\":7327:8486   */\n    tag_20:\n        /* \"#utility.yul\":7434:7440   */\n      0x00\n        /* \"#utility.yul\":7442:7448   */\n      0x00\n        /* \"#utility.yul\":7450:7456   */\n      0x00\n        /* \"#utility.yul\":7499:7501   */\n      0x60\n        /* \"#utility.yul\":7487:7496   */\n      dup5\n        /* \"#utility.yul\":7478:7485   */\n      dup7\n        /* \"#utility.yul\":7474:7497   */\n      sub\n        /* \"#utility.yul\":7470:7502   */\n      slt\n        /* \"#utility.yul\":7467:7586   */\n      iszero\n      tag_252\n      jumpi\n        /* \"#utility.yul\":7505:7584   */\n      tag_253\n      tag_118\n      jump\t// in\n    tag_253:\n        /* \"#utility.yul\":7467:7586   */\n    tag_252:\n        /* \"#utility.yul\":7653:7654   */\n      0x00\n        /* \"#utility.yul\":7642:7651   */\n      dup5\n        /* \"#utility.yul\":7638:7655   */\n      add\n        /* \"#utility.yul\":7625:7656   */\n      calldataload\n        /* \"#utility.yul\":7683:7701   */\n      0xffffffffffffffff\n        /* \"#utility.yul\":7675:7681   */\n      dup2\n        /* \"#utility.yul\":7672:7702   */\n      gt\n        /* \"#utility.yul\":7669:7786   */\n      iszero\n      tag_254\n      jumpi\n        /* \"#utility.yul\":7705:7784   */\n      tag_255\n      tag_119\n      jump\t// in\n    tag_255:\n        /* \"#utility.yul\":7669:7786   */\n    tag_254:\n        /* \"#utility.yul\":7810:7873   */\n      tag_256\n        /* \"#utility.yul\":7865:7872   */\n      dup7\n        /* \"#utility.yul\":7856:7862   */\n      dup3\n        /* \"#utility.yul\":7845:7854   */\n      dup8\n        /* \"#utility.yul\":7841:7863   */\n      add\n        /* \"#utility.yul\":7810:7873   */\n      tag_143\n      jump\t// in\n    tag_256:\n        /* \"#utility.yul\":7800:7873   */\n      swap4\n      pop\n        /* \"#utility.yul\":7596:7883   */\n      pop\n        /* \"#utility.yul\":7950:7952   */\n      0x20\n        /* \"#utility.yul\":7939:7948   */\n      dup5\n        /* \"#utility.yul\":7935:7953   */\n      add\n        /* \"#utility.yul\":7922:7954   */\n      calldataload\n        /* \"#utility.yul\":7981:7999   */\n      0xffffffffffffffff\n        /* \"#utility.yul\":7973:7979   */\n      dup2\n        /* \"#utility.yul\":7970:8000   */\n      gt\n        /* \"#utility.yul\":7967:8084   */\n      iszero\n      tag_257\n      jumpi\n        /* \"#utility.yul\":8003:8082   */\n      tag_258\n      tag_119\n      jump\t// in\n    tag_258:\n        /* \"#utility.yul\":7967:8084   */\n    tag_257:\n        /* \"#utility.yul\":8108:8171   */\n      tag_259\n        /* \"#utility.yul\":8163:8170   */\n      dup7\n        /* \"#utility.yul\":8154:8160   */\n      dup3\n        /* \"#utility.yul\":8143:8152   */\n      dup8\n        /* \"#utility.yul\":8139:8161   */\n      add\n        /* \"#utility.yul\":8108:8171   */\n      tag_143\n      jump\t// in\n    tag_259:\n        /* \"#utility.yul\":8098:8171   */\n      swap3\n      pop\n        /* \"#utility.yul\":7893:8181   */\n      pop\n        /* \"#utility.yul\":8248:8250   */\n      0x40\n        /* \"#utility.yul\":8237:8246   */\n      dup5\n        /* \"#utility.yul\":8233:8251   */\n      add\n        /* \"#utility.yul\":8220:8252   */\n      calldataload\n        /* \"#utility.yul\":8279:8297   */\n      0xffffffffffffffff\n        /* \"#utility.yul\":8271:8277   */\n      dup2\n        /* \"#utility.yul\":8268:8298   */\n      gt\n        /* \"#utility.yul\":8265:8382   */\n      iszero\n      tag_260\n      jumpi\n        /* \"#utility.yul\":8301:8380   */\n      tag_261\n      tag_119\n      jump\t// in\n    tag_261:\n        /* \"#utility.yul\":8265:8382   */\n    tag_260:\n        /* \"#utility.yul\":8406:8469   */\n      tag_262\n        /* \"#utility.yul\":8461:8468   */\n      dup7\n        /* \"#utility.yul\":8452:8458   */\n      dup3\n        /* \"#utility.yul\":8441:8450   */\n      dup8\n        /* \"#utility.yul\":8437:8459   */\n      add\n        /* \"#utility.yul\":8406:8469   */\n      tag_143\n      jump\t// in\n    tag_262:\n        /* \"#utility.yul\":8396:8469   */\n      swap2\n      pop\n        /* \"#utility.yul\":8191:8479   */\n      pop\n        /* \"#utility.yul\":7327:8486   */\n      swap3\n      pop\n      swap3\n      pop\n      swap3\n      jump\t// out\n        /* \"#utility.yul\":8492:9001   */\n    tag_24:\n        /* \"#utility.yul\":8561:8567   */\n      0x00\n        /* \"#utility.yul\":8610:8612   */\n      0x20\n        /* \"#utility.yul\":8598:8607   */\n      dup3\n        /* \"#utility.yul\":8589:8596   */\n      dup5\n        /* \"#utility.yul\":8585:8608   */\n      sub\n        /* \"#utility.yul\":8581:8613   */\n      slt\n        /* \"#utility.yul\":8578:8697   */\n      iszero\n      tag_264\n      jumpi\n        /* \"#utility.yul\":8616:8695   */\n      tag_265\n      tag_118\n      jump\t// in\n    tag_265:\n        /* \"#utility.yul\":8578:8697   */\n    tag_264:\n        /* \"#utility.yul\":8764:8765   */\n      0x00\n        /* \"#utility.yul\":8753:8762   */\n      dup3\n        /* \"#utility.yul\":8749:8766   */\n      add\n        /* \"#utility.yul\":8736:8767   */\n      calldataload\n        /* \"#utility.yul\":8794:8812   */\n      0xffffffffffffffff\n        /* \"#utility.yul\":8786:8792   */\n      dup2\n        /* \"#utility.yul\":8783:8813   */\n      gt\n        /* \"#utility.yul\":8780:8897   */\n      iszero\n      tag_266\n      jumpi\n        /* \"#utility.yul\":8816:8895   */\n      tag_267\n      tag_119\n      jump\t// in\n    tag_267:\n        /* \"#utility.yul\":8780:8897   */\n    tag_266:\n        /* \"#utility.yul\":8921:8984   */\n      tag_268\n        /* \"#utility.yul\":8976:8983   */\n      dup5\n        /* \"#utility.yul\":8967:8973   */\n      dup3\n        /* \"#utility.yul\":8956:8965   */\n      dup6\n        /* \"#utility.yul\":8952:8974   */\n      add\n        /* \"#utility.yul\":8921:8984   */\n      tag_143\n      jump\t// in\n    tag_268:\n        /* \"#utility.yul\":8911:8984   */\n      swap2\n      pop\n        /* \"#utility.yul\":8707:8994   */\n      pop\n        /* \"#utility.yul\":8492:9001   */\n      swap3\n      swap2\n      pop\n      pop\n      jump\t// out\n        /* \"#utility.yul\":9007:9148   */\n    tag_144:\n        /* \"#utility.yul\":9101:9107   */\n      0x00\n        /* \"#utility.yul\":9135:9140   */\n      dup2\n        /* \"#utility.yul\":9129:9141   */\n      mload\n        /* \"#utility.yul\":9119:9141   */\n      swap1\n      pop\n        /* \"#utility.yul\":9007:9148   */\n      swap2\n      swap1\n      pop\n      jump\t// out\n        /* \"#utility.yul\":9154:9365   */\n    tag_145:\n        /* \"#utility.yul\":9280:9291   */\n      0x00\n        /* \"#utility.yul\":9314:9320   */\n      dup3\n        /* \"#utility.yul\":9309:9312   */\n      dup3\n        /* \"#utility.yul\":9302:9321   */\n      mstore\n        /* \"#utility.yul\":9354:9358   */\n      0x20\n        /* \"#utility.yul\":9349:9352   */\n      dup3\n        /* \"#utility.yul\":9345:9359   */\n      add\n        /* \"#utility.yul\":9330:9359   */\n      swap1\n      pop\n        /* \"#utility.yul\":9154:9365   */\n      swap3\n      swap2\n      pop\n      pop\n      jump\t// out\n        /* \"#utility.yul\":9371:9530   */\n    tag_146:\n        /* \"#utility.yul\":9465:9469   */\n      0x00\n        /* \"#utility.yul\":9488:9491   */\n      dup2\n        /* \"#utility.yul\":9480:9491   */\n      swap1\n      pop\n        /* \"#utility.yul\":9518:9522   */\n      0x20\n        /* \"#utility.yul\":9513:9516   */\n      dup3\n        /* \"#utility.yul\":9509:9523   */\n      add\n        /* \"#utility.yul\":9501:9523   */\n      swap1\n      pop\n        /* \"#utility.yul\":9371:9530   */\n      swap2\n      swap1\n      pop\n      jump\t// out\n        /* \"#utility.yul\":9610:10216   */\n    tag_147:\n        /* \"#utility.yul\":9723:9726   */\n      0x00\n        /* \"#utility.yul\":9759:9763   */\n      0x40\n        /* \"#utility.yul\":9754:9757   */\n      dup4\n        /* \"#utility.yul\":9750:9764   */\n      add\n        /* \"#utility.yul\":9848:9852   */\n      0x00\n        /* \"#utility.yul\":9841:9846   */\n      dup4\n        /* \"#utility.yul\":9837:9853   */\n      add\n        /* \"#utility.yul\":9831:9854   */\n      mload\n        /* \"#utility.yul\":9867:9930   */\n      tag_273\n        /* \"#utility.yul\":9924:9928   */\n      0x00\n        /* \"#utility.yul\":9919:9922   */\n      dup7\n        /* \"#utility.yul\":9915:9929   */\n      add\n        /* \"#utility.yul\":9901:9913   */\n      dup3\n        /* \"#utility.yul\":9867:9930   */\n      tag_123\n      jump\t// in\n    tag_273:\n        /* \"#utility.yul\":9774:9940   */\n      pop\n        /* \"#utility.yul\":10026:10030   */\n      0x20\n        /* \"#utility.yul\":10019:10024   */\n      dup4\n        /* \"#utility.yul\":10015:10031   */\n      add\n        /* \"#utility.yul\":10009:10032   */\n      mload\n        /* \"#utility.yul\":10079:10082   */\n      dup5\n        /* \"#utility.yul\":10073:10077   */\n      dup3\n        /* \"#utility.yul\":10069:10083   */\n      sub\n        /* \"#utility.yul\":10062:10066   */\n      0x20\n        /* \"#utility.yul\":10057:10060   */\n      dup7\n        /* \"#utility.yul\":10053:10067   */\n      add\n        /* \"#utility.yul\":10046:10084   */\n      mstore\n        /* \"#utility.yul\":10105:10178   */\n      tag_274\n        /* \"#utility.yul\":10173:10177   */\n      dup3\n        /* \"#utility.yul\":10159:10171   */\n      dup3\n        /* \"#utility.yul\":10105:10178   */\n      tag_128\n      jump\t// in\n    tag_274:\n        /* \"#utility.yul\":10097:10178   */\n      swap2\n      pop\n        /* \"#utility.yul\":9950:10189   */\n      pop\n        /* \"#utility.yul\":10206:10210   */\n      dup1\n        /* \"#utility.yul\":10199:10210   */\n      swap2\n      pop\n        /* \"#utility.yul\":9728:10216   */\n      pop\n        /* \"#utility.yul\":9610:10216   */\n      swap3\n      swap2\n      pop\n      pop\n      jump\t// out\n        /* \"#utility.yul\":10222:10486   */\n    tag_148:\n        /* \"#utility.yul\":10345:10355   */\n      0x00\n        /* \"#utility.yul\":10380:10480   */\n      tag_276\n        /* \"#utility.yul\":10476:10479   */\n      dup4\n        /* \"#utility.yul\":10468:10474   */\n      dup4\n        /* \"#utility.yul\":10380:10480   */\n      tag_147\n      jump\t// in\n    tag_276:\n        /* \"#utility.yul\":10366:10480   */\n      swap1\n      pop\n        /* \"#utility.yul\":10222:10486   */\n      swap3\n      swap2\n      pop\n      pop\n      jump\t// out\n        /* \"#utility.yul\":10492:10632   */\n    tag_149:\n        /* \"#utility.yul\":10589:10593   */\n      0x00\n        /* \"#utility.yul\":10621:10625   */\n      0x20\n        /* \"#utility.yul\":10616:10619   */\n      dup3\n        /* \"#utility.yul\":10612:10626   */\n      add\n        /* \"#utility.yul\":10604:10626   */\n      swap1\n      pop\n        /* \"#utility.yul\":10492:10632   */\n      swap2\n      swap1\n      pop\n      jump\t// out\n        /* \"#utility.yul\":10716:11843   */\n    tag_150:\n        /* \"#utility.yul\":10889:10892   */\n      0x00\n        /* \"#utility.yul\":10918:10999   */\n      tag_279\n        /* \"#utility.yul\":10993:10998   */\n      dup3\n        /* \"#utility.yul\":10918:10999   */\n      tag_144\n      jump\t// in\n    tag_279:\n        /* \"#utility.yul\":11015:11128   */\n      tag_280\n        /* \"#utility.yul\":11121:11127   */\n      dup2\n        /* \"#utility.yul\":11116:11119   */\n      dup6\n        /* \"#utility.yul\":11015:11128   */\n      tag_145\n      jump\t// in\n    tag_280:\n        /* \"#utility.yul\":11008:11128   */\n      swap4\n      pop\n        /* \"#utility.yul\":11154:11157   */\n      dup4\n        /* \"#utility.yul\":11199:11203   */\n      0x20\n        /* \"#utility.yul\":11191:11197   */\n      dup3\n        /* \"#utility.yul\":11187:11204   */\n      mul\n        /* \"#utility.yul\":11182:11185   */\n      dup6\n        /* \"#utility.yul\":11178:11205   */\n      add\n        /* \"#utility.yul\":11229:11312   */\n      tag_281\n        /* \"#utility.yul\":11306:11311   */\n      dup6\n        /* \"#utility.yul\":11229:11312   */\n      tag_146\n      jump\t// in\n    tag_281:\n        /* \"#utility.yul\":11335:11342   */\n      dup1\n        /* \"#utility.yul\":11366:11367   */\n      0x00\n        /* \"#utility.yul\":11351:11798   */\n    tag_282:\n        /* \"#utility.yul\":11376:11382   */\n      dup6\n        /* \"#utility.yul\":11373:11374   */\n      dup2\n        /* \"#utility.yul\":11370:11383   */\n      lt\n        /* \"#utility.yul\":11351:11798   */\n      iszero\n      tag_284\n      jumpi\n        /* \"#utility.yul\":11447:11456   */\n      dup5\n        /* \"#utility.yul\":11441:11445   */\n      dup5\n        /* \"#utility.yul\":11437:11457   */\n      sub\n        /* \"#utility.yul\":11432:11435   */\n      dup10\n        /* \"#utility.yul\":11425:11458   */\n      mstore\n        /* \"#utility.yul\":11498:11504   */\n      dup2\n        /* \"#utility.yul\":11492:11505   */\n      mload\n        /* \"#utility.yul\":11526:11644   */\n      tag_285\n        /* \"#utility.yul\":11639:11643   */\n      dup6\n        /* \"#utility.yul\":11624:11637   */\n      dup3\n        /* \"#utility.yul\":11526:11644   */\n      tag_148\n      jump\t// in\n    tag_285:\n        /* \"#utility.yul\":11518:11644   */\n      swap5\n      pop\n        /* \"#utility.yul\":11667:11754   */\n      tag_286\n        /* \"#utility.yul\":11747:11753   */\n      dup4\n        /* \"#utility.yul\":11667:11754   */\n      tag_149\n      jump\t// in\n    tag_286:\n        /* \"#utility.yul\":11657:11754   */\n      swap3\n      pop\n        /* \"#utility.yul\":11783:11787   */\n      0x20\n        /* \"#utility.yul\":11778:11781   */\n      dup11\n        /* \"#utility.yul\":11774:11788   */\n      add\n        /* \"#utility.yul\":11767:11788   */\n      swap10\n      pop\n        /* \"#utility.yul\":11411:11798   */\n      pop\n        /* \"#utility.yul\":11398:11399   */\n      0x01\n        /* \"#utility.yul\":11395:11396   */\n      dup2\n        /* \"#utility.yul\":11391:11400   */\n      add\n        /* \"#utility.yul\":11386:11400   */\n      swap1\n      pop\n        /* \"#utility.yul\":11351:11798   */\n      jump(tag_282)\n    tag_284:\n        /* \"#utility.yul\":11355:11369   */\n      pop\n        /* \"#utility.yul\":11814:11818   */\n      dup3\n        /* \"#utility.yul\":11807:11818   */\n      swap8\n      pop\n        /* \"#utility.yul\":11834:11837   */\n      dup8\n        /* \"#utility.yul\":11827:11837   */\n      swap6\n      pop\n        /* \"#utility.yul\":10894:11843   */\n      pop\n      pop\n      pop\n      pop\n      pop\n        /* \"#utility.yul\":10716:11843   */\n      swap3\n      swap2\n      pop\n      pop\n      jump\t// out\n        /* \"#utility.yul\":11849:12330   */\n    tag_27:\n        /* \"#utility.yul\":12046:12050   */\n      0x00\n        /* \"#utility.yul\":12084:12086   */\n      0x20\n        /* \"#utility.yul\":12073:12082   */\n      dup3\n        /* \"#utility.yul\":12069:12087   */\n      add\n        /* \"#utility.yul\":12061:12087   */\n      swap1\n      pop\n        /* \"#utility.yul\":12133:12142   */\n      dup2\n        /* \"#utility.yul\":12127:12131   */\n      dup2\n        /* \"#utility.yul\":12123:12143   */\n      sub\n        /* \"#utility.yul\":12119:12120   */\n      0x00\n        /* \"#utility.yul\":12108:12117   */\n      dup4\n        /* \"#utility.yul\":12104:12121   */\n      add\n        /* \"#utility.yul\":12097:12144   */\n      mstore\n        /* \"#utility.yul\":12161:12323   */\n      tag_288\n        /* \"#utility.yul\":12318:12322   */\n      dup2\n        /* \"#utility.yul\":12309:12315   */\n      dup5\n        /* \"#utility.yul\":12161:12323   */\n      tag_150\n      jump\t// in\n    tag_288:\n        /* \"#utility.yul\":12153:12323   */\n      swap1\n      pop\n        /* \"#utility.yul\":11849:12330   */\n      swap3\n      swap2\n      pop\n      pop\n      jump\t// out\n        /* \"#utility.yul\":12336:12454   */\n    tag_151:\n        /* \"#utility.yul\":12423:12447   */\n      tag_290\n        /* \"#utility.yul\":12441:12446   */\n      dup2\n        /* \"#utility.yul\":12423:12447   */\n      tag_130\n      jump\t// in\n    tag_290:\n        /* \"#utility.yul\":12418:12421   */\n      dup3\n        /* \"#utility.yul\":12411:12448   */\n      mstore\n        /* \"#utility.yul\":12336:12454   */\n      pop\n      pop\n      jump\t// out\n        /* \"#utility.yul\":12460:13397   */\n    tag_32:\n        /* \"#utility.yul\":12725:12729   */\n      0x00\n        /* \"#utility.yul\":12763:12766   */\n      0xa0\n        /* \"#utility.yul\":12752:12761   */\n      dup3\n        /* \"#utility.yul\":12748:12767   */\n      add\n        /* \"#utility.yul\":12740:12767   */\n      swap1\n      pop\n        /* \"#utility.yul\":12777:12848   */\n      tag_292\n        /* \"#utility.yul\":12845:12846   */\n      0x00\n        /* \"#utility.yul\":12834:12843   */\n      dup4\n        /* \"#utility.yul\":12830:12847   */\n      add\n        /* \"#utility.yul\":12821:12827   */\n      dup9\n        /* \"#utility.yul\":12777:12848   */\n      tag_135\n      jump\t// in\n    tag_292:\n        /* \"#utility.yul\":12895:12904   */\n      dup2\n        /* \"#utility.yul\":12889:12893   */\n      dup2\n        /* \"#utility.yul\":12885:12905   */\n      sub\n        /* \"#utility.yul\":12880:12882   */\n      0x20\n        /* \"#utility.yul\":12869:12878   */\n      dup4\n        /* \"#utility.yul\":12865:12883   */\n      add\n        /* \"#utility.yul\":12858:12906   */\n      mstore\n        /* \"#utility.yul\":12923:13001   */\n      tag_293\n        /* \"#utility.yul\":12996:13000   */\n      dup2\n        /* \"#utility.yul\":12987:12993   */\n      dup8\n        /* \"#utility.yul\":12923:13001   */\n      tag_134\n      jump\t// in\n    tag_293:\n        /* \"#utility.yul\":12915:13001   */\n      swap1\n      pop\n        /* \"#utility.yul\":13048:13057   */\n      dup2\n        /* \"#utility.yul\":13042:13046   */\n      dup2\n        /* \"#utility.yul\":13038:13058   */\n      sub\n        /* \"#utility.yul\":13033:13035   */\n      0x40\n        /* \"#utility.yul\":13022:13031   */\n      dup4\n        /* \"#utility.yul\":13018:13036   */\n      add\n        /* \"#utility.yul\":13011:13059   */\n      mstore\n        /* \"#utility.yul\":13076:13154   */\n      tag_294\n        /* \"#utility.yul\":13149:13153   */\n      dup2\n        /* \"#utility.yul\":13140:13146   */\n      dup7\n        /* \"#utility.yul\":13076:13154   */\n      tag_134\n      jump\t// in\n    tag_294:\n        /* \"#utility.yul\":13068:13154   */\n      swap1\n      pop\n        /* \"#utility.yul\":13201:13210   */\n      dup2\n        /* \"#utility.yul\":13195:13199   */\n      dup2\n        /* \"#utility.yul\":13191:13211   */\n      sub\n        /* \"#utility.yul\":13186:13188   */\n      0x60\n        /* \"#utility.yul\":13175:13184   */\n      dup4\n        /* \"#utility.yul\":13171:13189   */\n      add\n        /* \"#utility.yul\":13164:13212   */\n      mstore\n        /* \"#utility.yul\":13229:13307   */\n      tag_295\n        /* \"#utility.yul\":13302:13306   */\n      dup2\n        /* \"#utility.yul\":13293:13299   */\n      dup6\n        /* \"#utility.yul\":13229:13307   */\n      tag_134\n      jump\t// in\n    tag_295:\n        /* \"#utility.yul\":13221:13307   */\n      swap1\n      pop\n        /* \"#utility.yul\":13317:13390   */\n      tag_296\n        /* \"#utility.yul\":13385:13388   */\n      0x80\n        /* \"#utility.yul\":13374:13383   */\n      dup4\n        /* \"#utility.yul\":13370:13389   */\n      add\n        /* \"#utility.yul\":13361:13367   */\n      dup5\n        /* \"#utility.yul\":13317:13390   */\n      tag_151\n      jump\t// in\n    tag_296:\n        /* \"#utility.yul\":12460:13397   */\n      swap7\n      swap6\n      pop\n      pop\n      pop\n      pop\n      pop\n      pop\n      jump\t// out\n        /* \"#utility.yul\":13403:13583   */\n    tag_152:\n        /* \"#utility.yul\":13451:13528   */\n      0x4e487b7100000000000000000000000000000000000000000000000000000000\n        /* \"#utility.yul\":13448:13449   */\n      0x00\n        /* \"#utility.yul\":13441:13529   */\n      mstore\n        /* \"#utility.yul\":13548:13552   */\n      0x22\n        /* \"#utility.yul\":13545:13546   */\n      0x04\n        /* \"#utility.yul\":13538:13553   */\n      mstore\n        /* \"#utility.yul\":13572:13576   */\n      0x24\n        /* \"#utility.yul\":13569:13570   */\n      0x00\n        /* \"#utility.yul\":13562:13577   */\n      revert\n        /* \"#utility.yul\":13589:13909   */\n    tag_37:\n        /* \"#utility.yul\":13633:13639   */\n      0x00\n        /* \"#utility.yul\":13670:13671   */\n      0x02\n        /* \"#utility.yul\":13664:13668   */\n      dup3\n        /* \"#utility.yul\":13660:13672   */\n      div\n        /* \"#utility.yul\":13650:13672   */\n      swap1\n      pop\n        /* \"#utility.yul\":13717:13718   */\n      0x01\n        /* \"#utility.yul\":13711:13715   */\n      dup3\n        /* \"#utility.yul\":13707:13719   */\n      and\n        /* \"#utility.yul\":13738:13756   */\n      dup1\n        /* \"#utility.yul\":13728:13809   */\n      tag_299\n      jumpi\n        /* \"#utility.yul\":13794:13798   */\n      0x7f\n        /* \"#utility.yul\":13786:13792   */\n      dup3\n        /* \"#utility.yul\":13782:13799   */\n      and\n        /* \"#utility.yul\":13772:13799   */\n      swap2\n      pop\n        /* \"#utility.yul\":13728:13809   */\n    tag_299:\n        /* \"#utility.yul\":13856:13858   */\n      0x20\n        /* \"#utility.yul\":13848:13854   */\n      dup3\n        /* \"#utility.yul\":13845:13859   */\n      lt\n        /* \"#utility.yul\":13825:13843   */\n      dup2\n        /* \"#utility.yul\":13822:13860   */\n      sub\n        /* \"#utility.yul\":13819:13903   */\n      tag_300\n      jumpi\n        /* \"#utility.yul\":13875:13893   */\n      tag_301\n      tag_152\n      jump\t// in\n    tag_301:\n        /* \"#utility.yul\":13819:13903   */\n    tag_300:\n        /* \"#utility.yul\":13640:13909   */\n      pop\n        /* \"#utility.yul\":13589:13909   */\n      swap2\n      swap1\n      pop\n      jump\t// out\n        /* \"#utility.yul\":13915:14063   */\n    tag_153:\n        /* \"#utility.yul\":14017:14028   */\n      0x00\n        /* \"#utility.yul\":14054:14057   */\n      dup2\n        /* \"#utility.yul\":14039:14057   */\n      swap1\n      pop\n        /* \"#utility.yul\":13915:14063   */\n      swap3\n      swap2\n      pop\n      pop\n      jump\t// out\n        /* \"#utility.yul\":14069:14459   */\n    tag_154:\n        /* \"#utility.yul\":14175:14178   */\n      0x00\n        /* \"#utility.yul\":14203:14242   */\n      tag_304\n        /* \"#utility.yul\":14236:14241   */\n      dup3\n        /* \"#utility.yul\":14203:14242   */\n      tag_124\n      jump\t// in\n    tag_304:\n        /* \"#utility.yul\":14258:14347   */\n      tag_305\n        /* \"#utility.yul\":14340:14346   */\n      dup2\n        /* \"#utility.yul\":14335:14338   */\n      dup6\n        /* \"#utility.yul\":14258:14347   */\n      tag_153\n      jump\t// in\n    tag_305:\n        /* \"#utility.yul\":14251:14347   */\n      swap4\n      pop\n        /* \"#utility.yul\":14356:14421   */\n      tag_306\n        /* \"#utility.yul\":14414:14420   */\n      dup2\n        /* \"#utility.yul\":14409:14412   */\n      dup6\n        /* \"#utility.yul\":14402:14406   */\n      0x20\n        /* \"#utility.yul\":14395:14400   */\n      dup7\n        /* \"#utility.yul\":14391:14407   */\n      add\n        /* \"#utility.yul\":14356:14421   */\n      tag_126\n      jump\t// in\n    tag_306:\n        /* \"#utility.yul\":14446:14452   */\n      dup1\n        /* \"#utility.yul\":14441:14444   */\n      dup5\n        /* \"#utility.yul\":14437:14453   */\n      add\n        /* \"#utility.yul\":14430:14453   */\n      swap2\n      pop\n        /* \"#utility.yul\":14179:14459   */\n      pop\n        /* \"#utility.yul\":14069:14459   */\n      swap3\n      swap2\n      pop\n      pop\n      jump\t// out\n        /* \"#utility.yul\":14465:14900   */\n    tag_53:\n        /* \"#utility.yul\":14645:14648   */\n      0x00\n        /* \"#utility.yul\":14667:14762   */\n      tag_308\n        /* \"#utility.yul\":14758:14761   */\n      dup3\n        /* \"#utility.yul\":14749:14755   */\n      dup6\n        /* \"#utility.yul\":14667:14762   */\n      tag_154\n      jump\t// in\n    tag_308:\n        /* \"#utility.yul\":14660:14762   */\n      swap2\n      pop\n        /* \"#utility.yul\":14779:14874   */\n      tag_309\n        /* \"#utility.yul\":14870:14873   */\n      dup3\n        /* \"#utility.yul\":14861:14867   */\n      dup5\n        /* \"#utility.yul\":14779:14874   */\n      tag_154\n      jump\t// in\n    tag_309:\n        /* \"#utility.yul\":14772:14874   */\n      swap2\n      pop\n        /* \"#utility.yul\":14891:14894   */\n      dup2\n        /* \"#utility.yul\":14884:14894   */\n      swap1\n      pop\n        /* \"#utility.yul\":14465:14900   */\n      swap4\n      swap3\n      pop\n      pop\n      pop\n      jump\t// out\n        /* \"#utility.yul\":14906:15586   */\n    tag_55:\n        /* \"#utility.yul\":15123:15127   */\n      0x00\n        /* \"#utility.yul\":15161:15163   */\n      0x60\n        /* \"#utility.yul\":15150:15159   */\n      dup3\n        /* \"#utility.yul\":15146:15164   */\n      add\n        /* \"#utility.yul\":15138:15164   */\n      swap1\n      pop\n        /* \"#utility.yul\":15174:15245   */\n      tag_311\n        /* \"#utility.yul\":15242:15243   */\n      0x00\n        /* \"#utility.yul\":15231:15240   */\n      dup4\n        /* \"#utility.yul\":15227:15244   */\n      add\n        /* \"#utility.yul\":15218:15224   */\n      dup7\n        /* \"#utility.yul\":15174:15245   */\n      tag_135\n      jump\t// in\n    tag_311:\n        /* \"#utility.yul\":15292:15301   */\n      dup2\n        /* \"#utility.yul\":15286:15290   */\n      dup2\n        /* \"#utility.yul\":15282:15302   */\n      sub\n        /* \"#utility.yul\":15277:15279   */\n      0x20\n        /* \"#utility.yul\":15266:15275   */\n      dup4\n        /* \"#utility.yul\":15262:15280   */\n      add\n        /* \"#utility.yul\":15255:15303   */\n      mstore\n        /* \"#utility.yul\":15320:15426   */\n      tag_312\n        /* \"#utility.yul\":15421:15425   */\n      dup2\n        /* \"#utility.yul\":15412:15418   */\n      dup6\n        /* \"#utility.yul\":15320:15426   */\n      tag_132\n      jump\t// in\n    tag_312:\n        /* \"#utility.yul\":15312:15426   */\n      swap1\n      pop\n        /* \"#utility.yul\":15473:15482   */\n      dup2\n        /* \"#utility.yul\":15467:15471   */\n      dup2\n        /* \"#utility.yul\":15463:15483   */\n      sub\n        /* \"#utility.yul\":15458:15460   */\n      0x40\n        /* \"#utility.yul\":15447:15456   */\n      dup4\n        /* \"#utility.yul\":15443:15461   */\n      add\n        /* \"#utility.yul\":15436:15484   */\n      mstore\n        /* \"#utility.yul\":15501:15579   */\n      tag_313\n        /* \"#utility.yul\":15574:15578   */\n      dup2\n        /* \"#utility.yul\":15565:15571   */\n      dup5\n        /* \"#utility.yul\":15501:15579   */\n      tag_134\n      jump\t// in\n    tag_313:\n        /* \"#utility.yul\":15493:15579   */\n      swap1\n      pop\n        /* \"#utility.yul\":14906:15586   */\n      swap5\n      swap4\n      pop\n      pop\n      pop\n      pop\n      jump\t// out\n        /* \"#utility.yul\":15592:15763   */\n    tag_155:\n        /* \"#utility.yul\":15732:15755   */\n      0x4950465320486173682069732072657175697265640000000000000000000000\n        /* \"#utility.yul\":15728:15729   */\n      0x00\n        /* \"#utility.yul\":15720:15726   */\n      dup3\n        /* \"#utility.yul\":15716:15730   */\n      add\n        /* \"#utility.yul\":15709:15756   */\n      mstore\n        /* \"#utility.yul\":15592:15763   */\n      pop\n      jump\t// out\n        /* \"#utility.yul\":15769:16135   */\n    tag_156:\n        /* \"#utility.yul\":15911:15914   */\n      0x00\n        /* \"#utility.yul\":15932:15999   */\n      tag_316\n        /* \"#utility.yul\":15996:15998   */\n      0x15\n        /* \"#utility.yul\":15991:15994   */\n      dup4\n        /* \"#utility.yul\":15932:15999   */\n      tag_133\n      jump\t// in\n    tag_316:\n        /* \"#utility.yul\":15925:15999   */\n      swap2\n      pop\n        /* \"#utility.yul\":16008:16101   */\n      tag_317\n        /* \"#utility.yul\":16097:16100   */\n      dup3\n        /* \"#utility.yul\":16008:16101   */\n      tag_155\n      jump\t// in\n    tag_317:\n        /* \"#utility.yul\":16126:16128   */\n      0x20\n        /* \"#utility.yul\":16121:16124   */\n      dup3\n        /* \"#utility.yul\":16117:16129   */\n      add\n        /* \"#utility.yul\":16110:16129   */\n      swap1\n      pop\n        /* \"#utility.yul\":15769:16135   */\n      swap2\n      swap1\n      pop\n      jump\t// out\n        /* \"#utility.yul\":16141:16560   */\n    tag_59:\n        /* \"#utility.yul\":16307:16311   */\n      0x00\n        /* \"#utility.yul\":16345:16347   */\n      0x20\n        /* \"#utility.yul\":16334:16343   */\n      dup3\n        /* \"#utility.yul\":16330:16348   */\n      add\n        /* \"#utility.yul\":16322:16348   */\n      swap1\n      pop\n        /* \"#utility.yul\":16394:16403   */\n      dup2\n        /* \"#utility.yul\":16388:16392   */\n      dup2\n        /* \"#utility.yul\":16384:16404   */\n      sub\n        /* \"#utility.yul\":16380:16381   */\n      0x00\n        /* \"#utility.yul\":16369:16378   */\n      dup4\n        /* \"#utility.yul\":16365:16382   */\n      add\n        /* \"#utility.yul\":16358:16405   */\n      mstore\n        /* \"#utility.yul\":16422:16553   */\n      tag_319\n        /* \"#utility.yul\":16548:16552   */\n      dup2\n        /* \"#utility.yul\":16422:16553   */\n      tag_156\n      jump\t// in\n    tag_319:\n        /* \"#utility.yul\":16414:16553   */\n      swap1\n      pop\n        /* \"#utility.yul\":16141:16560   */\n      swap2\n      swap1\n      pop\n      jump\t// out\n        /* \"#utility.yul\":16566:16737   */\n    tag_157:\n        /* \"#utility.yul\":16706:16729   */\n      0x46696c65204e616d652069732072657175697265640000000000000000000000\n        /* \"#utility.yul\":16702:16703   */\n      0x00\n        /* \"#utility.yul\":16694:16700   */\n      dup3\n        /* \"#utility.yul\":16690:16704   */\n      add\n        /* \"#utility.yul\":16683:16730   */\n      mstore\n        /* \"#utility.yul\":16566:16737   */\n      pop\n      jump\t// out\n        /* \"#utility.yul\":16743:17109   */\n    tag_158:\n        /* \"#utility.yul\":16885:16888   */\n      0x00\n        /* \"#utility.yul\":16906:16973   */\n      tag_322\n        /* \"#utility.yul\":16970:16972   */\n      0x15\n        /* \"#utility.yul\":16965:16968   */\n      dup4\n        /* \"#utility.yul\":16906:16973   */\n      tag_133\n      jump\t// in\n    tag_322:\n        /* \"#utility.yul\":16899:16973   */\n      swap2\n      pop\n        /* \"#utility.yul\":16982:17075   */\n      tag_323\n        /* \"#utility.yul\":17071:17074   */\n      dup3\n        /* \"#utility.yul\":16982:17075   */\n      tag_157\n      jump\t// in\n    tag_323:\n        /* \"#utility.yul\":17100:17102   */\n      0x20\n        /* \"#utility.yul\":17095:17098   */\n      dup3\n        /* \"#utility.yul\":17091:17103   */\n      add\n        /* \"#utility.yul\":17084:17103   */\n      swap1\n      pop\n        /* \"#utility.yul\":16743:17109   */\n      swap2\n      swap1\n      pop\n      jump\t// out\n        /* \"#utility.yul\":17115:17534   */\n    tag_62:\n        /* \"#utility.yul\":17281:17285   */\n      0x00\n        /* \"#utility.yul\":17319:17321   */\n      0x20\n        /* \"#utility.yul\":17308:17317   */\n      dup3\n        /* \"#utility.yul\":17304:17322   */\n      add\n        /* \"#utility.yul\":17296:17322   */\n      swap1\n      pop\n        /* \"#utility.yul\":17368:17377   */\n      dup2\n        /* \"#utility.yul\":17362:17366   */\n      dup2\n        /* \"#utility.yul\":17358:17378   */\n      sub\n        /* \"#utility.yul\":17354:17355   */\n      0x00\n        /* \"#utility.yul\":17343:17352   */\n      dup4\n        /* \"#utility.yul\":17339:17356   */\n      add\n        /* \"#utility.yul\":17332:17379   */\n      mstore\n        /* \"#utility.yul\":17396:17527   */\n      tag_325\n        /* \"#utility.yul\":17522:17526   */\n      dup2\n        /* \"#utility.yul\":17396:17527   */\n      tag_158\n      jump\t// in\n    tag_325:\n        /* \"#utility.yul\":17388:17527   */\n      swap1\n      pop\n        /* \"#utility.yul\":17115:17534   */\n      swap2\n      swap1\n      pop\n      jump\t// out\n        /* \"#utility.yul\":17540:17709   */\n    tag_159:\n        /* \"#utility.yul\":17680:17701   */\n      0x5375626a65637420697320726571756972656400000000000000000000000000\n        /* \"#utility.yul\":17676:17677   */\n      0x00\n        /* \"#utility.yul\":17668:17674   */\n      dup3\n        /* \"#utility.yul\":17664:17678   */\n      add\n        /* \"#utility.yul\":17657:17702   */\n      mstore\n        /* \"#utility.yul\":17540:17709   */\n      pop\n      jump\t// out\n        /* \"#utility.yul\":17715:18081   */\n    tag_160:\n        /* \"#utility.yul\":17857:17860   */\n      0x00\n        /* \"#utility.yul\":17878:17945   */\n      tag_328\n        /* \"#utility.yul\":17942:17944   */\n      0x13\n        /* \"#utility.yul\":17937:17940   */\n      dup4\n        /* \"#utility.yul\":17878:17945   */\n      tag_133\n      jump\t// in\n    tag_328:\n        /* \"#utility.yul\":17871:17945   */\n      swap2\n      pop\n        /* \"#utility.yul\":17954:18047   */\n      tag_329\n        /* \"#utility.yul\":18043:18046   */\n      dup3\n        /* \"#utility.yul\":17954:18047   */\n      tag_159\n      jump\t// in\n    tag_329:\n        /* \"#utility.yul\":18072:18074   */\n      0x20\n        /* \"#utility.yul\":18067:18070   */\n      dup3\n        /* \"#utility.yul\":18063:18075   */\n      add\n        /* \"#utility.yul\":18056:18075   */\n      swap1\n      pop\n        /* \"#utility.yul\":17715:18081   */\n      swap2\n      swap1\n      pop\n      jump\t// out\n        /* \"#utility.yul\":18087:18506   */\n    tag_65:\n        /* \"#utility.yul\":18253:18257   */\n      0x00\n        /* \"#utility.yul\":18291:18293   */\n      0x20\n        /* \"#utility.yul\":18280:18289   */\n      dup3\n        /* \"#utility.yul\":18276:18294   */\n      add\n        /* \"#utility.yul\":18268:18294   */\n      swap1\n      pop\n        /* \"#utility.yul\":18340:18349   */\n      dup2\n        /* \"#utility.yul\":18334:18338   */\n      dup2\n        /* \"#utility.yul\":18330:18350   */\n      sub\n        /* \"#utility.yul\":18326:18327   */\n      0x00\n        /* \"#utility.yul\":18315:18324   */\n      dup4\n        /* \"#utility.yul\":18311:18328   */\n      add\n        /* \"#utility.yul\":18304:18351   */\n      mstore\n        /* \"#utility.yul\":18368:18499   */\n      tag_331\n        /* \"#utility.yul\":18494:18498   */\n      dup2\n        /* \"#utility.yul\":18368:18499   */\n      tag_160\n      jump\t// in\n    tag_331:\n        /* \"#utility.yul\":18360:18499   */\n      swap1\n      pop\n        /* \"#utility.yul\":18087:18506   */\n      swap2\n      swap1\n      pop\n      jump\t// out\n        /* \"#utility.yul\":18512:18692   */\n    tag_161:\n        /* \"#utility.yul\":18560:18637   */\n      0x4e487b7100000000000000000000000000000000000000000000000000000000\n        /* \"#utility.yul\":18557:18558   */\n      0x00\n        /* \"#utility.yul\":18550:18638   */\n      mstore\n        /* \"#utility.yul\":18657:18661   */\n      0x11\n        /* \"#utility.yul\":18654:18655   */\n      0x04\n        /* \"#utility.yul\":18647:18662   */\n      mstore\n        /* \"#utility.yul\":18681:18685   */\n      0x24\n        /* \"#utility.yul\":18678:18679   */\n      0x00\n        /* \"#utility.yul\":18671:18686   */\n      revert\n        /* \"#utility.yul\":18698:18931   */\n    tag_67:\n        /* \"#utility.yul\":18737:18740   */\n      0x00\n        /* \"#utility.yul\":18760:18784   */\n      tag_334\n        /* \"#utility.yul\":18778:18783   */\n      dup3\n        /* \"#utility.yul\":18760:18784   */\n      tag_120\n      jump\t// in\n    tag_334:\n        /* \"#utility.yul\":18751:18784   */\n      swap2\n      pop\n        /* \"#utility.yul\":18806:18872   */\n      0xffffffffffffffffffffffffffffffffffffffffffffffffffffffffffffffff\n        /* \"#utility.yul\":18799:18804   */\n      dup3\n        /* \"#utility.yul\":18796:18873   */\n      sub\n        /* \"#utility.yul\":18793:18896   */\n      tag_335\n      jumpi\n        /* \"#utility.yul\":18876:18894   */\n      tag_336\n      tag_161\n      jump\t// in\n    tag_336:\n        /* \"#utility.yul\":18793:18896   */\n    tag_335:\n        /* \"#utility.yul\":18923:18924   */\n      0x01\n        /* \"#utility.yul\":18916:18921   */\n      dup3\n        /* \"#utility.yul\":18912:18925   */\n      add\n        /* \"#utility.yul\":18905:18925   */\n      swap1\n      pop\n        /* \"#utility.yul\":18698:18931   */\n      swap2\n      swap1\n      pop\n      jump\t// out\n        /* \"#utility.yul\":18937:19078   */\n    tag_162:\n        /* \"#utility.yul\":18986:18990   */\n      0x00\n        /* \"#utility.yul\":19009:19012   */\n      dup2\n        /* \"#utility.yul\":19001:19012   */\n      swap1\n      pop\n        /* \"#utility.yul\":19032:19035   */\n      dup2\n        /* \"#utility.yul\":19029:19030   */\n      0x00\n        /* \"#utility.yul\":19022:19036   */\n      mstore\n        /* \"#utility.yul\":19066:19070   */\n      0x20\n        /* \"#utility.yul\":19063:19064   */\n      0x00\n        /* \"#utility.yul\":19053:19071   */\n      keccak256\n        /* \"#utility.yul\":19045:19071   */\n      swap1\n      pop\n        /* \"#utility.yul\":18937:19078   */\n      swap2\n      swap1\n      pop\n      jump\t// out\n        /* \"#utility.yul\":19084:19177   */\n    tag_163:\n        /* \"#utility.yul\":19121:19127   */\n      0x00\n        /* \"#utility.yul\":19168:19170   */\n      0x20\n        /* \"#utility.yul\":19163:19165   */\n      0x1f\n        /* \"#utility.yul\":19156:19161   */\n      dup4\n        /* \"#utility.yul\":19152:19166   */\n      add\n        /* \"#utility.yul\":19148:19171   */\n      div\n        /* \"#utility.yul\":19138:19171   */\n      swap1\n      pop\n        /* \"#utility.yul\":19084:19177   */\n      swap2\n      swap1\n      pop\n      jump\t// out\n        /* \"#utility.yul\":19183:19290   */\n    tag_164:\n        /* \"#utility.yul\":19227:19235   */\n      0x00\n        /* \"#utility.yul\":19277:19282   */\n      dup3\n        /* \"#utility.yul\":19271:19275   */\n      dup3\n        /* \"#utility.yul\":19267:19283   */\n      shl\n        /* \"#utility.yul\":19246:19283   */\n      swap1\n      pop\n        /* \"#utility.yul\":19183:19290   */\n      swap3\n      swap2\n      pop\n      pop\n      jump\t// out\n        /* \"#utility.yul\":19296:19689   */\n    tag_165:\n        /* \"#utility.yul\":19365:19371   */\n      0x00\n        /* \"#utility.yul\":19415:19416   */\n      0x08\n        /* \"#utility.yul\":19403:19413   */\n      dup4\n        /* \"#utility.yul\":19399:19417   */\n      mul\n        /* \"#utility.yul\":19438:19535   */\n      tag_341\n        /* \"#utility.yul\":19468:19534   */\n      0xffffffffffffffffffffffffffffffffffffffffffffffffffffffffffffffff\n        /* \"#utility.yul\":19457:19466   */\n      dup3\n        /* \"#utility.yul\":19438:19535   */\n      tag_164\n      jump\t// in\n    tag_341:\n        /* \"#utility.yul\":19556:19595   */\n      tag_342\n        /* \"#utility.yul\":19586:19594   */\n      dup7\n        /* \"#utility.yul\":19575:19584   */\n      dup4\n        /* \"#utility.yul\":19556:19595   */\n      tag_164\n      jump\t// in\n    tag_342:\n        /* \"#utility.yul\":19544:19595   */\n      swap6\n      pop\n        /* \"#utility.yul\":19628:19632   */\n      dup1\n        /* \"#utility.yul\":19624:19633   */\n      not\n        /* \"#utility.yul\":19617:19622   */\n      dup5\n        /* \"#utility.yul\":19613:19634   */\n      and\n        /* \"#utility.yul\":19604:19634   */\n      swap4\n      pop\n        /* \"#utility.yul\":19677:19681   */\n      dup1\n        /* \"#utility.yul\":19667:19675   */\n      dup7\n        /* \"#utility.yul\":19663:19682   */\n      and\n        /* \"#utility.yul\":19656:19661   */\n      dup5\n        /* \"#utility.yul\":19653:19683   */\n      or\n        /* \"#utility.yul\":19643:19683   */\n      swap3\n      pop\n        /* \"#utility.yul\":19372:19689   */\n      pop\n      pop\n        /* \"#utility.yul\":19296:19689   */\n      swap4\n      swap3\n      pop\n      pop\n      pop\n      jump\t// out\n        /* \"#utility.yul\":19695:19755   */\n    tag_166:\n        /* \"#utility.yul\":19723:19726   */\n      0x00\n        /* \"#utility.yul\":19744:19749   */\n      dup2\n        /* \"#utility.yul\":19737:19749   */\n      swap1\n      pop\n        /* \"#utility.yul\":19695:19755   */\n      swap2\n      swap1\n      pop\n      jump\t// out\n        /* \"#utility.yul\":19761:19903   */\n    tag_167:\n        /* \"#utility.yul\":19811:19820   */\n      0x00\n        /* \"#utility.yul\":19844:19897   */\n      tag_345\n        /* \"#utility.yul\":19862:19896   */\n      tag_346\n        /* \"#utility.yul\":19871:19895   */\n      tag_347\n        /* \"#utility.yul\":19889:19894   */\n      dup5\n        /* \"#utility.yul\":19871:19895   */\n      tag_120\n      jump\t// in\n    tag_347:\n        /* \"#utility.yul\":19862:19896   */\n      tag_166\n      jump\t// in\n    tag_346:\n        /* \"#utility.yul\":19844:19897   */\n      tag_120\n      jump\t// in\n    tag_345:\n        /* \"#utility.yul\":19831:19897   */\n      swap1\n      pop\n        /* \"#utility.yul\":19761:19903   */\n      swap2\n      swap1\n      pop\n      jump\t// out\n        /* \"#utility.yul\":19909:19984   */\n    tag_168:\n        /* \"#utility.yul\":19952:19955   */\n      0x00\n        /* \"#utility.yul\":19973:19978   */\n      dup2\n        /* \"#utility.yul\":19966:19978   */\n      swap1\n      pop\n        /* \"#utility.yul\":19909:19984   */\n      swap2\n      swap1\n      pop\n      jump\t// out\n        /* \"#utility.yul\":19990:20259   */\n    tag_169:\n        /* \"#utility.yul\":20100:20139   */\n      tag_350\n        /* \"#utility.yul\":20131:20138   */\n      dup4\n        /* \"#utility.yul\":20100:20139   */\n      tag_167\n      jump\t// in\n    tag_350:\n        /* \"#utility.yul\":20161:20252   */\n      tag_351\n        /* \"#utility.yul\":20210:20251   */\n      tag_352\n        /* \"#utility.yul\":20234:20250   */\n      dup3\n        /* \"#utility.yul\":20210:20251   */\n      tag_168\n      jump\t// in\n    tag_352:\n        /* \"#utility.yul\":20202:20208   */\n      dup5\n        /* \"#utility.yul\":20195:20199   */\n      dup5\n        /* \"#utility.yul\":20189:20200   */\n      sload\n        /* \"#utility.yul\":20161:20252   */\n      tag_165\n      jump\t// in\n    tag_351:\n        /* \"#utility.yul\":20155:20159   */\n      dup3\n        /* \"#utility.yul\":20148:20253   */\n      sstore\n        /* \"#utility.yul\":20066:20259   */\n      pop\n        /* \"#utility.yul\":19990:20259   */\n      pop\n      pop\n      pop\n      jump\t// out\n        /* \"#utility.yul\":20265:20338   */\n    tag_170:\n        /* \"#utility.yul\":20310:20313   */\n      0x00\n        /* \"#utility.yul\":20331:20332   */\n      0x00\n        /* \"#utility.yul\":20324:20332   */\n      swap1\n      pop\n        /* \"#utility.yul\":20265:20338   */\n      swap1\n      jump\t// out\n        /* \"#utility.yul\":20344:20533   */\n    tag_171:\n        /* \"#utility.yul\":20421:20453   */\n      tag_355\n      tag_170\n      jump\t// in\n    tag_355:\n        /* \"#utility.yul\":20462:20527   */\n      tag_356\n        /* \"#utility.yul\":20520:20526   */\n      dup2\n        /* \"#utility.yul\":20512:20518   */\n      dup5\n        /* \"#utility.yul\":20506:20510   */\n      dup5\n        /* \"#utility.yul\":20462:20527   */\n      tag_169\n      jump\t// in\n    tag_356:\n        /* \"#utility.yul\":20397:20533   */\n      pop\n        /* \"#utility.yul\":20344:20533   */\n      pop\n      pop\n      jump\t// out\n        /* \"#utility.yul\":20539:20725   */\n    tag_172:\n        /* \"#utility.yul\":20599:20719   */\n    tag_358:\n        /* \"#utility.yul\":20616:20619   */\n      dup2\n        /* \"#utility.yul\":20609:20614   */\n      dup2\n        /* \"#utility.yul\":20606:20620   */\n      lt\n        /* \"#utility.yul\":20599:20719   */\n      iszero\n      tag_360\n      jumpi\n        /* \"#utility.yul\":20670:20709   */\n      tag_361\n        /* \"#utility.yul\":20707:20708   */\n      0x00\n        /* \"#utility.yul\":20700:20705   */\n      dup3\n        /* \"#utility.yul\":20670:20709   */\n      tag_171\n      jump\t// in\n    tag_361:\n        /* \"#utility.yul\":20643:20644   */\n      0x01\n        /* \"#utility.yul\":20636:20641   */\n      dup2\n        /* \"#utility.yul\":20632:20645   */\n      add\n        /* \"#utility.yul\":20623:20645   */\n      swap1\n      pop\n        /* \"#utility.yul\":20599:20719   */\n      jump(tag_358)\n    tag_360:\n        /* \"#utility.yul\":20539:20725   */\n      pop\n      pop\n      jump\t// out\n        /* \"#utility.yul\":20731:21274   */\n    tag_173:\n        /* \"#utility.yul\":20832:20834   */\n      0x1f\n        /* \"#utility.yul\":20827:20830   */\n      dup3\n        /* \"#utility.yul\":20824:20835   */\n      gt\n        /* \"#utility.yul\":20821:21267   */\n      iszero\n      tag_363\n      jumpi\n        /* \"#utility.yul\":20866:20904   */\n      tag_364\n        /* \"#utility.yul\":20898:20903   */\n      dup2\n        /* \"#utility.yul\":20866:20904   */\n      tag_162\n      jump\t// in\n    tag_364:\n        /* \"#utility.yul\":20950:20979   */\n      tag_365\n        /* \"#utility.yul\":20968:20978   */\n      dup5\n        /* \"#utility.yul\":20950:20979   */\n      tag_163\n      jump\t// in\n    tag_365:\n        /* \"#utility.yul\":20940:20948   */\n      dup2\n        /* \"#utility.yul\":20936:20980   */\n      add\n        /* \"#utility.yul\":21133:21135   */\n      0x20\n        /* \"#utility.yul\":21121:21131   */\n      dup6\n        /* \"#utility.yul\":21118:21136   */\n      lt\n        /* \"#utility.yul\":21115:21164   */\n      iszero\n      tag_366\n      jumpi\n        /* \"#utility.yul\":21154:21162   */\n      dup2\n        /* \"#utility.yul\":21139:21162   */\n      swap1\n      pop\n        /* \"#utility.yul\":21115:21164   */\n    tag_366:\n        /* \"#utility.yul\":21177:21257   */\n      tag_367\n        /* \"#utility.yul\":21233:21255   */\n      tag_368\n        /* \"#utility.yul\":21251:21254   */\n      dup6\n        /* \"#utility.yul\":21233:21255   */\n      tag_163\n      jump\t// in\n    tag_368:\n        /* \"#utility.yul\":21223:21231   */\n      dup4\n        /* \"#utility.yul\":21219:21256   */\n      add\n        /* \"#utility.yul\":21206:21217   */\n      dup3\n        /* \"#utility.yul\":21177:21257   */\n      tag_172\n      jump\t// in\n    tag_367:\n        /* \"#utility.yul\":20836:21267   */\n      pop\n      pop\n        /* \"#utility.yul\":20821:21267   */\n    tag_363:\n        /* \"#utility.yul\":20731:21274   */\n      pop\n      pop\n      pop\n      jump\t// out\n        /* \"#utility.yul\":21280:21397   */\n    tag_174:\n        /* \"#utility.yul\":21334:21342   */\n      0x00\n        /* \"#utility.yul\":21384:21389   */\n      dup3\n        /* \"#utility.yul\":21378:21382   */\n      dup3\n        /* \"#utility.yul\":21374:21390   */\n      shr\n        /* \"#utility.yul\":21353:21390   */\n      swap1\n      pop\n        /* \"#utility.yul\":21280:21397   */\n      swap3\n      swap2\n      pop\n      pop\n      jump\t// out\n        /* \"#utility.yul\":21403:21572   */\n    tag_175:\n        /* \"#utility.yul\":21447:21453   */\n      0x00\n        /* \"#utility.yul\":21480:21531   */\n      tag_371\n        /* \"#utility.yul\":21528:21529   */\n      0x00\n        /* \"#utility.yul\":21524:21530   */\n      not\n        /* \"#utility.yul\":21516:21521   */\n      dup5\n        /* \"#utility.yul\":21513:21514   */\n      0x08\n        /* \"#utility.yul\":21509:21522   */\n      mul\n        /* \"#utility.yul\":21480:21531   */\n      tag_174\n      jump\t// in\n    tag_371:\n        /* \"#utility.yul\":21476:21532   */\n      not\n        /* \"#utility.yul\":21561:21565   */\n      dup1\n        /* \"#utility.yul\":21555:21559   */\n      dup4\n        /* \"#utility.yul\":21551:21566   */\n      and\n        /* \"#utility.yul\":21541:21566   */\n      swap2\n      pop\n        /* \"#utility.yul\":21454:21572   */\n      pop\n        /* \"#utility.yul\":21403:21572   */\n      swap3\n      swap2\n      pop\n      pop\n      jump\t// out\n        /* \"#utility.yul\":21577:21872   */\n    tag_176:\n        /* \"#utility.yul\":21653:21657   */\n      0x00\n        /* \"#utility.yul\":21799:21828   */\n      tag_373\n        /* \"#utility.yul\":21824:21827   */\n      dup4\n        /* \"#utility.yul\":21818:21822   */\n      dup4\n        /* \"#utility.yul\":21799:21828   */\n      tag_175\n      jump\t// in\n    tag_373:\n        /* \"#utility.yul\":21791:21828   */\n      swap2\n      pop\n        /* \"#utility.yul\":21861:21864   */\n      dup3\n        /* \"#utility.yul\":21858:21859   */\n      0x02\n        /* \"#utility.yul\":21854:21865   */\n      mul\n        /* \"#utility.yul\":21848:21852   */\n      dup3\n        /* \"#utility.yul\":21845:21866   */\n      or\n        /* \"#utility.yul\":21837:21866   */\n      swap1\n      pop\n        /* \"#utility.yul\":21577:21872   */\n      swap3\n      swap2\n      pop\n      pop\n      jump\t// out\n        /* \"#utility.yul\":21877:23272   */\n    tag_69:\n        /* \"#utility.yul\":21994:22031   */\n      tag_375\n        /* \"#utility.yul\":22027:22030   */\n      dup3\n        /* \"#utility.yul\":21994:22031   */\n      tag_124\n      jump\t// in\n    tag_375:\n        /* \"#utility.yul\":22096:22114   */\n      0xffffffffffffffff\n        /* \"#utility.yul\":22088:22094   */\n      dup2\n        /* \"#utility.yul\":22085:22115   */\n      gt\n        /* \"#utility.yul\":22082:22138   */\n      iszero\n      tag_376\n      jumpi\n        /* \"#utility.yul\":22118:22136   */\n      tag_377\n      tag_84\n      jump\t// in\n    tag_377:\n        /* \"#utility.yul\":22082:22138   */\n    tag_376:\n        /* \"#utility.yul\":22162:22200   */\n      tag_378\n        /* \"#utility.yul\":22194:22198   */\n      dup3\n        /* \"#utility.yul\":22188:22199   */\n      sload\n        /* \"#utility.yul\":22162:22200   */\n      tag_37\n      jump\t// in\n    tag_378:\n        /* \"#utility.yul\":22247:22314   */\n      tag_379\n        /* \"#utility.yul\":22307:22313   */\n      dup3\n        /* \"#utility.yul\":22299:22305   */\n      dup3\n        /* \"#utility.yul\":22293:22297   */\n      dup6\n        /* \"#utility.yul\":22247:22314   */\n      tag_173\n      jump\t// in\n    tag_379:\n        /* \"#utility.yul\":22341:22342   */\n      0x00\n        /* \"#utility.yul\":22365:22369   */\n      0x20\n        /* \"#utility.yul\":22352:22369   */\n      swap1\n      pop\n        /* \"#utility.yul\":22397:22399   */\n      0x1f\n        /* \"#utility.yul\":22389:22395   */\n      dup4\n        /* \"#utility.yul\":22386:22400   */\n      gt\n        /* \"#utility.yul\":22414:22415   */\n      0x01\n        /* \"#utility.yul\":22409:23027   */\n      dup2\n      eq\n      tag_381\n      jumpi\n        /* \"#utility.yul\":23071:23072   */\n      0x00\n        /* \"#utility.yul\":23088:23094   */\n      dup5\n        /* \"#utility.yul\":23085:23162   */\n      iszero\n      tag_382\n      jumpi\n        /* \"#utility.yul\":23137:23146   */\n      dup3\n        /* \"#utility.yul\":23132:23135   */\n      dup8\n        /* \"#utility.yul\":23128:23147   */\n      add\n        /* \"#utility.yul\":23122:23148   */\n      mload\n        /* \"#utility.yul\":23113:23148   */\n      swap1\n      pop\n        /* \"#utility.yul\":23085:23162   */\n    tag_382:\n        /* \"#utility.yul\":23188:23255   */\n      tag_383\n        /* \"#utility.yul\":23248:23254   */\n      dup6\n        /* \"#utility.yul\":23241:23246   */\n      dup3\n        /* \"#utility.yul\":23188:23255   */\n      tag_176\n      jump\t// in\n    tag_383:\n        /* \"#utility.yul\":23182:23186   */\n      dup7\n        /* \"#utility.yul\":23175:23256   */\n      sstore\n        /* \"#utility.yul\":23044:23266   */\n      pop\n        /* \"#utility.yul\":22379:23266   */\n      jump(tag_380)\n        /* \"#utility.yul\":22409:23027   */\n    tag_381:\n        /* \"#utility.yul\":22461:22465   */\n      0x1f\n        /* \"#utility.yul\":22457:22466   */\n      not\n        /* \"#utility.yul\":22449:22455   */\n      dup5\n        /* \"#utility.yul\":22445:22467   */\n      and\n        /* \"#utility.yul\":22495:22532   */\n      tag_384\n        /* \"#utility.yul\":22527:22531   */\n      dup7\n        /* \"#utility.yul\":22495:22532   */\n      tag_162\n      jump\t// in\n    tag_384:\n        /* \"#utility.yul\":22554:22555   */\n      0x00\n        /* \"#utility.yul\":22568:22776   */\n    tag_385:\n        /* \"#utility.yul\":22582:22589   */\n      dup3\n        /* \"#utility.yul\":22579:22580   */\n      dup2\n        /* \"#utility.yul\":22576:22590   */\n      lt\n        /* \"#utility.yul\":22568:22776   */\n      iszero\n      tag_387\n      jumpi\n        /* \"#utility.yul\":22661:22670   */\n      dup5\n        /* \"#utility.yul\":22656:22659   */\n      dup10\n        /* \"#utility.yul\":22652:22671   */\n      add\n        /* \"#utility.yul\":22646:22672   */\n      mload\n        /* \"#utility.yul\":22638:22644   */\n      dup3\n        /* \"#utility.yul\":22631:22673   */\n      sstore\n        /* \"#utility.yul\":22712:22713   */\n      0x01\n        /* \"#utility.yul\":22704:22710   */\n      dup3\n        /* \"#utility.yul\":22700:22714   */\n      add\n        /* \"#utility.yul\":22690:22714   */\n      swap2\n      pop\n        /* \"#utility.yul\":22759:22761   */\n      0x20\n        /* \"#utility.yul\":22748:22757   */\n      dup6\n        /* \"#utility.yul\":22744:22762   */\n      add\n        /* \"#utility.yul\":22731:22762   */\n      swap5\n      pop\n        /* \"#utility.yul\":22605:22609   */\n      0x20\n        /* \"#utility.yul\":22602:22603   */\n      dup2\n        /* \"#utility.yul\":22598:22610   */\n      add\n        /* \"#utility.yul\":22593:22610   */\n      swap1\n      pop\n        /* \"#utility.yul\":22568:22776   */\n      jump(tag_385)\n    tag_387:\n        /* \"#utility.yul\":22804:22810   */\n      dup7\n        /* \"#utility.yul\":22795:22802   */\n      dup4\n        /* \"#utility.yul\":22792:22811   */\n      lt\n        /* \"#utility.yul\":22789:22968   */\n      iszero\n      tag_388\n      jumpi\n        /* \"#utility.yul\":22862:22871   */\n      dup5\n        /* \"#utility.yul\":22857:22860   */\n      dup10\n        /* \"#utility.yul\":22853:22872   */\n      add\n        /* \"#utility.yul\":22847:22873   */\n      mload\n        /* \"#utility.yul\":22905:22953   */\n      tag_389\n        /* \"#utility.yul\":22947:22951   */\n      0x1f\n        /* \"#utility.yul\":22939:22945   */\n      dup10\n        /* \"#utility.yul\":22935:22952   */\n      and\n        /* \"#utility.yul\":22924:22933   */\n      dup3\n        /* \"#utility.yul\":22905:22953   */\n      tag_175\n      jump\t// in\n    tag_389:\n        /* \"#utility.yul\":22897:22903   */\n      dup4\n        /* \"#utility.yul\":22890:22954   */\n      sstore\n        /* \"#utility.yul\":22812:22968   */\n      pop\n        /* \"#utility.yul\":22789:22968   */\n    tag_388:\n        /* \"#utility.yul\":23014:23015   */\n      0x01\n        /* \"#utility.yul\":23010:23011   */\n      0x02\n        /* \"#utility.yul\":23002:23008   */\n      dup9\n        /* \"#utility.yul\":22998:23012   */\n      mul\n        /* \"#utility.yul\":22994:23016   */\n      add\n        /* \"#utility.yul\":22988:22992   */\n      dup9\n        /* \"#utility.yul\":22981:23017   */\n      sstore\n        /* \"#utility.yul\":22416:23027   */\n      pop\n      pop\n      pop\n        /* \"#utility.yul\":22379:23266   */\n    tag_380:\n      pop\n        /* \"#utility.yul\":21969:23272   */\n      pop\n      pop\n      pop\n        /* \"#utility.yul\":21877:23272   */\n      pop\n      pop\n      jump\t// out\n        /* \"#utility.yul\":23278:23553   */\n    tag_73:\n        /* \"#utility.yul\":23410:23413   */\n      0x00\n        /* \"#utility.yul\":23432:23527   */\n      tag_391\n        /* \"#utility.yul\":23523:23526   */\n      dup3\n        /* \"#utility.yul\":23514:23520   */\n      dup5\n        /* \"#utility.yul\":23432:23527   */\n      tag_154\n      jump\t// in\n    tag_391:\n        /* \"#utility.yul\":23425:23527   */\n      swap2\n      pop\n        /* \"#utility.yul\":23544:23547   */\n      dup2\n        /* \"#utility.yul\":23537:23547   */\n      swap1\n      pop\n        /* \"#utility.yul\":23278:23553   */\n      swap3\n      swap2\n      pop\n      pop\n      jump\t// out\n        /* \"#utility.yul\":23559:24183   */\n    tag_77:\n        /* \"#utility.yul\":23748:23752   */\n      0x00\n        /* \"#utility.yul\":23786:23788   */\n      0x60\n        /* \"#utility.yul\":23775:23784   */\n      dup3\n        /* \"#utility.yul\":23771:23789   */\n      add\n        /* \"#utility.yul\":23763:23789   */\n      swap1\n      pop\n        /* \"#utility.yul\":23799:23870   */\n      tag_393\n        /* \"#utility.yul\":23867:23868   */\n      0x00\n        /* \"#utility.yul\":23856:23865   */\n      dup4\n        /* \"#utility.yul\":23852:23869   */\n      add\n        /* \"#utility.yul\":23843:23849   */\n      dup7\n        /* \"#utility.yul\":23799:23870   */\n      tag_135\n      jump\t// in\n    tag_393:\n        /* \"#utility.yul\":23917:23926   */\n      dup2\n        /* \"#utility.yul\":23911:23915   */\n      dup2\n        /* \"#utility.yul\":23907:23927   */\n      sub\n        /* \"#utility.yul\":23902:23904   */\n      0x20\n        /* \"#utility.yul\":23891:23900   */\n      dup4\n        /* \"#utility.yul\":23887:23905   */\n      add\n        /* \"#utility.yul\":23880:23928   */\n      mstore\n        /* \"#utility.yul\":23945:24023   */\n      tag_394\n        /* \"#utility.yul\":24018:24022   */\n      dup2\n        /* \"#utility.yul\":24009:24015   */\n      dup6\n        /* \"#utility.yul\":23945:24023   */\n      tag_134\n      jump\t// in\n    tag_394:\n        /* \"#utility.yul\":23937:24023   */\n      swap1\n      pop\n        /* \"#utility.yul\":24070:24079   */\n      dup2\n        /* \"#utility.yul\":24064:24068   */\n      dup2\n        /* \"#utility.yul\":24060:24080   */\n      sub\n        /* \"#utility.yul\":24055:24057   */\n      0x40\n        /* \"#utility.yul\":24044:24053   */\n      dup4\n        /* \"#utility.yul\":24040:24058   */\n      add\n        /* \"#utility.yul\":24033:24081   */\n      mstore\n        /* \"#utility.yul\":24098:24176   */\n      tag_395\n        /* \"#utility.yul\":24171:24175   */\n      dup2\n        /* \"#utility.yul\":24162:24168   */\n      dup5\n        /* \"#utility.yul\":24098:24176   */\n      tag_134\n      jump\t// in\n    tag_395:\n        /* \"#utility.yul\":24090:24176   */\n      swap1\n      pop\n        /* \"#utility.yul\":23559:24183   */\n      swap5\n      swap4\n      pop\n      pop\n      pop\n      pop\n      jump\t// out\n        /* \"#utility.yul\":24189:24369   */\n    tag_94:\n        /* \"#utility.yul\":24237:24314   */\n      0x4e487b7100000000000000000000000000000000000000000000000000000000\n        /* \"#utility.yul\":24234:24235   */\n      0x00\n        /* \"#utility.yul\":24227:24315   */\n      mstore\n        /* \"#utility.yul\":24334:24338   */\n      0x32\n        /* \"#utility.yul\":24331:24332   */\n      0x04\n        /* \"#utility.yul\":24324:24339   */\n      mstore\n        /* \"#utility.yul\":24358:24362   */\n      0x24\n        /* \"#utility.yul\":24355:24356   */\n      0x00\n        /* \"#utility.yul\":24348:24363   */\n      revert\n\n    auxdata: 0xa26469706673582212200ca43372ed99d2d372ebe03d278d53f46817d9e8809f8f0c12bf77eacb26057764736f6c634300081e0033\n}\n",
				"bytecode": {
					"linkReferences": {},
					"object": "60806040525f5f553480156011575f5ffd5b5061165e8061001f5f395ff3fe608060405234801561000f575f5ffd5b5060043610610055575f3560e01c80632bfda31314610059578063439535191461008a57806392bb481a146100a8578063da618161146100c4578063f4c714b4146100f4575b5f5ffd5b610073600480360381019061006e9190610ada565b610128565b604051610081929190610c8c565b60405180910390f35b610092610405565b60405161009f9190610cd0565b60405180910390f35b6100c260048036038101906100bd9190610e15565b61040a565b005b6100de60048036038101906100d99190610eb9565b61067d565b6040516100eb9190610ff5565b60405180910390f35b61010e60048036038101906101099190610ada565b610857565b60405161011f959493929190611024565b60405180910390f35b610130610a3a565b60605f60015f8581526020019081526020015f206040518060a00160405290815f8201548152602001600182018054610168906110b7565b80601f0160208091040260200160405190810160405280929190818152602001828054610194906110b7565b80156101df5780601f106101b6576101008083540402835291602001916101df565b820191905f5260205f20905b8154815290600101906020018083116101c257829003601f168201915b505050505081526020016002820180546101f8906110b7565b80601f0160208091040260200160405190810160405280929190818152602001828054610224906110b7565b801561026f5780601f106102465761010080835404028352916020019161026f565b820191905f5260205f20905b81548152906001019060200180831161025257829003601f168201915b50505050508152602001600382018054610288906110b7565b80601f01602080910402602001604051908101604052809291908181526020018280546102b4906110b7565b80156102ff5780601f106102d6576101008083540402835291602001916102ff565b820191905f5260205f20905b8154815290600101906020018083116102e257829003601f168201915b50505050508152602001600482015f9054906101000a900473ffffffffffffffffffffffffffffffffffffffff1673ffffffffffffffffffffffffffffffffffffffff1673ffffffffffffffffffffffffffffffffffffffff168152505090505f6040518060400160405280601581526020017f68747470733a2f2f697066732e696f2f697066732f000000000000000000000081525082602001516040516020016103ac929190611121565b60405160208183030381529060405290507f4d781b133740938e4a2e41d654ec743d6f306ae4b8240a07bb71504cbcd21b148583836040516103f093929190611144565b60405180910390a18181935093505050915091565b5f5481565b5f83511161044d576040517f08c379a0000000000000000000000000000000000000000000000000000000008152600401610444906111d1565b60405180910390fd5b5f825111610490576040517f08c379a000000000000000000000000000000000000000000000000000000000815260040161048790611239565b60405180910390fd5b5f8151116104d3576040517f08c379a00000000000000000000000000000000000000000000000000000000081526004016104ca906112a1565b60405180910390fd5b5f5f8154809291906104e4906112ec565b91905055506040518060a001604052805f5481526020018481526020018281526020018381526020013373ffffffffffffffffffffffffffffffffffffffff1681525060015f5f5481526020019081526020015f205f820151815f0155602082015181600101908161055691906114d3565b50604082015181600201908161056c91906114d3565b50606082015181600301908161058291906114d3565b506080820151816004015f6101000a81548173ffffffffffffffffffffffffffffffffffffffff021916908373ffffffffffffffffffffffffffffffffffffffff1602179055509050506002816040516105dc91906115a2565b90815260200160405180910390205f54908060018154018082558091505060019003905f5260205f20015f90919091909150553373ffffffffffffffffffffffffffffffffffffffff168160405161063491906115a2565b60405180910390207fa840b93cbcb6e31291b2769d43a3ae3e9518b9eddbf4bc0737e3073f93476e0e5f548686604051610670939291906115b8565b60405180910390a3505050565b60605f60028360405161069091906115a2565b90815260200160405180910390208054806020026020016040519081016040528092919081815260200182805480156106e657602002820191905f5260205f20905b8154815260200190600101908083116106d2575b505050505090505f815167ffffffffffffffff81111561070957610708610cf1565b5b60405190808252806020026020018201604052801561074257816020015b61072f610a7d565b8152602001906001900390816107275790505b5090505f5f90505b825181101561084c575f838281518110610767576107666115fb565b5b60200260200101519050604051806040016040528082815260200160015f8481526020019081526020015f2060030180546107a1906110b7565b80601f01602080910402602001604051908101604052809291908181526020018280546107cd906110b7565b80156108185780601f106107ef57610100808354040283529160200191610818565b820191905f5260205f20905b8154815290600101906020018083116107fb57829003601f168201915b5050505050815250838381518110610833576108326115fb565b5b602002602001018190525050808060010191505061074a565b508092505050919050565b6001602052805f5260405f205f91509050805f01549080600101805461087c906110b7565b80601f01602080910402602001604051908101604052809291908181526020018280546108a8906110b7565b80156108f35780601f106108ca576101008083540402835291602001916108f3565b820191905f5260205f20905b8154815290600101906020018083116108d657829003601f168201915b505050505090806002018054610908906110b7565b80601f0160208091040260200160405190810160405280929190818152602001828054610934906110b7565b801561097f5780601f106109565761010080835404028352916020019161097f565b820191905f5260205f20905b81548152906001019060200180831161096257829003601f168201915b505050505090806003018054610994906110b7565b80601f01602080910402602001604051908101604052809291908181526020018280546109c0906110b7565b8015610a0b5780601f106109e257610100808354040283529160200191610a0b565b820191905f5260205f20905b8154815290600101906020018083116109ee57829003601f168201915b505050505090806004015f9054906101000a900473ffffffffffffffffffffffffffffffffffffffff16905085565b6040518060a001604052805f81526020016060815260200160608152602001606081526020015f73ffffffffffffffffffffffffffffffffffffffff1681525090565b60405180604001604052805f8152602001606081525090565b5f604051905090565b5f5ffd5b5f5ffd5b5f819050919050565b610ab981610aa7565b8114610ac3575f5ffd5b50565b5f81359050610ad481610ab0565b92915050565b5f60208284031215610aef57610aee610a9f565b5b5f610afc84828501610ac6565b91505092915050565b610b0e81610aa7565b82525050565b5f81519050919050565b5f82825260208201905092915050565b8281835e5f83830152505050565b5f601f19601f8301169050919050565b5f610b5682610b14565b610b608185610b1e565b9350610b70818560208601610b2e565b610b7981610b3c565b840191505092915050565b5f73ffffffffffffffffffffffffffffffffffffffff82169050919050565b5f610bad82610b84565b9050919050565b610bbd81610ba3565b82525050565b5f60a083015f830151610bd85f860182610b05565b5060208301518482036020860152610bf08282610b4c565b91505060408301518482036040860152610c0a8282610b4c565b91505060608301518482036060860152610c248282610b4c565b9150506080830151610c396080860182610bb4565b508091505092915050565b5f82825260208201905092915050565b5f610c5e82610b14565b610c688185610c44565b9350610c78818560208601610b2e565b610c8181610b3c565b840191505092915050565b5f6040820190508181035f830152610ca48185610bc3565b90508181036020830152610cb88184610c54565b90509392505050565b610cca81610aa7565b82525050565b5f602082019050610ce35f830184610cc1565b92915050565b5f5ffd5b5f5ffd5b7f4e487b71000000000000000000000000000000000000000000000000000000005f52604160045260245ffd5b610d2782610b3c565b810181811067ffffffffffffffff82111715610d4657610d45610cf1565b5b80604052505050565b5f610d58610a96565b9050610d648282610d1e565b919050565b5f67ffffffffffffffff821115610d8357610d82610cf1565b5b610d8c82610b3c565b9050602081019050919050565b828183375f83830152505050565b5f610db9610db484610d69565b610d4f565b905082815260208101848484011115610dd557610dd4610ced565b5b610de0848285610d99565b509392505050565b5f82601f830112610dfc57610dfb610ce9565b5b8135610e0c848260208601610da7565b91505092915050565b5f5f5f60608486031215610e2c57610e2b610a9f565b5b5f84013567ffffffffffffffff811115610e4957610e48610aa3565b5b610e5586828701610de8565b935050602084013567ffffffffffffffff811115610e7657610e75610aa3565b5b610e8286828701610de8565b925050604084013567ffffffffffffffff811115610ea357610ea2610aa3565b5b610eaf86828701610de8565b9150509250925092565b5f60208284031215610ece57610ecd610a9f565b5b5f82013567ffffffffffffffff811115610eeb57610eea610aa3565b5b610ef784828501610de8565b91505092915050565b5f81519050919050565b5f82825260208201905092915050565b5f819050602082019050919050565b5f604083015f830151610f3e5f860182610b05565b5060208301518482036020860152610f568282610b4c565b9150508091505092915050565b5f610f6e8383610f29565b905092915050565b5f602082019050919050565b5f610f8c82610f00565b610f968185610f0a565b935083602082028501610fa885610f1a565b805f5b85811015610fe35784840389528151610fc48582610f63565b9450610fcf83610f76565b925060208a01995050600181019050610fab565b50829750879550505050505092915050565b5f6020820190508181035f83015261100d8184610f82565b905092915050565b61101e81610ba3565b82525050565b5f60a0820190506110375f830188610cc1565b81810360208301526110498187610c54565b9050818103604083015261105d8186610c54565b905081810360608301526110718185610c54565b90506110806080830184611015565b9695505050505050565b7f4e487b71000000000000000000000000000000000000000000000000000000005f52602260045260245ffd5b5f60028204905060018216806110ce57607f821691505b6020821081036110e1576110e061108a565b5b50919050565b5f81905092915050565b5f6110fb82610b14565b61110581856110e7565b9350611115818560208601610b2e565b80840191505092915050565b5f61112c82856110f1565b915061113882846110f1565b91508190509392505050565b5f6060820190506111575f830186610cc1565b81810360208301526111698185610bc3565b9050818103604083015261117d8184610c54565b9050949350505050565b7f49504653204861736820697320726571756972656400000000000000000000005f82015250565b5f6111bb601583610c44565b91506111c682611187565b602082019050919050565b5f6020820190508181035f8301526111e8816111af565b9050919050565b7f46696c65204e616d6520697320726571756972656400000000000000000000005f82015250565b5f611223601583610c44565b915061122e826111ef565b602082019050919050565b5f6020820190508181035f83015261125081611217565b9050919050565b7f5375626a656374206973207265717569726564000000000000000000000000005f82015250565b5f61128b601383610c44565b915061129682611257565b602082019050919050565b5f6020820190508181035f8301526112b88161127f565b9050919050565b7f4e487b71000000000000000000000000000000000000000000000000000000005f52601160045260245ffd5b5f6112f682610aa7565b91507fffffffffffffffffffffffffffffffffffffffffffffffffffffffffffffffff8203611328576113276112bf565b5b600182019050919050565b5f819050815f5260205f209050919050565b5f6020601f8301049050919050565b5f82821b905092915050565b5f6008830261138f7fffffffffffffffffffffffffffffffffffffffffffffffffffffffffffffffff82611354565b6113998683611354565b95508019841693508086168417925050509392505050565b5f819050919050565b5f6113d46113cf6113ca84610aa7565b6113b1565b610aa7565b9050919050565b5f819050919050565b6113ed836113ba565b6114016113f9826113db565b848454611360565b825550505050565b5f5f905090565b611418611409565b6114238184846113e4565b505050565b5b818110156114465761143b5f82611410565b600181019050611429565b5050565b601f82111561148b5761145c81611333565b61146584611345565b81016020851015611474578190505b61148861148085611345565b830182611428565b50505b505050565b5f82821c905092915050565b5f6114ab5f1984600802611490565b1980831691505092915050565b5f6114c3838361149c565b9150826002028217905092915050565b6114dc82610b14565b67ffffffffffffffff8111156114f5576114f4610cf1565b5b6114ff82546110b7565b61150a82828561144a565b5f60209050601f83116001811461153b575f8415611529578287015190505b61153385826114b8565b86555061159a565b601f19841661154986611333565b5f5b828110156115705784890151825560018201915060208501945060208101905061154b565b8683101561158d5784890151611589601f89168261149c565b8355505b6001600288020188555050505b505050505050565b5f6115ad82846110f1565b915081905092915050565b5f6060820190506115cb5f830186610cc1565b81810360208301526115dd8185610c54565b905081810360408301526115f18184610c54565b9050949350505050565b7f4e487b71000000000000000000000000000000000000000000000000000000005f52603260045260245ffdfea26469706673582212200ca43372ed99d2d372ebe03d278d53f46817d9e8809f8f0c12bf77eacb26057764736f6c634300081e0033",
					"opcodes": "PUSH1 0x80 PUSH1 0x40 MSTORE PUSH0 PUSH0 SSTORE CALLVALUE DUP1 ISZERO PUSH1 0x11 JUMPI PUSH0 PUSH0 REVERT JUMPDEST POP PUSH2 0x165E DUP1 PUSH2 0x1F PUSH0 CODECOPY PUSH0 RETURN INVALID PUSH1 0x80 PUSH1 0x40 MSTORE CALLVALUE DUP1 ISZERO PUSH2 0xF JUMPI PUSH0 PUSH0 REVERT JUMPDEST POP PUSH1 0x4 CALLDATASIZE LT PUSH2 0x55 JUMPI PUSH0 CALLDATALOAD PUSH1 0xE0 SHR DUP1 PUSH4 0x2BFDA313 EQ PUSH2 0x59 JUMPI DUP1 PUSH4 0x43953519 EQ PUSH2 0x8A JUMPI DUP1 PUSH4 0x92BB481A EQ PUSH2 0xA8 JUMPI DUP1 PUSH4 0xDA618161 EQ PUSH2 0xC4 JUMPI DUP1 PUSH4 0xF4C714B4 EQ PUSH2 0xF4 JUMPI JUMPDEST PUSH0 PUSH0 REVERT JUMPDEST PUSH2 0x73 PUSH1 0x4 DUP1 CALLDATASIZE SUB DUP2 ADD SWAP1 PUSH2 0x6E SWAP2 SWAP1 PUSH2 0xADA JUMP JUMPDEST PUSH2 0x128 JUMP JUMPDEST PUSH1 0x40 MLOAD PUSH2 0x81 SWAP3 SWAP2 SWAP1 PUSH2 0xC8C JUMP JUMPDEST PUSH1 0x40 MLOAD DUP1 SWAP2 SUB SWAP1 RETURN JUMPDEST PUSH2 0x92 PUSH2 0x405 JUMP JUMPDEST PUSH1 0x40 MLOAD PUSH2 0x9F SWAP2 SWAP1 PUSH2 0xCD0 JUMP JUMPDEST PUSH1 0x40 MLOAD DUP1 SWAP2 SUB SWAP1 RETURN JUMPDEST PUSH2 0xC2 PUSH1 0x4 DUP1 CALLDATASIZE SUB DUP2 ADD SWAP1 PUSH2 0xBD SWAP2 SWAP1 PUSH2 0xE15 JUMP JUMPDEST PUSH2 0x40A JUMP JUMPDEST STOP JUMPDEST PUSH2 0xDE PUSH1 0x4 DUP1 CALLDATASIZE SUB DUP2 ADD SWAP1 PUSH2 0xD9 SWAP2 SWAP1 PUSH2 0xEB9 JUMP JUMPDEST PUSH2 0x67D JUMP JUMPDEST PUSH1 0x40 MLOAD PUSH2 0xEB SWAP2 SWAP1 PUSH2 0xFF5 JUMP JUMPDEST PUSH1 0x40 MLOAD DUP1 SWAP2 SUB SWAP1 RETURN JUMPDEST PUSH2 0x10E PUSH1 0x4 DUP1 CALLDATASIZE SUB DUP2 ADD SWAP1 PUSH2 0x109 SWAP2 SWAP1 PUSH2 0xADA JUMP JUMPDEST PUSH2 0x857 JUMP JUMPDEST PUSH1 0x40 MLOAD PUSH2 0x11F SWAP6 SWAP5 SWAP4 SWAP3 SWAP2 SWAP1 PUSH2 0x1024 JUMP JUMPDEST PUSH1 0x40 MLOAD DUP1 SWAP2 SUB SWAP1 RETURN JUMPDEST PUSH2 0x130 PUSH2 0xA3A JUMP JUMPDEST PUSH1 0x60 PUSH0 PUSH1 0x1 PUSH0 DUP6 DUP2 MSTORE PUSH1 0x20 ADD SWAP1 DUP2 MSTORE PUSH1 0x20 ADD PUSH0 KECCAK256 PUSH1 0x40 MLOAD DUP1 PUSH1 0xA0 ADD PUSH1 0x40 MSTORE SWAP1 DUP2 PUSH0 DUP3 ADD SLOAD DUP2 MSTORE PUSH1 0x20 ADD PUSH1 0x1 DUP3 ADD DUP1 SLOAD PUSH2 0x168 SWAP1 PUSH2 0x10B7 JUMP JUMPDEST DUP1 PUSH1 0x1F ADD PUSH1 0x20 DUP1 SWAP2 DIV MUL PUSH1 0x20 ADD PUSH1 0x40 MLOAD SWAP1 DUP2 ADD PUSH1 0x40 MSTORE DUP1 SWAP3 SWAP2 SWAP1 DUP2 DUP2 MSTORE PUSH1 0x20 ADD DUP3 DUP1 SLOAD PUSH2 0x194 SWAP1 PUSH2 0x10B7 JUMP JUMPDEST DUP1 ISZERO PUSH2 0x1DF JUMPI DUP1 PUSH1 0x1F LT PUSH2 0x1B6 JUMPI PUSH2 0x100 DUP1 DUP4 SLOAD DIV MUL DUP4 MSTORE SWAP2 PUSH1 0x20 ADD SWAP2 PUSH2 0x1DF JUMP JUMPDEST DUP3 ADD SWAP2 SWAP1 PUSH0 MSTORE PUSH1 0x20 PUSH0 KECCAK256 SWAP1 JUMPDEST DUP2 SLOAD DUP2 MSTORE SWAP1 PUSH1 0x1 ADD SWAP1 PUSH1 0x20 ADD DUP1 DUP4 GT PUSH2 0x1C2 JUMPI DUP3 SWAP1 SUB PUSH1 0x1F AND DUP3 ADD SWAP2 JUMPDEST POP POP POP POP POP DUP2 MSTORE PUSH1 0x20 ADD PUSH1 0x2 DUP3 ADD DUP1 SLOAD PUSH2 0x1F8 SWAP1 PUSH2 0x10B7 JUMP JUMPDEST DUP1 PUSH1 0x1F ADD PUSH1 0x20 DUP1 SWAP2 DIV MUL PUSH1 0x20 ADD PUSH1 0x40 MLOAD SWAP1 DUP2 ADD PUSH1 0x40 MSTORE DUP1 SWAP3 SWAP2 SWAP1 DUP2 DUP2 MSTORE PUSH1 0x20 ADD DUP3 DUP1 SLOAD PUSH2 0x224 SWAP1 PUSH2 0x10B7 JUMP JUMPDEST DUP1 ISZERO PUSH2 0x26F JUMPI DUP1 PUSH1 0x1F LT PUSH2 0x246 JUMPI PUSH2 0x100 DUP1 DUP4 SLOAD DIV MUL DUP4 MSTORE SWAP2 PUSH1 0x20 ADD SWAP2 PUSH2 0x26F JUMP JUMPDEST DUP3 ADD SWAP2 SWAP1 PUSH0 MSTORE PUSH1 0x20 PUSH0 KECCAK256 SWAP1 JUMPDEST DUP2 SLOAD DUP2 MSTORE SWAP1 PUSH1 0x1 ADD SWAP1 PUSH1 0x20 ADD DUP1 DUP4 GT PUSH2 0x252 JUMPI DUP3 SWAP1 SUB PUSH1 0x1F AND DUP3 ADD SWAP2 JUMPDEST POP POP POP POP POP DUP2 MSTORE PUSH1 0x20 ADD PUSH1 0x3 DUP3 ADD DUP1 SLOAD PUSH2 0x288 SWAP1 PUSH2 0x10B7 JUMP JUMPDEST DUP1 PUSH1 0x1F ADD PUSH1 0x20 DUP1 SWAP2 DIV MUL PUSH1 0x20 ADD PUSH1 0x40 MLOAD SWAP1 DUP2 ADD PUSH1 0x40 MSTORE DUP1 SWAP3 SWAP2 SWAP1 DUP2 DUP2 MSTORE PUSH1 0x20 ADD DUP3 DUP1 SLOAD PUSH2 0x2B4 SWAP1 PUSH2 0x10B7 JUMP JUMPDEST DUP1 ISZERO PUSH2 0x2FF JUMPI DUP1 PUSH1 0x1F LT PUSH2 0x2D6 JUMPI PUSH2 0x100 DUP1 DUP4 SLOAD DIV MUL DUP4 MSTORE SWAP2 PUSH1 0x20 ADD SWAP2 PUSH2 0x2FF JUMP JUMPDEST DUP3 ADD SWAP2 SWAP1 PUSH0 MSTORE PUSH1 0x20 PUSH0 KECCAK256 SWAP1 JUMPDEST DUP2 SLOAD DUP2 MSTORE SWAP1 PUSH1 0x1 ADD SWAP1 PUSH1 0x20 ADD DUP1 DUP4 GT PUSH2 0x2E2 JUMPI DUP3 SWAP1 SUB PUSH1 0x1F AND DUP3 ADD SWAP2 JUMPDEST POP POP POP POP POP DUP2 MSTORE PUSH1 0x20 ADD PUSH1 0x4 DUP3 ADD PUSH0 SWAP1 SLOAD SWAP1 PUSH2 0x100 EXP SWAP1 DIV PUSH20 0xFFFFFFFFFFFFFFFFFFFFFFFFFFFFFFFFFFFFFFFF AND PUSH20 0xFFFFFFFFFFFFFFFFFFFFFFFFFFFFFFFFFFFFFFFF AND PUSH20 0xFFFFFFFFFFFFFFFFFFFFFFFFFFFFFFFFFFFFFFFF AND DUP2 MSTORE POP POP SWAP1 POP PUSH0 PUSH1 0x40 MLOAD DUP1 PUSH1 0x40 ADD PUSH1 0x40 MSTORE DUP1 PUSH1 0x15 DUP2 MSTORE PUSH1 0x20 ADD PUSH32 0x68747470733A2F2F697066732E696F2F697066732F0000000000000000000000 DUP2 MSTORE POP DUP3 PUSH1 0x20 ADD MLOAD PUSH1 0x40 MLOAD PUSH1 0x20 ADD PUSH2 0x3AC SWAP3 SWAP2 SWAP1 PUSH2 0x1121 JUMP JUMPDEST PUSH1 0x40 MLOAD PUSH1 0x20 DUP2 DUP4 SUB SUB DUP2 MSTORE SWAP1 PUSH1 0x40 MSTORE SWAP1 POP PUSH32 0x4D781B133740938E4A2E41D654EC743D6F306AE4B8240A07BB71504CBCD21B14 DUP6 DUP4 DUP4 PUSH1 0x40 MLOAD PUSH2 0x3F0 SWAP4 SWAP3 SWAP2 SWAP1 PUSH2 0x1144 JUMP JUMPDEST PUSH1 0x40 MLOAD DUP1 SWAP2 SUB SWAP1 LOG1 DUP2 DUP2 SWAP4 POP SWAP4 POP POP POP SWAP2 POP SWAP2 JUMP JUMPDEST PUSH0 SLOAD DUP2 JUMP JUMPDEST PUSH0 DUP4 MLOAD GT PUSH2 0x44D JUMPI PUSH1 0x40 MLOAD PUSH32 0x8C379A000000000000000000000000000000000000000000000000000000000 DUP2 MSTORE PUSH1 0x4 ADD PUSH2 0x444 SWAP1 PUSH2 0x11D1 JUMP JUMPDEST PUSH1 0x40 MLOAD DUP1 SWAP2 SUB SWAP1 REVERT JUMPDEST PUSH0 DUP3 MLOAD GT PUSH2 0x490 JUMPI PUSH1 0x40 MLOAD PUSH32 0x8C379A000000000000000000000000000000000000000000000000000000000 DUP2 MSTORE PUSH1 0x4 ADD PUSH2 0x487 SWAP1 PUSH2 0x1239 JUMP JUMPDEST PUSH1 0x40 MLOAD DUP1 SWAP2 SUB SWAP1 REVERT JUMPDEST PUSH0 DUP2 MLOAD GT PUSH2 0x4D3 JUMPI PUSH1 0x40 MLOAD PUSH32 0x8C379A000000000000000000000000000000000000000000000000000000000 DUP2 MSTORE PUSH1 0x4 ADD PUSH2 0x4CA SWAP1 PUSH2 0x12A1 JUMP JUMPDEST PUSH1 0x40 MLOAD DUP1 SWAP2 SUB SWAP1 REVERT JUMPDEST PUSH0 PUSH0 DUP2 SLOAD DUP1 SWAP3 SWAP2 SWAP1 PUSH2 0x4E4 SWAP1 PUSH2 0x12EC JUMP JUMPDEST SWAP2 SWAP1 POP SSTORE POP PUSH1 0x40 MLOAD DUP1 PUSH1 0xA0 ADD PUSH1 0x40 MSTORE DUP1 PUSH0 SLOAD DUP2 MSTORE PUSH1 0x20 ADD DUP5 DUP2 MSTORE PUSH1 0x20 ADD DUP3 DUP2 MSTORE PUSH1 0x20 ADD DUP4 DUP2 MSTORE PUSH1 0x20 ADD CALLER PUSH20 0xFFFFFFFFFFFFFFFFFFFFFFFFFFFFFFFFFFFFFFFF AND DUP2 MSTORE POP PUSH1 0x1 PUSH0 PUSH0 SLOAD DUP2 MSTORE PUSH1 0x20 ADD SWAP1 DUP2 MSTORE PUSH1 0x20 ADD PUSH0 KECCAK256 PUSH0 DUP3 ADD MLOAD DUP2 PUSH0 ADD SSTORE PUSH1 0x20 DUP3 ADD MLOAD DUP2 PUSH1 0x1 ADD SWAP1 DUP2 PUSH2 0x556 SWAP2 SWAP1 PUSH2 0x14D3 JUMP JUMPDEST POP PUSH1 0x40 DUP3 ADD MLOAD DUP2 PUSH1 0x2 ADD SWAP1 DUP2 PUSH2 0x56C SWAP2 SWAP1 PUSH2 0x14D3 JUMP JUMPDEST POP PUSH1 0x60 DUP3 ADD MLOAD DUP2 PUSH1 0x3 ADD SWAP1 DUP2 PUSH2 0x582 SWAP2 SWAP1 PUSH2 0x14D3 JUMP JUMPDEST POP PUSH1 0x80 DUP3 ADD MLOAD DUP2 PUSH1 0x4 ADD PUSH0 PUSH2 0x100 EXP DUP2 SLOAD DUP2 PUSH20 0xFFFFFFFFFFFFFFFFFFFFFFFFFFFFFFFFFFFFFFFF MUL NOT AND SWAP1 DUP4 PUSH20 0xFFFFFFFFFFFFFFFFFFFFFFFFFFFFFFFFFFFFFFFF AND MUL OR SWAP1 SSTORE POP SWAP1 POP POP PUSH1 0x2 DUP2 PUSH1 0x40 MLOAD PUSH2 0x5DC SWAP2 SWAP1 PUSH2 0x15A2 JUMP JUMPDEST SWAP1 DUP2 MSTORE PUSH1 0x20 ADD PUSH1 0x40 MLOAD DUP1 SWAP2 SUB SWAP1 KECCAK256 PUSH0 SLOAD SWAP1 DUP1 PUSH1 0x1 DUP2 SLOAD ADD DUP1 DUP3 SSTORE DUP1 SWAP2 POP POP PUSH1 0x1 SWAP1 SUB SWAP1 PUSH0 MSTORE PUSH1 0x20 PUSH0 KECCAK256 ADD PUSH0 SWAP1 SWAP2 SWAP1 SWAP2 SWAP1 SWAP2 POP SSTORE CALLER PUSH20 0xFFFFFFFFFFFFFFFFFFFFFFFFFFFFFFFFFFFFFFFF AND DUP2 PUSH1 0x40 MLOAD PUSH2 0x634 SWAP2 SWAP1 PUSH2 0x15A2 JUMP JUMPDEST PUSH1 0x40 MLOAD DUP1 SWAP2 SUB SWAP1 KECCAK256 PUSH32 0xA840B93CBCB6E31291B2769D43A3AE3E9518B9EDDBF4BC0737E3073F93476E0E PUSH0 SLOAD DUP7 DUP7 PUSH1 0x40 MLOAD PUSH2 0x670 SWAP4 SWAP3 SWAP2 SWAP1 PUSH2 0x15B8 JUMP JUMPDEST PUSH1 0x40 MLOAD DUP1 SWAP2 SUB SWAP1 LOG3 POP POP POP JUMP JUMPDEST PUSH1 0x60 PUSH0 PUSH1 0x2 DUP4 PUSH1 0x40 MLOAD PUSH2 0x690 SWAP2 SWAP1 PUSH2 0x15A2 JUMP JUMPDEST SWAP1 DUP2 MSTORE PUSH1 0x20 ADD PUSH1 0x40 MLOAD DUP1 SWAP2 SUB SWAP1 KECCAK256 DUP1 SLOAD DUP1 PUSH1 0x20 MUL PUSH1 0x20 ADD PUSH1 0x40 MLOAD SWAP1 DUP2 ADD PUSH1 0x40 MSTORE DUP1 SWAP3 SWAP2 SWAP1 DUP2 DUP2 MSTORE PUSH1 0x20 ADD DUP3 DUP1 SLOAD DUP1 ISZERO PUSH2 0x6E6 JUMPI PUSH1 0x20 MUL DUP3 ADD SWAP2 SWAP1 PUSH0 MSTORE PUSH1 0x20 PUSH0 KECCAK256 SWAP1 JUMPDEST DUP2 SLOAD DUP2 MSTORE PUSH1 0x20 ADD SWAP1 PUSH1 0x1 ADD SWAP1 DUP1 DUP4 GT PUSH2 0x6D2 JUMPI JUMPDEST POP POP POP POP POP SWAP1 POP PUSH0 DUP2 MLOAD PUSH8 0xFFFFFFFFFFFFFFFF DUP2 GT ISZERO PUSH2 0x709 JUMPI PUSH2 0x708 PUSH2 0xCF1 JUMP JUMPDEST JUMPDEST PUSH1 0x40 MLOAD SWAP1 DUP1 DUP3 MSTORE DUP1 PUSH1 0x20 MUL PUSH1 0x20 ADD DUP3 ADD PUSH1 0x40 MSTORE DUP1 ISZERO PUSH2 0x742 JUMPI DUP2 PUSH1 0x20 ADD JUMPDEST PUSH2 0x72F PUSH2 0xA7D JUMP JUMPDEST DUP2 MSTORE PUSH1 0x20 ADD SWAP1 PUSH1 0x1 SWAP1 SUB SWAP1 DUP2 PUSH2 0x727 JUMPI SWAP1 POP JUMPDEST POP SWAP1 POP PUSH0 PUSH0 SWAP1 POP JUMPDEST DUP3 MLOAD DUP2 LT ISZERO PUSH2 0x84C JUMPI PUSH0 DUP4 DUP3 DUP2 MLOAD DUP2 LT PUSH2 0x767 JUMPI PUSH2 0x766 PUSH2 0x15FB JUMP JUMPDEST JUMPDEST PUSH1 0x20 MUL PUSH1 0x20 ADD ADD MLOAD SWAP1 POP PUSH1 0x40 MLOAD DUP1 PUSH1 0x40 ADD PUSH1 0x40 MSTORE DUP1 DUP3 DUP2 MSTORE PUSH1 0x20 ADD PUSH1 0x1 PUSH0 DUP5 DUP2 MSTORE PUSH1 0x20 ADD SWAP1 DUP2 MSTORE PUSH1 0x20 ADD PUSH0 KECCAK256 PUSH1 0x3 ADD DUP1 SLOAD PUSH2 0x7A1 SWAP1 PUSH2 0x10B7 JUMP JUMPDEST DUP1 PUSH1 0x1F ADD PUSH1 0x20 DUP1 SWAP2 DIV MUL PUSH1 0x20 ADD PUSH1 0x40 MLOAD SWAP1 DUP2 ADD PUSH1 0x40 MSTORE DUP1 SWAP3 SWAP2 SWAP1 DUP2 DUP2 MSTORE PUSH1 0x20 ADD DUP3 DUP1 SLOAD PUSH2 0x7CD SWAP1 PUSH2 0x10B7 JUMP JUMPDEST DUP1 ISZERO PUSH2 0x818 JUMPI DUP1 PUSH1 0x1F LT PUSH2 0x7EF JUMPI PUSH2 0x100 DUP1 DUP4 SLOAD DIV MUL DUP4 MSTORE SWAP2 PUSH1 0x20 ADD SWAP2 PUSH2 0x818 JUMP JUMPDEST DUP3 ADD SWAP2 SWAP1 PUSH0 MSTORE PUSH1 0x20 PUSH0 KECCAK256 SWAP1 JUMPDEST DUP2 SLOAD DUP2 MSTORE SWAP1 PUSH1 0x1 ADD SWAP1 PUSH1 0x20 ADD DUP1 DUP4 GT PUSH2 0x7FB JUMPI DUP3 SWAP1 SUB PUSH1 0x1F AND DUP3 ADD SWAP2 JUMPDEST POP POP POP POP POP DUP2 MSTORE POP DUP4 DUP4 DUP2 MLOAD DUP2 LT PUSH2 0x833 JUMPI PUSH2 0x832 PUSH2 0x15FB JUMP JUMPDEST JUMPDEST PUSH1 0x20 MUL PUSH1 0x20 ADD ADD DUP2 SWAP1 MSTORE POP POP DUP1 DUP1 PUSH1 0x1 ADD SWAP2 POP POP PUSH2 0x74A JUMP JUMPDEST POP DUP1 SWAP3 POP POP POP SWAP2 SWAP1 POP JUMP JUMPDEST PUSH1 0x1 PUSH1 0x20 MSTORE DUP1 PUSH0 MSTORE PUSH1 0x40 PUSH0 KECCAK256 PUSH0 SWAP2 POP SWAP1 POP DUP1 PUSH0 ADD SLOAD SWAP1 DUP1 PUSH1 0x1 ADD DUP1 SLOAD PUSH2 0x87C SWAP1 PUSH2 0x10B7 JUMP JUMPDEST DUP1 PUSH1 0x1F ADD PUSH1 0x20 DUP1 SWAP2 DIV MUL PUSH1 0x20 ADD PUSH1 0x40 MLOAD SWAP1 DUP2 ADD PUSH1 0x40 MSTORE DUP1 SWAP3 SWAP2 SWAP1 DUP2 DUP2 MSTORE PUSH1 0x20 ADD DUP3 DUP1 SLOAD PUSH2 0x8A8 SWAP1 PUSH2 0x10B7 JUMP JUMPDEST DUP1 ISZERO PUSH2 0x8F3 JUMPI DUP1 PUSH1 0x1F LT PUSH2 0x8CA JUMPI PUSH2 0x100 DUP1 DUP4 SLOAD DIV MUL DUP4 MSTORE SWAP2 PUSH1 0x20 ADD SWAP2 PUSH2 0x8F3 JUMP JUMPDEST DUP3 ADD SWAP2 SWAP1 PUSH0 MSTORE PUSH1 0x20 PUSH0 KECCAK256 SWAP1 JUMPDEST DUP2 SLOAD DUP2 MSTORE SWAP1 PUSH1 0x1 ADD SWAP1 PUSH1 0x20 ADD DUP1 DUP4 GT PUSH2 0x8D6 JUMPI DUP3 SWAP1 SUB PUSH1 0x1F AND DUP3 ADD SWAP2 JUMPDEST POP POP POP POP POP SWAP1 DUP1 PUSH1 0x2 ADD DUP1 SLOAD PUSH2 0x908 SWAP1 PUSH2 0x10B7 JUMP JUMPDEST DUP1 PUSH1 0x1F ADD PUSH1 0x20 DUP1 SWAP2 DIV MUL PUSH1 0x20 ADD PUSH1 0x40 MLOAD SWAP1 DUP2 ADD PUSH1 0x40 MSTORE DUP1 SWAP3 SWAP2 SWAP1 DUP2 DUP2 MSTORE PUSH1 0x20 ADD DUP3 DUP1 SLOAD PUSH2 0x934 SWAP1 PUSH2 0x10B7 JUMP JUMPDEST DUP1 ISZERO PUSH2 0x97F JUMPI DUP1 PUSH1 0x1F LT PUSH2 0x956 JUMPI PUSH2 0x100 DUP1 DUP4 SLOAD DIV MUL DUP4 MSTORE SWAP2 PUSH1 0x20 ADD SWAP2 PUSH2 0x97F JUMP JUMPDEST DUP3 ADD SWAP2 SWAP1 PUSH0 MSTORE PUSH1 0x20 PUSH0 KECCAK256 SWAP1 JUMPDEST DUP2 SLOAD DUP2 MSTORE SWAP1 PUSH1 0x1 ADD SWAP1 PUSH1 0x20 ADD DUP1 DUP4 GT PUSH2 0x962 JUMPI DUP3 SWAP1 SUB PUSH1 0x1F AND DUP3 ADD SWAP2 JUMPDEST POP POP POP POP POP SWAP1 DUP1 PUSH1 0x3 ADD DUP1 SLOAD PUSH2 0x994 SWAP1 PUSH2 0x10B7 JUMP JUMPDEST DUP1 PUSH1 0x1F ADD PUSH1 0x20 DUP1 SWAP2 DIV MUL PUSH1 0x20 ADD PUSH1 0x40 MLOAD SWAP1 DUP2 ADD PUSH1 0x40 MSTORE DUP1 SWAP3 SWAP2 SWAP1 DUP2 DUP2 MSTORE PUSH1 0x20 ADD DUP3 DUP1 SLOAD PUSH2 0x9C0 SWAP1 PUSH2 0x10B7 JUMP JUMPDEST DUP1 ISZERO PUSH2 0xA0B JUMPI DUP1 PUSH1 0x1F LT PUSH2 0x9E2 JUMPI PUSH2 0x100 DUP1 DUP4 SLOAD DIV MUL DUP4 MSTORE SWAP2 PUSH1 0x20 ADD SWAP2 PUSH2 0xA0B JUMP JUMPDEST DUP3 ADD SWAP2 SWAP1 PUSH0 MSTORE PUSH1 0x20 PUSH0 KECCAK256 SWAP1 JUMPDEST DUP2 SLOAD DUP2 MSTORE SWAP1 PUSH1 0x1 ADD SWAP1 PUSH1 0x20 ADD DUP1 DUP4 GT PUSH2 0x9EE JUMPI DUP3 SWAP1 SUB PUSH1 0x1F AND DUP3 ADD SWAP2 JUMPDEST POP POP POP POP POP SWAP1 DUP1 PUSH1 0x4 ADD PUSH0 SWAP1 SLOAD SWAP1 PUSH2 0x100 EXP SWAP1 DIV PUSH20 0xFFFFFFFFFFFFFFFFFFFFFFFFFFFFFFFFFFFFFFFF AND SWAP1 POP DUP6 JUMP JUMPDEST PUSH1 0x40 MLOAD DUP1 PUSH1 0xA0 ADD PUSH1 0x40 MSTORE DUP1 PUSH0 DUP2 MSTORE PUSH1 0x20 ADD PUSH1 0x60 DUP2 MSTORE PUSH1 0x20 ADD PUSH1 0x60 DUP2 MSTORE PUSH1 0x20 ADD PUSH1 0x60 DUP2 MSTORE PUSH1 0x20 ADD PUSH0 PUSH20 0xFFFFFFFFFFFFFFFFFFFFFFFFFFFFFFFFFFFFFFFF AND DUP2 MSTORE POP SWAP1 JUMP JUMPDEST PUSH1 0x40 MLOAD DUP1 PUSH1 0x40 ADD PUSH1 0x40 MSTORE DUP1 PUSH0 DUP2 MSTORE PUSH1 0x20 ADD PUSH1 0x60 DUP2 MSTORE POP SWAP1 JUMP JUMPDEST PUSH0 PUSH1 0x40 MLOAD SWAP1 POP SWAP1 JUMP JUMPDEST PUSH0 PUSH0 REVERT JUMPDEST PUSH0 PUSH0 REVERT JUMPDEST PUSH0 DUP2 SWAP1 POP SWAP2 SWAP1 POP JUMP JUMPDEST PUSH2 0xAB9 DUP2 PUSH2 0xAA7 JUMP JUMPDEST DUP2 EQ PUSH2 0xAC3 JUMPI PUSH0 PUSH0 REVERT JUMPDEST POP JUMP JUMPDEST PUSH0 DUP2 CALLDATALOAD SWAP1 POP PUSH2 0xAD4 DUP2 PUSH2 0xAB0 JUMP JUMPDEST SWAP3 SWAP2 POP POP JUMP JUMPDEST PUSH0 PUSH1 0x20 DUP3 DUP5 SUB SLT ISZERO PUSH2 0xAEF JUMPI PUSH2 0xAEE PUSH2 0xA9F JUMP JUMPDEST JUMPDEST PUSH0 PUSH2 0xAFC DUP5 DUP3 DUP6 ADD PUSH2 0xAC6 JUMP JUMPDEST SWAP2 POP POP SWAP3 SWAP2 POP POP JUMP JUMPDEST PUSH2 0xB0E DUP2 PUSH2 0xAA7 JUMP JUMPDEST DUP3 MSTORE POP POP JUMP JUMPDEST PUSH0 DUP2 MLOAD SWAP1 POP SWAP2 SWAP1 POP JUMP JUMPDEST PUSH0 DUP3 DUP3 MSTORE PUSH1 0x20 DUP3 ADD SWAP1 POP SWAP3 SWAP2 POP POP JUMP JUMPDEST DUP3 DUP2 DUP4 MCOPY PUSH0 DUP4 DUP4 ADD MSTORE POP POP POP JUMP JUMPDEST PUSH0 PUSH1 0x1F NOT PUSH1 0x1F DUP4 ADD AND SWAP1 POP SWAP2 SWAP1 POP JUMP JUMPDEST PUSH0 PUSH2 0xB56 DUP3 PUSH2 0xB14 JUMP JUMPDEST PUSH2 0xB60 DUP2 DUP6 PUSH2 0xB1E JUMP JUMPDEST SWAP4 POP PUSH2 0xB70 DUP2 DUP6 PUSH1 0x20 DUP7 ADD PUSH2 0xB2E JUMP JUMPDEST PUSH2 0xB79 DUP2 PUSH2 0xB3C JUMP JUMPDEST DUP5 ADD SWAP2 POP POP SWAP3 SWAP2 POP POP JUMP JUMPDEST PUSH0 PUSH20 0xFFFFFFFFFFFFFFFFFFFFFFFFFFFFFFFFFFFFFFFF DUP3 AND SWAP1 POP SWAP2 SWAP1 POP JUMP JUMPDEST PUSH0 PUSH2 0xBAD DUP3 PUSH2 0xB84 JUMP JUMPDEST SWAP1 POP SWAP2 SWAP1 POP JUMP JUMPDEST PUSH2 0xBBD DUP2 PUSH2 0xBA3 JUMP JUMPDEST DUP3 MSTORE POP POP JUMP JUMPDEST PUSH0 PUSH1 0xA0 DUP4 ADD PUSH0 DUP4 ADD MLOAD PUSH2 0xBD8 PUSH0 DUP7 ADD DUP3 PUSH2 0xB05 JUMP JUMPDEST POP PUSH1 0x20 DUP4 ADD MLOAD DUP5 DUP3 SUB PUSH1 0x20 DUP7 ADD MSTORE PUSH2 0xBF0 DUP3 DUP3 PUSH2 0xB4C JUMP JUMPDEST SWAP2 POP POP PUSH1 0x40 DUP4 ADD MLOAD DUP5 DUP3 SUB PUSH1 0x40 DUP7 ADD MSTORE PUSH2 0xC0A DUP3 DUP3 PUSH2 0xB4C JUMP JUMPDEST SWAP2 POP POP PUSH1 0x60 DUP4 ADD MLOAD DUP5 DUP3 SUB PUSH1 0x60 DUP7 ADD MSTORE PUSH2 0xC24 DUP3 DUP3 PUSH2 0xB4C JUMP JUMPDEST SWAP2 POP POP PUSH1 0x80 DUP4 ADD MLOAD PUSH2 0xC39 PUSH1 0x80 DUP7 ADD DUP3 PUSH2 0xBB4 JUMP JUMPDEST POP DUP1 SWAP2 POP POP SWAP3 SWAP2 POP POP JUMP JUMPDEST PUSH0 DUP3 DUP3 MSTORE PUSH1 0x20 DUP3 ADD SWAP1 POP SWAP3 SWAP2 POP POP JUMP JUMPDEST PUSH0 PUSH2 0xC5E DUP3 PUSH2 0xB14 JUMP JUMPDEST PUSH2 0xC68 DUP2 DUP6 PUSH2 0xC44 JUMP JUMPDEST SWAP4 POP PUSH2 0xC78 DUP2 DUP6 PUSH1 0x20 DUP7 ADD PUSH2 0xB2E JUMP JUMPDEST PUSH2 0xC81 DUP2 PUSH2 0xB3C JUMP JUMPDEST DUP5 ADD SWAP2 POP POP SWAP3 SWAP2 POP POP JUMP JUMPDEST PUSH0 PUSH1 0x40 DUP3 ADD SWAP1 POP DUP2 DUP2 SUB PUSH0 DUP4 ADD MSTORE PUSH2 0xCA4 DUP2 DUP6 PUSH2 0xBC3 JUMP JUMPDEST SWAP1 POP DUP2 DUP2 SUB PUSH1 0x20 DUP4 ADD MSTORE PUSH2 0xCB8 DUP2 DUP5 PUSH2 0xC54 JUMP JUMPDEST SWAP1 POP SWAP4 SWAP3 POP POP POP JUMP JUMPDEST PUSH2 0xCCA DUP2 PUSH2 0xAA7 JUMP JUMPDEST DUP3 MSTORE POP POP JUMP JUMPDEST PUSH0 PUSH1 0x20 DUP3 ADD SWAP1 POP PUSH2 0xCE3 PUSH0 DUP4 ADD DUP5 PUSH2 0xCC1 JUMP JUMPDEST SWAP3 SWAP2 POP POP JUMP JUMPDEST PUSH0 PUSH0 REVERT JUMPDEST PUSH0 PUSH0 REVERT JUMPDEST PUSH32 0x4E487B7100000000000000000000000000000000000000000000000000000000 PUSH0 MSTORE PUSH1 0x41 PUSH1 0x4 MSTORE PUSH1 0x24 PUSH0 REVERT JUMPDEST PUSH2 0xD27 DUP3 PUSH2 0xB3C JUMP JUMPDEST DUP2 ADD DUP2 DUP2 LT PUSH8 0xFFFFFFFFFFFFFFFF DUP3 GT OR ISZERO PUSH2 0xD46 JUMPI PUSH2 0xD45 PUSH2 0xCF1 JUMP JUMPDEST JUMPDEST DUP1 PUSH1 0x40 MSTORE POP POP POP JUMP JUMPDEST PUSH0 PUSH2 0xD58 PUSH2 0xA96 JUMP JUMPDEST SWAP1 POP PUSH2 0xD64 DUP3 DUP3 PUSH2 0xD1E JUMP JUMPDEST SWAP2 SWAP1 POP JUMP JUMPDEST PUSH0 PUSH8 0xFFFFFFFFFFFFFFFF DUP3 GT ISZERO PUSH2 0xD83 JUMPI PUSH2 0xD82 PUSH2 0xCF1 JUMP JUMPDEST JUMPDEST PUSH2 0xD8C DUP3 PUSH2 0xB3C JUMP JUMPDEST SWAP1 POP PUSH1 0x20 DUP2 ADD SWAP1 POP SWAP2 SWAP1 POP JUMP JUMPDEST DUP3 DUP2 DUP4 CALLDATACOPY PUSH0 DUP4 DUP4 ADD MSTORE POP POP POP JUMP JUMPDEST PUSH0 PUSH2 0xDB9 PUSH2 0xDB4 DUP5 PUSH2 0xD69 JUMP JUMPDEST PUSH2 0xD4F JUMP JUMPDEST SWAP1 POP DUP3 DUP2 MSTORE PUSH1 0x20 DUP2 ADD DUP5 DUP5 DUP5 ADD GT ISZERO PUSH2 0xDD5 JUMPI PUSH2 0xDD4 PUSH2 0xCED JUMP JUMPDEST JUMPDEST PUSH2 0xDE0 DUP5 DUP3 DUP6 PUSH2 0xD99 JUMP JUMPDEST POP SWAP4 SWAP3 POP POP POP JUMP JUMPDEST PUSH0 DUP3 PUSH1 0x1F DUP4 ADD SLT PUSH2 0xDFC JUMPI PUSH2 0xDFB PUSH2 0xCE9 JUMP JUMPDEST JUMPDEST DUP2 CALLDATALOAD PUSH2 0xE0C DUP5 DUP3 PUSH1 0x20 DUP7 ADD PUSH2 0xDA7 JUMP JUMPDEST SWAP2 POP POP SWAP3 SWAP2 POP POP JUMP JUMPDEST PUSH0 PUSH0 PUSH0 PUSH1 0x60 DUP5 DUP7 SUB SLT ISZERO PUSH2 0xE2C JUMPI PUSH2 0xE2B PUSH2 0xA9F JUMP JUMPDEST JUMPDEST PUSH0 DUP5 ADD CALLDATALOAD PUSH8 0xFFFFFFFFFFFFFFFF DUP2 GT ISZERO PUSH2 0xE49 JUMPI PUSH2 0xE48 PUSH2 0xAA3 JUMP JUMPDEST JUMPDEST PUSH2 0xE55 DUP7 DUP3 DUP8 ADD PUSH2 0xDE8 JUMP JUMPDEST SWAP4 POP POP PUSH1 0x20 DUP5 ADD CALLDATALOAD PUSH8 0xFFFFFFFFFFFFFFFF DUP2 GT ISZERO PUSH2 0xE76 JUMPI PUSH2 0xE75 PUSH2 0xAA3 JUMP JUMPDEST JUMPDEST PUSH2 0xE82 DUP7 DUP3 DUP8 ADD PUSH2 0xDE8 JUMP JUMPDEST SWAP3 POP POP PUSH1 0x40 DUP5 ADD CALLDATALOAD PUSH8 0xFFFFFFFFFFFFFFFF DUP2 GT ISZERO PUSH2 0xEA3 JUMPI PUSH2 0xEA2 PUSH2 0xAA3 JUMP JUMPDEST JUMPDEST PUSH2 0xEAF DUP7 DUP3 DUP8 ADD PUSH2 0xDE8 JUMP JUMPDEST SWAP2 POP POP SWAP3 POP SWAP3 POP SWAP3 JUMP JUMPDEST PUSH0 PUSH1 0x20 DUP3 DUP5 SUB SLT ISZERO PUSH2 0xECE JUMPI PUSH2 0xECD PUSH2 0xA9F JUMP JUMPDEST JUMPDEST PUSH0 DUP3 ADD CALLDATALOAD PUSH8 0xFFFFFFFFFFFFFFFF DUP2 GT ISZERO PUSH2 0xEEB JUMPI PUSH2 0xEEA PUSH2 0xAA3 JUMP JUMPDEST JUMPDEST PUSH2 0xEF7 DUP5 DUP3 DUP6 ADD PUSH2 0xDE8 JUMP JUMPDEST SWAP2 POP POP SWAP3 SWAP2 POP POP JUMP JUMPDEST PUSH0 DUP2 MLOAD SWAP1 POP SWAP2 SWAP1 POP JUMP JUMPDEST PUSH0 DUP3 DUP3 MSTORE PUSH1 0x20 DUP3 ADD SWAP1 POP SWAP3 SWAP2 POP POP JUMP JUMPDEST PUSH0 DUP2 SWAP1 POP PUSH1 0x20 DUP3 ADD SWAP1 POP SWAP2 SWAP1 POP JUMP JUMPDEST PUSH0 PUSH1 0x40 DUP4 ADD PUSH0 DUP4 ADD MLOAD PUSH2 0xF3E PUSH0 DUP7 ADD DUP3 PUSH2 0xB05 JUMP JUMPDEST POP PUSH1 0x20 DUP4 ADD MLOAD DUP5 DUP3 SUB PUSH1 0x20 DUP7 ADD MSTORE PUSH2 0xF56 DUP3 DUP3 PUSH2 0xB4C JUMP JUMPDEST SWAP2 POP POP DUP1 SWAP2 POP POP SWAP3 SWAP2 POP POP JUMP JUMPDEST PUSH0 PUSH2 0xF6E DUP4 DUP4 PUSH2 0xF29 JUMP JUMPDEST SWAP1 POP SWAP3 SWAP2 POP POP JUMP JUMPDEST PUSH0 PUSH1 0x20 DUP3 ADD SWAP1 POP SWAP2 SWAP1 POP JUMP JUMPDEST PUSH0 PUSH2 0xF8C DUP3 PUSH2 0xF00 JUMP JUMPDEST PUSH2 0xF96 DUP2 DUP6 PUSH2 0xF0A JUMP JUMPDEST SWAP4 POP DUP4 PUSH1 0x20 DUP3 MUL DUP6 ADD PUSH2 0xFA8 DUP6 PUSH2 0xF1A JUMP JUMPDEST DUP1 PUSH0 JUMPDEST DUP6 DUP2 LT ISZERO PUSH2 0xFE3 JUMPI DUP5 DUP5 SUB DUP10 MSTORE DUP2 MLOAD PUSH2 0xFC4 DUP6 DUP3 PUSH2 0xF63 JUMP JUMPDEST SWAP5 POP PUSH2 0xFCF DUP4 PUSH2 0xF76 JUMP JUMPDEST SWAP3 POP PUSH1 0x20 DUP11 ADD SWAP10 POP POP PUSH1 0x1 DUP2 ADD SWAP1 POP PUSH2 0xFAB JUMP JUMPDEST POP DUP3 SWAP8 POP DUP8 SWAP6 POP POP POP POP POP POP SWAP3 SWAP2 POP POP JUMP JUMPDEST PUSH0 PUSH1 0x20 DUP3 ADD SWAP1 POP DUP2 DUP2 SUB PUSH0 DUP4 ADD MSTORE PUSH2 0x100D DUP2 DUP5 PUSH2 0xF82 JUMP JUMPDEST SWAP1 POP SWAP3 SWAP2 POP POP JUMP JUMPDEST PUSH2 0x101E DUP2 PUSH2 0xBA3 JUMP JUMPDEST DUP3 MSTORE POP POP JUMP JUMPDEST PUSH0 PUSH1 0xA0 DUP3 ADD SWAP1 POP PUSH2 0x1037 PUSH0 DUP4 ADD DUP9 PUSH2 0xCC1 JUMP JUMPDEST DUP2 DUP2 SUB PUSH1 0x20 DUP4 ADD MSTORE PUSH2 0x1049 DUP2 DUP8 PUSH2 0xC54 JUMP JUMPDEST SWAP1 POP DUP2 DUP2 SUB PUSH1 0x40 DUP4 ADD MSTORE PUSH2 0x105D DUP2 DUP7 PUSH2 0xC54 JUMP JUMPDEST SWAP1 POP DUP2 DUP2 SUB PUSH1 0x60 DUP4 ADD MSTORE PUSH2 0x1071 DUP2 DUP6 PUSH2 0xC54 JUMP JUMPDEST SWAP1 POP PUSH2 0x1080 PUSH1 0x80 DUP4 ADD DUP5 PUSH2 0x1015 JUMP JUMPDEST SWAP7 SWAP6 POP POP POP POP POP POP JUMP JUMPDEST PUSH32 0x4E487B7100000000000000000000000000000000000000000000000000000000 PUSH0 MSTORE PUSH1 0x22 PUSH1 0x4 MSTORE PUSH1 0x24 PUSH0 REVERT JUMPDEST PUSH0 PUSH1 0x2 DUP3 DIV SWAP1 POP PUSH1 0x1 DUP3 AND DUP1 PUSH2 0x10CE JUMPI PUSH1 0x7F DUP3 AND SWAP2 POP JUMPDEST PUSH1 0x20 DUP3 LT DUP2 SUB PUSH2 0x10E1 JUMPI PUSH2 0x10E0 PUSH2 0x108A JUMP JUMPDEST JUMPDEST POP SWAP2 SWAP1 POP JUMP JUMPDEST PUSH0 DUP2 SWAP1 POP SWAP3 SWAP2 POP POP JUMP JUMPDEST PUSH0 PUSH2 0x10FB DUP3 PUSH2 0xB14 JUMP JUMPDEST PUSH2 0x1105 DUP2 DUP6 PUSH2 0x10E7 JUMP JUMPDEST SWAP4 POP PUSH2 0x1115 DUP2 DUP6 PUSH1 0x20 DUP7 ADD PUSH2 0xB2E JUMP JUMPDEST DUP1 DUP5 ADD SWAP2 POP POP SWAP3 SWAP2 POP POP JUMP JUMPDEST PUSH0 PUSH2 0x112C DUP3 DUP6 PUSH2 0x10F1 JUMP JUMPDEST SWAP2 POP PUSH2 0x1138 DUP3 DUP5 PUSH2 0x10F1 JUMP JUMPDEST SWAP2 POP DUP2 SWAP1 POP SWAP4 SWAP3 POP POP POP JUMP JUMPDEST PUSH0 PUSH1 0x60 DUP3 ADD SWAP1 POP PUSH2 0x1157 PUSH0 DUP4 ADD DUP7 PUSH2 0xCC1 JUMP JUMPDEST DUP2 DUP2 SUB PUSH1 0x20 DUP4 ADD MSTORE PUSH2 0x1169 DUP2 DUP6 PUSH2 0xBC3 JUMP JUMPDEST SWAP1 POP DUP2 DUP2 SUB PUSH1 0x40 DUP4 ADD MSTORE PUSH2 0x117D DUP2 DUP5 PUSH2 0xC54 JUMP JUMPDEST SWAP1 POP SWAP5 SWAP4 POP POP POP POP JUMP JUMPDEST PUSH32 0x4950465320486173682069732072657175697265640000000000000000000000 PUSH0 DUP3 ADD MSTORE POP JUMP JUMPDEST PUSH0 PUSH2 0x11BB PUSH1 0x15 DUP4 PUSH2 0xC44 JUMP JUMPDEST SWAP2 POP PUSH2 0x11C6 DUP3 PUSH2 0x1187 JUMP JUMPDEST PUSH1 0x20 DUP3 ADD SWAP1 POP SWAP2 SWAP1 POP JUMP JUMPDEST PUSH0 PUSH1 0x20 DUP3 ADD SWAP1 POP DUP2 DUP2 SUB PUSH0 DUP4 ADD MSTORE PUSH2 0x11E8 DUP2 PUSH2 0x11AF JUMP JUMPDEST SWAP1 POP SWAP2 SWAP1 POP JUMP JUMPDEST PUSH32 0x46696C65204E616D652069732072657175697265640000000000000000000000 PUSH0 DUP3 ADD MSTORE POP JUMP JUMPDEST PUSH0 PUSH2 0x1223 PUSH1 0x15 DUP4 PUSH2 0xC44 JUMP JUMPDEST SWAP2 POP PUSH2 0x122E DUP3 PUSH2 0x11EF JUMP JUMPDEST PUSH1 0x20 DUP3 ADD SWAP1 POP SWAP2 SWAP1 POP JUMP JUMPDEST PUSH0 PUSH1 0x20 DUP3 ADD SWAP1 POP DUP2 DUP2 SUB PUSH0 DUP4 ADD MSTORE PUSH2 0x1250 DUP2 PUSH2 0x1217 JUMP JUMPDEST SWAP1 POP SWAP2 SWAP1 POP JUMP JUMPDEST PUSH32 0x5375626A65637420697320726571756972656400000000000000000000000000 PUSH0 DUP3 ADD MSTORE POP JUMP JUMPDEST PUSH0 PUSH2 0x128B PUSH1 0x13 DUP4 PUSH2 0xC44 JUMP JUMPDEST SWAP2 POP PUSH2 0x1296 DUP3 PUSH2 0x1257 JUMP JUMPDEST PUSH1 0x20 DUP3 ADD SWAP1 POP SWAP2 SWAP1 POP JUMP JUMPDEST PUSH0 PUSH1 0x20 DUP3 ADD SWAP1 POP DUP2 DUP2 SUB PUSH0 DUP4 ADD MSTORE PUSH2 0x12B8 DUP2 PUSH2 0x127F JUMP JUMPDEST SWAP1 POP SWAP2 SWAP1 POP JUMP JUMPDEST PUSH32 0x4E487B7100000000000000000000000000000000000000000000000000000000 PUSH0 MSTORE PUSH1 0x11 PUSH1 0x4 MSTORE PUSH1 0x24 PUSH0 REVERT JUMPDEST PUSH0 PUSH2 0x12F6 DUP3 PUSH2 0xAA7 JUMP JUMPDEST SWAP2 POP PUSH32 0xFFFFFFFFFFFFFFFFFFFFFFFFFFFFFFFFFFFFFFFFFFFFFFFFFFFFFFFFFFFFFFFF DUP3 SUB PUSH2 0x1328 JUMPI PUSH2 0x1327 PUSH2 0x12BF JUMP JUMPDEST JUMPDEST PUSH1 0x1 DUP3 ADD SWAP1 POP SWAP2 SWAP1 POP JUMP JUMPDEST PUSH0 DUP2 SWAP1 POP DUP2 PUSH0 MSTORE PUSH1 0x20 PUSH0 KECCAK256 SWAP1 POP SWAP2 SWAP1 POP JUMP JUMPDEST PUSH0 PUSH1 0x20 PUSH1 0x1F DUP4 ADD DIV SWAP1 POP SWAP2 SWAP1 POP JUMP JUMPDEST PUSH0 DUP3 DUP3 SHL SWAP1 POP SWAP3 SWAP2 POP POP JUMP JUMPDEST PUSH0 PUSH1 0x8 DUP4 MUL PUSH2 0x138F PUSH32 0xFFFFFFFFFFFFFFFFFFFFFFFFFFFFFFFFFFFFFFFFFFFFFFFFFFFFFFFFFFFFFFFF DUP3 PUSH2 0x1354 JUMP JUMPDEST PUSH2 0x1399 DUP7 DUP4 PUSH2 0x1354 JUMP JUMPDEST SWAP6 POP DUP1 NOT DUP5 AND SWAP4 POP DUP1 DUP7 AND DUP5 OR SWAP3 POP POP POP SWAP4 SWAP3 POP POP POP JUMP JUMPDEST PUSH0 DUP2 SWAP1 POP SWAP2 SWAP1 POP JUMP JUMPDEST PUSH0 PUSH2 0x13D4 PUSH2 0x13CF PUSH2 0x13CA DUP5 PUSH2 0xAA7 JUMP JUMPDEST PUSH2 0x13B1 JUMP JUMPDEST PUSH2 0xAA7 JUMP JUMPDEST SWAP1 POP SWAP2 SWAP1 POP JUMP JUMPDEST PUSH0 DUP2 SWAP1 POP SWAP2 SWAP1 POP JUMP JUMPDEST PUSH2 0x13ED DUP4 PUSH2 0x13BA JUMP JUMPDEST PUSH2 0x1401 PUSH2 0x13F9 DUP3 PUSH2 0x13DB JUMP JUMPDEST DUP5 DUP5 SLOAD PUSH2 0x1360 JUMP JUMPDEST DUP3 SSTORE POP POP POP POP JUMP JUMPDEST PUSH0 PUSH0 SWAP1 POP SWAP1 JUMP JUMPDEST PUSH2 0x1418 PUSH2 0x1409 JUMP JUMPDEST PUSH2 0x1423 DUP2 DUP5 DUP5 PUSH2 0x13E4 JUMP JUMPDEST POP POP POP JUMP JUMPDEST JUMPDEST DUP2 DUP2 LT ISZERO PUSH2 0x1446 JUMPI PUSH2 0x143B PUSH0 DUP3 PUSH2 0x1410 JUMP JUMPDEST PUSH1 0x1 DUP2 ADD SWAP1 POP PUSH2 0x1429 JUMP JUMPDEST POP POP JUMP JUMPDEST PUSH1 0x1F DUP3 GT ISZERO PUSH2 0x148B JUMPI PUSH2 0x145C DUP2 PUSH2 0x1333 JUMP JUMPDEST PUSH2 0x1465 DUP5 PUSH2 0x1345 JUMP JUMPDEST DUP2 ADD PUSH1 0x20 DUP6 LT ISZERO PUSH2 0x1474 JUMPI DUP2 SWAP1 POP JUMPDEST PUSH2 0x1488 PUSH2 0x1480 DUP6 PUSH2 0x1345 JUMP JUMPDEST DUP4 ADD DUP3 PUSH2 0x1428 JUMP JUMPDEST POP POP JUMPDEST POP POP POP JUMP JUMPDEST PUSH0 DUP3 DUP3 SHR SWAP1 POP SWAP3 SWAP2 POP POP JUMP JUMPDEST PUSH0 PUSH2 0x14AB PUSH0 NOT DUP5 PUSH1 0x8 MUL PUSH2 0x1490 JUMP JUMPDEST NOT DUP1 DUP4 AND SWAP2 POP POP SWAP3 SWAP2 POP POP JUMP JUMPDEST PUSH0 PUSH2 0x14C3 DUP4 DUP4 PUSH2 0x149C JUMP JUMPDEST SWAP2 POP DUP3 PUSH1 0x2 MUL DUP3 OR SWAP1 POP SWAP3 SWAP2 POP POP JUMP JUMPDEST PUSH2 0x14DC DUP3 PUSH2 0xB14 JUMP JUMPDEST PUSH8 0xFFFFFFFFFFFFFFFF DUP2 GT ISZERO PUSH2 0x14F5 JUMPI PUSH2 0x14F4 PUSH2 0xCF1 JUMP JUMPDEST JUMPDEST PUSH2 0x14FF DUP3 SLOAD PUSH2 0x10B7 JUMP JUMPDEST PUSH2 0x150A DUP3 DUP3 DUP6 PUSH2 0x144A JUMP JUMPDEST PUSH0 PUSH1 0x20 SWAP1 POP PUSH1 0x1F DUP4 GT PUSH1 0x1 DUP2 EQ PUSH2 0x153B JUMPI PUSH0 DUP5 ISZERO PUSH2 0x1529 JUMPI DUP3 DUP8 ADD MLOAD SWAP1 POP JUMPDEST PUSH2 0x1533 DUP6 DUP3 PUSH2 0x14B8 JUMP JUMPDEST DUP7 SSTORE POP PUSH2 0x159A JUMP JUMPDEST PUSH1 0x1F NOT DUP5 AND PUSH2 0x1549 DUP7 PUSH2 0x1333 JUMP JUMPDEST PUSH0 JUMPDEST DUP3 DUP2 LT ISZERO PUSH2 0x1570 JUMPI DUP5 DUP10 ADD MLOAD DUP3 SSTORE PUSH1 0x1 DUP3 ADD SWAP2 POP PUSH1 0x20 DUP6 ADD SWAP5 POP PUSH1 0x20 DUP2 ADD SWAP1 POP PUSH2 0x154B JUMP JUMPDEST DUP7 DUP4 LT ISZERO PUSH2 0x158D JUMPI DUP5 DUP10 ADD MLOAD PUSH2 0x1589 PUSH1 0x1F DUP10 AND DUP3 PUSH2 0x149C JUMP JUMPDEST DUP4 SSTORE POP JUMPDEST PUSH1 0x1 PUSH1 0x2 DUP9 MUL ADD DUP9 SSTORE POP POP POP JUMPDEST POP POP POP POP POP POP JUMP JUMPDEST PUSH0 PUSH2 0x15AD DUP3 DUP5 PUSH2 0x10F1 JUMP JUMPDEST SWAP2 POP DUP2 SWAP1 POP SWAP3 SWAP2 POP POP JUMP JUMPDEST PUSH0 PUSH1 0x60 DUP3 ADD SWAP1 POP PUSH2 0x15CB PUSH0 DUP4 ADD DUP7 PUSH2 0xCC1 JUMP JUMPDEST DUP2 DUP2 SUB PUSH1 0x20 DUP4 ADD MSTORE PUSH2 0x15DD DUP2 DUP6 PUSH2 0xC54 JUMP JUMPDEST SWAP1 POP DUP2 DUP2 SUB PUSH1 0x40 DUP4 ADD MSTORE PUSH2 0x15F1 DUP2 DUP5 PUSH2 0xC54 JUMP JUMPDEST SWAP1 POP SWAP5 SWAP4 POP POP POP POP JUMP JUMPDEST PUSH32 0x4E487B7100000000000000000000000000000000000000000000000000000000 PUSH0 MSTORE PUSH1 0x32 PUSH1 0x4 MSTORE PUSH1 0x24 PUSH0 REVERT INVALID LOG2 PUSH5 0x6970667358 0x22 SLT KECCAK256 0xC LOG4 CALLER PUSH19 0xED99D2D372EBE03D278D53F46817D9E8809F8F 0xC SLT 0xBF PUSH24 0xEACB26057764736F6C634300081E00330000000000000000 "
				},
				"gasEstimates": {
					"creation": {
						"codeDepositCost": "1145200",
						"executionCost": "6189",
						"totalCost": "1151389"
					},
					"external": {
						"fileCount()": "2424",
						"files(uint256)": "infinite",
						"getCourse(string)": "infinite",
						"getFile(uint256)": "infinite",
						"uploadFile(string,string,string)": "infinite"
					}
				},
				"methodIdentifiers": {
					"fileCount()": "43953519",
					"files(uint256)": "f4c714b4",
					"getCourse(string)": "da618161",
					"getFile(uint256)": "2bfda313",
					"uploadFile(string,string,string)": "92bb481a"
				}
			},
			"storageLayout": {
				"storage": [
					{
						"astId": 10,
						"contract": "Final Project/FinalProject_Contract.sol:P2PFileShare",
						"label": "fileCount",
						"offset": 0,
						"slot": "0",
						"type": "t_uint256"
					},
					{
						"astId": 34,
						"contract": "Final Project/FinalProject_Contract.sol:P2PFileShare",
						"label": "files",
						"offset": 0,
						"slot": "1",
						"type": "t_mapping(t_uint256,t_struct(FileInfo)22_storage)"
					},
					{
						"astId": 40,
						"contract": "Final Project/FinalProject_Contract.sol:P2PFileShare",
						"label": "_courses",
						"offset": 0,
						"slot": "2",
						"type": "t_mapping(t_string_memory_ptr,t_array(t_uint256)dyn_storage)"
					}
				],
				"types": {
					"t_address": {
						"encoding": "inplace",
						"label": "address",
						"numberOfBytes": "20"
					},
					"t_array(t_uint256)dyn_storage": {
						"base": "t_uint256",
						"encoding": "dynamic_array",
						"label": "uint256[]",
						"numberOfBytes": "32"
					},
					"t_mapping(t_string_memory_ptr,t_array(t_uint256)dyn_storage)": {
						"encoding": "mapping",
						"key": "t_string_memory_ptr",
						"label": "mapping(string => uint256[])",
						"numberOfBytes": "32",
						"value": "t_array(t_uint256)dyn_storage"
					},
					"t_mapping(t_uint256,t_struct(FileInfo)22_storage)": {
						"encoding": "mapping",
						"key": "t_uint256",
						"label": "mapping(uint256 => struct P2PFileShare.FileInfo)",
						"numberOfBytes": "32",
						"value": "t_struct(FileInfo)22_storage"
					},
					"t_string_memory_ptr": {
						"encoding": "bytes",
						"label": "string",
						"numberOfBytes": "32"
					},
					"t_string_storage": {
						"encoding": "bytes",
						"label": "string",
						"numberOfBytes": "32"
					},
					"t_struct(FileInfo)22_storage": {
						"encoding": "inplace",
						"label": "struct P2PFileShare.FileInfo",
						"members": [
							{
								"astId": 13,
								"contract": "Final Project/FinalProject_Contract.sol:P2PFileShare",
								"label": "fileID",
								"offset": 0,
								"slot": "0",
								"type": "t_uint256"
							},
							{
								"astId": 15,
								"contract": "Final Project/FinalProject_Contract.sol:P2PFileShare",
								"label": "ipfs",
								"offset": 0,
								"slot": "1",
								"type": "t_string_storage"
							},
							{
								"astId": 17,
								"contract": "Final Project/FinalProject_Contract.sol:P2PFileShare",
								"label": "subject",
								"offset": 0,
								"slot": "2",
								"type": "t_string_storage"
							},
							{
								"astId": 19,
								"contract": "Final Project/FinalProject_Contract.sol:P2PFileShare",
								"label": "fileName",
								"offset": 0,
								"slot": "3",
								"type": "t_string_storage"
							},
							{
								"astId": 21,
								"contract": "Final Project/FinalProject_Contract.sol:P2PFileShare",
								"label": "uploader",
								"offset": 0,
								"slot": "4",
								"type": "t_address"
							}
						],
						"numberOfBytes": "160"
					},
					"t_uint256": {
						"encoding": "inplace",
						"label": "uint256",
						"numberOfBytes": "32"
					}
				}
			},
			"userdoc": {
				"events": {
					"FileDownloaded(uint256,(uint256,string,string,string,address),string)": {
						"notice": "Event that notifies upon successful file download"
					},
					"FileUploaded(uint256,string,string,string,address)": {
						"notice": "Event that notifies upon successful file upload"
					}
				},
				"kind": "user",
				"methods": {
					"fileCount()": {
						"notice": "fileCount   number of files in the system"
					},
					"files(uint256)": {
						"notice": "Mapping that stores files by acting like a hash table/dictionary"
					},
					"getCourse(string)": {
						"notice": "Function to get FileIDs for a specific course"
					},
					"getFile(uint256)": {
						"notice": "Function that returns the file details"
					},
					"uploadFile(string,string,string)": {
						"notice": "Function to upload the file"
					}
				},
				"notice": "Contract for the system",
				"version": 1
			}
		}
	}
}