{
	"Final Project/FinalProject_Contract.sol": {
		"P2PFileShare": {
			"abi": [
				{
					"anonymous": false,
					"inputs": [
						{
							"indexed": false,
							"internalType": "uint256",
							"name": "fileID",
							"type": "uint256"
						},
						{
							"indexed": false,
							"internalType": "string",
							"name": "ipfs",
							"type": "string"
						},
						{
							"indexed": true,
							"internalType": "string",
							"name": "subject",
							"type": "string"
						},
						{
							"indexed": false,
							"internalType": "string",
							"name": "fileName",
							"type": "string"
						},
						{
							"indexed": true,
							"internalType": "address",
							"name": "uploader",
							"type": "address"
						}
					],
					"name": "FileUploaded",
					"type": "event"
				},
				{
					"inputs": [],
					"name": "fileCount",
					"outputs": [
						{
							"internalType": "uint256",
							"name": "",
							"type": "uint256"
						}
					],
					"stateMutability": "view",
					"type": "function"
				},
				{
					"inputs": [
						{
							"internalType": "uint256",
							"name": "",
							"type": "uint256"
						}
					],
					"name": "files",
					"outputs": [
						{
							"internalType": "uint256",
							"name": "fileID",
							"type": "uint256"
						},
						{
							"internalType": "string",
							"name": "ipfs",
							"type": "string"
						},
						{
							"internalType": "string",
							"name": "subject",
							"type": "string"
						},
						{
							"internalType": "string",
							"name": "fileName",
							"type": "string"
						},
						{
							"internalType": "address",
							"name": "uploader",
							"type": "address"
						}
					],
					"stateMutability": "view",
					"type": "function"
				},
				{
					"inputs": [
						{
							"internalType": "string",
							"name": "_subject",
							"type": "string"
						}
					],
					"name": "getCourse",
					"outputs": [
						{
							"components": [
								{
									"internalType": "uint256",
									"name": "fileID",
									"type": "uint256"
								},
								{
									"internalType": "string",
									"name": "fileName",
									"type": "string"
								}
							],
							"internalType": "struct P2PFileShare.FileSummary[]",
							"name": "",
							"type": "tuple[]"
						}
					],
					"stateMutability": "view",
					"type": "function"
				},
				{
					"inputs": [
						{
							"internalType": "uint256",
							"name": "_fileID",
							"type": "uint256"
						}
					],
					"name": "getFile",
					"outputs": [
						{
							"components": [
								{
									"internalType": "uint256",
									"name": "fileID",
									"type": "uint256"
								},
								{
									"internalType": "string",
									"name": "ipfs",
									"type": "string"
								},
								{
									"internalType": "string",
									"name": "subject",
									"type": "string"
								},
								{
									"internalType": "string",
									"name": "fileName",
									"type": "string"
								},
								{
									"internalType": "address",
									"name": "uploader",
									"type": "address"
								}
							],
							"internalType": "struct P2PFileShare.FileInfo",
							"name": "info",
							"type": "tuple"
						},
						{
							"internalType": "string",
							"name": "downloadUrl",
							"type": "string"
						}
					],
					"stateMutability": "view",
					"type": "function"
				},
				{
					"inputs": [
						{
							"internalType": "string",
							"name": "_ipfs",
							"type": "string"
						},
						{
							"internalType": "string",
							"name": "_fileName",
							"type": "string"
						},
						{
							"internalType": "string",
							"name": "_subject",
							"type": "string"
						}
					],
					"name": "uploadFile",
					"outputs": [],
					"stateMutability": "nonpayable",
					"type": "function"
				}
			],
			"devdoc": {
				"events": {
					"FileUploaded(uint256,string,string,string,address)": {
						"params": {
							"fileID": "Unique file identifier",
							"fileName": "Name of the file including the filetype extension (ex: \"Assignment_1.pdf\")",
							"ipfs": "Hash of the file location on IPFS",
							"subject": "Allows searching by subject course code; official course code for the subject the file is for (ex: \"CSCI 101.14\", \"THEO 12\", \"MSYS 41\")",
							"uploader": "Allows searching by uploader; address of the uploader"
						}
					}
				},
				"kind": "dev",
				"methods": {
					"getCourse(string)": {
						"params": {
							"_subject": "Official course code of that subject"
						}
					},
					"getFile(uint256)": {
						"params": {
							"_fileID": "File ID for the file being downloaded"
						},
						"returns": {
							"downloadUrl": "URL that allows users to download the file",
							"info": "Metadata from the uploaded file"
						}
					},
					"uploadFile(string,string,string)": {
						"params": {
							"_fileName": "Filename with filetype extension",
							"_ipfs": "IPFS file location hash for the file",
							"_subject": "Official course code for the subject that file is being uploaded for"
						}
					}
				},
				"stateVariables": {
					"BASE_GATEWAY": {
						"details": "(Copy this url + the hash and paste it in browser to grab the file)(No need to download IPFS desktop)"
					}
				},
				"version": 1
			},
			"evm": {
				"assembly": "    /* \"Final Project/FinalProject_Contract.sol\":883:5482  contract P2PFileShare{... */\n  mstore(0x40, 0x80)\n    /* \"Final Project/FinalProject_Contract.sol\":1249:1250  0 */\n  0x00\n    /* \"Final Project/FinalProject_Contract.sol\":1222:1250  uint256 public fileCount = 0 */\n  0x00\n  sstore\n    /* \"Final Project/FinalProject_Contract.sol\":883:5482  contract P2PFileShare{... */\n  callvalue\n  dup1\n  iszero\n  tag_1\n  jumpi\n  revert(0x00, 0x00)\ntag_1:\n  pop\n  dataSize(sub_0)\n  dup1\n  dataOffset(sub_0)\n  0x00\n  codecopy\n  0x00\n  return\nstop\n\nsub_0: assembly {\n        /* \"Final Project/FinalProject_Contract.sol\":883:5482  contract P2PFileShare{... */\n      mstore(0x40, 0x80)\n      callvalue\n      dup1\n      iszero\n      tag_1\n      jumpi\n      revert(0x00, 0x00)\n    tag_1:\n      pop\n      jumpi(tag_2, lt(calldatasize, 0x04))\n      shr(0xe0, calldataload(0x00))\n      dup1\n      0x2bfda313\n      eq\n      tag_3\n      jumpi\n      dup1\n      0x43953519\n      eq\n      tag_4\n      jumpi\n      dup1\n      0x92bb481a\n      eq\n      tag_5\n      jumpi\n      dup1\n      0xda618161\n      eq\n      tag_6\n      jumpi\n      dup1\n      0xf4c714b4\n      eq\n      tag_7\n      jumpi\n    tag_2:\n      revert(0x00, 0x00)\n        /* \"Final Project/FinalProject_Contract.sol\":4441:4815  function getFile(uint _fileID) public view returns (FileInfo memory info, string memory downloadUrl) {... */\n    tag_3:\n      tag_8\n      0x04\n      dup1\n      calldatasize\n      sub\n      dup2\n      add\n      swap1\n      tag_9\n      swap2\n      swap1\n      tag_10\n      jump\t// in\n    tag_9:\n      tag_11\n      jump\t// in\n    tag_8:\n      mload(0x40)\n      tag_12\n      swap3\n      swap2\n      swap1\n      tag_13\n      jump\t// in\n    tag_12:\n      mload(0x40)\n      dup1\n      swap2\n      sub\n      swap1\n      return\n        /* \"Final Project/FinalProject_Contract.sol\":1222:1250  uint256 public fileCount = 0 */\n    tag_4:\n      tag_14\n      tag_15\n      jump\t// in\n    tag_14:\n      mload(0x40)\n      tag_16\n      swap2\n      swap1\n      tag_17\n      jump\t// in\n    tag_16:\n      mload(0x40)\n      dup1\n      swap2\n      sub\n      swap1\n      return\n        /* \"Final Project/FinalProject_Contract.sol\":3305:4189  function uploadFile(string memory _ipfs, string memory _fileName, string memory _subject) public {... */\n    tag_5:\n      tag_18\n      0x04\n      dup1\n      calldatasize\n      sub\n      dup2\n      add\n      swap1\n      tag_19\n      swap2\n      swap1\n      tag_20\n      jump\t// in\n    tag_19:\n      tag_21\n      jump\t// in\n    tag_18:\n      stop\n        /* \"Final Project/FinalProject_Contract.sol\":4948:5479  function getCourse(string memory _subject) public view returns (FileSummary[] memory){... */\n    tag_6:\n      tag_22\n      0x04\n      dup1\n      calldatasize\n      sub\n      dup2\n      add\n      swap1\n      tag_23\n      swap2\n      swap1\n      tag_24\n      jump\t// in\n    tag_23:\n      tag_25\n      jump\t// in\n    tag_22:\n      mload(0x40)\n      tag_26\n      swap2\n      swap1\n      tag_27\n      jump\t// in\n    tag_26:\n      mload(0x40)\n      dup1\n      swap2\n      sub\n      swap1\n      return\n        /* \"Final Project/FinalProject_Contract.sol\":2194:2235  mapping(uint256 => FileInfo) public files */\n    tag_7:\n      tag_28\n      0x04\n      dup1\n      calldatasize\n      sub\n      dup2\n      add\n      swap1\n      tag_29\n      swap2\n      swap1\n      tag_10\n      jump\t// in\n    tag_29:\n      tag_30\n      jump\t// in\n    tag_28:\n      mload(0x40)\n      tag_31\n      swap6\n      swap5\n      swap4\n      swap3\n      swap2\n      swap1\n      tag_32\n      jump\t// in\n    tag_31:\n      mload(0x40)\n      dup1\n      swap2\n      sub\n      swap1\n      return\n        /* \"Final Project/FinalProject_Contract.sol\":4441:4815  function getFile(uint _fileID) public view returns (FileInfo memory info, string memory downloadUrl) {... */\n    tag_11:\n        /* \"Final Project/FinalProject_Contract.sol\":4493:4513  FileInfo memory info */\n      tag_33\n      tag_34\n      jump\t// in\n    tag_33:\n        /* \"Final Project/FinalProject_Contract.sol\":4515:4540  string memory downloadUrl */\n      0x60\n        /* \"Final Project/FinalProject_Contract.sol\":4553:4573  FileInfo memory file */\n      0x00\n        /* \"Final Project/FinalProject_Contract.sol\":4576:4581  files */\n      0x01\n        /* \"Final Project/FinalProject_Contract.sol\":4576:4590  files[_fileID] */\n      0x00\n        /* \"Final Project/FinalProject_Contract.sol\":4582:4589  _fileID */\n      dup6\n        /* \"Final Project/FinalProject_Contract.sol\":4576:4590  files[_fileID] */\n      dup2\n      mstore\n      0x20\n      add\n      swap1\n      dup2\n      mstore\n      0x20\n      add\n      0x00\n      keccak256\n        /* \"Final Project/FinalProject_Contract.sol\":4553:4590  FileInfo memory file = files[_fileID] */\n      mload(0x40)\n      dup1\n      0xa0\n      add\n      0x40\n      mstore\n      swap1\n      dup2\n      0x00\n      dup3\n      add\n      sload\n      dup2\n      mstore\n      0x20\n      add\n      0x01\n      dup3\n      add\n      dup1\n      sload\n      tag_36\n      swap1\n      tag_37\n      jump\t// in\n    tag_36:\n      dup1\n      0x1f\n      add\n      0x20\n      dup1\n      swap2\n      div\n      mul\n      0x20\n      add\n      mload(0x40)\n      swap1\n      dup2\n      add\n      0x40\n      mstore\n      dup1\n      swap3\n      swap2\n      swap1\n      dup2\n      dup2\n      mstore\n      0x20\n      add\n      dup3\n      dup1\n      sload\n      tag_38\n      swap1\n      tag_37\n      jump\t// in\n    tag_38:\n      dup1\n      iszero\n      tag_39\n      jumpi\n      dup1\n      0x1f\n      lt\n      tag_40\n      jumpi\n      0x0100\n      dup1\n      dup4\n      sload\n      div\n      mul\n      dup4\n      mstore\n      swap2\n      0x20\n      add\n      swap2\n      jump(tag_39)\n    tag_40:\n      dup3\n      add\n      swap2\n      swap1\n      0x00\n      mstore\n      keccak256(0x00, 0x20)\n      swap1\n    tag_41:\n      dup2\n      sload\n      dup2\n      mstore\n      swap1\n      0x01\n      add\n      swap1\n      0x20\n      add\n      dup1\n      dup4\n      gt\n      tag_41\n      jumpi\n      dup3\n      swap1\n      sub\n      0x1f\n      and\n      dup3\n      add\n      swap2\n    tag_39:\n      pop\n      pop\n      pop\n      pop\n      pop\n      dup2\n      mstore\n      0x20\n      add\n      0x02\n      dup3\n      add\n      dup1\n      sload\n      tag_42\n      swap1\n      tag_37\n      jump\t// in\n    tag_42:\n      dup1\n      0x1f\n      add\n      0x20\n      dup1\n      swap2\n      div\n      mul\n      0x20\n      add\n      mload(0x40)\n      swap1\n      dup2\n      add\n      0x40\n      mstore\n      dup1\n      swap3\n      swap2\n      swap1\n      dup2\n      dup2\n      mstore\n      0x20\n      add\n      dup3\n      dup1\n      sload\n      tag_43\n      swap1\n      tag_37\n      jump\t// in\n    tag_43:\n      dup1\n      iszero\n      tag_44\n      jumpi\n      dup1\n      0x1f\n      lt\n      tag_45\n      jumpi\n      0x0100\n      dup1\n      dup4\n      sload\n      div\n      mul\n      dup4\n      mstore\n      swap2\n      0x20\n      add\n      swap2\n      jump(tag_44)\n    tag_45:\n      dup3\n      add\n      swap2\n      swap1\n      0x00\n      mstore\n      keccak256(0x00, 0x20)\n      swap1\n    tag_46:\n      dup2\n      sload\n      dup2\n      mstore\n      swap1\n      0x01\n      add\n      swap1\n      0x20\n      add\n      dup1\n      dup4\n      gt\n      tag_46\n      jumpi\n      dup3\n      swap1\n      sub\n      0x1f\n      and\n      dup3\n      add\n      swap2\n    tag_44:\n      pop\n      pop\n      pop\n      pop\n      pop\n      dup2\n      mstore\n      0x20\n      add\n      0x03\n      dup3\n      add\n      dup1\n      sload\n      tag_47\n      swap1\n      tag_37\n      jump\t// in\n    tag_47:\n      dup1\n      0x1f\n      add\n      0x20\n      dup1\n      swap2\n      div\n      mul\n      0x20\n      add\n      mload(0x40)\n      swap1\n      dup2\n      add\n      0x40\n      mstore\n      dup1\n      swap3\n      swap2\n      swap1\n      dup2\n      dup2\n      mstore\n      0x20\n      add\n      dup3\n      dup1\n      sload\n      tag_48\n      swap1\n      tag_37\n      jump\t// in\n    tag_48:\n      dup1\n      iszero\n      tag_49\n      jumpi\n      dup1\n      0x1f\n      lt\n      tag_50\n      jumpi\n      0x0100\n      dup1\n      dup4\n      sload\n      div\n      mul\n      dup4\n      mstore\n      swap2\n      0x20\n      add\n      swap2\n      jump(tag_49)\n    tag_50:\n      dup3\n      add\n      swap2\n      swap1\n      0x00\n      mstore\n      keccak256(0x00, 0x20)\n      swap1\n    tag_51:\n      dup2\n      sload\n      dup2\n      mstore\n      swap1\n      0x01\n      add\n      swap1\n      0x20\n      add\n      dup1\n      dup4\n      gt\n      tag_51\n      jumpi\n      dup3\n      swap1\n      sub\n      0x1f\n      and\n      dup3\n      add\n      swap2\n    tag_49:\n      pop\n      pop\n      pop\n      pop\n      pop\n      dup2\n      mstore\n      0x20\n      add\n      0x04\n      dup3\n      add\n      0x00\n      swap1\n      sload\n      swap1\n      0x0100\n      exp\n      swap1\n      div\n      0xffffffffffffffffffffffffffffffffffffffff\n      and\n      0xffffffffffffffffffffffffffffffffffffffff\n      and\n      0xffffffffffffffffffffffffffffffffffffffff\n      and\n      dup2\n      mstore\n      pop\n      pop\n      swap1\n      pop\n        /* \"Final Project/FinalProject_Contract.sol\":4699:4720  string memory fullUrl */\n      0x00\n        /* \"Final Project/FinalProject_Contract.sol\":4747:4759  BASE_GATEWAY */\n      mload(0x40)\n      dup1\n      0x40\n      add\n      0x40\n      mstore\n      dup1\n      0x15\n      dup2\n      mstore\n      0x20\n      add\n      0x68747470733a2f2f697066732e696f2f697066732f0000000000000000000000\n      dup2\n      mstore\n      pop\n        /* \"Final Project/FinalProject_Contract.sol\":4761:4765  file */\n      dup3\n        /* \"Final Project/FinalProject_Contract.sol\":4761:4770  file.ipfs */\n      0x20\n      add\n      mload\n        /* \"Final Project/FinalProject_Contract.sol\":4730:4771  abi.encodePacked(BASE_GATEWAY, file.ipfs) */\n      add(0x20, mload(0x40))\n      tag_52\n      swap3\n      swap2\n      swap1\n      tag_53\n      jump\t// in\n    tag_52:\n      mload(0x40)\n      0x20\n      dup2\n      dup4\n      sub\n      sub\n      dup2\n      mstore\n      swap1\n      0x40\n      mstore\n        /* \"Final Project/FinalProject_Contract.sol\":4699:4772  string memory fullUrl = string(abi.encodePacked(BASE_GATEWAY, file.ipfs)) */\n      swap1\n      pop\n        /* \"Final Project/FinalProject_Contract.sol\":4793:4797  file */\n      dup2\n        /* \"Final Project/FinalProject_Contract.sol\":4799:4806  fullUrl */\n      dup2\n        /* \"Final Project/FinalProject_Contract.sol\":4785:4807  return (file, fullUrl) */\n      swap4\n      pop\n      swap4\n      pop\n      pop\n      pop\n        /* \"Final Project/FinalProject_Contract.sol\":4441:4815  function getFile(uint _fileID) public view returns (FileInfo memory info, string memory downloadUrl) {... */\n      swap2\n      pop\n      swap2\n      jump\t// out\n        /* \"Final Project/FinalProject_Contract.sol\":1222:1250  uint256 public fileCount = 0 */\n    tag_15:\n      sload(0x00)\n      dup2\n      jump\t// out\n        /* \"Final Project/FinalProject_Contract.sol\":3305:4189  function uploadFile(string memory _ipfs, string memory _fileName, string memory _subject) public {... */\n    tag_21:\n        /* \"Final Project/FinalProject_Contract.sol\":3443:3444  0 */\n      0x00\n        /* \"Final Project/FinalProject_Contract.sol\":3427:3432  _ipfs */\n      dup4\n        /* \"Final Project/FinalProject_Contract.sol\":3421:3440  bytes(_ipfs).length */\n      mload\n        /* \"Final Project/FinalProject_Contract.sol\":3421:3444  bytes(_ipfs).length > 0 */\n      gt\n        /* \"Final Project/FinalProject_Contract.sol\":3413:3470  require(bytes(_ipfs).length > 0, \"IPFS Hash is required\") */\n      tag_55\n      jumpi\n      mload(0x40)\n      0x08c379a000000000000000000000000000000000000000000000000000000000\n      dup2\n      mstore\n      0x04\n      add\n      tag_56\n      swap1\n      tag_57\n      jump\t// in\n    tag_56:\n      mload(0x40)\n      dup1\n      swap2\n      sub\n      swap1\n      revert\n    tag_55:\n        /* \"Final Project/FinalProject_Contract.sol\":3515:3516  0 */\n      0x00\n        /* \"Final Project/FinalProject_Contract.sol\":3495:3504  _fileName */\n      dup3\n        /* \"Final Project/FinalProject_Contract.sol\":3489:3512  bytes(_fileName).length */\n      mload\n        /* \"Final Project/FinalProject_Contract.sol\":3489:3516  bytes(_fileName).length > 0 */\n      gt\n        /* \"Final Project/FinalProject_Contract.sol\":3481:3542  require(bytes(_fileName).length > 0, \"File Name is required\") */\n      tag_58\n      jumpi\n      mload(0x40)\n      0x08c379a000000000000000000000000000000000000000000000000000000000\n      dup2\n      mstore\n      0x04\n      add\n      tag_59\n      swap1\n      tag_60\n      jump\t// in\n    tag_59:\n      mload(0x40)\n      dup1\n      swap2\n      sub\n      swap1\n      revert\n    tag_58:\n        /* \"Final Project/FinalProject_Contract.sol\":3586:3587  0 */\n      0x00\n        /* \"Final Project/FinalProject_Contract.sol\":3567:3575  _subject */\n      dup2\n        /* \"Final Project/FinalProject_Contract.sol\":3561:3583  bytes(_subject).length */\n      mload\n        /* \"Final Project/FinalProject_Contract.sol\":3561:3587  bytes(_subject).length > 0 */\n      gt\n        /* \"Final Project/FinalProject_Contract.sol\":3553:3611  require(bytes(_subject).length > 0, \"Subject is required\") */\n      tag_61\n      jumpi\n      mload(0x40)\n      0x08c379a000000000000000000000000000000000000000000000000000000000\n      dup2\n      mstore\n      0x04\n      add\n      tag_62\n      swap1\n      tag_63\n      jump\t// in\n    tag_62:\n      mload(0x40)\n      dup1\n      swap2\n      sub\n      swap1\n      revert\n    tag_61:\n        /* \"Final Project/FinalProject_Contract.sol\":3705:3714  fileCount */\n      0x00\n      0x00\n        /* \"Final Project/FinalProject_Contract.sol\":3705:3716  fileCount++ */\n      dup2\n      sload\n      dup1\n      swap3\n      swap2\n      swap1\n      tag_64\n      swap1\n      tag_65\n      jump\t// in\n    tag_64:\n      swap2\n      swap1\n      pop\n      sstore\n      pop\n        /* \"Final Project/FinalProject_Contract.sol\":3809:3944  FileInfo(... */\n      mload(0x40)\n      dup1\n      0xa0\n      add\n      0x40\n      mstore\n      dup1\n        /* \"Final Project/FinalProject_Contract.sol\":3832:3841  fileCount */\n      sload(0x00)\n        /* \"Final Project/FinalProject_Contract.sol\":3809:3944  FileInfo(... */\n      dup2\n      mstore\n      0x20\n      add\n        /* \"Final Project/FinalProject_Contract.sol\":3856:3861  _ipfs */\n      dup5\n        /* \"Final Project/FinalProject_Contract.sol\":3809:3944  FileInfo(... */\n      dup2\n      mstore\n      0x20\n      add\n        /* \"Final Project/FinalProject_Contract.sol\":3876:3884  _subject */\n      dup3\n        /* \"Final Project/FinalProject_Contract.sol\":3809:3944  FileInfo(... */\n      dup2\n      mstore\n      0x20\n      add\n        /* \"Final Project/FinalProject_Contract.sol\":3899:3908  _fileName */\n      dup4\n        /* \"Final Project/FinalProject_Contract.sol\":3809:3944  FileInfo(... */\n      dup2\n      mstore\n      0x20\n      add\n        /* \"Final Project/FinalProject_Contract.sol\":3923:3933  msg.sender */\n      caller\n        /* \"Final Project/FinalProject_Contract.sol\":3809:3944  FileInfo(... */\n      0xffffffffffffffffffffffffffffffffffffffff\n      and\n      dup2\n      mstore\n      pop\n        /* \"Final Project/FinalProject_Contract.sol\":3790:3795  files */\n      0x01\n        /* \"Final Project/FinalProject_Contract.sol\":3790:3806  files[fileCount] */\n      0x00\n        /* \"Final Project/FinalProject_Contract.sol\":3796:3805  fileCount */\n      sload(0x00)\n        /* \"Final Project/FinalProject_Contract.sol\":3790:3806  files[fileCount] */\n      dup2\n      mstore\n      0x20\n      add\n      swap1\n      dup2\n      mstore\n      0x20\n      add\n      0x00\n      keccak256\n        /* \"Final Project/FinalProject_Contract.sol\":3790:3944  files[fileCount] = FileInfo(... */\n      0x00\n      dup3\n      add\n      mload\n      dup2\n      0x00\n      add\n      sstore\n      0x20\n      dup3\n      add\n      mload\n      dup2\n      0x01\n      add\n      swap1\n      dup2\n      tag_66\n      swap2\n      swap1\n      tag_67\n      jump\t// in\n    tag_66:\n      pop\n      0x40\n      dup3\n      add\n      mload\n      dup2\n      0x02\n      add\n      swap1\n      dup2\n      tag_68\n      swap2\n      swap1\n      tag_67\n      jump\t// in\n    tag_68:\n      pop\n      0x60\n      dup3\n      add\n      mload\n      dup2\n      0x03\n      add\n      swap1\n      dup2\n      tag_69\n      swap2\n      swap1\n      tag_67\n      jump\t// in\n    tag_69:\n      pop\n      0x80\n      dup3\n      add\n      mload\n      dup2\n      0x04\n      add\n      exp(0x0100, 0x00)\n      dup2\n      sload\n      dup2\n      0xffffffffffffffffffffffffffffffffffffffff\n      mul\n      not\n      and\n      swap1\n      dup4\n      0xffffffffffffffffffffffffffffffffffffffff\n      and\n      mul\n      or\n      swap1\n      sstore\n      pop\n      swap1\n      pop\n      pop\n        /* \"Final Project/FinalProject_Contract.sol\":4021:4029  _courses */\n      0x02\n        /* \"Final Project/FinalProject_Contract.sol\":4030:4038  _subject */\n      dup2\n        /* \"Final Project/FinalProject_Contract.sol\":4021:4039  _courses[_subject] */\n      mload(0x40)\n      tag_70\n      swap2\n      swap1\n      tag_71\n      jump\t// in\n    tag_70:\n      swap1\n      dup2\n      mstore\n      0x20\n      add\n      mload(0x40)\n      dup1\n      swap2\n      sub\n      swap1\n      keccak256\n        /* \"Final Project/FinalProject_Contract.sol\":4045:4054  fileCount */\n      sload(0x00)\n        /* \"Final Project/FinalProject_Contract.sol\":4021:4055  _courses[_subject].push(fileCount) */\n      swap1\n      dup1\n      0x01\n      dup2\n      sload\n      add\n      dup1\n      dup3\n      sstore\n      dup1\n      swap2\n      pop\n      pop\n      0x01\n      swap1\n      sub\n      swap1\n      0x00\n      mstore\n      keccak256(0x00, 0x20)\n      add\n      0x00\n      swap1\n      swap2\n      swap1\n      swap2\n      swap1\n      swap2\n      pop\n      sstore\n        /* \"Final Project/FinalProject_Contract.sol\":4170:4180  msg.sender */\n      caller\n        /* \"Final Project/FinalProject_Contract.sol\":4118:4181  FileUploaded(fileCount, _ipfs, _subject, _fileName, msg.sender) */\n      0xffffffffffffffffffffffffffffffffffffffff\n      and\n        /* \"Final Project/FinalProject_Contract.sol\":4149:4157  _subject */\n      dup2\n        /* \"Final Project/FinalProject_Contract.sol\":4118:4181  FileUploaded(fileCount, _ipfs, _subject, _fileName, msg.sender) */\n      mload(0x40)\n      tag_73\n      swap2\n      swap1\n      tag_71\n      jump\t// in\n    tag_73:\n      mload(0x40)\n      dup1\n      swap2\n      sub\n      swap1\n      keccak256\n      0xa840b93cbcb6e31291b2769d43a3ae3e9518b9eddbf4bc0737e3073f93476e0e\n        /* \"Final Project/FinalProject_Contract.sol\":4131:4140  fileCount */\n      sload(0x00)\n        /* \"Final Project/FinalProject_Contract.sol\":4142:4147  _ipfs */\n      dup7\n        /* \"Final Project/FinalProject_Contract.sol\":4159:4168  _fileName */\n      dup7\n        /* \"Final Project/FinalProject_Contract.sol\":4118:4181  FileUploaded(fileCount, _ipfs, _subject, _fileName, msg.sender) */\n      mload(0x40)\n      tag_74\n      swap4\n      swap3\n      swap2\n      swap1\n      tag_75\n      jump\t// in\n    tag_74:\n      mload(0x40)\n      dup1\n      swap2\n      sub\n      swap1\n      log3\n        /* \"Final Project/FinalProject_Contract.sol\":3305:4189  function uploadFile(string memory _ipfs, string memory _fileName, string memory _subject) public {... */\n      pop\n      pop\n      pop\n      jump\t// out\n        /* \"Final Project/FinalProject_Contract.sol\":4948:5479  function getCourse(string memory _subject) public view returns (FileSummary[] memory){... */\n    tag_25:\n        /* \"Final Project/FinalProject_Contract.sol\":5012:5032  FileSummary[] memory */\n      0x60\n        /* \"Final Project/FinalProject_Contract.sol\":5044:5064  uint256[] memory ids */\n      0x00\n        /* \"Final Project/FinalProject_Contract.sol\":5067:5075  _courses */\n      0x02\n        /* \"Final Project/FinalProject_Contract.sol\":5076:5084  _subject */\n      dup4\n        /* \"Final Project/FinalProject_Contract.sol\":5067:5085  _courses[_subject] */\n      mload(0x40)\n      tag_77\n      swap2\n      swap1\n      tag_71\n      jump\t// in\n    tag_77:\n      swap1\n      dup2\n      mstore\n      0x20\n      add\n      mload(0x40)\n      dup1\n      swap2\n      sub\n      swap1\n      keccak256\n        /* \"Final Project/FinalProject_Contract.sol\":5044:5085  uint256[] memory ids = _courses[_subject] */\n      dup1\n      sload\n      dup1\n      0x20\n      mul\n      0x20\n      add\n      mload(0x40)\n      swap1\n      dup2\n      add\n      0x40\n      mstore\n      dup1\n      swap3\n      swap2\n      swap1\n      dup2\n      dup2\n      mstore\n      0x20\n      add\n      dup3\n      dup1\n      sload\n      dup1\n      iszero\n      tag_78\n      jumpi\n      0x20\n      mul\n      dup3\n      add\n      swap2\n      swap1\n      0x00\n      mstore\n      keccak256(0x00, 0x20)\n      swap1\n    tag_79:\n      dup2\n      sload\n      dup2\n      mstore\n      0x20\n      add\n      swap1\n      0x01\n      add\n      swap1\n      dup1\n      dup4\n      gt\n      tag_79\n      jumpi\n    tag_78:\n      pop\n      pop\n      pop\n      pop\n      pop\n      swap1\n      pop\n        /* \"Final Project/FinalProject_Contract.sol\":5153:5180  FileSummary[] memory result */\n      0x00\n        /* \"Final Project/FinalProject_Contract.sol\":5201:5204  ids */\n      dup2\n        /* \"Final Project/FinalProject_Contract.sol\":5201:5211  ids.length */\n      mload\n        /* \"Final Project/FinalProject_Contract.sol\":5183:5212  new FileSummary[](ids.length) */\n      0xffffffffffffffff\n      dup2\n      gt\n      iszero\n      tag_80\n      jumpi\n      tag_81\n      tag_82\n      jump\t// in\n    tag_81:\n    tag_80:\n      mload(0x40)\n      swap1\n      dup1\n      dup3\n      mstore\n      dup1\n      0x20\n      mul\n      0x20\n      add\n      dup3\n      add\n      0x40\n      mstore\n      dup1\n      iszero\n      tag_83\n      jumpi\n      dup2\n      0x20\n      add\n    tag_84:\n      tag_85\n      tag_86\n      jump\t// in\n    tag_85:\n      dup2\n      mstore\n      0x20\n      add\n      swap1\n      0x01\n      swap1\n      sub\n      swap1\n      dup2\n      tag_84\n      jumpi\n      swap1\n      pop\n    tag_83:\n      pop\n        /* \"Final Project/FinalProject_Contract.sol\":5153:5212  FileSummary[] memory result = new FileSummary[](ids.length) */\n      swap1\n      pop\n        /* \"Final Project/FinalProject_Contract.sol\":5287:5293  uint i */\n      0x00\n        /* \"Final Project/FinalProject_Contract.sol\":5296:5297  0 */\n      0x00\n        /* \"Final Project/FinalProject_Contract.sol\":5287:5297  uint i = 0 */\n      swap1\n      pop\n        /* \"Final Project/FinalProject_Contract.sol\":5282:5446  for (uint i = 0; i < ids.length; i++) {... */\n    tag_87:\n        /* \"Final Project/FinalProject_Contract.sol\":5303:5306  ids */\n      dup3\n        /* \"Final Project/FinalProject_Contract.sol\":5303:5313  ids.length */\n      mload\n        /* \"Final Project/FinalProject_Contract.sol\":5299:5300  i */\n      dup2\n        /* \"Final Project/FinalProject_Contract.sol\":5299:5313  i < ids.length */\n      lt\n        /* \"Final Project/FinalProject_Contract.sol\":5282:5446  for (uint i = 0; i < ids.length; i++) {... */\n      iszero\n      tag_88\n      jumpi\n        /* \"Final Project/FinalProject_Contract.sol\":5335:5349  uint currentId */\n      0x00\n        /* \"Final Project/FinalProject_Contract.sol\":5352:5355  ids */\n      dup4\n        /* \"Final Project/FinalProject_Contract.sol\":5356:5357  i */\n      dup3\n        /* \"Final Project/FinalProject_Contract.sol\":5352:5358  ids[i] */\n      dup2\n      mload\n      dup2\n      lt\n      tag_90\n      jumpi\n      tag_91\n      tag_92\n      jump\t// in\n    tag_91:\n    tag_90:\n      0x20\n      mul\n      0x20\n      add\n      add\n      mload\n        /* \"Final Project/FinalProject_Contract.sol\":5335:5358  uint currentId = ids[i] */\n      swap1\n      pop\n        /* \"Final Project/FinalProject_Contract.sol\":5385:5434  FileSummary(currentId, files[currentId].fileName) */\n      mload(0x40)\n      dup1\n      0x40\n      add\n      0x40\n      mstore\n      dup1\n        /* \"Final Project/FinalProject_Contract.sol\":5397:5406  currentId */\n      dup3\n        /* \"Final Project/FinalProject_Contract.sol\":5385:5434  FileSummary(currentId, files[currentId].fileName) */\n      dup2\n      mstore\n      0x20\n      add\n        /* \"Final Project/FinalProject_Contract.sol\":5408:5413  files */\n      0x01\n        /* \"Final Project/FinalProject_Contract.sol\":5408:5424  files[currentId] */\n      0x00\n        /* \"Final Project/FinalProject_Contract.sol\":5414:5423  currentId */\n      dup5\n        /* \"Final Project/FinalProject_Contract.sol\":5408:5424  files[currentId] */\n      dup2\n      mstore\n      0x20\n      add\n      swap1\n      dup2\n      mstore\n      0x20\n      add\n      0x00\n      keccak256\n        /* \"Final Project/FinalProject_Contract.sol\":5408:5433  files[currentId].fileName */\n      0x03\n      add\n        /* \"Final Project/FinalProject_Contract.sol\":5385:5434  FileSummary(currentId, files[currentId].fileName) */\n      dup1\n      sload\n      tag_93\n      swap1\n      tag_37\n      jump\t// in\n    tag_93:\n      dup1\n      0x1f\n      add\n      0x20\n      dup1\n      swap2\n      div\n      mul\n      0x20\n      add\n      mload(0x40)\n      swap1\n      dup2\n      add\n      0x40\n      mstore\n      dup1\n      swap3\n      swap2\n      swap1\n      dup2\n      dup2\n      mstore\n      0x20\n      add\n      dup3\n      dup1\n      sload\n      tag_94\n      swap1\n      tag_37\n      jump\t// in\n    tag_94:\n      dup1\n      iszero\n      tag_95\n      jumpi\n      dup1\n      0x1f\n      lt\n      tag_96\n      jumpi\n      0x0100\n      dup1\n      dup4\n      sload\n      div\n      mul\n      dup4\n      mstore\n      swap2\n      0x20\n      add\n      swap2\n      jump(tag_95)\n    tag_96:\n      dup3\n      add\n      swap2\n      swap1\n      0x00\n      mstore\n      keccak256(0x00, 0x20)\n      swap1\n    tag_97:\n      dup2\n      sload\n      dup2\n      mstore\n      swap1\n      0x01\n      add\n      swap1\n      0x20\n      add\n      dup1\n      dup4\n      gt\n      tag_97\n      jumpi\n      dup3\n      swap1\n      sub\n      0x1f\n      and\n      dup3\n      add\n      swap2\n    tag_95:\n      pop\n      pop\n      pop\n      pop\n      pop\n      dup2\n      mstore\n      pop\n        /* \"Final Project/FinalProject_Contract.sol\":5373:5379  result */\n      dup4\n        /* \"Final Project/FinalProject_Contract.sol\":5380:5381  i */\n      dup4\n        /* \"Final Project/FinalProject_Contract.sol\":5373:5382  result[i] */\n      dup2\n      mload\n      dup2\n      lt\n      tag_98\n      jumpi\n      tag_99\n      tag_92\n      jump\t// in\n    tag_99:\n    tag_98:\n      0x20\n      mul\n      0x20\n      add\n      add\n        /* \"Final Project/FinalProject_Contract.sol\":5373:5434  result[i] = FileSummary(currentId, files[currentId].fileName) */\n      dup2\n      swap1\n      mstore\n      pop\n        /* \"Final Project/FinalProject_Contract.sol\":5320:5446  {... */\n      pop\n        /* \"Final Project/FinalProject_Contract.sol\":5315:5318  i++ */\n      dup1\n      dup1\n      0x01\n      add\n      swap2\n      pop\n      pop\n        /* \"Final Project/FinalProject_Contract.sol\":5282:5446  for (uint i = 0; i < ids.length; i++) {... */\n      jump(tag_87)\n    tag_88:\n      pop\n        /* \"Final Project/FinalProject_Contract.sol\":5465:5471  result */\n      dup1\n        /* \"Final Project/FinalProject_Contract.sol\":5458:5471  return result */\n      swap3\n      pop\n      pop\n      pop\n        /* \"Final Project/FinalProject_Contract.sol\":4948:5479  function getCourse(string memory _subject) public view returns (FileSummary[] memory){... */\n      swap2\n      swap1\n      pop\n      jump\t// out\n        /* \"Final Project/FinalProject_Contract.sol\":2194:2235  mapping(uint256 => FileInfo) public files */\n    tag_30:\n      mstore(0x20, 0x01)\n      dup1\n      0x00\n      mstore\n      keccak256(0x00, 0x40)\n      0x00\n      swap2\n      pop\n      swap1\n      pop\n      dup1\n      0x00\n      add\n      sload\n      swap1\n      dup1\n      0x01\n      add\n      dup1\n      sload\n      tag_100\n      swap1\n      tag_37\n      jump\t// in\n    tag_100:\n      dup1\n      0x1f\n      add\n      0x20\n      dup1\n      swap2\n      div\n      mul\n      0x20\n      add\n      mload(0x40)\n      swap1\n      dup2\n      add\n      0x40\n      mstore\n      dup1\n      swap3\n      swap2\n      swap1\n      dup2\n      dup2\n      mstore\n      0x20\n      add\n      dup3\n      dup1\n      sload\n      tag_101\n      swap1\n      tag_37\n      jump\t// in\n    tag_101:\n      dup1\n      iszero\n      tag_102\n      jumpi\n      dup1\n      0x1f\n      lt\n      tag_103\n      jumpi\n      0x0100\n      dup1\n      dup4\n      sload\n      div\n      mul\n      dup4\n      mstore\n      swap2\n      0x20\n      add\n      swap2\n      jump(tag_102)\n    tag_103:\n      dup3\n      add\n      swap2\n      swap1\n      0x00\n      mstore\n      keccak256(0x00, 0x20)\n      swap1\n    tag_104:\n      dup2\n      sload\n      dup2\n      mstore\n      swap1\n      0x01\n      add\n      swap1\n      0x20\n      add\n      dup1\n      dup4\n      gt\n      tag_104\n      jumpi\n      dup3\n      swap1\n      sub\n      0x1f\n      and\n      dup3\n      add\n      swap2\n    tag_102:\n      pop\n      pop\n      pop\n      pop\n      pop\n      swap1\n      dup1\n      0x02\n      add\n      dup1\n      sload\n      tag_105\n      swap1\n      tag_37\n      jump\t// in\n    tag_105:\n      dup1\n      0x1f\n      add\n      0x20\n      dup1\n      swap2\n      div\n      mul\n      0x20\n      add\n      mload(0x40)\n      swap1\n      dup2\n      add\n      0x40\n      mstore\n      dup1\n      swap3\n      swap2\n      swap1\n      dup2\n      dup2\n      mstore\n      0x20\n      add\n      dup3\n      dup1\n      sload\n      tag_106\n      swap1\n      tag_37\n      jump\t// in\n    tag_106:\n      dup1\n      iszero\n      tag_107\n      jumpi\n      dup1\n      0x1f\n      lt\n      tag_108\n      jumpi\n      0x0100\n      dup1\n      dup4\n      sload\n      div\n      mul\n      dup4\n      mstore\n      swap2\n      0x20\n      add\n      swap2\n      jump(tag_107)\n    tag_108:\n      dup3\n      add\n      swap2\n      swap1\n      0x00\n      mstore\n      keccak256(0x00, 0x20)\n      swap1\n    tag_109:\n      dup2\n      sload\n      dup2\n      mstore\n      swap1\n      0x01\n      add\n      swap1\n      0x20\n      add\n      dup1\n      dup4\n      gt\n      tag_109\n      jumpi\n      dup3\n      swap1\n      sub\n      0x1f\n      and\n      dup3\n      add\n      swap2\n    tag_107:\n      pop\n      pop\n      pop\n      pop\n      pop\n      swap1\n      dup1\n      0x03\n      add\n      dup1\n      sload\n      tag_110\n      swap1\n      tag_37\n      jump\t// in\n    tag_110:\n      dup1\n      0x1f\n      add\n      0x20\n      dup1\n      swap2\n      div\n      mul\n      0x20\n      add\n      mload(0x40)\n      swap1\n      dup2\n      add\n      0x40\n      mstore\n      dup1\n      swap3\n      swap2\n      swap1\n      dup2\n      dup2\n      mstore\n      0x20\n      add\n      dup3\n      dup1\n      sload\n      tag_111\n      swap1\n      tag_37\n      jump\t// in\n    tag_111:\n      dup1\n      iszero\n      tag_112\n      jumpi\n      dup1\n      0x1f\n      lt\n      tag_113\n      jumpi\n      0x0100\n      dup1\n      dup4\n      sload\n      div\n      mul\n      dup4\n      mstore\n      swap2\n      0x20\n      add\n      swap2\n      jump(tag_112)\n    tag_113:\n      dup3\n      add\n      swap2\n      swap1\n      0x00\n      mstore\n      keccak256(0x00, 0x20)\n      swap1\n    tag_114:\n      dup2\n      sload\n      dup2\n      mstore\n      swap1\n      0x01\n      add\n      swap1\n      0x20\n      add\n      dup1\n      dup4\n      gt\n      tag_114\n      jumpi\n      dup3\n      swap1\n      sub\n      0x1f\n      and\n      dup3\n      add\n      swap2\n    tag_112:\n      pop\n      pop\n      pop\n      pop\n      pop\n      swap1\n      dup1\n      0x04\n      add\n      0x00\n      swap1\n      sload\n      swap1\n      0x0100\n      exp\n      swap1\n      div\n      0xffffffffffffffffffffffffffffffffffffffff\n      and\n      swap1\n      pop\n      dup6\n      jump\t// out\n    tag_34:\n      mload(0x40)\n      dup1\n      0xa0\n      add\n      0x40\n      mstore\n      dup1\n      0x00\n      dup2\n      mstore\n      0x20\n      add\n      0x60\n      dup2\n      mstore\n      0x20\n      add\n      0x60\n      dup2\n      mstore\n      0x20\n      add\n      0x60\n      dup2\n      mstore\n      0x20\n      add\n      and(0xffffffffffffffffffffffffffffffffffffffff, 0x00)\n      dup2\n      mstore\n      pop\n      swap1\n      jump\t// out\n    tag_86:\n      mload(0x40)\n      dup1\n      0x40\n      add\n      0x40\n      mstore\n      dup1\n      0x00\n      dup2\n      mstore\n      0x20\n      add\n      0x60\n      dup2\n      mstore\n      pop\n      swap1\n      jump\t// out\n        /* \"#utility.yul\":7:82   */\n    tag_115:\n        /* \"#utility.yul\":40:46   */\n      0x00\n        /* \"#utility.yul\":73:75   */\n      0x40\n        /* \"#utility.yul\":67:76   */\n      mload\n        /* \"#utility.yul\":57:76   */\n      swap1\n      pop\n        /* \"#utility.yul\":7:82   */\n      swap1\n      jump\t// out\n        /* \"#utility.yul\":88:205   */\n    tag_116:\n        /* \"#utility.yul\":197:198   */\n      0x00\n        /* \"#utility.yul\":194:195   */\n      0x00\n        /* \"#utility.yul\":187:199   */\n      revert\n        /* \"#utility.yul\":211:328   */\n    tag_117:\n        /* \"#utility.yul\":320:321   */\n      0x00\n        /* \"#utility.yul\":317:318   */\n      0x00\n        /* \"#utility.yul\":310:322   */\n      revert\n        /* \"#utility.yul\":334:411   */\n    tag_118:\n        /* \"#utility.yul\":371:378   */\n      0x00\n        /* \"#utility.yul\":400:405   */\n      dup2\n        /* \"#utility.yul\":389:405   */\n      swap1\n      pop\n        /* \"#utility.yul\":334:411   */\n      swap2\n      swap1\n      pop\n      jump\t// out\n        /* \"#utility.yul\":417:539   */\n    tag_119:\n        /* \"#utility.yul\":490:514   */\n      tag_181\n        /* \"#utility.yul\":508:513   */\n      dup2\n        /* \"#utility.yul\":490:514   */\n      tag_118\n      jump\t// in\n    tag_181:\n        /* \"#utility.yul\":483:488   */\n      dup2\n        /* \"#utility.yul\":480:515   */\n      eq\n        /* \"#utility.yul\":470:533   */\n      tag_182\n      jumpi\n        /* \"#utility.yul\":529:530   */\n      0x00\n        /* \"#utility.yul\":526:527   */\n      0x00\n        /* \"#utility.yul\":519:531   */\n      revert\n        /* \"#utility.yul\":470:533   */\n    tag_182:\n        /* \"#utility.yul\":417:539   */\n      pop\n      jump\t// out\n        /* \"#utility.yul\":545:684   */\n    tag_120:\n        /* \"#utility.yul\":591:596   */\n      0x00\n        /* \"#utility.yul\":629:635   */\n      dup2\n        /* \"#utility.yul\":616:636   */\n      calldataload\n        /* \"#utility.yul\":607:636   */\n      swap1\n      pop\n        /* \"#utility.yul\":645:678   */\n      tag_184\n        /* \"#utility.yul\":672:677   */\n      dup2\n        /* \"#utility.yul\":645:678   */\n      tag_119\n      jump\t// in\n    tag_184:\n        /* \"#utility.yul\":545:684   */\n      swap3\n      swap2\n      pop\n      pop\n      jump\t// out\n        /* \"#utility.yul\":690:1019   */\n    tag_10:\n        /* \"#utility.yul\":749:755   */\n      0x00\n        /* \"#utility.yul\":798:800   */\n      0x20\n        /* \"#utility.yul\":786:795   */\n      dup3\n        /* \"#utility.yul\":777:784   */\n      dup5\n        /* \"#utility.yul\":773:796   */\n      sub\n        /* \"#utility.yul\":769:801   */\n      slt\n        /* \"#utility.yul\":766:885   */\n      iszero\n      tag_186\n      jumpi\n        /* \"#utility.yul\":804:883   */\n      tag_187\n      tag_116\n      jump\t// in\n    tag_187:\n        /* \"#utility.yul\":766:885   */\n    tag_186:\n        /* \"#utility.yul\":924:925   */\n      0x00\n        /* \"#utility.yul\":949:1002   */\n      tag_188\n        /* \"#utility.yul\":994:1001   */\n      dup5\n        /* \"#utility.yul\":985:991   */\n      dup3\n        /* \"#utility.yul\":974:983   */\n      dup6\n        /* \"#utility.yul\":970:992   */\n      add\n        /* \"#utility.yul\":949:1002   */\n      tag_120\n      jump\t// in\n    tag_188:\n        /* \"#utility.yul\":939:1002   */\n      swap2\n      pop\n        /* \"#utility.yul\":895:1012   */\n      pop\n        /* \"#utility.yul\":690:1019   */\n      swap3\n      swap2\n      pop\n      pop\n      jump\t// out\n        /* \"#utility.yul\":1025:1133   */\n    tag_121:\n        /* \"#utility.yul\":1102:1126   */\n      tag_190\n        /* \"#utility.yul\":1120:1125   */\n      dup2\n        /* \"#utility.yul\":1102:1126   */\n      tag_118\n      jump\t// in\n    tag_190:\n        /* \"#utility.yul\":1097:1100   */\n      dup3\n        /* \"#utility.yul\":1090:1127   */\n      mstore\n        /* \"#utility.yul\":1025:1133   */\n      pop\n      pop\n      jump\t// out\n        /* \"#utility.yul\":1139:1238   */\n    tag_122:\n        /* \"#utility.yul\":1191:1197   */\n      0x00\n        /* \"#utility.yul\":1225:1230   */\n      dup2\n        /* \"#utility.yul\":1219:1231   */\n      mload\n        /* \"#utility.yul\":1209:1231   */\n      swap1\n      pop\n        /* \"#utility.yul\":1139:1238   */\n      swap2\n      swap1\n      pop\n      jump\t// out\n        /* \"#utility.yul\":1244:1403   */\n    tag_123:\n        /* \"#utility.yul\":1318:1329   */\n      0x00\n        /* \"#utility.yul\":1352:1358   */\n      dup3\n        /* \"#utility.yul\":1347:1350   */\n      dup3\n        /* \"#utility.yul\":1340:1359   */\n      mstore\n        /* \"#utility.yul\":1392:1396   */\n      0x20\n        /* \"#utility.yul\":1387:1390   */\n      dup3\n        /* \"#utility.yul\":1383:1397   */\n      add\n        /* \"#utility.yul\":1368:1397   */\n      swap1\n      pop\n        /* \"#utility.yul\":1244:1403   */\n      swap3\n      swap2\n      pop\n      pop\n      jump\t// out\n        /* \"#utility.yul\":1409:1548   */\n    tag_124:\n        /* \"#utility.yul\":1498:1504   */\n      dup3\n        /* \"#utility.yul\":1493:1496   */\n      dup2\n        /* \"#utility.yul\":1488:1491   */\n      dup4\n        /* \"#utility.yul\":1482:1505   */\n      mcopy\n        /* \"#utility.yul\":1539:1540   */\n      0x00\n        /* \"#utility.yul\":1530:1536   */\n      dup4\n        /* \"#utility.yul\":1525:1528   */\n      dup4\n        /* \"#utility.yul\":1521:1537   */\n      add\n        /* \"#utility.yul\":1514:1541   */\n      mstore\n        /* \"#utility.yul\":1409:1548   */\n      pop\n      pop\n      pop\n      jump\t// out\n        /* \"#utility.yul\":1554:1656   */\n    tag_125:\n        /* \"#utility.yul\":1595:1601   */\n      0x00\n        /* \"#utility.yul\":1646:1648   */\n      0x1f\n        /* \"#utility.yul\":1642:1649   */\n      not\n        /* \"#utility.yul\":1637:1639   */\n      0x1f\n        /* \"#utility.yul\":1630:1635   */\n      dup4\n        /* \"#utility.yul\":1626:1640   */\n      add\n        /* \"#utility.yul\":1622:1650   */\n      and\n        /* \"#utility.yul\":1612:1650   */\n      swap1\n      pop\n        /* \"#utility.yul\":1554:1656   */\n      swap2\n      swap1\n      pop\n      jump\t// out\n        /* \"#utility.yul\":1662:2019   */\n    tag_126:\n        /* \"#utility.yul\":1740:1743   */\n      0x00\n        /* \"#utility.yul\":1768:1807   */\n      tag_196\n        /* \"#utility.yul\":1801:1806   */\n      dup3\n        /* \"#utility.yul\":1768:1807   */\n      tag_122\n      jump\t// in\n    tag_196:\n        /* \"#utility.yul\":1823:1884   */\n      tag_197\n        /* \"#utility.yul\":1877:1883   */\n      dup2\n        /* \"#utility.yul\":1872:1875   */\n      dup6\n        /* \"#utility.yul\":1823:1884   */\n      tag_123\n      jump\t// in\n    tag_197:\n        /* \"#utility.yul\":1816:1884   */\n      swap4\n      pop\n        /* \"#utility.yul\":1893:1958   */\n      tag_198\n        /* \"#utility.yul\":1951:1957   */\n      dup2\n        /* \"#utility.yul\":1946:1949   */\n      dup6\n        /* \"#utility.yul\":1939:1943   */\n      0x20\n        /* \"#utility.yul\":1932:1937   */\n      dup7\n        /* \"#utility.yul\":1928:1944   */\n      add\n        /* \"#utility.yul\":1893:1958   */\n      tag_124\n      jump\t// in\n    tag_198:\n        /* \"#utility.yul\":1983:2012   */\n      tag_199\n        /* \"#utility.yul\":2005:2011   */\n      dup2\n        /* \"#utility.yul\":1983:2012   */\n      tag_125\n      jump\t// in\n    tag_199:\n        /* \"#utility.yul\":1978:1981   */\n      dup5\n        /* \"#utility.yul\":1974:2013   */\n      add\n        /* \"#utility.yul\":1967:2013   */\n      swap2\n      pop\n        /* \"#utility.yul\":1744:2019   */\n      pop\n        /* \"#utility.yul\":1662:2019   */\n      swap3\n      swap2\n      pop\n      pop\n      jump\t// out\n        /* \"#utility.yul\":2025:2151   */\n    tag_127:\n        /* \"#utility.yul\":2062:2069   */\n      0x00\n        /* \"#utility.yul\":2102:2144   */\n      0xffffffffffffffffffffffffffffffffffffffff\n        /* \"#utility.yul\":2095:2100   */\n      dup3\n        /* \"#utility.yul\":2091:2145   */\n      and\n        /* \"#utility.yul\":2080:2145   */\n      swap1\n      pop\n        /* \"#utility.yul\":2025:2151   */\n      swap2\n      swap1\n      pop\n      jump\t// out\n        /* \"#utility.yul\":2157:2253   */\n    tag_128:\n        /* \"#utility.yul\":2194:2201   */\n      0x00\n        /* \"#utility.yul\":2223:2247   */\n      tag_202\n        /* \"#utility.yul\":2241:2246   */\n      dup3\n        /* \"#utility.yul\":2223:2247   */\n      tag_127\n      jump\t// in\n    tag_202:\n        /* \"#utility.yul\":2212:2247   */\n      swap1\n      pop\n        /* \"#utility.yul\":2157:2253   */\n      swap2\n      swap1\n      pop\n      jump\t// out\n        /* \"#utility.yul\":2259:2367   */\n    tag_129:\n        /* \"#utility.yul\":2336:2360   */\n      tag_204\n        /* \"#utility.yul\":2354:2359   */\n      dup2\n        /* \"#utility.yul\":2336:2360   */\n      tag_128\n      jump\t// in\n    tag_204:\n        /* \"#utility.yul\":2331:2334   */\n      dup3\n        /* \"#utility.yul\":2324:2361   */\n      mstore\n        /* \"#utility.yul\":2259:2367   */\n      pop\n      pop\n      jump\t// out\n        /* \"#utility.yul\":2441:3722   */\n    tag_130:\n        /* \"#utility.yul\":2558:2561   */\n      0x00\n        /* \"#utility.yul\":2594:2598   */\n      0xa0\n        /* \"#utility.yul\":2589:2592   */\n      dup4\n        /* \"#utility.yul\":2585:2599   */\n      add\n        /* \"#utility.yul\":2683:2687   */\n      0x00\n        /* \"#utility.yul\":2676:2681   */\n      dup4\n        /* \"#utility.yul\":2672:2688   */\n      add\n        /* \"#utility.yul\":2666:2689   */\n      mload\n        /* \"#utility.yul\":2702:2765   */\n      tag_206\n        /* \"#utility.yul\":2759:2763   */\n      0x00\n        /* \"#utility.yul\":2754:2757   */\n      dup7\n        /* \"#utility.yul\":2750:2764   */\n      add\n        /* \"#utility.yul\":2736:2748   */\n      dup3\n        /* \"#utility.yul\":2702:2765   */\n      tag_121\n      jump\t// in\n    tag_206:\n        /* \"#utility.yul\":2609:2775   */\n      pop\n        /* \"#utility.yul\":2857:2861   */\n      0x20\n        /* \"#utility.yul\":2850:2855   */\n      dup4\n        /* \"#utility.yul\":2846:2862   */\n      add\n        /* \"#utility.yul\":2840:2863   */\n      mload\n        /* \"#utility.yul\":2910:2913   */\n      dup5\n        /* \"#utility.yul\":2904:2908   */\n      dup3\n        /* \"#utility.yul\":2900:2914   */\n      sub\n        /* \"#utility.yul\":2893:2897   */\n      0x20\n        /* \"#utility.yul\":2888:2891   */\n      dup7\n        /* \"#utility.yul\":2884:2898   */\n      add\n        /* \"#utility.yul\":2877:2915   */\n      mstore\n        /* \"#utility.yul\":2936:3009   */\n      tag_207\n        /* \"#utility.yul\":3004:3008   */\n      dup3\n        /* \"#utility.yul\":2990:3002   */\n      dup3\n        /* \"#utility.yul\":2936:3009   */\n      tag_126\n      jump\t// in\n    tag_207:\n        /* \"#utility.yul\":2928:3009   */\n      swap2\n      pop\n        /* \"#utility.yul\":2785:3020   */\n      pop\n        /* \"#utility.yul\":3105:3109   */\n      0x40\n        /* \"#utility.yul\":3098:3103   */\n      dup4\n        /* \"#utility.yul\":3094:3110   */\n      add\n        /* \"#utility.yul\":3088:3111   */\n      mload\n        /* \"#utility.yul\":3158:3161   */\n      dup5\n        /* \"#utility.yul\":3152:3156   */\n      dup3\n        /* \"#utility.yul\":3148:3162   */\n      sub\n        /* \"#utility.yul\":3141:3145   */\n      0x40\n        /* \"#utility.yul\":3136:3139   */\n      dup7\n        /* \"#utility.yul\":3132:3146   */\n      add\n        /* \"#utility.yul\":3125:3163   */\n      mstore\n        /* \"#utility.yul\":3184:3257   */\n      tag_208\n        /* \"#utility.yul\":3252:3256   */\n      dup3\n        /* \"#utility.yul\":3238:3250   */\n      dup3\n        /* \"#utility.yul\":3184:3257   */\n      tag_126\n      jump\t// in\n    tag_208:\n        /* \"#utility.yul\":3176:3257   */\n      swap2\n      pop\n        /* \"#utility.yul\":3030:3268   */\n      pop\n        /* \"#utility.yul\":3354:3358   */\n      0x60\n        /* \"#utility.yul\":3347:3352   */\n      dup4\n        /* \"#utility.yul\":3343:3359   */\n      add\n        /* \"#utility.yul\":3337:3360   */\n      mload\n        /* \"#utility.yul\":3407:3410   */\n      dup5\n        /* \"#utility.yul\":3401:3405   */\n      dup3\n        /* \"#utility.yul\":3397:3411   */\n      sub\n        /* \"#utility.yul\":3390:3394   */\n      0x60\n        /* \"#utility.yul\":3385:3388   */\n      dup7\n        /* \"#utility.yul\":3381:3395   */\n      add\n        /* \"#utility.yul\":3374:3412   */\n      mstore\n        /* \"#utility.yul\":3433:3506   */\n      tag_209\n        /* \"#utility.yul\":3501:3505   */\n      dup3\n        /* \"#utility.yul\":3487:3499   */\n      dup3\n        /* \"#utility.yul\":3433:3506   */\n      tag_126\n      jump\t// in\n    tag_209:\n        /* \"#utility.yul\":3425:3506   */\n      swap2\n      pop\n        /* \"#utility.yul\":3278:3517   */\n      pop\n        /* \"#utility.yul\":3603:3607   */\n      0x80\n        /* \"#utility.yul\":3596:3601   */\n      dup4\n        /* \"#utility.yul\":3592:3608   */\n      add\n        /* \"#utility.yul\":3586:3609   */\n      mload\n        /* \"#utility.yul\":3622:3685   */\n      tag_210\n        /* \"#utility.yul\":3679:3683   */\n      0x80\n        /* \"#utility.yul\":3674:3677   */\n      dup7\n        /* \"#utility.yul\":3670:3684   */\n      add\n        /* \"#utility.yul\":3656:3668   */\n      dup3\n        /* \"#utility.yul\":3622:3685   */\n      tag_129\n      jump\t// in\n    tag_210:\n        /* \"#utility.yul\":3527:3695   */\n      pop\n        /* \"#utility.yul\":3712:3716   */\n      dup1\n        /* \"#utility.yul\":3705:3716   */\n      swap2\n      pop\n        /* \"#utility.yul\":2563:3722   */\n      pop\n        /* \"#utility.yul\":2441:3722   */\n      swap3\n      swap2\n      pop\n      pop\n      jump\t// out\n        /* \"#utility.yul\":3728:3897   */\n    tag_131:\n        /* \"#utility.yul\":3812:3823   */\n      0x00\n        /* \"#utility.yul\":3846:3852   */\n      dup3\n        /* \"#utility.yul\":3841:3844   */\n      dup3\n        /* \"#utility.yul\":3834:3853   */\n      mstore\n        /* \"#utility.yul\":3886:3890   */\n      0x20\n        /* \"#utility.yul\":3881:3884   */\n      dup3\n        /* \"#utility.yul\":3877:3891   */\n      add\n        /* \"#utility.yul\":3862:3891   */\n      swap1\n      pop\n        /* \"#utility.yul\":3728:3897   */\n      swap3\n      swap2\n      pop\n      pop\n      jump\t// out\n        /* \"#utility.yul\":3903:4280   */\n    tag_132:\n        /* \"#utility.yul\":3991:3994   */\n      0x00\n        /* \"#utility.yul\":4019:4058   */\n      tag_213\n        /* \"#utility.yul\":4052:4057   */\n      dup3\n        /* \"#utility.yul\":4019:4058   */\n      tag_122\n      jump\t// in\n    tag_213:\n        /* \"#utility.yul\":4074:4145   */\n      tag_214\n        /* \"#utility.yul\":4138:4144   */\n      dup2\n        /* \"#utility.yul\":4133:4136   */\n      dup6\n        /* \"#utility.yul\":4074:4145   */\n      tag_131\n      jump\t// in\n    tag_214:\n        /* \"#utility.yul\":4067:4145   */\n      swap4\n      pop\n        /* \"#utility.yul\":4154:4219   */\n      tag_215\n        /* \"#utility.yul\":4212:4218   */\n      dup2\n        /* \"#utility.yul\":4207:4210   */\n      dup6\n        /* \"#utility.yul\":4200:4204   */\n      0x20\n        /* \"#utility.yul\":4193:4198   */\n      dup7\n        /* \"#utility.yul\":4189:4205   */\n      add\n        /* \"#utility.yul\":4154:4219   */\n      tag_124\n      jump\t// in\n    tag_215:\n        /* \"#utility.yul\":4244:4273   */\n      tag_216\n        /* \"#utility.yul\":4266:4272   */\n      dup2\n        /* \"#utility.yul\":4244:4273   */\n      tag_125\n      jump\t// in\n    tag_216:\n        /* \"#utility.yul\":4239:4242   */\n      dup5\n        /* \"#utility.yul\":4235:4274   */\n      add\n        /* \"#utility.yul\":4228:4274   */\n      swap2\n      pop\n        /* \"#utility.yul\":3995:4280   */\n      pop\n        /* \"#utility.yul\":3903:4280   */\n      swap3\n      swap2\n      pop\n      pop\n      jump\t// out\n        /* \"#utility.yul\":4286:4856   */\n    tag_13:\n        /* \"#utility.yul\":4475:4479   */\n      0x00\n        /* \"#utility.yul\":4513:4515   */\n      0x40\n        /* \"#utility.yul\":4502:4511   */\n      dup3\n        /* \"#utility.yul\":4498:4516   */\n      add\n        /* \"#utility.yul\":4490:4516   */\n      swap1\n      pop\n        /* \"#utility.yul\":4562:4571   */\n      dup2\n        /* \"#utility.yul\":4556:4560   */\n      dup2\n        /* \"#utility.yul\":4552:4572   */\n      sub\n        /* \"#utility.yul\":4548:4549   */\n      0x00\n        /* \"#utility.yul\":4537:4546   */\n      dup4\n        /* \"#utility.yul\":4533:4550   */\n      add\n        /* \"#utility.yul\":4526:4573   */\n      mstore\n        /* \"#utility.yul\":4590:4696   */\n      tag_218\n        /* \"#utility.yul\":4691:4695   */\n      dup2\n        /* \"#utility.yul\":4682:4688   */\n      dup6\n        /* \"#utility.yul\":4590:4696   */\n      tag_130\n      jump\t// in\n    tag_218:\n        /* \"#utility.yul\":4582:4696   */\n      swap1\n      pop\n        /* \"#utility.yul\":4743:4752   */\n      dup2\n        /* \"#utility.yul\":4737:4741   */\n      dup2\n        /* \"#utility.yul\":4733:4753   */\n      sub\n        /* \"#utility.yul\":4728:4730   */\n      0x20\n        /* \"#utility.yul\":4717:4726   */\n      dup4\n        /* \"#utility.yul\":4713:4731   */\n      add\n        /* \"#utility.yul\":4706:4754   */\n      mstore\n        /* \"#utility.yul\":4771:4849   */\n      tag_219\n        /* \"#utility.yul\":4844:4848   */\n      dup2\n        /* \"#utility.yul\":4835:4841   */\n      dup5\n        /* \"#utility.yul\":4771:4849   */\n      tag_132\n      jump\t// in\n    tag_219:\n        /* \"#utility.yul\":4763:4849   */\n      swap1\n      pop\n        /* \"#utility.yul\":4286:4856   */\n      swap4\n      swap3\n      pop\n      pop\n      pop\n      jump\t// out\n        /* \"#utility.yul\":4862:4980   */\n    tag_133:\n        /* \"#utility.yul\":4949:4973   */\n      tag_221\n        /* \"#utility.yul\":4967:4972   */\n      dup2\n        /* \"#utility.yul\":4949:4973   */\n      tag_118\n      jump\t// in\n    tag_221:\n        /* \"#utility.yul\":4944:4947   */\n      dup3\n        /* \"#utility.yul\":4937:4974   */\n      mstore\n        /* \"#utility.yul\":4862:4980   */\n      pop\n      pop\n      jump\t// out\n        /* \"#utility.yul\":4986:5208   */\n    tag_17:\n        /* \"#utility.yul\":5079:5083   */\n      0x00\n        /* \"#utility.yul\":5117:5119   */\n      0x20\n        /* \"#utility.yul\":5106:5115   */\n      dup3\n        /* \"#utility.yul\":5102:5120   */\n      add\n        /* \"#utility.yul\":5094:5120   */\n      swap1\n      pop\n        /* \"#utility.yul\":5130:5201   */\n      tag_223\n        /* \"#utility.yul\":5198:5199   */\n      0x00\n        /* \"#utility.yul\":5187:5196   */\n      dup4\n        /* \"#utility.yul\":5183:5200   */\n      add\n        /* \"#utility.yul\":5174:5180   */\n      dup5\n        /* \"#utility.yul\":5130:5201   */\n      tag_133\n      jump\t// in\n    tag_223:\n        /* \"#utility.yul\":4986:5208   */\n      swap3\n      swap2\n      pop\n      pop\n      jump\t// out\n        /* \"#utility.yul\":5214:5331   */\n    tag_134:\n        /* \"#utility.yul\":5323:5324   */\n      0x00\n        /* \"#utility.yul\":5320:5321   */\n      0x00\n        /* \"#utility.yul\":5313:5325   */\n      revert\n        /* \"#utility.yul\":5337:5454   */\n    tag_135:\n        /* \"#utility.yul\":5446:5447   */\n      0x00\n        /* \"#utility.yul\":5443:5444   */\n      0x00\n        /* \"#utility.yul\":5436:5448   */\n      revert\n        /* \"#utility.yul\":5460:5640   */\n    tag_82:\n        /* \"#utility.yul\":5508:5585   */\n      0x4e487b7100000000000000000000000000000000000000000000000000000000\n        /* \"#utility.yul\":5505:5506   */\n      0x00\n        /* \"#utility.yul\":5498:5586   */\n      mstore\n        /* \"#utility.yul\":5605:5609   */\n      0x41\n        /* \"#utility.yul\":5602:5603   */\n      0x04\n        /* \"#utility.yul\":5595:5610   */\n      mstore\n        /* \"#utility.yul\":5629:5633   */\n      0x24\n        /* \"#utility.yul\":5626:5627   */\n      0x00\n        /* \"#utility.yul\":5619:5634   */\n      revert\n        /* \"#utility.yul\":5646:5927   */\n    tag_136:\n        /* \"#utility.yul\":5729:5756   */\n      tag_228\n        /* \"#utility.yul\":5751:5755   */\n      dup3\n        /* \"#utility.yul\":5729:5756   */\n      tag_125\n      jump\t// in\n    tag_228:\n        /* \"#utility.yul\":5721:5727   */\n      dup2\n        /* \"#utility.yul\":5717:5757   */\n      add\n        /* \"#utility.yul\":5859:5865   */\n      dup2\n        /* \"#utility.yul\":5847:5857   */\n      dup2\n        /* \"#utility.yul\":5844:5866   */\n      lt\n        /* \"#utility.yul\":5823:5841   */\n      0xffffffffffffffff\n        /* \"#utility.yul\":5811:5821   */\n      dup3\n        /* \"#utility.yul\":5808:5842   */\n      gt\n        /* \"#utility.yul\":5805:5867   */\n      or\n        /* \"#utility.yul\":5802:5890   */\n      iszero\n      tag_229\n      jumpi\n        /* \"#utility.yul\":5870:5888   */\n      tag_230\n      tag_82\n      jump\t// in\n    tag_230:\n        /* \"#utility.yul\":5802:5890   */\n    tag_229:\n        /* \"#utility.yul\":5910:5920   */\n      dup1\n        /* \"#utility.yul\":5906:5908   */\n      0x40\n        /* \"#utility.yul\":5899:5921   */\n      mstore\n        /* \"#utility.yul\":5689:5927   */\n      pop\n        /* \"#utility.yul\":5646:5927   */\n      pop\n      pop\n      jump\t// out\n        /* \"#utility.yul\":5933:6062   */\n    tag_137:\n        /* \"#utility.yul\":5967:5973   */\n      0x00\n        /* \"#utility.yul\":5994:6014   */\n      tag_232\n      tag_115\n      jump\t// in\n    tag_232:\n        /* \"#utility.yul\":5984:6014   */\n      swap1\n      pop\n        /* \"#utility.yul\":6023:6056   */\n      tag_233\n        /* \"#utility.yul\":6051:6055   */\n      dup3\n        /* \"#utility.yul\":6043:6049   */\n      dup3\n        /* \"#utility.yul\":6023:6056   */\n      tag_136\n      jump\t// in\n    tag_233:\n        /* \"#utility.yul\":5933:6062   */\n      swap2\n      swap1\n      pop\n      jump\t// out\n        /* \"#utility.yul\":6068:6376   */\n    tag_138:\n        /* \"#utility.yul\":6130:6134   */\n      0x00\n        /* \"#utility.yul\":6220:6238   */\n      0xffffffffffffffff\n        /* \"#utility.yul\":6212:6218   */\n      dup3\n        /* \"#utility.yul\":6209:6239   */\n      gt\n        /* \"#utility.yul\":6206:6262   */\n      iszero\n      tag_235\n      jumpi\n        /* \"#utility.yul\":6242:6260   */\n      tag_236\n      tag_82\n      jump\t// in\n    tag_236:\n        /* \"#utility.yul\":6206:6262   */\n    tag_235:\n        /* \"#utility.yul\":6280:6309   */\n      tag_237\n        /* \"#utility.yul\":6302:6308   */\n      dup3\n        /* \"#utility.yul\":6280:6309   */\n      tag_125\n      jump\t// in\n    tag_237:\n        /* \"#utility.yul\":6272:6309   */\n      swap1\n      pop\n        /* \"#utility.yul\":6364:6368   */\n      0x20\n        /* \"#utility.yul\":6358:6362   */\n      dup2\n        /* \"#utility.yul\":6354:6369   */\n      add\n        /* \"#utility.yul\":6346:6369   */\n      swap1\n      pop\n        /* \"#utility.yul\":6068:6376   */\n      swap2\n      swap1\n      pop\n      jump\t// out\n        /* \"#utility.yul\":6382:6530   */\n    tag_139:\n        /* \"#utility.yul\":6480:6486   */\n      dup3\n        /* \"#utility.yul\":6475:6478   */\n      dup2\n        /* \"#utility.yul\":6470:6473   */\n      dup4\n        /* \"#utility.yul\":6457:6487   */\n      calldatacopy\n        /* \"#utility.yul\":6521:6522   */\n      0x00\n        /* \"#utility.yul\":6512:6518   */\n      dup4\n        /* \"#utility.yul\":6507:6510   */\n      dup4\n        /* \"#utility.yul\":6503:6519   */\n      add\n        /* \"#utility.yul\":6496:6523   */\n      mstore\n        /* \"#utility.yul\":6382:6530   */\n      pop\n      pop\n      pop\n      jump\t// out\n        /* \"#utility.yul\":6536:6961   */\n    tag_140:\n        /* \"#utility.yul\":6614:6619   */\n      0x00\n        /* \"#utility.yul\":6639:6705   */\n      tag_240\n        /* \"#utility.yul\":6655:6704   */\n      tag_241\n        /* \"#utility.yul\":6697:6703   */\n      dup5\n        /* \"#utility.yul\":6655:6704   */\n      tag_138\n      jump\t// in\n    tag_241:\n        /* \"#utility.yul\":6639:6705   */\n      tag_137\n      jump\t// in\n    tag_240:\n        /* \"#utility.yul\":6630:6705   */\n      swap1\n      pop\n        /* \"#utility.yul\":6728:6734   */\n      dup3\n        /* \"#utility.yul\":6721:6726   */\n      dup2\n        /* \"#utility.yul\":6714:6735   */\n      mstore\n        /* \"#utility.yul\":6766:6770   */\n      0x20\n        /* \"#utility.yul\":6759:6764   */\n      dup2\n        /* \"#utility.yul\":6755:6771   */\n      add\n        /* \"#utility.yul\":6804:6807   */\n      dup5\n        /* \"#utility.yul\":6795:6801   */\n      dup5\n        /* \"#utility.yul\":6790:6793   */\n      dup5\n        /* \"#utility.yul\":6786:6802   */\n      add\n        /* \"#utility.yul\":6783:6808   */\n      gt\n        /* \"#utility.yul\":6780:6892   */\n      iszero\n      tag_242\n      jumpi\n        /* \"#utility.yul\":6811:6890   */\n      tag_243\n      tag_135\n      jump\t// in\n    tag_243:\n        /* \"#utility.yul\":6780:6892   */\n    tag_242:\n        /* \"#utility.yul\":6901:6955   */\n      tag_244\n        /* \"#utility.yul\":6948:6954   */\n      dup5\n        /* \"#utility.yul\":6943:6946   */\n      dup3\n        /* \"#utility.yul\":6938:6941   */\n      dup6\n        /* \"#utility.yul\":6901:6955   */\n      tag_139\n      jump\t// in\n    tag_244:\n        /* \"#utility.yul\":6620:6961   */\n      pop\n        /* \"#utility.yul\":6536:6961   */\n      swap4\n      swap3\n      pop\n      pop\n      pop\n      jump\t// out\n        /* \"#utility.yul\":6981:7321   */\n    tag_141:\n        /* \"#utility.yul\":7037:7042   */\n      0x00\n        /* \"#utility.yul\":7086:7089   */\n      dup3\n        /* \"#utility.yul\":7079:7083   */\n      0x1f\n        /* \"#utility.yul\":7071:7077   */\n      dup4\n        /* \"#utility.yul\":7067:7084   */\n      add\n        /* \"#utility.yul\":7063:7090   */\n      slt\n        /* \"#utility.yul\":7053:7175   */\n      tag_246\n      jumpi\n        /* \"#utility.yul\":7094:7173   */\n      tag_247\n      tag_134\n      jump\t// in\n    tag_247:\n        /* \"#utility.yul\":7053:7175   */\n    tag_246:\n        /* \"#utility.yul\":7211:7217   */\n      dup2\n        /* \"#utility.yul\":7198:7218   */\n      calldataload\n        /* \"#utility.yul\":7236:7315   */\n      tag_248\n        /* \"#utility.yul\":7311:7314   */\n      dup5\n        /* \"#utility.yul\":7303:7309   */\n      dup3\n        /* \"#utility.yul\":7296:7300   */\n      0x20\n        /* \"#utility.yul\":7288:7294   */\n      dup7\n        /* \"#utility.yul\":7284:7301   */\n      add\n        /* \"#utility.yul\":7236:7315   */\n      tag_140\n      jump\t// in\n    tag_248:\n        /* \"#utility.yul\":7227:7315   */\n      swap2\n      pop\n        /* \"#utility.yul\":7043:7321   */\n      pop\n        /* \"#utility.yul\":6981:7321   */\n      swap3\n      swap2\n      pop\n      pop\n      jump\t// out\n        /* \"#utility.yul\":7327:8486   */\n    tag_20:\n        /* \"#utility.yul\":7434:7440   */\n      0x00\n        /* \"#utility.yul\":7442:7448   */\n      0x00\n        /* \"#utility.yul\":7450:7456   */\n      0x00\n        /* \"#utility.yul\":7499:7501   */\n      0x60\n        /* \"#utility.yul\":7487:7496   */\n      dup5\n        /* \"#utility.yul\":7478:7485   */\n      dup7\n        /* \"#utility.yul\":7474:7497   */\n      sub\n        /* \"#utility.yul\":7470:7502   */\n      slt\n        /* \"#utility.yul\":7467:7586   */\n      iszero\n      tag_250\n      jumpi\n        /* \"#utility.yul\":7505:7584   */\n      tag_251\n      tag_116\n      jump\t// in\n    tag_251:\n        /* \"#utility.yul\":7467:7586   */\n    tag_250:\n        /* \"#utility.yul\":7653:7654   */\n      0x00\n        /* \"#utility.yul\":7642:7651   */\n      dup5\n        /* \"#utility.yul\":7638:7655   */\n      add\n        /* \"#utility.yul\":7625:7656   */\n      calldataload\n        /* \"#utility.yul\":7683:7701   */\n      0xffffffffffffffff\n        /* \"#utility.yul\":7675:7681   */\n      dup2\n        /* \"#utility.yul\":7672:7702   */\n      gt\n        /* \"#utility.yul\":7669:7786   */\n      iszero\n      tag_252\n      jumpi\n        /* \"#utility.yul\":7705:7784   */\n      tag_253\n      tag_117\n      jump\t// in\n    tag_253:\n        /* \"#utility.yul\":7669:7786   */\n    tag_252:\n        /* \"#utility.yul\":7810:7873   */\n      tag_254\n        /* \"#utility.yul\":7865:7872   */\n      dup7\n        /* \"#utility.yul\":7856:7862   */\n      dup3\n        /* \"#utility.yul\":7845:7854   */\n      dup8\n        /* \"#utility.yul\":7841:7863   */\n      add\n        /* \"#utility.yul\":7810:7873   */\n      tag_141\n      jump\t// in\n    tag_254:\n        /* \"#utility.yul\":7800:7873   */\n      swap4\n      pop\n        /* \"#utility.yul\":7596:7883   */\n      pop\n        /* \"#utility.yul\":7950:7952   */\n      0x20\n        /* \"#utility.yul\":7939:7948   */\n      dup5\n        /* \"#utility.yul\":7935:7953   */\n      add\n        /* \"#utility.yul\":7922:7954   */\n      calldataload\n        /* \"#utility.yul\":7981:7999   */\n      0xffffffffffffffff\n        /* \"#utility.yul\":7973:7979   */\n      dup2\n        /* \"#utility.yul\":7970:8000   */\n      gt\n        /* \"#utility.yul\":7967:8084   */\n      iszero\n      tag_255\n      jumpi\n        /* \"#utility.yul\":8003:8082   */\n      tag_256\n      tag_117\n      jump\t// in\n    tag_256:\n        /* \"#utility.yul\":7967:8084   */\n    tag_255:\n        /* \"#utility.yul\":8108:8171   */\n      tag_257\n        /* \"#utility.yul\":8163:8170   */\n      dup7\n        /* \"#utility.yul\":8154:8160   */\n      dup3\n        /* \"#utility.yul\":8143:8152   */\n      dup8\n        /* \"#utility.yul\":8139:8161   */\n      add\n        /* \"#utility.yul\":8108:8171   */\n      tag_141\n      jump\t// in\n    tag_257:\n        /* \"#utility.yul\":8098:8171   */\n      swap3\n      pop\n        /* \"#utility.yul\":7893:8181   */\n      pop\n        /* \"#utility.yul\":8248:8250   */\n      0x40\n        /* \"#utility.yul\":8237:8246   */\n      dup5\n        /* \"#utility.yul\":8233:8251   */\n      add\n        /* \"#utility.yul\":8220:8252   */\n      calldataload\n        /* \"#utility.yul\":8279:8297   */\n      0xffffffffffffffff\n        /* \"#utility.yul\":8271:8277   */\n      dup2\n        /* \"#utility.yul\":8268:8298   */\n      gt\n        /* \"#utility.yul\":8265:8382   */\n      iszero\n      tag_258\n      jumpi\n        /* \"#utility.yul\":8301:8380   */\n      tag_259\n      tag_117\n      jump\t// in\n    tag_259:\n        /* \"#utility.yul\":8265:8382   */\n    tag_258:\n        /* \"#utility.yul\":8406:8469   */\n      tag_260\n        /* \"#utility.yul\":8461:8468   */\n      dup7\n        /* \"#utility.yul\":8452:8458   */\n      dup3\n        /* \"#utility.yul\":8441:8450   */\n      dup8\n        /* \"#utility.yul\":8437:8459   */\n      add\n        /* \"#utility.yul\":8406:8469   */\n      tag_141\n      jump\t// in\n    tag_260:\n        /* \"#utility.yul\":8396:8469   */\n      swap2\n      pop\n        /* \"#utility.yul\":8191:8479   */\n      pop\n        /* \"#utility.yul\":7327:8486   */\n      swap3\n      pop\n      swap3\n      pop\n      swap3\n      jump\t// out\n        /* \"#utility.yul\":8492:9001   */\n    tag_24:\n        /* \"#utility.yul\":8561:8567   */\n      0x00\n        /* \"#utility.yul\":8610:8612   */\n      0x20\n        /* \"#utility.yul\":8598:8607   */\n      dup3\n        /* \"#utility.yul\":8589:8596   */\n      dup5\n        /* \"#utility.yul\":8585:8608   */\n      sub\n        /* \"#utility.yul\":8581:8613   */\n      slt\n        /* \"#utility.yul\":8578:8697   */\n      iszero\n      tag_262\n      jumpi\n        /* \"#utility.yul\":8616:8695   */\n      tag_263\n      tag_116\n      jump\t// in\n    tag_263:\n        /* \"#utility.yul\":8578:8697   */\n    tag_262:\n        /* \"#utility.yul\":8764:8765   */\n      0x00\n        /* \"#utility.yul\":8753:8762   */\n      dup3\n        /* \"#utility.yul\":8749:8766   */\n      add\n        /* \"#utility.yul\":8736:8767   */\n      calldataload\n        /* \"#utility.yul\":8794:8812   */\n      0xffffffffffffffff\n        /* \"#utility.yul\":8786:8792   */\n      dup2\n        /* \"#utility.yul\":8783:8813   */\n      gt\n        /* \"#utility.yul\":8780:8897   */\n      iszero\n      tag_264\n      jumpi\n        /* \"#utility.yul\":8816:8895   */\n      tag_265\n      tag_117\n      jump\t// in\n    tag_265:\n        /* \"#utility.yul\":8780:8897   */\n    tag_264:\n        /* \"#utility.yul\":8921:8984   */\n      tag_266\n        /* \"#utility.yul\":8976:8983   */\n      dup5\n        /* \"#utility.yul\":8967:8973   */\n      dup3\n        /* \"#utility.yul\":8956:8965   */\n      dup6\n        /* \"#utility.yul\":8952:8974   */\n      add\n        /* \"#utility.yul\":8921:8984   */\n      tag_141\n      jump\t// in\n    tag_266:\n        /* \"#utility.yul\":8911:8984   */\n      swap2\n      pop\n        /* \"#utility.yul\":8707:8994   */\n      pop\n        /* \"#utility.yul\":8492:9001   */\n      swap3\n      swap2\n      pop\n      pop\n      jump\t// out\n        /* \"#utility.yul\":9007:9148   */\n    tag_142:\n        /* \"#utility.yul\":9101:9107   */\n      0x00\n        /* \"#utility.yul\":9135:9140   */\n      dup2\n        /* \"#utility.yul\":9129:9141   */\n      mload\n        /* \"#utility.yul\":9119:9141   */\n      swap1\n      pop\n        /* \"#utility.yul\":9007:9148   */\n      swap2\n      swap1\n      pop\n      jump\t// out\n        /* \"#utility.yul\":9154:9365   */\n    tag_143:\n        /* \"#utility.yul\":9280:9291   */\n      0x00\n        /* \"#utility.yul\":9314:9320   */\n      dup3\n        /* \"#utility.yul\":9309:9312   */\n      dup3\n        /* \"#utility.yul\":9302:9321   */\n      mstore\n        /* \"#utility.yul\":9354:9358   */\n      0x20\n        /* \"#utility.yul\":9349:9352   */\n      dup3\n        /* \"#utility.yul\":9345:9359   */\n      add\n        /* \"#utility.yul\":9330:9359   */\n      swap1\n      pop\n        /* \"#utility.yul\":9154:9365   */\n      swap3\n      swap2\n      pop\n      pop\n      jump\t// out\n        /* \"#utility.yul\":9371:9530   */\n    tag_144:\n        /* \"#utility.yul\":9465:9469   */\n      0x00\n        /* \"#utility.yul\":9488:9491   */\n      dup2\n        /* \"#utility.yul\":9480:9491   */\n      swap1\n      pop\n        /* \"#utility.yul\":9518:9522   */\n      0x20\n        /* \"#utility.yul\":9513:9516   */\n      dup3\n        /* \"#utility.yul\":9509:9523   */\n      add\n        /* \"#utility.yul\":9501:9523   */\n      swap1\n      pop\n        /* \"#utility.yul\":9371:9530   */\n      swap2\n      swap1\n      pop\n      jump\t// out\n        /* \"#utility.yul\":9610:10216   */\n    tag_145:\n        /* \"#utility.yul\":9723:9726   */\n      0x00\n        /* \"#utility.yul\":9759:9763   */\n      0x40\n        /* \"#utility.yul\":9754:9757   */\n      dup4\n        /* \"#utility.yul\":9750:9764   */\n      add\n        /* \"#utility.yul\":9848:9852   */\n      0x00\n        /* \"#utility.yul\":9841:9846   */\n      dup4\n        /* \"#utility.yul\":9837:9853   */\n      add\n        /* \"#utility.yul\":9831:9854   */\n      mload\n        /* \"#utility.yul\":9867:9930   */\n      tag_271\n        /* \"#utility.yul\":9924:9928   */\n      0x00\n        /* \"#utility.yul\":9919:9922   */\n      dup7\n        /* \"#utility.yul\":9915:9929   */\n      add\n        /* \"#utility.yul\":9901:9913   */\n      dup3\n        /* \"#utility.yul\":9867:9930   */\n      tag_121\n      jump\t// in\n    tag_271:\n        /* \"#utility.yul\":9774:9940   */\n      pop\n        /* \"#utility.yul\":10026:10030   */\n      0x20\n        /* \"#utility.yul\":10019:10024   */\n      dup4\n        /* \"#utility.yul\":10015:10031   */\n      add\n        /* \"#utility.yul\":10009:10032   */\n      mload\n        /* \"#utility.yul\":10079:10082   */\n      dup5\n        /* \"#utility.yul\":10073:10077   */\n      dup3\n        /* \"#utility.yul\":10069:10083   */\n      sub\n        /* \"#utility.yul\":10062:10066   */\n      0x20\n        /* \"#utility.yul\":10057:10060   */\n      dup7\n        /* \"#utility.yul\":10053:10067   */\n      add\n        /* \"#utility.yul\":10046:10084   */\n      mstore\n        /* \"#utility.yul\":10105:10178   */\n      tag_272\n        /* \"#utility.yul\":10173:10177   */\n      dup3\n        /* \"#utility.yul\":10159:10171   */\n      dup3\n        /* \"#utility.yul\":10105:10178   */\n      tag_126\n      jump\t// in\n    tag_272:\n        /* \"#utility.yul\":10097:10178   */\n      swap2\n      pop\n        /* \"#utility.yul\":9950:10189   */\n      pop\n        /* \"#utility.yul\":10206:10210   */\n      dup1\n        /* \"#utility.yul\":10199:10210   */\n      swap2\n      pop\n        /* \"#utility.yul\":9728:10216   */\n      pop\n        /* \"#utility.yul\":9610:10216   */\n      swap3\n      swap2\n      pop\n      pop\n      jump\t// out\n        /* \"#utility.yul\":10222:10486   */\n    tag_146:\n        /* \"#utility.yul\":10345:10355   */\n      0x00\n        /* \"#utility.yul\":10380:10480   */\n      tag_274\n        /* \"#utility.yul\":10476:10479   */\n      dup4\n        /* \"#utility.yul\":10468:10474   */\n      dup4\n        /* \"#utility.yul\":10380:10480   */\n      tag_145\n      jump\t// in\n    tag_274:\n        /* \"#utility.yul\":10366:10480   */\n      swap1\n      pop\n        /* \"#utility.yul\":10222:10486   */\n      swap3\n      swap2\n      pop\n      pop\n      jump\t// out\n        /* \"#utility.yul\":10492:10632   */\n    tag_147:\n        /* \"#utility.yul\":10589:10593   */\n      0x00\n        /* \"#utility.yul\":10621:10625   */\n      0x20\n        /* \"#utility.yul\":10616:10619   */\n      dup3\n        /* \"#utility.yul\":10612:10626   */\n      add\n        /* \"#utility.yul\":10604:10626   */\n      swap1\n      pop\n        /* \"#utility.yul\":10492:10632   */\n      swap2\n      swap1\n      pop\n      jump\t// out\n        /* \"#utility.yul\":10716:11843   */\n    tag_148:\n        /* \"#utility.yul\":10889:10892   */\n      0x00\n        /* \"#utility.yul\":10918:10999   */\n      tag_277\n        /* \"#utility.yul\":10993:10998   */\n      dup3\n        /* \"#utility.yul\":10918:10999   */\n      tag_142\n      jump\t// in\n    tag_277:\n        /* \"#utility.yul\":11015:11128   */\n      tag_278\n        /* \"#utility.yul\":11121:11127   */\n      dup2\n        /* \"#utility.yul\":11116:11119   */\n      dup6\n        /* \"#utility.yul\":11015:11128   */\n      tag_143\n      jump\t// in\n    tag_278:\n        /* \"#utility.yul\":11008:11128   */\n      swap4\n      pop\n        /* \"#utility.yul\":11154:11157   */\n      dup4\n        /* \"#utility.yul\":11199:11203   */\n      0x20\n        /* \"#utility.yul\":11191:11197   */\n      dup3\n        /* \"#utility.yul\":11187:11204   */\n      mul\n        /* \"#utility.yul\":11182:11185   */\n      dup6\n        /* \"#utility.yul\":11178:11205   */\n      add\n        /* \"#utility.yul\":11229:11312   */\n      tag_279\n        /* \"#utility.yul\":11306:11311   */\n      dup6\n        /* \"#utility.yul\":11229:11312   */\n      tag_144\n      jump\t// in\n    tag_279:\n        /* \"#utility.yul\":11335:11342   */\n      dup1\n        /* \"#utility.yul\":11366:11367   */\n      0x00\n        /* \"#utility.yul\":11351:11798   */\n    tag_280:\n        /* \"#utility.yul\":11376:11382   */\n      dup6\n        /* \"#utility.yul\":11373:11374   */\n      dup2\n        /* \"#utility.yul\":11370:11383   */\n      lt\n        /* \"#utility.yul\":11351:11798   */\n      iszero\n      tag_282\n      jumpi\n        /* \"#utility.yul\":11447:11456   */\n      dup5\n        /* \"#utility.yul\":11441:11445   */\n      dup5\n        /* \"#utility.yul\":11437:11457   */\n      sub\n        /* \"#utility.yul\":11432:11435   */\n      dup10\n        /* \"#utility.yul\":11425:11458   */\n      mstore\n        /* \"#utility.yul\":11498:11504   */\n      dup2\n        /* \"#utility.yul\":11492:11505   */\n      mload\n        /* \"#utility.yul\":11526:11644   */\n      tag_283\n        /* \"#utility.yul\":11639:11643   */\n      dup6\n        /* \"#utility.yul\":11624:11637   */\n      dup3\n        /* \"#utility.yul\":11526:11644   */\n      tag_146\n      jump\t// in\n    tag_283:\n        /* \"#utility.yul\":11518:11644   */\n      swap5\n      pop\n        /* \"#utility.yul\":11667:11754   */\n      tag_284\n        /* \"#utility.yul\":11747:11753   */\n      dup4\n        /* \"#utility.yul\":11667:11754   */\n      tag_147\n      jump\t// in\n    tag_284:\n        /* \"#utility.yul\":11657:11754   */\n      swap3\n      pop\n        /* \"#utility.yul\":11783:11787   */\n      0x20\n        /* \"#utility.yul\":11778:11781   */\n      dup11\n        /* \"#utility.yul\":11774:11788   */\n      add\n        /* \"#utility.yul\":11767:11788   */\n      swap10\n      pop\n        /* \"#utility.yul\":11411:11798   */\n      pop\n        /* \"#utility.yul\":11398:11399   */\n      0x01\n        /* \"#utility.yul\":11395:11396   */\n      dup2\n        /* \"#utility.yul\":11391:11400   */\n      add\n        /* \"#utility.yul\":11386:11400   */\n      swap1\n      pop\n        /* \"#utility.yul\":11351:11798   */\n      jump(tag_280)\n    tag_282:\n        /* \"#utility.yul\":11355:11369   */\n      pop\n        /* \"#utility.yul\":11814:11818   */\n      dup3\n        /* \"#utility.yul\":11807:11818   */\n      swap8\n      pop\n        /* \"#utility.yul\":11834:11837   */\n      dup8\n        /* \"#utility.yul\":11827:11837   */\n      swap6\n      pop\n        /* \"#utility.yul\":10894:11843   */\n      pop\n      pop\n      pop\n      pop\n      pop\n        /* \"#utility.yul\":10716:11843   */\n      swap3\n      swap2\n      pop\n      pop\n      jump\t// out\n        /* \"#utility.yul\":11849:12330   */\n    tag_27:\n        /* \"#utility.yul\":12046:12050   */\n      0x00\n        /* \"#utility.yul\":12084:12086   */\n      0x20\n        /* \"#utility.yul\":12073:12082   */\n      dup3\n        /* \"#utility.yul\":12069:12087   */\n      add\n        /* \"#utility.yul\":12061:12087   */\n      swap1\n      pop\n        /* \"#utility.yul\":12133:12142   */\n      dup2\n        /* \"#utility.yul\":12127:12131   */\n      dup2\n        /* \"#utility.yul\":12123:12143   */\n      sub\n        /* \"#utility.yul\":12119:12120   */\n      0x00\n        /* \"#utility.yul\":12108:12117   */\n      dup4\n        /* \"#utility.yul\":12104:12121   */\n      add\n        /* \"#utility.yul\":12097:12144   */\n      mstore\n        /* \"#utility.yul\":12161:12323   */\n      tag_286\n        /* \"#utility.yul\":12318:12322   */\n      dup2\n        /* \"#utility.yul\":12309:12315   */\n      dup5\n        /* \"#utility.yul\":12161:12323   */\n      tag_148\n      jump\t// in\n    tag_286:\n        /* \"#utility.yul\":12153:12323   */\n      swap1\n      pop\n        /* \"#utility.yul\":11849:12330   */\n      swap3\n      swap2\n      pop\n      pop\n      jump\t// out\n        /* \"#utility.yul\":12336:12454   */\n    tag_149:\n        /* \"#utility.yul\":12423:12447   */\n      tag_288\n        /* \"#utility.yul\":12441:12446   */\n      dup2\n        /* \"#utility.yul\":12423:12447   */\n      tag_128\n      jump\t// in\n    tag_288:\n        /* \"#utility.yul\":12418:12421   */\n      dup3\n        /* \"#utility.yul\":12411:12448   */\n      mstore\n        /* \"#utility.yul\":12336:12454   */\n      pop\n      pop\n      jump\t// out\n        /* \"#utility.yul\":12460:13397   */\n    tag_32:\n        /* \"#utility.yul\":12725:12729   */\n      0x00\n        /* \"#utility.yul\":12763:12766   */\n      0xa0\n        /* \"#utility.yul\":12752:12761   */\n      dup3\n        /* \"#utility.yul\":12748:12767   */\n      add\n        /* \"#utility.yul\":12740:12767   */\n      swap1\n      pop\n        /* \"#utility.yul\":12777:12848   */\n      tag_290\n        /* \"#utility.yul\":12845:12846   */\n      0x00\n        /* \"#utility.yul\":12834:12843   */\n      dup4\n        /* \"#utility.yul\":12830:12847   */\n      add\n        /* \"#utility.yul\":12821:12827   */\n      dup9\n        /* \"#utility.yul\":12777:12848   */\n      tag_133\n      jump\t// in\n    tag_290:\n        /* \"#utility.yul\":12895:12904   */\n      dup2\n        /* \"#utility.yul\":12889:12893   */\n      dup2\n        /* \"#utility.yul\":12885:12905   */\n      sub\n        /* \"#utility.yul\":12880:12882   */\n      0x20\n        /* \"#utility.yul\":12869:12878   */\n      dup4\n        /* \"#utility.yul\":12865:12883   */\n      add\n        /* \"#utility.yul\":12858:12906   */\n      mstore\n        /* \"#utility.yul\":12923:13001   */\n      tag_291\n        /* \"#utility.yul\":12996:13000   */\n      dup2\n        /* \"#utility.yul\":12987:12993   */\n      dup8\n        /* \"#utility.yul\":12923:13001   */\n      tag_132\n      jump\t// in\n    tag_291:\n        /* \"#utility.yul\":12915:13001   */\n      swap1\n      pop\n        /* \"#utility.yul\":13048:13057   */\n      dup2\n        /* \"#utility.yul\":13042:13046   */\n      dup2\n        /* \"#utility.yul\":13038:13058   */\n      sub\n        /* \"#utility.yul\":13033:13035   */\n      0x40\n        /* \"#utility.yul\":13022:13031   */\n      dup4\n        /* \"#utility.yul\":13018:13036   */\n      add\n        /* \"#utility.yul\":13011:13059   */\n      mstore\n        /* \"#utility.yul\":13076:13154   */\n      tag_292\n        /* \"#utility.yul\":13149:13153   */\n      dup2\n        /* \"#utility.yul\":13140:13146   */\n      dup7\n        /* \"#utility.yul\":13076:13154   */\n      tag_132\n      jump\t// in\n    tag_292:\n        /* \"#utility.yul\":13068:13154   */\n      swap1\n      pop\n        /* \"#utility.yul\":13201:13210   */\n      dup2\n        /* \"#utility.yul\":13195:13199   */\n      dup2\n        /* \"#utility.yul\":13191:13211   */\n      sub\n        /* \"#utility.yul\":13186:13188   */\n      0x60\n        /* \"#utility.yul\":13175:13184   */\n      dup4\n        /* \"#utility.yul\":13171:13189   */\n      add\n        /* \"#utility.yul\":13164:13212   */\n      mstore\n        /* \"#utility.yul\":13229:13307   */\n      tag_293\n        /* \"#utility.yul\":13302:13306   */\n      dup2\n        /* \"#utility.yul\":13293:13299   */\n      dup6\n        /* \"#utility.yul\":13229:13307   */\n      tag_132\n      jump\t// in\n    tag_293:\n        /* \"#utility.yul\":13221:13307   */\n      swap1\n      pop\n        /* \"#utility.yul\":13317:13390   */\n      tag_294\n        /* \"#utility.yul\":13385:13388   */\n      0x80\n        /* \"#utility.yul\":13374:13383   */\n      dup4\n        /* \"#utility.yul\":13370:13389   */\n      add\n        /* \"#utility.yul\":13361:13367   */\n      dup5\n        /* \"#utility.yul\":13317:13390   */\n      tag_149\n      jump\t// in\n    tag_294:\n        /* \"#utility.yul\":12460:13397   */\n      swap7\n      swap6\n      pop\n      pop\n      pop\n      pop\n      pop\n      pop\n      jump\t// out\n        /* \"#utility.yul\":13403:13583   */\n    tag_150:\n        /* \"#utility.yul\":13451:13528   */\n      0x4e487b7100000000000000000000000000000000000000000000000000000000\n        /* \"#utility.yul\":13448:13449   */\n      0x00\n        /* \"#utility.yul\":13441:13529   */\n      mstore\n        /* \"#utility.yul\":13548:13552   */\n      0x22\n        /* \"#utility.yul\":13545:13546   */\n      0x04\n        /* \"#utility.yul\":13538:13553   */\n      mstore\n        /* \"#utility.yul\":13572:13576   */\n      0x24\n        /* \"#utility.yul\":13569:13570   */\n      0x00\n        /* \"#utility.yul\":13562:13577   */\n      revert\n        /* \"#utility.yul\":13589:13909   */\n    tag_37:\n        /* \"#utility.yul\":13633:13639   */\n      0x00\n        /* \"#utility.yul\":13670:13671   */\n      0x02\n        /* \"#utility.yul\":13664:13668   */\n      dup3\n        /* \"#utility.yul\":13660:13672   */\n      div\n        /* \"#utility.yul\":13650:13672   */\n      swap1\n      pop\n        /* \"#utility.yul\":13717:13718   */\n      0x01\n        /* \"#utility.yul\":13711:13715   */\n      dup3\n        /* \"#utility.yul\":13707:13719   */\n      and\n        /* \"#utility.yul\":13738:13756   */\n      dup1\n        /* \"#utility.yul\":13728:13809   */\n      tag_297\n      jumpi\n        /* \"#utility.yul\":13794:13798   */\n      0x7f\n        /* \"#utility.yul\":13786:13792   */\n      dup3\n        /* \"#utility.yul\":13782:13799   */\n      and\n        /* \"#utility.yul\":13772:13799   */\n      swap2\n      pop\n        /* \"#utility.yul\":13728:13809   */\n    tag_297:\n        /* \"#utility.yul\":13856:13858   */\n      0x20\n        /* \"#utility.yul\":13848:13854   */\n      dup3\n        /* \"#utility.yul\":13845:13859   */\n      lt\n        /* \"#utility.yul\":13825:13843   */\n      dup2\n        /* \"#utility.yul\":13822:13860   */\n      sub\n        /* \"#utility.yul\":13819:13903   */\n      tag_298\n      jumpi\n        /* \"#utility.yul\":13875:13893   */\n      tag_299\n      tag_150\n      jump\t// in\n    tag_299:\n        /* \"#utility.yul\":13819:13903   */\n    tag_298:\n        /* \"#utility.yul\":13640:13909   */\n      pop\n        /* \"#utility.yul\":13589:13909   */\n      swap2\n      swap1\n      pop\n      jump\t// out\n        /* \"#utility.yul\":13915:14063   */\n    tag_151:\n        /* \"#utility.yul\":14017:14028   */\n      0x00\n        /* \"#utility.yul\":14054:14057   */\n      dup2\n        /* \"#utility.yul\":14039:14057   */\n      swap1\n      pop\n        /* \"#utility.yul\":13915:14063   */\n      swap3\n      swap2\n      pop\n      pop\n      jump\t// out\n        /* \"#utility.yul\":14069:14459   */\n    tag_152:\n        /* \"#utility.yul\":14175:14178   */\n      0x00\n        /* \"#utility.yul\":14203:14242   */\n      tag_302\n        /* \"#utility.yul\":14236:14241   */\n      dup3\n        /* \"#utility.yul\":14203:14242   */\n      tag_122\n      jump\t// in\n    tag_302:\n        /* \"#utility.yul\":14258:14347   */\n      tag_303\n        /* \"#utility.yul\":14340:14346   */\n      dup2\n        /* \"#utility.yul\":14335:14338   */\n      dup6\n        /* \"#utility.yul\":14258:14347   */\n      tag_151\n      jump\t// in\n    tag_303:\n        /* \"#utility.yul\":14251:14347   */\n      swap4\n      pop\n        /* \"#utility.yul\":14356:14421   */\n      tag_304\n        /* \"#utility.yul\":14414:14420   */\n      dup2\n        /* \"#utility.yul\":14409:14412   */\n      dup6\n        /* \"#utility.yul\":14402:14406   */\n      0x20\n        /* \"#utility.yul\":14395:14400   */\n      dup7\n        /* \"#utility.yul\":14391:14407   */\n      add\n        /* \"#utility.yul\":14356:14421   */\n      tag_124\n      jump\t// in\n    tag_304:\n        /* \"#utility.yul\":14446:14452   */\n      dup1\n        /* \"#utility.yul\":14441:14444   */\n      dup5\n        /* \"#utility.yul\":14437:14453   */\n      add\n        /* \"#utility.yul\":14430:14453   */\n      swap2\n      pop\n        /* \"#utility.yul\":14179:14459   */\n      pop\n        /* \"#utility.yul\":14069:14459   */\n      swap3\n      swap2\n      pop\n      pop\n      jump\t// out\n        /* \"#utility.yul\":14465:14900   */\n    tag_53:\n        /* \"#utility.yul\":14645:14648   */\n      0x00\n        /* \"#utility.yul\":14667:14762   */\n      tag_306\n        /* \"#utility.yul\":14758:14761   */\n      dup3\n        /* \"#utility.yul\":14749:14755   */\n      dup6\n        /* \"#utility.yul\":14667:14762   */\n      tag_152\n      jump\t// in\n    tag_306:\n        /* \"#utility.yul\":14660:14762   */\n      swap2\n      pop\n        /* \"#utility.yul\":14779:14874   */\n      tag_307\n        /* \"#utility.yul\":14870:14873   */\n      dup3\n        /* \"#utility.yul\":14861:14867   */\n      dup5\n        /* \"#utility.yul\":14779:14874   */\n      tag_152\n      jump\t// in\n    tag_307:\n        /* \"#utility.yul\":14772:14874   */\n      swap2\n      pop\n        /* \"#utility.yul\":14891:14894   */\n      dup2\n        /* \"#utility.yul\":14884:14894   */\n      swap1\n      pop\n        /* \"#utility.yul\":14465:14900   */\n      swap4\n      swap3\n      pop\n      pop\n      pop\n      jump\t// out\n        /* \"#utility.yul\":14906:15077   */\n    tag_153:\n        /* \"#utility.yul\":15046:15069   */\n      0x4950465320486173682069732072657175697265640000000000000000000000\n        /* \"#utility.yul\":15042:15043   */\n      0x00\n        /* \"#utility.yul\":15034:15040   */\n      dup3\n        /* \"#utility.yul\":15030:15044   */\n      add\n        /* \"#utility.yul\":15023:15070   */\n      mstore\n        /* \"#utility.yul\":14906:15077   */\n      pop\n      jump\t// out\n        /* \"#utility.yul\":15083:15449   */\n    tag_154:\n        /* \"#utility.yul\":15225:15228   */\n      0x00\n        /* \"#utility.yul\":15246:15313   */\n      tag_310\n        /* \"#utility.yul\":15310:15312   */\n      0x15\n        /* \"#utility.yul\":15305:15308   */\n      dup4\n        /* \"#utility.yul\":15246:15313   */\n      tag_131\n      jump\t// in\n    tag_310:\n        /* \"#utility.yul\":15239:15313   */\n      swap2\n      pop\n        /* \"#utility.yul\":15322:15415   */\n      tag_311\n        /* \"#utility.yul\":15411:15414   */\n      dup3\n        /* \"#utility.yul\":15322:15415   */\n      tag_153\n      jump\t// in\n    tag_311:\n        /* \"#utility.yul\":15440:15442   */\n      0x20\n        /* \"#utility.yul\":15435:15438   */\n      dup3\n        /* \"#utility.yul\":15431:15443   */\n      add\n        /* \"#utility.yul\":15424:15443   */\n      swap1\n      pop\n        /* \"#utility.yul\":15083:15449   */\n      swap2\n      swap1\n      pop\n      jump\t// out\n        /* \"#utility.yul\":15455:15874   */\n    tag_57:\n        /* \"#utility.yul\":15621:15625   */\n      0x00\n        /* \"#utility.yul\":15659:15661   */\n      0x20\n        /* \"#utility.yul\":15648:15657   */\n      dup3\n        /* \"#utility.yul\":15644:15662   */\n      add\n        /* \"#utility.yul\":15636:15662   */\n      swap1\n      pop\n        /* \"#utility.yul\":15708:15717   */\n      dup2\n        /* \"#utility.yul\":15702:15706   */\n      dup2\n        /* \"#utility.yul\":15698:15718   */\n      sub\n        /* \"#utility.yul\":15694:15695   */\n      0x00\n        /* \"#utility.yul\":15683:15692   */\n      dup4\n        /* \"#utility.yul\":15679:15696   */\n      add\n        /* \"#utility.yul\":15672:15719   */\n      mstore\n        /* \"#utility.yul\":15736:15867   */\n      tag_313\n        /* \"#utility.yul\":15862:15866   */\n      dup2\n        /* \"#utility.yul\":15736:15867   */\n      tag_154\n      jump\t// in\n    tag_313:\n        /* \"#utility.yul\":15728:15867   */\n      swap1\n      pop\n        /* \"#utility.yul\":15455:15874   */\n      swap2\n      swap1\n      pop\n      jump\t// out\n        /* \"#utility.yul\":15880:16051   */\n    tag_155:\n        /* \"#utility.yul\":16020:16043   */\n      0x46696c65204e616d652069732072657175697265640000000000000000000000\n        /* \"#utility.yul\":16016:16017   */\n      0x00\n        /* \"#utility.yul\":16008:16014   */\n      dup3\n        /* \"#utility.yul\":16004:16018   */\n      add\n        /* \"#utility.yul\":15997:16044   */\n      mstore\n        /* \"#utility.yul\":15880:16051   */\n      pop\n      jump\t// out\n        /* \"#utility.yul\":16057:16423   */\n    tag_156:\n        /* \"#utility.yul\":16199:16202   */\n      0x00\n        /* \"#utility.yul\":16220:16287   */\n      tag_316\n        /* \"#utility.yul\":16284:16286   */\n      0x15\n        /* \"#utility.yul\":16279:16282   */\n      dup4\n        /* \"#utility.yul\":16220:16287   */\n      tag_131\n      jump\t// in\n    tag_316:\n        /* \"#utility.yul\":16213:16287   */\n      swap2\n      pop\n        /* \"#utility.yul\":16296:16389   */\n      tag_317\n        /* \"#utility.yul\":16385:16388   */\n      dup3\n        /* \"#utility.yul\":16296:16389   */\n      tag_155\n      jump\t// in\n    tag_317:\n        /* \"#utility.yul\":16414:16416   */\n      0x20\n        /* \"#utility.yul\":16409:16412   */\n      dup3\n        /* \"#utility.yul\":16405:16417   */\n      add\n        /* \"#utility.yul\":16398:16417   */\n      swap1\n      pop\n        /* \"#utility.yul\":16057:16423   */\n      swap2\n      swap1\n      pop\n      jump\t// out\n        /* \"#utility.yul\":16429:16848   */\n    tag_60:\n        /* \"#utility.yul\":16595:16599   */\n      0x00\n        /* \"#utility.yul\":16633:16635   */\n      0x20\n        /* \"#utility.yul\":16622:16631   */\n      dup3\n        /* \"#utility.yul\":16618:16636   */\n      add\n        /* \"#utility.yul\":16610:16636   */\n      swap1\n      pop\n        /* \"#utility.yul\":16682:16691   */\n      dup2\n        /* \"#utility.yul\":16676:16680   */\n      dup2\n        /* \"#utility.yul\":16672:16692   */\n      sub\n        /* \"#utility.yul\":16668:16669   */\n      0x00\n        /* \"#utility.yul\":16657:16666   */\n      dup4\n        /* \"#utility.yul\":16653:16670   */\n      add\n        /* \"#utility.yul\":16646:16693   */\n      mstore\n        /* \"#utility.yul\":16710:16841   */\n      tag_319\n        /* \"#utility.yul\":16836:16840   */\n      dup2\n        /* \"#utility.yul\":16710:16841   */\n      tag_156\n      jump\t// in\n    tag_319:\n        /* \"#utility.yul\":16702:16841   */\n      swap1\n      pop\n        /* \"#utility.yul\":16429:16848   */\n      swap2\n      swap1\n      pop\n      jump\t// out\n        /* \"#utility.yul\":16854:17023   */\n    tag_157:\n        /* \"#utility.yul\":16994:17015   */\n      0x5375626a65637420697320726571756972656400000000000000000000000000\n        /* \"#utility.yul\":16990:16991   */\n      0x00\n        /* \"#utility.yul\":16982:16988   */\n      dup3\n        /* \"#utility.yul\":16978:16992   */\n      add\n        /* \"#utility.yul\":16971:17016   */\n      mstore\n        /* \"#utility.yul\":16854:17023   */\n      pop\n      jump\t// out\n        /* \"#utility.yul\":17029:17395   */\n    tag_158:\n        /* \"#utility.yul\":17171:17174   */\n      0x00\n        /* \"#utility.yul\":17192:17259   */\n      tag_322\n        /* \"#utility.yul\":17256:17258   */\n      0x13\n        /* \"#utility.yul\":17251:17254   */\n      dup4\n        /* \"#utility.yul\":17192:17259   */\n      tag_131\n      jump\t// in\n    tag_322:\n        /* \"#utility.yul\":17185:17259   */\n      swap2\n      pop\n        /* \"#utility.yul\":17268:17361   */\n      tag_323\n        /* \"#utility.yul\":17357:17360   */\n      dup3\n        /* \"#utility.yul\":17268:17361   */\n      tag_157\n      jump\t// in\n    tag_323:\n        /* \"#utility.yul\":17386:17388   */\n      0x20\n        /* \"#utility.yul\":17381:17384   */\n      dup3\n        /* \"#utility.yul\":17377:17389   */\n      add\n        /* \"#utility.yul\":17370:17389   */\n      swap1\n      pop\n        /* \"#utility.yul\":17029:17395   */\n      swap2\n      swap1\n      pop\n      jump\t// out\n        /* \"#utility.yul\":17401:17820   */\n    tag_63:\n        /* \"#utility.yul\":17567:17571   */\n      0x00\n        /* \"#utility.yul\":17605:17607   */\n      0x20\n        /* \"#utility.yul\":17594:17603   */\n      dup3\n        /* \"#utility.yul\":17590:17608   */\n      add\n        /* \"#utility.yul\":17582:17608   */\n      swap1\n      pop\n        /* \"#utility.yul\":17654:17663   */\n      dup2\n        /* \"#utility.yul\":17648:17652   */\n      dup2\n        /* \"#utility.yul\":17644:17664   */\n      sub\n        /* \"#utility.yul\":17640:17641   */\n      0x00\n        /* \"#utility.yul\":17629:17638   */\n      dup4\n        /* \"#utility.yul\":17625:17642   */\n      add\n        /* \"#utility.yul\":17618:17665   */\n      mstore\n        /* \"#utility.yul\":17682:17813   */\n      tag_325\n        /* \"#utility.yul\":17808:17812   */\n      dup2\n        /* \"#utility.yul\":17682:17813   */\n      tag_158\n      jump\t// in\n    tag_325:\n        /* \"#utility.yul\":17674:17813   */\n      swap1\n      pop\n        /* \"#utility.yul\":17401:17820   */\n      swap2\n      swap1\n      pop\n      jump\t// out\n        /* \"#utility.yul\":17826:18006   */\n    tag_159:\n        /* \"#utility.yul\":17874:17951   */\n      0x4e487b7100000000000000000000000000000000000000000000000000000000\n        /* \"#utility.yul\":17871:17872   */\n      0x00\n        /* \"#utility.yul\":17864:17952   */\n      mstore\n        /* \"#utility.yul\":17971:17975   */\n      0x11\n        /* \"#utility.yul\":17968:17969   */\n      0x04\n        /* \"#utility.yul\":17961:17976   */\n      mstore\n        /* \"#utility.yul\":17995:17999   */\n      0x24\n        /* \"#utility.yul\":17992:17993   */\n      0x00\n        /* \"#utility.yul\":17985:18000   */\n      revert\n        /* \"#utility.yul\":18012:18245   */\n    tag_65:\n        /* \"#utility.yul\":18051:18054   */\n      0x00\n        /* \"#utility.yul\":18074:18098   */\n      tag_328\n        /* \"#utility.yul\":18092:18097   */\n      dup3\n        /* \"#utility.yul\":18074:18098   */\n      tag_118\n      jump\t// in\n    tag_328:\n        /* \"#utility.yul\":18065:18098   */\n      swap2\n      pop\n        /* \"#utility.yul\":18120:18186   */\n      0xffffffffffffffffffffffffffffffffffffffffffffffffffffffffffffffff\n        /* \"#utility.yul\":18113:18118   */\n      dup3\n        /* \"#utility.yul\":18110:18187   */\n      sub\n        /* \"#utility.yul\":18107:18210   */\n      tag_329\n      jumpi\n        /* \"#utility.yul\":18190:18208   */\n      tag_330\n      tag_159\n      jump\t// in\n    tag_330:\n        /* \"#utility.yul\":18107:18210   */\n    tag_329:\n        /* \"#utility.yul\":18237:18238   */\n      0x01\n        /* \"#utility.yul\":18230:18235   */\n      dup3\n        /* \"#utility.yul\":18226:18239   */\n      add\n        /* \"#utility.yul\":18219:18239   */\n      swap1\n      pop\n        /* \"#utility.yul\":18012:18245   */\n      swap2\n      swap1\n      pop\n      jump\t// out\n        /* \"#utility.yul\":18251:18392   */\n    tag_160:\n        /* \"#utility.yul\":18300:18304   */\n      0x00\n        /* \"#utility.yul\":18323:18326   */\n      dup2\n        /* \"#utility.yul\":18315:18326   */\n      swap1\n      pop\n        /* \"#utility.yul\":18346:18349   */\n      dup2\n        /* \"#utility.yul\":18343:18344   */\n      0x00\n        /* \"#utility.yul\":18336:18350   */\n      mstore\n        /* \"#utility.yul\":18380:18384   */\n      0x20\n        /* \"#utility.yul\":18377:18378   */\n      0x00\n        /* \"#utility.yul\":18367:18385   */\n      keccak256\n        /* \"#utility.yul\":18359:18385   */\n      swap1\n      pop\n        /* \"#utility.yul\":18251:18392   */\n      swap2\n      swap1\n      pop\n      jump\t// out\n        /* \"#utility.yul\":18398:18491   */\n    tag_161:\n        /* \"#utility.yul\":18435:18441   */\n      0x00\n        /* \"#utility.yul\":18482:18484   */\n      0x20\n        /* \"#utility.yul\":18477:18479   */\n      0x1f\n        /* \"#utility.yul\":18470:18475   */\n      dup4\n        /* \"#utility.yul\":18466:18480   */\n      add\n        /* \"#utility.yul\":18462:18485   */\n      div\n        /* \"#utility.yul\":18452:18485   */\n      swap1\n      pop\n        /* \"#utility.yul\":18398:18491   */\n      swap2\n      swap1\n      pop\n      jump\t// out\n        /* \"#utility.yul\":18497:18604   */\n    tag_162:\n        /* \"#utility.yul\":18541:18549   */\n      0x00\n        /* \"#utility.yul\":18591:18596   */\n      dup3\n        /* \"#utility.yul\":18585:18589   */\n      dup3\n        /* \"#utility.yul\":18581:18597   */\n      shl\n        /* \"#utility.yul\":18560:18597   */\n      swap1\n      pop\n        /* \"#utility.yul\":18497:18604   */\n      swap3\n      swap2\n      pop\n      pop\n      jump\t// out\n        /* \"#utility.yul\":18610:19003   */\n    tag_163:\n        /* \"#utility.yul\":18679:18685   */\n      0x00\n        /* \"#utility.yul\":18729:18730   */\n      0x08\n        /* \"#utility.yul\":18717:18727   */\n      dup4\n        /* \"#utility.yul\":18713:18731   */\n      mul\n        /* \"#utility.yul\":18752:18849   */\n      tag_335\n        /* \"#utility.yul\":18782:18848   */\n      0xffffffffffffffffffffffffffffffffffffffffffffffffffffffffffffffff\n        /* \"#utility.yul\":18771:18780   */\n      dup3\n        /* \"#utility.yul\":18752:18849   */\n      tag_162\n      jump\t// in\n    tag_335:\n        /* \"#utility.yul\":18870:18909   */\n      tag_336\n        /* \"#utility.yul\":18900:18908   */\n      dup7\n        /* \"#utility.yul\":18889:18898   */\n      dup4\n        /* \"#utility.yul\":18870:18909   */\n      tag_162\n      jump\t// in\n    tag_336:\n        /* \"#utility.yul\":18858:18909   */\n      swap6\n      pop\n        /* \"#utility.yul\":18942:18946   */\n      dup1\n        /* \"#utility.yul\":18938:18947   */\n      not\n        /* \"#utility.yul\":18931:18936   */\n      dup5\n        /* \"#utility.yul\":18927:18948   */\n      and\n        /* \"#utility.yul\":18918:18948   */\n      swap4\n      pop\n        /* \"#utility.yul\":18991:18995   */\n      dup1\n        /* \"#utility.yul\":18981:18989   */\n      dup7\n        /* \"#utility.yul\":18977:18996   */\n      and\n        /* \"#utility.yul\":18970:18975   */\n      dup5\n        /* \"#utility.yul\":18967:18997   */\n      or\n        /* \"#utility.yul\":18957:18997   */\n      swap3\n      pop\n        /* \"#utility.yul\":18686:19003   */\n      pop\n      pop\n        /* \"#utility.yul\":18610:19003   */\n      swap4\n      swap3\n      pop\n      pop\n      pop\n      jump\t// out\n        /* \"#utility.yul\":19009:19069   */\n    tag_164:\n        /* \"#utility.yul\":19037:19040   */\n      0x00\n        /* \"#utility.yul\":19058:19063   */\n      dup2\n        /* \"#utility.yul\":19051:19063   */\n      swap1\n      pop\n        /* \"#utility.yul\":19009:19069   */\n      swap2\n      swap1\n      pop\n      jump\t// out\n        /* \"#utility.yul\":19075:19217   */\n    tag_165:\n        /* \"#utility.yul\":19125:19134   */\n      0x00\n        /* \"#utility.yul\":19158:19211   */\n      tag_339\n        /* \"#utility.yul\":19176:19210   */\n      tag_340\n        /* \"#utility.yul\":19185:19209   */\n      tag_341\n        /* \"#utility.yul\":19203:19208   */\n      dup5\n        /* \"#utility.yul\":19185:19209   */\n      tag_118\n      jump\t// in\n    tag_341:\n        /* \"#utility.yul\":19176:19210   */\n      tag_164\n      jump\t// in\n    tag_340:\n        /* \"#utility.yul\":19158:19211   */\n      tag_118\n      jump\t// in\n    tag_339:\n        /* \"#utility.yul\":19145:19211   */\n      swap1\n      pop\n        /* \"#utility.yul\":19075:19217   */\n      swap2\n      swap1\n      pop\n      jump\t// out\n        /* \"#utility.yul\":19223:19298   */\n    tag_166:\n        /* \"#utility.yul\":19266:19269   */\n      0x00\n        /* \"#utility.yul\":19287:19292   */\n      dup2\n        /* \"#utility.yul\":19280:19292   */\n      swap1\n      pop\n        /* \"#utility.yul\":19223:19298   */\n      swap2\n      swap1\n      pop\n      jump\t// out\n        /* \"#utility.yul\":19304:19573   */\n    tag_167:\n        /* \"#utility.yul\":19414:19453   */\n      tag_344\n        /* \"#utility.yul\":19445:19452   */\n      dup4\n        /* \"#utility.yul\":19414:19453   */\n      tag_165\n      jump\t// in\n    tag_344:\n        /* \"#utility.yul\":19475:19566   */\n      tag_345\n        /* \"#utility.yul\":19524:19565   */\n      tag_346\n        /* \"#utility.yul\":19548:19564   */\n      dup3\n        /* \"#utility.yul\":19524:19565   */\n      tag_166\n      jump\t// in\n    tag_346:\n        /* \"#utility.yul\":19516:19522   */\n      dup5\n        /* \"#utility.yul\":19509:19513   */\n      dup5\n        /* \"#utility.yul\":19503:19514   */\n      sload\n        /* \"#utility.yul\":19475:19566   */\n      tag_163\n      jump\t// in\n    tag_345:\n        /* \"#utility.yul\":19469:19473   */\n      dup3\n        /* \"#utility.yul\":19462:19567   */\n      sstore\n        /* \"#utility.yul\":19380:19573   */\n      pop\n        /* \"#utility.yul\":19304:19573   */\n      pop\n      pop\n      pop\n      jump\t// out\n        /* \"#utility.yul\":19579:19652   */\n    tag_168:\n        /* \"#utility.yul\":19624:19627   */\n      0x00\n        /* \"#utility.yul\":19645:19646   */\n      0x00\n        /* \"#utility.yul\":19638:19646   */\n      swap1\n      pop\n        /* \"#utility.yul\":19579:19652   */\n      swap1\n      jump\t// out\n        /* \"#utility.yul\":19658:19847   */\n    tag_169:\n        /* \"#utility.yul\":19735:19767   */\n      tag_349\n      tag_168\n      jump\t// in\n    tag_349:\n        /* \"#utility.yul\":19776:19841   */\n      tag_350\n        /* \"#utility.yul\":19834:19840   */\n      dup2\n        /* \"#utility.yul\":19826:19832   */\n      dup5\n        /* \"#utility.yul\":19820:19824   */\n      dup5\n        /* \"#utility.yul\":19776:19841   */\n      tag_167\n      jump\t// in\n    tag_350:\n        /* \"#utility.yul\":19711:19847   */\n      pop\n        /* \"#utility.yul\":19658:19847   */\n      pop\n      pop\n      jump\t// out\n        /* \"#utility.yul\":19853:20039   */\n    tag_170:\n        /* \"#utility.yul\":19913:20033   */\n    tag_352:\n        /* \"#utility.yul\":19930:19933   */\n      dup2\n        /* \"#utility.yul\":19923:19928   */\n      dup2\n        /* \"#utility.yul\":19920:19934   */\n      lt\n        /* \"#utility.yul\":19913:20033   */\n      iszero\n      tag_354\n      jumpi\n        /* \"#utility.yul\":19984:20023   */\n      tag_355\n        /* \"#utility.yul\":20021:20022   */\n      0x00\n        /* \"#utility.yul\":20014:20019   */\n      dup3\n        /* \"#utility.yul\":19984:20023   */\n      tag_169\n      jump\t// in\n    tag_355:\n        /* \"#utility.yul\":19957:19958   */\n      0x01\n        /* \"#utility.yul\":19950:19955   */\n      dup2\n        /* \"#utility.yul\":19946:19959   */\n      add\n        /* \"#utility.yul\":19937:19959   */\n      swap1\n      pop\n        /* \"#utility.yul\":19913:20033   */\n      jump(tag_352)\n    tag_354:\n        /* \"#utility.yul\":19853:20039   */\n      pop\n      pop\n      jump\t// out\n        /* \"#utility.yul\":20045:20588   */\n    tag_171:\n        /* \"#utility.yul\":20146:20148   */\n      0x1f\n        /* \"#utility.yul\":20141:20144   */\n      dup3\n        /* \"#utility.yul\":20138:20149   */\n      gt\n        /* \"#utility.yul\":20135:20581   */\n      iszero\n      tag_357\n      jumpi\n        /* \"#utility.yul\":20180:20218   */\n      tag_358\n        /* \"#utility.yul\":20212:20217   */\n      dup2\n        /* \"#utility.yul\":20180:20218   */\n      tag_160\n      jump\t// in\n    tag_358:\n        /* \"#utility.yul\":20264:20293   */\n      tag_359\n        /* \"#utility.yul\":20282:20292   */\n      dup5\n        /* \"#utility.yul\":20264:20293   */\n      tag_161\n      jump\t// in\n    tag_359:\n        /* \"#utility.yul\":20254:20262   */\n      dup2\n        /* \"#utility.yul\":20250:20294   */\n      add\n        /* \"#utility.yul\":20447:20449   */\n      0x20\n        /* \"#utility.yul\":20435:20445   */\n      dup6\n        /* \"#utility.yul\":20432:20450   */\n      lt\n        /* \"#utility.yul\":20429:20478   */\n      iszero\n      tag_360\n      jumpi\n        /* \"#utility.yul\":20468:20476   */\n      dup2\n        /* \"#utility.yul\":20453:20476   */\n      swap1\n      pop\n        /* \"#utility.yul\":20429:20478   */\n    tag_360:\n        /* \"#utility.yul\":20491:20571   */\n      tag_361\n        /* \"#utility.yul\":20547:20569   */\n      tag_362\n        /* \"#utility.yul\":20565:20568   */\n      dup6\n        /* \"#utility.yul\":20547:20569   */\n      tag_161\n      jump\t// in\n    tag_362:\n        /* \"#utility.yul\":20537:20545   */\n      dup4\n        /* \"#utility.yul\":20533:20570   */\n      add\n        /* \"#utility.yul\":20520:20531   */\n      dup3\n        /* \"#utility.yul\":20491:20571   */\n      tag_170\n      jump\t// in\n    tag_361:\n        /* \"#utility.yul\":20150:20581   */\n      pop\n      pop\n        /* \"#utility.yul\":20135:20581   */\n    tag_357:\n        /* \"#utility.yul\":20045:20588   */\n      pop\n      pop\n      pop\n      jump\t// out\n        /* \"#utility.yul\":20594:20711   */\n    tag_172:\n        /* \"#utility.yul\":20648:20656   */\n      0x00\n        /* \"#utility.yul\":20698:20703   */\n      dup3\n        /* \"#utility.yul\":20692:20696   */\n      dup3\n        /* \"#utility.yul\":20688:20704   */\n      shr\n        /* \"#utility.yul\":20667:20704   */\n      swap1\n      pop\n        /* \"#utility.yul\":20594:20711   */\n      swap3\n      swap2\n      pop\n      pop\n      jump\t// out\n        /* \"#utility.yul\":20717:20886   */\n    tag_173:\n        /* \"#utility.yul\":20761:20767   */\n      0x00\n        /* \"#utility.yul\":20794:20845   */\n      tag_365\n        /* \"#utility.yul\":20842:20843   */\n      0x00\n        /* \"#utility.yul\":20838:20844   */\n      not\n        /* \"#utility.yul\":20830:20835   */\n      dup5\n        /* \"#utility.yul\":20827:20828   */\n      0x08\n        /* \"#utility.yul\":20823:20836   */\n      mul\n        /* \"#utility.yul\":20794:20845   */\n      tag_172\n      jump\t// in\n    tag_365:\n        /* \"#utility.yul\":20790:20846   */\n      not\n        /* \"#utility.yul\":20875:20879   */\n      dup1\n        /* \"#utility.yul\":20869:20873   */\n      dup4\n        /* \"#utility.yul\":20865:20880   */\n      and\n        /* \"#utility.yul\":20855:20880   */\n      swap2\n      pop\n        /* \"#utility.yul\":20768:20886   */\n      pop\n        /* \"#utility.yul\":20717:20886   */\n      swap3\n      swap2\n      pop\n      pop\n      jump\t// out\n        /* \"#utility.yul\":20891:21186   */\n    tag_174:\n        /* \"#utility.yul\":20967:20971   */\n      0x00\n        /* \"#utility.yul\":21113:21142   */\n      tag_367\n        /* \"#utility.yul\":21138:21141   */\n      dup4\n        /* \"#utility.yul\":21132:21136   */\n      dup4\n        /* \"#utility.yul\":21113:21142   */\n      tag_173\n      jump\t// in\n    tag_367:\n        /* \"#utility.yul\":21105:21142   */\n      swap2\n      pop\n        /* \"#utility.yul\":21175:21178   */\n      dup3\n        /* \"#utility.yul\":21172:21173   */\n      0x02\n        /* \"#utility.yul\":21168:21179   */\n      mul\n        /* \"#utility.yul\":21162:21166   */\n      dup3\n        /* \"#utility.yul\":21159:21180   */\n      or\n        /* \"#utility.yul\":21151:21180   */\n      swap1\n      pop\n        /* \"#utility.yul\":20891:21186   */\n      swap3\n      swap2\n      pop\n      pop\n      jump\t// out\n        /* \"#utility.yul\":21191:22586   */\n    tag_67:\n        /* \"#utility.yul\":21308:21345   */\n      tag_369\n        /* \"#utility.yul\":21341:21344   */\n      dup3\n        /* \"#utility.yul\":21308:21345   */\n      tag_122\n      jump\t// in\n    tag_369:\n        /* \"#utility.yul\":21410:21428   */\n      0xffffffffffffffff\n        /* \"#utility.yul\":21402:21408   */\n      dup2\n        /* \"#utility.yul\":21399:21429   */\n      gt\n        /* \"#utility.yul\":21396:21452   */\n      iszero\n      tag_370\n      jumpi\n        /* \"#utility.yul\":21432:21450   */\n      tag_371\n      tag_82\n      jump\t// in\n    tag_371:\n        /* \"#utility.yul\":21396:21452   */\n    tag_370:\n        /* \"#utility.yul\":21476:21514   */\n      tag_372\n        /* \"#utility.yul\":21508:21512   */\n      dup3\n        /* \"#utility.yul\":21502:21513   */\n      sload\n        /* \"#utility.yul\":21476:21514   */\n      tag_37\n      jump\t// in\n    tag_372:\n        /* \"#utility.yul\":21561:21628   */\n      tag_373\n        /* \"#utility.yul\":21621:21627   */\n      dup3\n        /* \"#utility.yul\":21613:21619   */\n      dup3\n        /* \"#utility.yul\":21607:21611   */\n      dup6\n        /* \"#utility.yul\":21561:21628   */\n      tag_171\n      jump\t// in\n    tag_373:\n        /* \"#utility.yul\":21655:21656   */\n      0x00\n        /* \"#utility.yul\":21679:21683   */\n      0x20\n        /* \"#utility.yul\":21666:21683   */\n      swap1\n      pop\n        /* \"#utility.yul\":21711:21713   */\n      0x1f\n        /* \"#utility.yul\":21703:21709   */\n      dup4\n        /* \"#utility.yul\":21700:21714   */\n      gt\n        /* \"#utility.yul\":21728:21729   */\n      0x01\n        /* \"#utility.yul\":21723:22341   */\n      dup2\n      eq\n      tag_375\n      jumpi\n        /* \"#utility.yul\":22385:22386   */\n      0x00\n        /* \"#utility.yul\":22402:22408   */\n      dup5\n        /* \"#utility.yul\":22399:22476   */\n      iszero\n      tag_376\n      jumpi\n        /* \"#utility.yul\":22451:22460   */\n      dup3\n        /* \"#utility.yul\":22446:22449   */\n      dup8\n        /* \"#utility.yul\":22442:22461   */\n      add\n        /* \"#utility.yul\":22436:22462   */\n      mload\n        /* \"#utility.yul\":22427:22462   */\n      swap1\n      pop\n        /* \"#utility.yul\":22399:22476   */\n    tag_376:\n        /* \"#utility.yul\":22502:22569   */\n      tag_377\n        /* \"#utility.yul\":22562:22568   */\n      dup6\n        /* \"#utility.yul\":22555:22560   */\n      dup3\n        /* \"#utility.yul\":22502:22569   */\n      tag_174\n      jump\t// in\n    tag_377:\n        /* \"#utility.yul\":22496:22500   */\n      dup7\n        /* \"#utility.yul\":22489:22570   */\n      sstore\n        /* \"#utility.yul\":22358:22580   */\n      pop\n        /* \"#utility.yul\":21693:22580   */\n      jump(tag_374)\n        /* \"#utility.yul\":21723:22341   */\n    tag_375:\n        /* \"#utility.yul\":21775:21779   */\n      0x1f\n        /* \"#utility.yul\":21771:21780   */\n      not\n        /* \"#utility.yul\":21763:21769   */\n      dup5\n        /* \"#utility.yul\":21759:21781   */\n      and\n        /* \"#utility.yul\":21809:21846   */\n      tag_378\n        /* \"#utility.yul\":21841:21845   */\n      dup7\n        /* \"#utility.yul\":21809:21846   */\n      tag_160\n      jump\t// in\n    tag_378:\n        /* \"#utility.yul\":21868:21869   */\n      0x00\n        /* \"#utility.yul\":21882:22090   */\n    tag_379:\n        /* \"#utility.yul\":21896:21903   */\n      dup3\n        /* \"#utility.yul\":21893:21894   */\n      dup2\n        /* \"#utility.yul\":21890:21904   */\n      lt\n        /* \"#utility.yul\":21882:22090   */\n      iszero\n      tag_381\n      jumpi\n        /* \"#utility.yul\":21975:21984   */\n      dup5\n        /* \"#utility.yul\":21970:21973   */\n      dup10\n        /* \"#utility.yul\":21966:21985   */\n      add\n        /* \"#utility.yul\":21960:21986   */\n      mload\n        /* \"#utility.yul\":21952:21958   */\n      dup3\n        /* \"#utility.yul\":21945:21987   */\n      sstore\n        /* \"#utility.yul\":22026:22027   */\n      0x01\n        /* \"#utility.yul\":22018:22024   */\n      dup3\n        /* \"#utility.yul\":22014:22028   */\n      add\n        /* \"#utility.yul\":22004:22028   */\n      swap2\n      pop\n        /* \"#utility.yul\":22073:22075   */\n      0x20\n        /* \"#utility.yul\":22062:22071   */\n      dup6\n        /* \"#utility.yul\":22058:22076   */\n      add\n        /* \"#utility.yul\":22045:22076   */\n      swap5\n      pop\n        /* \"#utility.yul\":21919:21923   */\n      0x20\n        /* \"#utility.yul\":21916:21917   */\n      dup2\n        /* \"#utility.yul\":21912:21924   */\n      add\n        /* \"#utility.yul\":21907:21924   */\n      swap1\n      pop\n        /* \"#utility.yul\":21882:22090   */\n      jump(tag_379)\n    tag_381:\n        /* \"#utility.yul\":22118:22124   */\n      dup7\n        /* \"#utility.yul\":22109:22116   */\n      dup4\n        /* \"#utility.yul\":22106:22125   */\n      lt\n        /* \"#utility.yul\":22103:22282   */\n      iszero\n      tag_382\n      jumpi\n        /* \"#utility.yul\":22176:22185   */\n      dup5\n        /* \"#utility.yul\":22171:22174   */\n      dup10\n        /* \"#utility.yul\":22167:22186   */\n      add\n        /* \"#utility.yul\":22161:22187   */\n      mload\n        /* \"#utility.yul\":22219:22267   */\n      tag_383\n        /* \"#utility.yul\":22261:22265   */\n      0x1f\n        /* \"#utility.yul\":22253:22259   */\n      dup10\n        /* \"#utility.yul\":22249:22266   */\n      and\n        /* \"#utility.yul\":22238:22247   */\n      dup3\n        /* \"#utility.yul\":22219:22267   */\n      tag_173\n      jump\t// in\n    tag_383:\n        /* \"#utility.yul\":22211:22217   */\n      dup4\n        /* \"#utility.yul\":22204:22268   */\n      sstore\n        /* \"#utility.yul\":22126:22282   */\n      pop\n        /* \"#utility.yul\":22103:22282   */\n    tag_382:\n        /* \"#utility.yul\":22328:22329   */\n      0x01\n        /* \"#utility.yul\":22324:22325   */\n      0x02\n        /* \"#utility.yul\":22316:22322   */\n      dup9\n        /* \"#utility.yul\":22312:22326   */\n      mul\n        /* \"#utility.yul\":22308:22330   */\n      add\n        /* \"#utility.yul\":22302:22306   */\n      dup9\n        /* \"#utility.yul\":22295:22331   */\n      sstore\n        /* \"#utility.yul\":21730:22341   */\n      pop\n      pop\n      pop\n        /* \"#utility.yul\":21693:22580   */\n    tag_374:\n      pop\n        /* \"#utility.yul\":21283:22586   */\n      pop\n      pop\n      pop\n        /* \"#utility.yul\":21191:22586   */\n      pop\n      pop\n      jump\t// out\n        /* \"#utility.yul\":22592:22867   */\n    tag_71:\n        /* \"#utility.yul\":22724:22727   */\n      0x00\n        /* \"#utility.yul\":22746:22841   */\n      tag_385\n        /* \"#utility.yul\":22837:22840   */\n      dup3\n        /* \"#utility.yul\":22828:22834   */\n      dup5\n        /* \"#utility.yul\":22746:22841   */\n      tag_152\n      jump\t// in\n    tag_385:\n        /* \"#utility.yul\":22739:22841   */\n      swap2\n      pop\n        /* \"#utility.yul\":22858:22861   */\n      dup2\n        /* \"#utility.yul\":22851:22861   */\n      swap1\n      pop\n        /* \"#utility.yul\":22592:22867   */\n      swap3\n      swap2\n      pop\n      pop\n      jump\t// out\n        /* \"#utility.yul\":22873:23497   */\n    tag_75:\n        /* \"#utility.yul\":23062:23066   */\n      0x00\n        /* \"#utility.yul\":23100:23102   */\n      0x60\n        /* \"#utility.yul\":23089:23098   */\n      dup3\n        /* \"#utility.yul\":23085:23103   */\n      add\n        /* \"#utility.yul\":23077:23103   */\n      swap1\n      pop\n        /* \"#utility.yul\":23113:23184   */\n      tag_387\n        /* \"#utility.yul\":23181:23182   */\n      0x00\n        /* \"#utility.yul\":23170:23179   */\n      dup4\n        /* \"#utility.yul\":23166:23183   */\n      add\n        /* \"#utility.yul\":23157:23163   */\n      dup7\n        /* \"#utility.yul\":23113:23184   */\n      tag_133\n      jump\t// in\n    tag_387:\n        /* \"#utility.yul\":23231:23240   */\n      dup2\n        /* \"#utility.yul\":23225:23229   */\n      dup2\n        /* \"#utility.yul\":23221:23241   */\n      sub\n        /* \"#utility.yul\":23216:23218   */\n      0x20\n        /* \"#utility.yul\":23205:23214   */\n      dup4\n        /* \"#utility.yul\":23201:23219   */\n      add\n        /* \"#utility.yul\":23194:23242   */\n      mstore\n        /* \"#utility.yul\":23259:23337   */\n      tag_388\n        /* \"#utility.yul\":23332:23336   */\n      dup2\n        /* \"#utility.yul\":23323:23329   */\n      dup6\n        /* \"#utility.yul\":23259:23337   */\n      tag_132\n      jump\t// in\n    tag_388:\n        /* \"#utility.yul\":23251:23337   */\n      swap1\n      pop\n        /* \"#utility.yul\":23384:23393   */\n      dup2\n        /* \"#utility.yul\":23378:23382   */\n      dup2\n        /* \"#utility.yul\":23374:23394   */\n      sub\n        /* \"#utility.yul\":23369:23371   */\n      0x40\n        /* \"#utility.yul\":23358:23367   */\n      dup4\n        /* \"#utility.yul\":23354:23372   */\n      add\n        /* \"#utility.yul\":23347:23395   */\n      mstore\n        /* \"#utility.yul\":23412:23490   */\n      tag_389\n        /* \"#utility.yul\":23485:23489   */\n      dup2\n        /* \"#utility.yul\":23476:23482   */\n      dup5\n        /* \"#utility.yul\":23412:23490   */\n      tag_132\n      jump\t// in\n    tag_389:\n        /* \"#utility.yul\":23404:23490   */\n      swap1\n      pop\n        /* \"#utility.yul\":22873:23497   */\n      swap5\n      swap4\n      pop\n      pop\n      pop\n      pop\n      jump\t// out\n        /* \"#utility.yul\":23503:23683   */\n    tag_92:\n        /* \"#utility.yul\":23551:23628   */\n      0x4e487b7100000000000000000000000000000000000000000000000000000000\n        /* \"#utility.yul\":23548:23549   */\n      0x00\n        /* \"#utility.yul\":23541:23629   */\n      mstore\n        /* \"#utility.yul\":23648:23652   */\n      0x32\n        /* \"#utility.yul\":23645:23646   */\n      0x04\n        /* \"#utility.yul\":23638:23653   */\n      mstore\n        /* \"#utility.yul\":23672:23676   */\n      0x24\n        /* \"#utility.yul\":23669:23670   */\n      0x00\n        /* \"#utility.yul\":23662:23677   */\n      revert\n\n    auxdata: 0xa2646970667358221220f785ddd82cce09c5538309089d0947b0858891c613931bb4208f397cc660f1e764736f6c634300081e0033\n}\n",
				"bytecode": {
					"linkReferences": {},
					"object": "60806040525f5f553480156011575f5ffd5b506115e08061001f5f395ff3fe608060405234801561000f575f5ffd5b5060043610610055575f3560e01c80632bfda31314610059578063439535191461008a57806392bb481a146100a8578063da618161146100c4578063f4c714b4146100f4575b5f5ffd5b610073600480360381019061006e9190610a9f565b610128565b604051610081929190610c51565b60405180910390f35b6100926103ca565b60405161009f9190610c95565b60405180910390f35b6100c260048036038101906100bd9190610dda565b6103cf565b005b6100de60048036038101906100d99190610e7e565b610642565b6040516100eb9190610fba565b60405180910390f35b61010e60048036038101906101099190610a9f565b61081c565b60405161011f959493929190610fe9565b60405180910390f35b6101306109ff565b60605f60015f8581526020019081526020015f206040518060a00160405290815f82015481526020016001820180546101689061107c565b80601f01602080910402602001604051908101604052809291908181526020018280546101949061107c565b80156101df5780601f106101b6576101008083540402835291602001916101df565b820191905f5260205f20905b8154815290600101906020018083116101c257829003601f168201915b505050505081526020016002820180546101f89061107c565b80601f01602080910402602001604051908101604052809291908181526020018280546102249061107c565b801561026f5780601f106102465761010080835404028352916020019161026f565b820191905f5260205f20905b81548152906001019060200180831161025257829003601f168201915b505050505081526020016003820180546102889061107c565b80601f01602080910402602001604051908101604052809291908181526020018280546102b49061107c565b80156102ff5780601f106102d6576101008083540402835291602001916102ff565b820191905f5260205f20905b8154815290600101906020018083116102e257829003601f168201915b50505050508152602001600482015f9054906101000a900473ffffffffffffffffffffffffffffffffffffffff1673ffffffffffffffffffffffffffffffffffffffff1673ffffffffffffffffffffffffffffffffffffffff168152505090505f6040518060400160405280601581526020017f68747470733a2f2f697066732e696f2f697066732f000000000000000000000081525082602001516040516020016103ac9291906110e6565b60405160208183030381529060405290508181935093505050915091565b5f5481565b5f835111610412576040517f08c379a000000000000000000000000000000000000000000000000000000000815260040161040990611153565b60405180910390fd5b5f825111610455576040517f08c379a000000000000000000000000000000000000000000000000000000000815260040161044c906111bb565b60405180910390fd5b5f815111610498576040517f08c379a000000000000000000000000000000000000000000000000000000000815260040161048f90611223565b60405180910390fd5b5f5f8154809291906104a99061126e565b91905055506040518060a001604052805f5481526020018481526020018281526020018381526020013373ffffffffffffffffffffffffffffffffffffffff1681525060015f5f5481526020019081526020015f205f820151815f0155602082015181600101908161051b9190611455565b5060408201518160020190816105319190611455565b5060608201518160030190816105479190611455565b506080820151816004015f6101000a81548173ffffffffffffffffffffffffffffffffffffffff021916908373ffffffffffffffffffffffffffffffffffffffff1602179055509050506002816040516105a19190611524565b90815260200160405180910390205f54908060018154018082558091505060019003905f5260205f20015f90919091909150553373ffffffffffffffffffffffffffffffffffffffff16816040516105f99190611524565b60405180910390207fa840b93cbcb6e31291b2769d43a3ae3e9518b9eddbf4bc0737e3073f93476e0e5f5486866040516106359392919061153a565b60405180910390a3505050565b60605f6002836040516106559190611524565b90815260200160405180910390208054806020026020016040519081016040528092919081815260200182805480156106ab57602002820191905f5260205f20905b815481526020019060010190808311610697575b505050505090505f815167ffffffffffffffff8111156106ce576106cd610cb6565b5b60405190808252806020026020018201604052801561070757816020015b6106f4610a42565b8152602001906001900390816106ec5790505b5090505f5f90505b8251811015610811575f83828151811061072c5761072b61157d565b5b60200260200101519050604051806040016040528082815260200160015f8481526020019081526020015f2060030180546107669061107c565b80601f01602080910402602001604051908101604052809291908181526020018280546107929061107c565b80156107dd5780601f106107b4576101008083540402835291602001916107dd565b820191905f5260205f20905b8154815290600101906020018083116107c057829003601f168201915b50505050508152508383815181106107f8576107f761157d565b5b602002602001018190525050808060010191505061070f565b508092505050919050565b6001602052805f5260405f205f91509050805f0154908060010180546108419061107c565b80601f016020809104026020016040519081016040528092919081815260200182805461086d9061107c565b80156108b85780601f1061088f576101008083540402835291602001916108b8565b820191905f5260205f20905b81548152906001019060200180831161089b57829003601f168201915b5050505050908060020180546108cd9061107c565b80601f01602080910402602001604051908101604052809291908181526020018280546108f99061107c565b80156109445780601f1061091b57610100808354040283529160200191610944565b820191905f5260205f20905b81548152906001019060200180831161092757829003601f168201915b5050505050908060030180546109599061107c565b80601f01602080910402602001604051908101604052809291908181526020018280546109859061107c565b80156109d05780601f106109a7576101008083540402835291602001916109d0565b820191905f5260205f20905b8154815290600101906020018083116109b357829003601f168201915b505050505090806004015f9054906101000a900473ffffffffffffffffffffffffffffffffffffffff16905085565b6040518060a001604052805f81526020016060815260200160608152602001606081526020015f73ffffffffffffffffffffffffffffffffffffffff1681525090565b60405180604001604052805f8152602001606081525090565b5f604051905090565b5f5ffd5b5f5ffd5b5f819050919050565b610a7e81610a6c565b8114610a88575f5ffd5b50565b5f81359050610a9981610a75565b92915050565b5f60208284031215610ab457610ab3610a64565b5b5f610ac184828501610a8b565b91505092915050565b610ad381610a6c565b82525050565b5f81519050919050565b5f82825260208201905092915050565b8281835e5f83830152505050565b5f601f19601f8301169050919050565b5f610b1b82610ad9565b610b258185610ae3565b9350610b35818560208601610af3565b610b3e81610b01565b840191505092915050565b5f73ffffffffffffffffffffffffffffffffffffffff82169050919050565b5f610b7282610b49565b9050919050565b610b8281610b68565b82525050565b5f60a083015f830151610b9d5f860182610aca565b5060208301518482036020860152610bb58282610b11565b91505060408301518482036040860152610bcf8282610b11565b91505060608301518482036060860152610be98282610b11565b9150506080830151610bfe6080860182610b79565b508091505092915050565b5f82825260208201905092915050565b5f610c2382610ad9565b610c2d8185610c09565b9350610c3d818560208601610af3565b610c4681610b01565b840191505092915050565b5f6040820190508181035f830152610c698185610b88565b90508181036020830152610c7d8184610c19565b90509392505050565b610c8f81610a6c565b82525050565b5f602082019050610ca85f830184610c86565b92915050565b5f5ffd5b5f5ffd5b7f4e487b71000000000000000000000000000000000000000000000000000000005f52604160045260245ffd5b610cec82610b01565b810181811067ffffffffffffffff82111715610d0b57610d0a610cb6565b5b80604052505050565b5f610d1d610a5b565b9050610d298282610ce3565b919050565b5f67ffffffffffffffff821115610d4857610d47610cb6565b5b610d5182610b01565b9050602081019050919050565b828183375f83830152505050565b5f610d7e610d7984610d2e565b610d14565b905082815260208101848484011115610d9a57610d99610cb2565b5b610da5848285610d5e565b509392505050565b5f82601f830112610dc157610dc0610cae565b5b8135610dd1848260208601610d6c565b91505092915050565b5f5f5f60608486031215610df157610df0610a64565b5b5f84013567ffffffffffffffff811115610e0e57610e0d610a68565b5b610e1a86828701610dad565b935050602084013567ffffffffffffffff811115610e3b57610e3a610a68565b5b610e4786828701610dad565b925050604084013567ffffffffffffffff811115610e6857610e67610a68565b5b610e7486828701610dad565b9150509250925092565b5f60208284031215610e9357610e92610a64565b5b5f82013567ffffffffffffffff811115610eb057610eaf610a68565b5b610ebc84828501610dad565b91505092915050565b5f81519050919050565b5f82825260208201905092915050565b5f819050602082019050919050565b5f604083015f830151610f035f860182610aca565b5060208301518482036020860152610f1b8282610b11565b9150508091505092915050565b5f610f338383610eee565b905092915050565b5f602082019050919050565b5f610f5182610ec5565b610f5b8185610ecf565b935083602082028501610f6d85610edf565b805f5b85811015610fa85784840389528151610f898582610f28565b9450610f9483610f3b565b925060208a01995050600181019050610f70565b50829750879550505050505092915050565b5f6020820190508181035f830152610fd28184610f47565b905092915050565b610fe381610b68565b82525050565b5f60a082019050610ffc5f830188610c86565b818103602083015261100e8187610c19565b905081810360408301526110228186610c19565b905081810360608301526110368185610c19565b90506110456080830184610fda565b9695505050505050565b7f4e487b71000000000000000000000000000000000000000000000000000000005f52602260045260245ffd5b5f600282049050600182168061109357607f821691505b6020821081036110a6576110a561104f565b5b50919050565b5f81905092915050565b5f6110c082610ad9565b6110ca81856110ac565b93506110da818560208601610af3565b80840191505092915050565b5f6110f182856110b6565b91506110fd82846110b6565b91508190509392505050565b7f49504653204861736820697320726571756972656400000000000000000000005f82015250565b5f61113d601583610c09565b915061114882611109565b602082019050919050565b5f6020820190508181035f83015261116a81611131565b9050919050565b7f46696c65204e616d6520697320726571756972656400000000000000000000005f82015250565b5f6111a5601583610c09565b91506111b082611171565b602082019050919050565b5f6020820190508181035f8301526111d281611199565b9050919050565b7f5375626a656374206973207265717569726564000000000000000000000000005f82015250565b5f61120d601383610c09565b9150611218826111d9565b602082019050919050565b5f6020820190508181035f83015261123a81611201565b9050919050565b7f4e487b71000000000000000000000000000000000000000000000000000000005f52601160045260245ffd5b5f61127882610a6c565b91507fffffffffffffffffffffffffffffffffffffffffffffffffffffffffffffffff82036112aa576112a9611241565b5b600182019050919050565b5f819050815f5260205f209050919050565b5f6020601f8301049050919050565b5f82821b905092915050565b5f600883026113117fffffffffffffffffffffffffffffffffffffffffffffffffffffffffffffffff826112d6565b61131b86836112d6565b95508019841693508086168417925050509392505050565b5f819050919050565b5f61135661135161134c84610a6c565b611333565b610a6c565b9050919050565b5f819050919050565b61136f8361133c565b61138361137b8261135d565b8484546112e2565b825550505050565b5f5f905090565b61139a61138b565b6113a5818484611366565b505050565b5b818110156113c8576113bd5f82611392565b6001810190506113ab565b5050565b601f82111561140d576113de816112b5565b6113e7846112c7565b810160208510156113f6578190505b61140a611402856112c7565b8301826113aa565b50505b505050565b5f82821c905092915050565b5f61142d5f1984600802611412565b1980831691505092915050565b5f611445838361141e565b9150826002028217905092915050565b61145e82610ad9565b67ffffffffffffffff81111561147757611476610cb6565b5b611481825461107c565b61148c8282856113cc565b5f60209050601f8311600181146114bd575f84156114ab578287015190505b6114b5858261143a565b86555061151c565b601f1984166114cb866112b5565b5f5b828110156114f2578489015182556001820191506020850194506020810190506114cd565b8683101561150f578489015161150b601f89168261141e565b8355505b6001600288020188555050505b505050505050565b5f61152f82846110b6565b915081905092915050565b5f60608201905061154d5f830186610c86565b818103602083015261155f8185610c19565b905081810360408301526115738184610c19565b9050949350505050565b7f4e487b71000000000000000000000000000000000000000000000000000000005f52603260045260245ffdfea2646970667358221220f785ddd82cce09c5538309089d0947b0858891c613931bb4208f397cc660f1e764736f6c634300081e0033",
					"opcodes": "PUSH1 0x80 PUSH1 0x40 MSTORE PUSH0 PUSH0 SSTORE CALLVALUE DUP1 ISZERO PUSH1 0x11 JUMPI PUSH0 PUSH0 REVERT JUMPDEST POP PUSH2 0x15E0 DUP1 PUSH2 0x1F PUSH0 CODECOPY PUSH0 RETURN INVALID PUSH1 0x80 PUSH1 0x40 MSTORE CALLVALUE DUP1 ISZERO PUSH2 0xF JUMPI PUSH0 PUSH0 REVERT JUMPDEST POP PUSH1 0x4 CALLDATASIZE LT PUSH2 0x55 JUMPI PUSH0 CALLDATALOAD PUSH1 0xE0 SHR DUP1 PUSH4 0x2BFDA313 EQ PUSH2 0x59 JUMPI DUP1 PUSH4 0x43953519 EQ PUSH2 0x8A JUMPI DUP1 PUSH4 0x92BB481A EQ PUSH2 0xA8 JUMPI DUP1 PUSH4 0xDA618161 EQ PUSH2 0xC4 JUMPI DUP1 PUSH4 0xF4C714B4 EQ PUSH2 0xF4 JUMPI JUMPDEST PUSH0 PUSH0 REVERT JUMPDEST PUSH2 0x73 PUSH1 0x4 DUP1 CALLDATASIZE SUB DUP2 ADD SWAP1 PUSH2 0x6E SWAP2 SWAP1 PUSH2 0xA9F JUMP JUMPDEST PUSH2 0x128 JUMP JUMPDEST PUSH1 0x40 MLOAD PUSH2 0x81 SWAP3 SWAP2 SWAP1 PUSH2 0xC51 JUMP JUMPDEST PUSH1 0x40 MLOAD DUP1 SWAP2 SUB SWAP1 RETURN JUMPDEST PUSH2 0x92 PUSH2 0x3CA JUMP JUMPDEST PUSH1 0x40 MLOAD PUSH2 0x9F SWAP2 SWAP1 PUSH2 0xC95 JUMP JUMPDEST PUSH1 0x40 MLOAD DUP1 SWAP2 SUB SWAP1 RETURN JUMPDEST PUSH2 0xC2 PUSH1 0x4 DUP1 CALLDATASIZE SUB DUP2 ADD SWAP1 PUSH2 0xBD SWAP2 SWAP1 PUSH2 0xDDA JUMP JUMPDEST PUSH2 0x3CF JUMP JUMPDEST STOP JUMPDEST PUSH2 0xDE PUSH1 0x4 DUP1 CALLDATASIZE SUB DUP2 ADD SWAP1 PUSH2 0xD9 SWAP2 SWAP1 PUSH2 0xE7E JUMP JUMPDEST PUSH2 0x642 JUMP JUMPDEST PUSH1 0x40 MLOAD PUSH2 0xEB SWAP2 SWAP1 PUSH2 0xFBA JUMP JUMPDEST PUSH1 0x40 MLOAD DUP1 SWAP2 SUB SWAP1 RETURN JUMPDEST PUSH2 0x10E PUSH1 0x4 DUP1 CALLDATASIZE SUB DUP2 ADD SWAP1 PUSH2 0x109 SWAP2 SWAP1 PUSH2 0xA9F JUMP JUMPDEST PUSH2 0x81C JUMP JUMPDEST PUSH1 0x40 MLOAD PUSH2 0x11F SWAP6 SWAP5 SWAP4 SWAP3 SWAP2 SWAP1 PUSH2 0xFE9 JUMP JUMPDEST PUSH1 0x40 MLOAD DUP1 SWAP2 SUB SWAP1 RETURN JUMPDEST PUSH2 0x130 PUSH2 0x9FF JUMP JUMPDEST PUSH1 0x60 PUSH0 PUSH1 0x1 PUSH0 DUP6 DUP2 MSTORE PUSH1 0x20 ADD SWAP1 DUP2 MSTORE PUSH1 0x20 ADD PUSH0 KECCAK256 PUSH1 0x40 MLOAD DUP1 PUSH1 0xA0 ADD PUSH1 0x40 MSTORE SWAP1 DUP2 PUSH0 DUP3 ADD SLOAD DUP2 MSTORE PUSH1 0x20 ADD PUSH1 0x1 DUP3 ADD DUP1 SLOAD PUSH2 0x168 SWAP1 PUSH2 0x107C JUMP JUMPDEST DUP1 PUSH1 0x1F ADD PUSH1 0x20 DUP1 SWAP2 DIV MUL PUSH1 0x20 ADD PUSH1 0x40 MLOAD SWAP1 DUP2 ADD PUSH1 0x40 MSTORE DUP1 SWAP3 SWAP2 SWAP1 DUP2 DUP2 MSTORE PUSH1 0x20 ADD DUP3 DUP1 SLOAD PUSH2 0x194 SWAP1 PUSH2 0x107C JUMP JUMPDEST DUP1 ISZERO PUSH2 0x1DF JUMPI DUP1 PUSH1 0x1F LT PUSH2 0x1B6 JUMPI PUSH2 0x100 DUP1 DUP4 SLOAD DIV MUL DUP4 MSTORE SWAP2 PUSH1 0x20 ADD SWAP2 PUSH2 0x1DF JUMP JUMPDEST DUP3 ADD SWAP2 SWAP1 PUSH0 MSTORE PUSH1 0x20 PUSH0 KECCAK256 SWAP1 JUMPDEST DUP2 SLOAD DUP2 MSTORE SWAP1 PUSH1 0x1 ADD SWAP1 PUSH1 0x20 ADD DUP1 DUP4 GT PUSH2 0x1C2 JUMPI DUP3 SWAP1 SUB PUSH1 0x1F AND DUP3 ADD SWAP2 JUMPDEST POP POP POP POP POP DUP2 MSTORE PUSH1 0x20 ADD PUSH1 0x2 DUP3 ADD DUP1 SLOAD PUSH2 0x1F8 SWAP1 PUSH2 0x107C JUMP JUMPDEST DUP1 PUSH1 0x1F ADD PUSH1 0x20 DUP1 SWAP2 DIV MUL PUSH1 0x20 ADD PUSH1 0x40 MLOAD SWAP1 DUP2 ADD PUSH1 0x40 MSTORE DUP1 SWAP3 SWAP2 SWAP1 DUP2 DUP2 MSTORE PUSH1 0x20 ADD DUP3 DUP1 SLOAD PUSH2 0x224 SWAP1 PUSH2 0x107C JUMP JUMPDEST DUP1 ISZERO PUSH2 0x26F JUMPI DUP1 PUSH1 0x1F LT PUSH2 0x246 JUMPI PUSH2 0x100 DUP1 DUP4 SLOAD DIV MUL DUP4 MSTORE SWAP2 PUSH1 0x20 ADD SWAP2 PUSH2 0x26F JUMP JUMPDEST DUP3 ADD SWAP2 SWAP1 PUSH0 MSTORE PUSH1 0x20 PUSH0 KECCAK256 SWAP1 JUMPDEST DUP2 SLOAD DUP2 MSTORE SWAP1 PUSH1 0x1 ADD SWAP1 PUSH1 0x20 ADD DUP1 DUP4 GT PUSH2 0x252 JUMPI DUP3 SWAP1 SUB PUSH1 0x1F AND DUP3 ADD SWAP2 JUMPDEST POP POP POP POP POP DUP2 MSTORE PUSH1 0x20 ADD PUSH1 0x3 DUP3 ADD DUP1 SLOAD PUSH2 0x288 SWAP1 PUSH2 0x107C JUMP JUMPDEST DUP1 PUSH1 0x1F ADD PUSH1 0x20 DUP1 SWAP2 DIV MUL PUSH1 0x20 ADD PUSH1 0x40 MLOAD SWAP1 DUP2 ADD PUSH1 0x40 MSTORE DUP1 SWAP3 SWAP2 SWAP1 DUP2 DUP2 MSTORE PUSH1 0x20 ADD DUP3 DUP1 SLOAD PUSH2 0x2B4 SWAP1 PUSH2 0x107C JUMP JUMPDEST DUP1 ISZERO PUSH2 0x2FF JUMPI DUP1 PUSH1 0x1F LT PUSH2 0x2D6 JUMPI PUSH2 0x100 DUP1 DUP4 SLOAD DIV MUL DUP4 MSTORE SWAP2 PUSH1 0x20 ADD SWAP2 PUSH2 0x2FF JUMP JUMPDEST DUP3 ADD SWAP2 SWAP1 PUSH0 MSTORE PUSH1 0x20 PUSH0 KECCAK256 SWAP1 JUMPDEST DUP2 SLOAD DUP2 MSTORE SWAP1 PUSH1 0x1 ADD SWAP1 PUSH1 0x20 ADD DUP1 DUP4 GT PUSH2 0x2E2 JUMPI DUP3 SWAP1 SUB PUSH1 0x1F AND DUP3 ADD SWAP2 JUMPDEST POP POP POP POP POP DUP2 MSTORE PUSH1 0x20 ADD PUSH1 0x4 DUP3 ADD PUSH0 SWAP1 SLOAD SWAP1 PUSH2 0x100 EXP SWAP1 DIV PUSH20 0xFFFFFFFFFFFFFFFFFFFFFFFFFFFFFFFFFFFFFFFF AND PUSH20 0xFFFFFFFFFFFFFFFFFFFFFFFFFFFFFFFFFFFFFFFF AND PUSH20 0xFFFFFFFFFFFFFFFFFFFFFFFFFFFFFFFFFFFFFFFF AND DUP2 MSTORE POP POP SWAP1 POP PUSH0 PUSH1 0x40 MLOAD DUP1 PUSH1 0x40 ADD PUSH1 0x40 MSTORE DUP1 PUSH1 0x15 DUP2 MSTORE PUSH1 0x20 ADD PUSH32 0x68747470733A2F2F697066732E696F2F697066732F0000000000000000000000 DUP2 MSTORE POP DUP3 PUSH1 0x20 ADD MLOAD PUSH1 0x40 MLOAD PUSH1 0x20 ADD PUSH2 0x3AC SWAP3 SWAP2 SWAP1 PUSH2 0x10E6 JUMP JUMPDEST PUSH1 0x40 MLOAD PUSH1 0x20 DUP2 DUP4 SUB SUB DUP2 MSTORE SWAP1 PUSH1 0x40 MSTORE SWAP1 POP DUP2 DUP2 SWAP4 POP SWAP4 POP POP POP SWAP2 POP SWAP2 JUMP JUMPDEST PUSH0 SLOAD DUP2 JUMP JUMPDEST PUSH0 DUP4 MLOAD GT PUSH2 0x412 JUMPI PUSH1 0x40 MLOAD PUSH32 0x8C379A000000000000000000000000000000000000000000000000000000000 DUP2 MSTORE PUSH1 0x4 ADD PUSH2 0x409 SWAP1 PUSH2 0x1153 JUMP JUMPDEST PUSH1 0x40 MLOAD DUP1 SWAP2 SUB SWAP1 REVERT JUMPDEST PUSH0 DUP3 MLOAD GT PUSH2 0x455 JUMPI PUSH1 0x40 MLOAD PUSH32 0x8C379A000000000000000000000000000000000000000000000000000000000 DUP2 MSTORE PUSH1 0x4 ADD PUSH2 0x44C SWAP1 PUSH2 0x11BB JUMP JUMPDEST PUSH1 0x40 MLOAD DUP1 SWAP2 SUB SWAP1 REVERT JUMPDEST PUSH0 DUP2 MLOAD GT PUSH2 0x498 JUMPI PUSH1 0x40 MLOAD PUSH32 0x8C379A000000000000000000000000000000000000000000000000000000000 DUP2 MSTORE PUSH1 0x4 ADD PUSH2 0x48F SWAP1 PUSH2 0x1223 JUMP JUMPDEST PUSH1 0x40 MLOAD DUP1 SWAP2 SUB SWAP1 REVERT JUMPDEST PUSH0 PUSH0 DUP2 SLOAD DUP1 SWAP3 SWAP2 SWAP1 PUSH2 0x4A9 SWAP1 PUSH2 0x126E JUMP JUMPDEST SWAP2 SWAP1 POP SSTORE POP PUSH1 0x40 MLOAD DUP1 PUSH1 0xA0 ADD PUSH1 0x40 MSTORE DUP1 PUSH0 SLOAD DUP2 MSTORE PUSH1 0x20 ADD DUP5 DUP2 MSTORE PUSH1 0x20 ADD DUP3 DUP2 MSTORE PUSH1 0x20 ADD DUP4 DUP2 MSTORE PUSH1 0x20 ADD CALLER PUSH20 0xFFFFFFFFFFFFFFFFFFFFFFFFFFFFFFFFFFFFFFFF AND DUP2 MSTORE POP PUSH1 0x1 PUSH0 PUSH0 SLOAD DUP2 MSTORE PUSH1 0x20 ADD SWAP1 DUP2 MSTORE PUSH1 0x20 ADD PUSH0 KECCAK256 PUSH0 DUP3 ADD MLOAD DUP2 PUSH0 ADD SSTORE PUSH1 0x20 DUP3 ADD MLOAD DUP2 PUSH1 0x1 ADD SWAP1 DUP2 PUSH2 0x51B SWAP2 SWAP1 PUSH2 0x1455 JUMP JUMPDEST POP PUSH1 0x40 DUP3 ADD MLOAD DUP2 PUSH1 0x2 ADD SWAP1 DUP2 PUSH2 0x531 SWAP2 SWAP1 PUSH2 0x1455 JUMP JUMPDEST POP PUSH1 0x60 DUP3 ADD MLOAD DUP2 PUSH1 0x3 ADD SWAP1 DUP2 PUSH2 0x547 SWAP2 SWAP1 PUSH2 0x1455 JUMP JUMPDEST POP PUSH1 0x80 DUP3 ADD MLOAD DUP2 PUSH1 0x4 ADD PUSH0 PUSH2 0x100 EXP DUP2 SLOAD DUP2 PUSH20 0xFFFFFFFFFFFFFFFFFFFFFFFFFFFFFFFFFFFFFFFF MUL NOT AND SWAP1 DUP4 PUSH20 0xFFFFFFFFFFFFFFFFFFFFFFFFFFFFFFFFFFFFFFFF AND MUL OR SWAP1 SSTORE POP SWAP1 POP POP PUSH1 0x2 DUP2 PUSH1 0x40 MLOAD PUSH2 0x5A1 SWAP2 SWAP1 PUSH2 0x1524 JUMP JUMPDEST SWAP1 DUP2 MSTORE PUSH1 0x20 ADD PUSH1 0x40 MLOAD DUP1 SWAP2 SUB SWAP1 KECCAK256 PUSH0 SLOAD SWAP1 DUP1 PUSH1 0x1 DUP2 SLOAD ADD DUP1 DUP3 SSTORE DUP1 SWAP2 POP POP PUSH1 0x1 SWAP1 SUB SWAP1 PUSH0 MSTORE PUSH1 0x20 PUSH0 KECCAK256 ADD PUSH0 SWAP1 SWAP2 SWAP1 SWAP2 SWAP1 SWAP2 POP SSTORE CALLER PUSH20 0xFFFFFFFFFFFFFFFFFFFFFFFFFFFFFFFFFFFFFFFF AND DUP2 PUSH1 0x40 MLOAD PUSH2 0x5F9 SWAP2 SWAP1 PUSH2 0x1524 JUMP JUMPDEST PUSH1 0x40 MLOAD DUP1 SWAP2 SUB SWAP1 KECCAK256 PUSH32 0xA840B93CBCB6E31291B2769D43A3AE3E9518B9EDDBF4BC0737E3073F93476E0E PUSH0 SLOAD DUP7 DUP7 PUSH1 0x40 MLOAD PUSH2 0x635 SWAP4 SWAP3 SWAP2 SWAP1 PUSH2 0x153A JUMP JUMPDEST PUSH1 0x40 MLOAD DUP1 SWAP2 SUB SWAP1 LOG3 POP POP POP JUMP JUMPDEST PUSH1 0x60 PUSH0 PUSH1 0x2 DUP4 PUSH1 0x40 MLOAD PUSH2 0x655 SWAP2 SWAP1 PUSH2 0x1524 JUMP JUMPDEST SWAP1 DUP2 MSTORE PUSH1 0x20 ADD PUSH1 0x40 MLOAD DUP1 SWAP2 SUB SWAP1 KECCAK256 DUP1 SLOAD DUP1 PUSH1 0x20 MUL PUSH1 0x20 ADD PUSH1 0x40 MLOAD SWAP1 DUP2 ADD PUSH1 0x40 MSTORE DUP1 SWAP3 SWAP2 SWAP1 DUP2 DUP2 MSTORE PUSH1 0x20 ADD DUP3 DUP1 SLOAD DUP1 ISZERO PUSH2 0x6AB JUMPI PUSH1 0x20 MUL DUP3 ADD SWAP2 SWAP1 PUSH0 MSTORE PUSH1 0x20 PUSH0 KECCAK256 SWAP1 JUMPDEST DUP2 SLOAD DUP2 MSTORE PUSH1 0x20 ADD SWAP1 PUSH1 0x1 ADD SWAP1 DUP1 DUP4 GT PUSH2 0x697 JUMPI JUMPDEST POP POP POP POP POP SWAP1 POP PUSH0 DUP2 MLOAD PUSH8 0xFFFFFFFFFFFFFFFF DUP2 GT ISZERO PUSH2 0x6CE JUMPI PUSH2 0x6CD PUSH2 0xCB6 JUMP JUMPDEST JUMPDEST PUSH1 0x40 MLOAD SWAP1 DUP1 DUP3 MSTORE DUP1 PUSH1 0x20 MUL PUSH1 0x20 ADD DUP3 ADD PUSH1 0x40 MSTORE DUP1 ISZERO PUSH2 0x707 JUMPI DUP2 PUSH1 0x20 ADD JUMPDEST PUSH2 0x6F4 PUSH2 0xA42 JUMP JUMPDEST DUP2 MSTORE PUSH1 0x20 ADD SWAP1 PUSH1 0x1 SWAP1 SUB SWAP1 DUP2 PUSH2 0x6EC JUMPI SWAP1 POP JUMPDEST POP SWAP1 POP PUSH0 PUSH0 SWAP1 POP JUMPDEST DUP3 MLOAD DUP2 LT ISZERO PUSH2 0x811 JUMPI PUSH0 DUP4 DUP3 DUP2 MLOAD DUP2 LT PUSH2 0x72C JUMPI PUSH2 0x72B PUSH2 0x157D JUMP JUMPDEST JUMPDEST PUSH1 0x20 MUL PUSH1 0x20 ADD ADD MLOAD SWAP1 POP PUSH1 0x40 MLOAD DUP1 PUSH1 0x40 ADD PUSH1 0x40 MSTORE DUP1 DUP3 DUP2 MSTORE PUSH1 0x20 ADD PUSH1 0x1 PUSH0 DUP5 DUP2 MSTORE PUSH1 0x20 ADD SWAP1 DUP2 MSTORE PUSH1 0x20 ADD PUSH0 KECCAK256 PUSH1 0x3 ADD DUP1 SLOAD PUSH2 0x766 SWAP1 PUSH2 0x107C JUMP JUMPDEST DUP1 PUSH1 0x1F ADD PUSH1 0x20 DUP1 SWAP2 DIV MUL PUSH1 0x20 ADD PUSH1 0x40 MLOAD SWAP1 DUP2 ADD PUSH1 0x40 MSTORE DUP1 SWAP3 SWAP2 SWAP1 DUP2 DUP2 MSTORE PUSH1 0x20 ADD DUP3 DUP1 SLOAD PUSH2 0x792 SWAP1 PUSH2 0x107C JUMP JUMPDEST DUP1 ISZERO PUSH2 0x7DD JUMPI DUP1 PUSH1 0x1F LT PUSH2 0x7B4 JUMPI PUSH2 0x100 DUP1 DUP4 SLOAD DIV MUL DUP4 MSTORE SWAP2 PUSH1 0x20 ADD SWAP2 PUSH2 0x7DD JUMP JUMPDEST DUP3 ADD SWAP2 SWAP1 PUSH0 MSTORE PUSH1 0x20 PUSH0 KECCAK256 SWAP1 JUMPDEST DUP2 SLOAD DUP2 MSTORE SWAP1 PUSH1 0x1 ADD SWAP1 PUSH1 0x20 ADD DUP1 DUP4 GT PUSH2 0x7C0 JUMPI DUP3 SWAP1 SUB PUSH1 0x1F AND DUP3 ADD SWAP2 JUMPDEST POP POP POP POP POP DUP2 MSTORE POP DUP4 DUP4 DUP2 MLOAD DUP2 LT PUSH2 0x7F8 JUMPI PUSH2 0x7F7 PUSH2 0x157D JUMP JUMPDEST JUMPDEST PUSH1 0x20 MUL PUSH1 0x20 ADD ADD DUP2 SWAP1 MSTORE POP POP DUP1 DUP1 PUSH1 0x1 ADD SWAP2 POP POP PUSH2 0x70F JUMP JUMPDEST POP DUP1 SWAP3 POP POP POP SWAP2 SWAP1 POP JUMP JUMPDEST PUSH1 0x1 PUSH1 0x20 MSTORE DUP1 PUSH0 MSTORE PUSH1 0x40 PUSH0 KECCAK256 PUSH0 SWAP2 POP SWAP1 POP DUP1 PUSH0 ADD SLOAD SWAP1 DUP1 PUSH1 0x1 ADD DUP1 SLOAD PUSH2 0x841 SWAP1 PUSH2 0x107C JUMP JUMPDEST DUP1 PUSH1 0x1F ADD PUSH1 0x20 DUP1 SWAP2 DIV MUL PUSH1 0x20 ADD PUSH1 0x40 MLOAD SWAP1 DUP2 ADD PUSH1 0x40 MSTORE DUP1 SWAP3 SWAP2 SWAP1 DUP2 DUP2 MSTORE PUSH1 0x20 ADD DUP3 DUP1 SLOAD PUSH2 0x86D SWAP1 PUSH2 0x107C JUMP JUMPDEST DUP1 ISZERO PUSH2 0x8B8 JUMPI DUP1 PUSH1 0x1F LT PUSH2 0x88F JUMPI PUSH2 0x100 DUP1 DUP4 SLOAD DIV MUL DUP4 MSTORE SWAP2 PUSH1 0x20 ADD SWAP2 PUSH2 0x8B8 JUMP JUMPDEST DUP3 ADD SWAP2 SWAP1 PUSH0 MSTORE PUSH1 0x20 PUSH0 KECCAK256 SWAP1 JUMPDEST DUP2 SLOAD DUP2 MSTORE SWAP1 PUSH1 0x1 ADD SWAP1 PUSH1 0x20 ADD DUP1 DUP4 GT PUSH2 0x89B JUMPI DUP3 SWAP1 SUB PUSH1 0x1F AND DUP3 ADD SWAP2 JUMPDEST POP POP POP POP POP SWAP1 DUP1 PUSH1 0x2 ADD DUP1 SLOAD PUSH2 0x8CD SWAP1 PUSH2 0x107C JUMP JUMPDEST DUP1 PUSH1 0x1F ADD PUSH1 0x20 DUP1 SWAP2 DIV MUL PUSH1 0x20 ADD PUSH1 0x40 MLOAD SWAP1 DUP2 ADD PUSH1 0x40 MSTORE DUP1 SWAP3 SWAP2 SWAP1 DUP2 DUP2 MSTORE PUSH1 0x20 ADD DUP3 DUP1 SLOAD PUSH2 0x8F9 SWAP1 PUSH2 0x107C JUMP JUMPDEST DUP1 ISZERO PUSH2 0x944 JUMPI DUP1 PUSH1 0x1F LT PUSH2 0x91B JUMPI PUSH2 0x100 DUP1 DUP4 SLOAD DIV MUL DUP4 MSTORE SWAP2 PUSH1 0x20 ADD SWAP2 PUSH2 0x944 JUMP JUMPDEST DUP3 ADD SWAP2 SWAP1 PUSH0 MSTORE PUSH1 0x20 PUSH0 KECCAK256 SWAP1 JUMPDEST DUP2 SLOAD DUP2 MSTORE SWAP1 PUSH1 0x1 ADD SWAP1 PUSH1 0x20 ADD DUP1 DUP4 GT PUSH2 0x927 JUMPI DUP3 SWAP1 SUB PUSH1 0x1F AND DUP3 ADD SWAP2 JUMPDEST POP POP POP POP POP SWAP1 DUP1 PUSH1 0x3 ADD DUP1 SLOAD PUSH2 0x959 SWAP1 PUSH2 0x107C JUMP JUMPDEST DUP1 PUSH1 0x1F ADD PUSH1 0x20 DUP1 SWAP2 DIV MUL PUSH1 0x20 ADD PUSH1 0x40 MLOAD SWAP1 DUP2 ADD PUSH1 0x40 MSTORE DUP1 SWAP3 SWAP2 SWAP1 DUP2 DUP2 MSTORE PUSH1 0x20 ADD DUP3 DUP1 SLOAD PUSH2 0x985 SWAP1 PUSH2 0x107C JUMP JUMPDEST DUP1 ISZERO PUSH2 0x9D0 JUMPI DUP1 PUSH1 0x1F LT PUSH2 0x9A7 JUMPI PUSH2 0x100 DUP1 DUP4 SLOAD DIV MUL DUP4 MSTORE SWAP2 PUSH1 0x20 ADD SWAP2 PUSH2 0x9D0 JUMP JUMPDEST DUP3 ADD SWAP2 SWAP1 PUSH0 MSTORE PUSH1 0x20 PUSH0 KECCAK256 SWAP1 JUMPDEST DUP2 SLOAD DUP2 MSTORE SWAP1 PUSH1 0x1 ADD SWAP1 PUSH1 0x20 ADD DUP1 DUP4 GT PUSH2 0x9B3 JUMPI DUP3 SWAP1 SUB PUSH1 0x1F AND DUP3 ADD SWAP2 JUMPDEST POP POP POP POP POP SWAP1 DUP1 PUSH1 0x4 ADD PUSH0 SWAP1 SLOAD SWAP1 PUSH2 0x100 EXP SWAP1 DIV PUSH20 0xFFFFFFFFFFFFFFFFFFFFFFFFFFFFFFFFFFFFFFFF AND SWAP1 POP DUP6 JUMP JUMPDEST PUSH1 0x40 MLOAD DUP1 PUSH1 0xA0 ADD PUSH1 0x40 MSTORE DUP1 PUSH0 DUP2 MSTORE PUSH1 0x20 ADD PUSH1 0x60 DUP2 MSTORE PUSH1 0x20 ADD PUSH1 0x60 DUP2 MSTORE PUSH1 0x20 ADD PUSH1 0x60 DUP2 MSTORE PUSH1 0x20 ADD PUSH0 PUSH20 0xFFFFFFFFFFFFFFFFFFFFFFFFFFFFFFFFFFFFFFFF AND DUP2 MSTORE POP SWAP1 JUMP JUMPDEST PUSH1 0x40 MLOAD DUP1 PUSH1 0x40 ADD PUSH1 0x40 MSTORE DUP1 PUSH0 DUP2 MSTORE PUSH1 0x20 ADD PUSH1 0x60 DUP2 MSTORE POP SWAP1 JUMP JUMPDEST PUSH0 PUSH1 0x40 MLOAD SWAP1 POP SWAP1 JUMP JUMPDEST PUSH0 PUSH0 REVERT JUMPDEST PUSH0 PUSH0 REVERT JUMPDEST PUSH0 DUP2 SWAP1 POP SWAP2 SWAP1 POP JUMP JUMPDEST PUSH2 0xA7E DUP2 PUSH2 0xA6C JUMP JUMPDEST DUP2 EQ PUSH2 0xA88 JUMPI PUSH0 PUSH0 REVERT JUMPDEST POP JUMP JUMPDEST PUSH0 DUP2 CALLDATALOAD SWAP1 POP PUSH2 0xA99 DUP2 PUSH2 0xA75 JUMP JUMPDEST SWAP3 SWAP2 POP POP JUMP JUMPDEST PUSH0 PUSH1 0x20 DUP3 DUP5 SUB SLT ISZERO PUSH2 0xAB4 JUMPI PUSH2 0xAB3 PUSH2 0xA64 JUMP JUMPDEST JUMPDEST PUSH0 PUSH2 0xAC1 DUP5 DUP3 DUP6 ADD PUSH2 0xA8B JUMP JUMPDEST SWAP2 POP POP SWAP3 SWAP2 POP POP JUMP JUMPDEST PUSH2 0xAD3 DUP2 PUSH2 0xA6C JUMP JUMPDEST DUP3 MSTORE POP POP JUMP JUMPDEST PUSH0 DUP2 MLOAD SWAP1 POP SWAP2 SWAP1 POP JUMP JUMPDEST PUSH0 DUP3 DUP3 MSTORE PUSH1 0x20 DUP3 ADD SWAP1 POP SWAP3 SWAP2 POP POP JUMP JUMPDEST DUP3 DUP2 DUP4 MCOPY PUSH0 DUP4 DUP4 ADD MSTORE POP POP POP JUMP JUMPDEST PUSH0 PUSH1 0x1F NOT PUSH1 0x1F DUP4 ADD AND SWAP1 POP SWAP2 SWAP1 POP JUMP JUMPDEST PUSH0 PUSH2 0xB1B DUP3 PUSH2 0xAD9 JUMP JUMPDEST PUSH2 0xB25 DUP2 DUP6 PUSH2 0xAE3 JUMP JUMPDEST SWAP4 POP PUSH2 0xB35 DUP2 DUP6 PUSH1 0x20 DUP7 ADD PUSH2 0xAF3 JUMP JUMPDEST PUSH2 0xB3E DUP2 PUSH2 0xB01 JUMP JUMPDEST DUP5 ADD SWAP2 POP POP SWAP3 SWAP2 POP POP JUMP JUMPDEST PUSH0 PUSH20 0xFFFFFFFFFFFFFFFFFFFFFFFFFFFFFFFFFFFFFFFF DUP3 AND SWAP1 POP SWAP2 SWAP1 POP JUMP JUMPDEST PUSH0 PUSH2 0xB72 DUP3 PUSH2 0xB49 JUMP JUMPDEST SWAP1 POP SWAP2 SWAP1 POP JUMP JUMPDEST PUSH2 0xB82 DUP2 PUSH2 0xB68 JUMP JUMPDEST DUP3 MSTORE POP POP JUMP JUMPDEST PUSH0 PUSH1 0xA0 DUP4 ADD PUSH0 DUP4 ADD MLOAD PUSH2 0xB9D PUSH0 DUP7 ADD DUP3 PUSH2 0xACA JUMP JUMPDEST POP PUSH1 0x20 DUP4 ADD MLOAD DUP5 DUP3 SUB PUSH1 0x20 DUP7 ADD MSTORE PUSH2 0xBB5 DUP3 DUP3 PUSH2 0xB11 JUMP JUMPDEST SWAP2 POP POP PUSH1 0x40 DUP4 ADD MLOAD DUP5 DUP3 SUB PUSH1 0x40 DUP7 ADD MSTORE PUSH2 0xBCF DUP3 DUP3 PUSH2 0xB11 JUMP JUMPDEST SWAP2 POP POP PUSH1 0x60 DUP4 ADD MLOAD DUP5 DUP3 SUB PUSH1 0x60 DUP7 ADD MSTORE PUSH2 0xBE9 DUP3 DUP3 PUSH2 0xB11 JUMP JUMPDEST SWAP2 POP POP PUSH1 0x80 DUP4 ADD MLOAD PUSH2 0xBFE PUSH1 0x80 DUP7 ADD DUP3 PUSH2 0xB79 JUMP JUMPDEST POP DUP1 SWAP2 POP POP SWAP3 SWAP2 POP POP JUMP JUMPDEST PUSH0 DUP3 DUP3 MSTORE PUSH1 0x20 DUP3 ADD SWAP1 POP SWAP3 SWAP2 POP POP JUMP JUMPDEST PUSH0 PUSH2 0xC23 DUP3 PUSH2 0xAD9 JUMP JUMPDEST PUSH2 0xC2D DUP2 DUP6 PUSH2 0xC09 JUMP JUMPDEST SWAP4 POP PUSH2 0xC3D DUP2 DUP6 PUSH1 0x20 DUP7 ADD PUSH2 0xAF3 JUMP JUMPDEST PUSH2 0xC46 DUP2 PUSH2 0xB01 JUMP JUMPDEST DUP5 ADD SWAP2 POP POP SWAP3 SWAP2 POP POP JUMP JUMPDEST PUSH0 PUSH1 0x40 DUP3 ADD SWAP1 POP DUP2 DUP2 SUB PUSH0 DUP4 ADD MSTORE PUSH2 0xC69 DUP2 DUP6 PUSH2 0xB88 JUMP JUMPDEST SWAP1 POP DUP2 DUP2 SUB PUSH1 0x20 DUP4 ADD MSTORE PUSH2 0xC7D DUP2 DUP5 PUSH2 0xC19 JUMP JUMPDEST SWAP1 POP SWAP4 SWAP3 POP POP POP JUMP JUMPDEST PUSH2 0xC8F DUP2 PUSH2 0xA6C JUMP JUMPDEST DUP3 MSTORE POP POP JUMP JUMPDEST PUSH0 PUSH1 0x20 DUP3 ADD SWAP1 POP PUSH2 0xCA8 PUSH0 DUP4 ADD DUP5 PUSH2 0xC86 JUMP JUMPDEST SWAP3 SWAP2 POP POP JUMP JUMPDEST PUSH0 PUSH0 REVERT JUMPDEST PUSH0 PUSH0 REVERT JUMPDEST PUSH32 0x4E487B7100000000000000000000000000000000000000000000000000000000 PUSH0 MSTORE PUSH1 0x41 PUSH1 0x4 MSTORE PUSH1 0x24 PUSH0 REVERT JUMPDEST PUSH2 0xCEC DUP3 PUSH2 0xB01 JUMP JUMPDEST DUP2 ADD DUP2 DUP2 LT PUSH8 0xFFFFFFFFFFFFFFFF DUP3 GT OR ISZERO PUSH2 0xD0B JUMPI PUSH2 0xD0A PUSH2 0xCB6 JUMP JUMPDEST JUMPDEST DUP1 PUSH1 0x40 MSTORE POP POP POP JUMP JUMPDEST PUSH0 PUSH2 0xD1D PUSH2 0xA5B JUMP JUMPDEST SWAP1 POP PUSH2 0xD29 DUP3 DUP3 PUSH2 0xCE3 JUMP JUMPDEST SWAP2 SWAP1 POP JUMP JUMPDEST PUSH0 PUSH8 0xFFFFFFFFFFFFFFFF DUP3 GT ISZERO PUSH2 0xD48 JUMPI PUSH2 0xD47 PUSH2 0xCB6 JUMP JUMPDEST JUMPDEST PUSH2 0xD51 DUP3 PUSH2 0xB01 JUMP JUMPDEST SWAP1 POP PUSH1 0x20 DUP2 ADD SWAP1 POP SWAP2 SWAP1 POP JUMP JUMPDEST DUP3 DUP2 DUP4 CALLDATACOPY PUSH0 DUP4 DUP4 ADD MSTORE POP POP POP JUMP JUMPDEST PUSH0 PUSH2 0xD7E PUSH2 0xD79 DUP5 PUSH2 0xD2E JUMP JUMPDEST PUSH2 0xD14 JUMP JUMPDEST SWAP1 POP DUP3 DUP2 MSTORE PUSH1 0x20 DUP2 ADD DUP5 DUP5 DUP5 ADD GT ISZERO PUSH2 0xD9A JUMPI PUSH2 0xD99 PUSH2 0xCB2 JUMP JUMPDEST JUMPDEST PUSH2 0xDA5 DUP5 DUP3 DUP6 PUSH2 0xD5E JUMP JUMPDEST POP SWAP4 SWAP3 POP POP POP JUMP JUMPDEST PUSH0 DUP3 PUSH1 0x1F DUP4 ADD SLT PUSH2 0xDC1 JUMPI PUSH2 0xDC0 PUSH2 0xCAE JUMP JUMPDEST JUMPDEST DUP2 CALLDATALOAD PUSH2 0xDD1 DUP5 DUP3 PUSH1 0x20 DUP7 ADD PUSH2 0xD6C JUMP JUMPDEST SWAP2 POP POP SWAP3 SWAP2 POP POP JUMP JUMPDEST PUSH0 PUSH0 PUSH0 PUSH1 0x60 DUP5 DUP7 SUB SLT ISZERO PUSH2 0xDF1 JUMPI PUSH2 0xDF0 PUSH2 0xA64 JUMP JUMPDEST JUMPDEST PUSH0 DUP5 ADD CALLDATALOAD PUSH8 0xFFFFFFFFFFFFFFFF DUP2 GT ISZERO PUSH2 0xE0E JUMPI PUSH2 0xE0D PUSH2 0xA68 JUMP JUMPDEST JUMPDEST PUSH2 0xE1A DUP7 DUP3 DUP8 ADD PUSH2 0xDAD JUMP JUMPDEST SWAP4 POP POP PUSH1 0x20 DUP5 ADD CALLDATALOAD PUSH8 0xFFFFFFFFFFFFFFFF DUP2 GT ISZERO PUSH2 0xE3B JUMPI PUSH2 0xE3A PUSH2 0xA68 JUMP JUMPDEST JUMPDEST PUSH2 0xE47 DUP7 DUP3 DUP8 ADD PUSH2 0xDAD JUMP JUMPDEST SWAP3 POP POP PUSH1 0x40 DUP5 ADD CALLDATALOAD PUSH8 0xFFFFFFFFFFFFFFFF DUP2 GT ISZERO PUSH2 0xE68 JUMPI PUSH2 0xE67 PUSH2 0xA68 JUMP JUMPDEST JUMPDEST PUSH2 0xE74 DUP7 DUP3 DUP8 ADD PUSH2 0xDAD JUMP JUMPDEST SWAP2 POP POP SWAP3 POP SWAP3 POP SWAP3 JUMP JUMPDEST PUSH0 PUSH1 0x20 DUP3 DUP5 SUB SLT ISZERO PUSH2 0xE93 JUMPI PUSH2 0xE92 PUSH2 0xA64 JUMP JUMPDEST JUMPDEST PUSH0 DUP3 ADD CALLDATALOAD PUSH8 0xFFFFFFFFFFFFFFFF DUP2 GT ISZERO PUSH2 0xEB0 JUMPI PUSH2 0xEAF PUSH2 0xA68 JUMP JUMPDEST JUMPDEST PUSH2 0xEBC DUP5 DUP3 DUP6 ADD PUSH2 0xDAD JUMP JUMPDEST SWAP2 POP POP SWAP3 SWAP2 POP POP JUMP JUMPDEST PUSH0 DUP2 MLOAD SWAP1 POP SWAP2 SWAP1 POP JUMP JUMPDEST PUSH0 DUP3 DUP3 MSTORE PUSH1 0x20 DUP3 ADD SWAP1 POP SWAP3 SWAP2 POP POP JUMP JUMPDEST PUSH0 DUP2 SWAP1 POP PUSH1 0x20 DUP3 ADD SWAP1 POP SWAP2 SWAP1 POP JUMP JUMPDEST PUSH0 PUSH1 0x40 DUP4 ADD PUSH0 DUP4 ADD MLOAD PUSH2 0xF03 PUSH0 DUP7 ADD DUP3 PUSH2 0xACA JUMP JUMPDEST POP PUSH1 0x20 DUP4 ADD MLOAD DUP5 DUP3 SUB PUSH1 0x20 DUP7 ADD MSTORE PUSH2 0xF1B DUP3 DUP3 PUSH2 0xB11 JUMP JUMPDEST SWAP2 POP POP DUP1 SWAP2 POP POP SWAP3 SWAP2 POP POP JUMP JUMPDEST PUSH0 PUSH2 0xF33 DUP4 DUP4 PUSH2 0xEEE JUMP JUMPDEST SWAP1 POP SWAP3 SWAP2 POP POP JUMP JUMPDEST PUSH0 PUSH1 0x20 DUP3 ADD SWAP1 POP SWAP2 SWAP1 POP JUMP JUMPDEST PUSH0 PUSH2 0xF51 DUP3 PUSH2 0xEC5 JUMP JUMPDEST PUSH2 0xF5B DUP2 DUP6 PUSH2 0xECF JUMP JUMPDEST SWAP4 POP DUP4 PUSH1 0x20 DUP3 MUL DUP6 ADD PUSH2 0xF6D DUP6 PUSH2 0xEDF JUMP JUMPDEST DUP1 PUSH0 JUMPDEST DUP6 DUP2 LT ISZERO PUSH2 0xFA8 JUMPI DUP5 DUP5 SUB DUP10 MSTORE DUP2 MLOAD PUSH2 0xF89 DUP6 DUP3 PUSH2 0xF28 JUMP JUMPDEST SWAP5 POP PUSH2 0xF94 DUP4 PUSH2 0xF3B JUMP JUMPDEST SWAP3 POP PUSH1 0x20 DUP11 ADD SWAP10 POP POP PUSH1 0x1 DUP2 ADD SWAP1 POP PUSH2 0xF70 JUMP JUMPDEST POP DUP3 SWAP8 POP DUP8 SWAP6 POP POP POP POP POP POP SWAP3 SWAP2 POP POP JUMP JUMPDEST PUSH0 PUSH1 0x20 DUP3 ADD SWAP1 POP DUP2 DUP2 SUB PUSH0 DUP4 ADD MSTORE PUSH2 0xFD2 DUP2 DUP5 PUSH2 0xF47 JUMP JUMPDEST SWAP1 POP SWAP3 SWAP2 POP POP JUMP JUMPDEST PUSH2 0xFE3 DUP2 PUSH2 0xB68 JUMP JUMPDEST DUP3 MSTORE POP POP JUMP JUMPDEST PUSH0 PUSH1 0xA0 DUP3 ADD SWAP1 POP PUSH2 0xFFC PUSH0 DUP4 ADD DUP9 PUSH2 0xC86 JUMP JUMPDEST DUP2 DUP2 SUB PUSH1 0x20 DUP4 ADD MSTORE PUSH2 0x100E DUP2 DUP8 PUSH2 0xC19 JUMP JUMPDEST SWAP1 POP DUP2 DUP2 SUB PUSH1 0x40 DUP4 ADD MSTORE PUSH2 0x1022 DUP2 DUP7 PUSH2 0xC19 JUMP JUMPDEST SWAP1 POP DUP2 DUP2 SUB PUSH1 0x60 DUP4 ADD MSTORE PUSH2 0x1036 DUP2 DUP6 PUSH2 0xC19 JUMP JUMPDEST SWAP1 POP PUSH2 0x1045 PUSH1 0x80 DUP4 ADD DUP5 PUSH2 0xFDA JUMP JUMPDEST SWAP7 SWAP6 POP POP POP POP POP POP JUMP JUMPDEST PUSH32 0x4E487B7100000000000000000000000000000000000000000000000000000000 PUSH0 MSTORE PUSH1 0x22 PUSH1 0x4 MSTORE PUSH1 0x24 PUSH0 REVERT JUMPDEST PUSH0 PUSH1 0x2 DUP3 DIV SWAP1 POP PUSH1 0x1 DUP3 AND DUP1 PUSH2 0x1093 JUMPI PUSH1 0x7F DUP3 AND SWAP2 POP JUMPDEST PUSH1 0x20 DUP3 LT DUP2 SUB PUSH2 0x10A6 JUMPI PUSH2 0x10A5 PUSH2 0x104F JUMP JUMPDEST JUMPDEST POP SWAP2 SWAP1 POP JUMP JUMPDEST PUSH0 DUP2 SWAP1 POP SWAP3 SWAP2 POP POP JUMP JUMPDEST PUSH0 PUSH2 0x10C0 DUP3 PUSH2 0xAD9 JUMP JUMPDEST PUSH2 0x10CA DUP2 DUP6 PUSH2 0x10AC JUMP JUMPDEST SWAP4 POP PUSH2 0x10DA DUP2 DUP6 PUSH1 0x20 DUP7 ADD PUSH2 0xAF3 JUMP JUMPDEST DUP1 DUP5 ADD SWAP2 POP POP SWAP3 SWAP2 POP POP JUMP JUMPDEST PUSH0 PUSH2 0x10F1 DUP3 DUP6 PUSH2 0x10B6 JUMP JUMPDEST SWAP2 POP PUSH2 0x10FD DUP3 DUP5 PUSH2 0x10B6 JUMP JUMPDEST SWAP2 POP DUP2 SWAP1 POP SWAP4 SWAP3 POP POP POP JUMP JUMPDEST PUSH32 0x4950465320486173682069732072657175697265640000000000000000000000 PUSH0 DUP3 ADD MSTORE POP JUMP JUMPDEST PUSH0 PUSH2 0x113D PUSH1 0x15 DUP4 PUSH2 0xC09 JUMP JUMPDEST SWAP2 POP PUSH2 0x1148 DUP3 PUSH2 0x1109 JUMP JUMPDEST PUSH1 0x20 DUP3 ADD SWAP1 POP SWAP2 SWAP1 POP JUMP JUMPDEST PUSH0 PUSH1 0x20 DUP3 ADD SWAP1 POP DUP2 DUP2 SUB PUSH0 DUP4 ADD MSTORE PUSH2 0x116A DUP2 PUSH2 0x1131 JUMP JUMPDEST SWAP1 POP SWAP2 SWAP1 POP JUMP JUMPDEST PUSH32 0x46696C65204E616D652069732072657175697265640000000000000000000000 PUSH0 DUP3 ADD MSTORE POP JUMP JUMPDEST PUSH0 PUSH2 0x11A5 PUSH1 0x15 DUP4 PUSH2 0xC09 JUMP JUMPDEST SWAP2 POP PUSH2 0x11B0 DUP3 PUSH2 0x1171 JUMP JUMPDEST PUSH1 0x20 DUP3 ADD SWAP1 POP SWAP2 SWAP1 POP JUMP JUMPDEST PUSH0 PUSH1 0x20 DUP3 ADD SWAP1 POP DUP2 DUP2 SUB PUSH0 DUP4 ADD MSTORE PUSH2 0x11D2 DUP2 PUSH2 0x1199 JUMP JUMPDEST SWAP1 POP SWAP2 SWAP1 POP JUMP JUMPDEST PUSH32 0x5375626A65637420697320726571756972656400000000000000000000000000 PUSH0 DUP3 ADD MSTORE POP JUMP JUMPDEST PUSH0 PUSH2 0x120D PUSH1 0x13 DUP4 PUSH2 0xC09 JUMP JUMPDEST SWAP2 POP PUSH2 0x1218 DUP3 PUSH2 0x11D9 JUMP JUMPDEST PUSH1 0x20 DUP3 ADD SWAP1 POP SWAP2 SWAP1 POP JUMP JUMPDEST PUSH0 PUSH1 0x20 DUP3 ADD SWAP1 POP DUP2 DUP2 SUB PUSH0 DUP4 ADD MSTORE PUSH2 0x123A DUP2 PUSH2 0x1201 JUMP JUMPDEST SWAP1 POP SWAP2 SWAP1 POP JUMP JUMPDEST PUSH32 0x4E487B7100000000000000000000000000000000000000000000000000000000 PUSH0 MSTORE PUSH1 0x11 PUSH1 0x4 MSTORE PUSH1 0x24 PUSH0 REVERT JUMPDEST PUSH0 PUSH2 0x1278 DUP3 PUSH2 0xA6C JUMP JUMPDEST SWAP2 POP PUSH32 0xFFFFFFFFFFFFFFFFFFFFFFFFFFFFFFFFFFFFFFFFFFFFFFFFFFFFFFFFFFFFFFFF DUP3 SUB PUSH2 0x12AA JUMPI PUSH2 0x12A9 PUSH2 0x1241 JUMP JUMPDEST JUMPDEST PUSH1 0x1 DUP3 ADD SWAP1 POP SWAP2 SWAP1 POP JUMP JUMPDEST PUSH0 DUP2 SWAP1 POP DUP2 PUSH0 MSTORE PUSH1 0x20 PUSH0 KECCAK256 SWAP1 POP SWAP2 SWAP1 POP JUMP JUMPDEST PUSH0 PUSH1 0x20 PUSH1 0x1F DUP4 ADD DIV SWAP1 POP SWAP2 SWAP1 POP JUMP JUMPDEST PUSH0 DUP3 DUP3 SHL SWAP1 POP SWAP3 SWAP2 POP POP JUMP JUMPDEST PUSH0 PUSH1 0x8 DUP4 MUL PUSH2 0x1311 PUSH32 0xFFFFFFFFFFFFFFFFFFFFFFFFFFFFFFFFFFFFFFFFFFFFFFFFFFFFFFFFFFFFFFFF DUP3 PUSH2 0x12D6 JUMP JUMPDEST PUSH2 0x131B DUP7 DUP4 PUSH2 0x12D6 JUMP JUMPDEST SWAP6 POP DUP1 NOT DUP5 AND SWAP4 POP DUP1 DUP7 AND DUP5 OR SWAP3 POP POP POP SWAP4 SWAP3 POP POP POP JUMP JUMPDEST PUSH0 DUP2 SWAP1 POP SWAP2 SWAP1 POP JUMP JUMPDEST PUSH0 PUSH2 0x1356 PUSH2 0x1351 PUSH2 0x134C DUP5 PUSH2 0xA6C JUMP JUMPDEST PUSH2 0x1333 JUMP JUMPDEST PUSH2 0xA6C JUMP JUMPDEST SWAP1 POP SWAP2 SWAP1 POP JUMP JUMPDEST PUSH0 DUP2 SWAP1 POP SWAP2 SWAP1 POP JUMP JUMPDEST PUSH2 0x136F DUP4 PUSH2 0x133C JUMP JUMPDEST PUSH2 0x1383 PUSH2 0x137B DUP3 PUSH2 0x135D JUMP JUMPDEST DUP5 DUP5 SLOAD PUSH2 0x12E2 JUMP JUMPDEST DUP3 SSTORE POP POP POP POP JUMP JUMPDEST PUSH0 PUSH0 SWAP1 POP SWAP1 JUMP JUMPDEST PUSH2 0x139A PUSH2 0x138B JUMP JUMPDEST PUSH2 0x13A5 DUP2 DUP5 DUP5 PUSH2 0x1366 JUMP JUMPDEST POP POP POP JUMP JUMPDEST JUMPDEST DUP2 DUP2 LT ISZERO PUSH2 0x13C8 JUMPI PUSH2 0x13BD PUSH0 DUP3 PUSH2 0x1392 JUMP JUMPDEST PUSH1 0x1 DUP2 ADD SWAP1 POP PUSH2 0x13AB JUMP JUMPDEST POP POP JUMP JUMPDEST PUSH1 0x1F DUP3 GT ISZERO PUSH2 0x140D JUMPI PUSH2 0x13DE DUP2 PUSH2 0x12B5 JUMP JUMPDEST PUSH2 0x13E7 DUP5 PUSH2 0x12C7 JUMP JUMPDEST DUP2 ADD PUSH1 0x20 DUP6 LT ISZERO PUSH2 0x13F6 JUMPI DUP2 SWAP1 POP JUMPDEST PUSH2 0x140A PUSH2 0x1402 DUP6 PUSH2 0x12C7 JUMP JUMPDEST DUP4 ADD DUP3 PUSH2 0x13AA JUMP JUMPDEST POP POP JUMPDEST POP POP POP JUMP JUMPDEST PUSH0 DUP3 DUP3 SHR SWAP1 POP SWAP3 SWAP2 POP POP JUMP JUMPDEST PUSH0 PUSH2 0x142D PUSH0 NOT DUP5 PUSH1 0x8 MUL PUSH2 0x1412 JUMP JUMPDEST NOT DUP1 DUP4 AND SWAP2 POP POP SWAP3 SWAP2 POP POP JUMP JUMPDEST PUSH0 PUSH2 0x1445 DUP4 DUP4 PUSH2 0x141E JUMP JUMPDEST SWAP2 POP DUP3 PUSH1 0x2 MUL DUP3 OR SWAP1 POP SWAP3 SWAP2 POP POP JUMP JUMPDEST PUSH2 0x145E DUP3 PUSH2 0xAD9 JUMP JUMPDEST PUSH8 0xFFFFFFFFFFFFFFFF DUP2 GT ISZERO PUSH2 0x1477 JUMPI PUSH2 0x1476 PUSH2 0xCB6 JUMP JUMPDEST JUMPDEST PUSH2 0x1481 DUP3 SLOAD PUSH2 0x107C JUMP JUMPDEST PUSH2 0x148C DUP3 DUP3 DUP6 PUSH2 0x13CC JUMP JUMPDEST PUSH0 PUSH1 0x20 SWAP1 POP PUSH1 0x1F DUP4 GT PUSH1 0x1 DUP2 EQ PUSH2 0x14BD JUMPI PUSH0 DUP5 ISZERO PUSH2 0x14AB JUMPI DUP3 DUP8 ADD MLOAD SWAP1 POP JUMPDEST PUSH2 0x14B5 DUP6 DUP3 PUSH2 0x143A JUMP JUMPDEST DUP7 SSTORE POP PUSH2 0x151C JUMP JUMPDEST PUSH1 0x1F NOT DUP5 AND PUSH2 0x14CB DUP7 PUSH2 0x12B5 JUMP JUMPDEST PUSH0 JUMPDEST DUP3 DUP2 LT ISZERO PUSH2 0x14F2 JUMPI DUP5 DUP10 ADD MLOAD DUP3 SSTORE PUSH1 0x1 DUP3 ADD SWAP2 POP PUSH1 0x20 DUP6 ADD SWAP5 POP PUSH1 0x20 DUP2 ADD SWAP1 POP PUSH2 0x14CD JUMP JUMPDEST DUP7 DUP4 LT ISZERO PUSH2 0x150F JUMPI DUP5 DUP10 ADD MLOAD PUSH2 0x150B PUSH1 0x1F DUP10 AND DUP3 PUSH2 0x141E JUMP JUMPDEST DUP4 SSTORE POP JUMPDEST PUSH1 0x1 PUSH1 0x2 DUP9 MUL ADD DUP9 SSTORE POP POP POP JUMPDEST POP POP POP POP POP POP JUMP JUMPDEST PUSH0 PUSH2 0x152F DUP3 DUP5 PUSH2 0x10B6 JUMP JUMPDEST SWAP2 POP DUP2 SWAP1 POP SWAP3 SWAP2 POP POP JUMP JUMPDEST PUSH0 PUSH1 0x60 DUP3 ADD SWAP1 POP PUSH2 0x154D PUSH0 DUP4 ADD DUP7 PUSH2 0xC86 JUMP JUMPDEST DUP2 DUP2 SUB PUSH1 0x20 DUP4 ADD MSTORE PUSH2 0x155F DUP2 DUP6 PUSH2 0xC19 JUMP JUMPDEST SWAP1 POP DUP2 DUP2 SUB PUSH1 0x40 DUP4 ADD MSTORE PUSH2 0x1573 DUP2 DUP5 PUSH2 0xC19 JUMP JUMPDEST SWAP1 POP SWAP5 SWAP4 POP POP POP POP JUMP JUMPDEST PUSH32 0x4E487B7100000000000000000000000000000000000000000000000000000000 PUSH0 MSTORE PUSH1 0x32 PUSH1 0x4 MSTORE PUSH1 0x24 PUSH0 REVERT INVALID LOG2 PUSH5 0x6970667358 0x22 SLT KECCAK256 0xF7 DUP6 0xDD 0xD8 0x2C 0xCE MULMOD 0xC5 MSTORE8 DUP4 MULMOD ADDMOD SWAP14 MULMOD SELFBALANCE 0xB0 DUP6 DUP9 SWAP2 0xC6 SGT SWAP4 SHL 0xB4 KECCAK256 DUP16 CODECOPY PUSH29 0xC660F1E764736F6C634300081E00330000000000000000000000000000 "
				},
				"gasEstimates": {
					"creation": {
						"codeDepositCost": "1120000",
						"executionCost": "6162",
						"totalCost": "1126162"
					},
					"external": {
						"fileCount()": "2424",
						"files(uint256)": "infinite",
						"getCourse(string)": "infinite",
						"getFile(uint256)": "infinite",
						"uploadFile(string,string,string)": "infinite"
					}
				},
				"methodIdentifiers": {
					"fileCount()": "43953519",
					"files(uint256)": "f4c714b4",
					"getCourse(string)": "da618161",
					"getFile(uint256)": "2bfda313",
					"uploadFile(string,string,string)": "92bb481a"
				}
			},
			"storageLayout": {
				"storage": [
					{
						"astId": 10,
						"contract": "Final Project/FinalProject_Contract.sol:P2PFileShare",
						"label": "fileCount",
						"offset": 0,
						"slot": "0",
						"type": "t_uint256"
					},
					{
						"astId": 34,
						"contract": "Final Project/FinalProject_Contract.sol:P2PFileShare",
						"label": "files",
						"offset": 0,
						"slot": "1",
						"type": "t_mapping(t_uint256,t_struct(FileInfo)22_storage)"
					},
					{
						"astId": 40,
						"contract": "Final Project/FinalProject_Contract.sol:P2PFileShare",
						"label": "_courses",
						"offset": 0,
						"slot": "2",
						"type": "t_mapping(t_string_memory_ptr,t_array(t_uint256)dyn_storage)"
					}
				],
				"types": {
					"t_address": {
						"encoding": "inplace",
						"label": "address",
						"numberOfBytes": "20"
					},
					"t_array(t_uint256)dyn_storage": {
						"base": "t_uint256",
						"encoding": "dynamic_array",
						"label": "uint256[]",
						"numberOfBytes": "32"
					},
					"t_mapping(t_string_memory_ptr,t_array(t_uint256)dyn_storage)": {
						"encoding": "mapping",
						"key": "t_string_memory_ptr",
						"label": "mapping(string => uint256[])",
						"numberOfBytes": "32",
						"value": "t_array(t_uint256)dyn_storage"
					},
					"t_mapping(t_uint256,t_struct(FileInfo)22_storage)": {
						"encoding": "mapping",
						"key": "t_uint256",
						"label": "mapping(uint256 => struct P2PFileShare.FileInfo)",
						"numberOfBytes": "32",
						"value": "t_struct(FileInfo)22_storage"
					},
					"t_string_memory_ptr": {
						"encoding": "bytes",
						"label": "string",
						"numberOfBytes": "32"
					},
					"t_string_storage": {
						"encoding": "bytes",
						"label": "string",
						"numberOfBytes": "32"
					},
					"t_struct(FileInfo)22_storage": {
						"encoding": "inplace",
						"label": "struct P2PFileShare.FileInfo",
						"members": [
							{
								"astId": 13,
								"contract": "Final Project/FinalProject_Contract.sol:P2PFileShare",
								"label": "fileID",
								"offset": 0,
								"slot": "0",
								"type": "t_uint256"
							},
							{
								"astId": 15,
								"contract": "Final Project/FinalProject_Contract.sol:P2PFileShare",
								"label": "ipfs",
								"offset": 0,
								"slot": "1",
								"type": "t_string_storage"
							},
							{
								"astId": 17,
								"contract": "Final Project/FinalProject_Contract.sol:P2PFileShare",
								"label": "subject",
								"offset": 0,
								"slot": "2",
								"type": "t_string_storage"
							},
							{
								"astId": 19,
								"contract": "Final Project/FinalProject_Contract.sol:P2PFileShare",
								"label": "fileName",
								"offset": 0,
								"slot": "3",
								"type": "t_string_storage"
							},
							{
								"astId": 21,
								"contract": "Final Project/FinalProject_Contract.sol:P2PFileShare",
								"label": "uploader",
								"offset": 0,
								"slot": "4",
								"type": "t_address"
							}
						],
						"numberOfBytes": "160"
					},
					"t_uint256": {
						"encoding": "inplace",
						"label": "uint256",
						"numberOfBytes": "32"
					}
				}
			},
			"userdoc": {
				"events": {
					"FileUploaded(uint256,string,string,string,address)": {
						"notice": "Event that notifies upon successful file upload"
					}
				},
				"kind": "user",
				"methods": {
					"fileCount()": {
						"notice": "fileCount   number of files in the system"
					},
					"files(uint256)": {
						"notice": "Mapping that stores files by acting like a hash table/dictionary"
					},
					"getCourse(string)": {
						"notice": "Function to get FileIDs for a specific course"
					},
					"getFile(uint256)": {
						"notice": "Function that returns the file details"
					},
					"uploadFile(string,string,string)": {
						"notice": "Function to upload the file"
					}
				},
				"notice": "Contract for the system",
				"version": 1
			}
		}
	}
}