{
	"Final Project/FinalProject_Contract.sol": {
		"P2PFileShare": {
			"abi": [
				{
					"anonymous": false,
					"inputs": [
						{
							"indexed": false,
							"internalType": "uint256",
							"name": "idnumber",
							"type": "uint256"
						},
						{
							"indexed": false,
							"internalType": "string",
							"name": "ipfs",
							"type": "string"
						},
						{
							"indexed": true,
							"internalType": "string",
							"name": "subject",
							"type": "string"
						},
						{
							"indexed": false,
							"internalType": "string",
							"name": "fileName",
							"type": "string"
						},
						{
							"indexed": true,
							"internalType": "address",
							"name": "uploader",
							"type": "address"
						}
					],
					"name": "FileUploaded",
					"type": "event"
				},
				{
					"inputs": [],
					"name": "fileCount",
					"outputs": [
						{
							"internalType": "uint256",
							"name": "",
							"type": "uint256"
						}
					],
					"stateMutability": "view",
					"type": "function"
				},
				{
					"inputs": [
						{
							"internalType": "uint256",
							"name": "",
							"type": "uint256"
						}
					],
					"name": "files",
					"outputs": [
						{
							"internalType": "uint256",
							"name": "idnumber",
							"type": "uint256"
						},
						{
							"internalType": "string",
							"name": "ipfs",
							"type": "string"
						},
						{
							"internalType": "string",
							"name": "subject",
							"type": "string"
						},
						{
							"internalType": "string",
							"name": "fileName",
							"type": "string"
						},
						{
							"internalType": "address",
							"name": "uploader",
							"type": "address"
						}
					],
					"stateMutability": "view",
					"type": "function"
				},
				{
					"inputs": [
						{
							"internalType": "uint256",
							"name": "_idnumber",
							"type": "uint256"
						}
					],
					"name": "getFile",
					"outputs": [
						{
							"components": [
								{
									"internalType": "uint256",
									"name": "idnumber",
									"type": "uint256"
								},
								{
									"internalType": "string",
									"name": "ipfs",
									"type": "string"
								},
								{
									"internalType": "string",
									"name": "subject",
									"type": "string"
								},
								{
									"internalType": "string",
									"name": "fileName",
									"type": "string"
								},
								{
									"internalType": "address",
									"name": "uploader",
									"type": "address"
								}
							],
							"internalType": "struct P2PFileShare.FileInfo",
							"name": "",
							"type": "tuple"
						}
					],
					"stateMutability": "view",
					"type": "function"
				},
				{
					"inputs": [
						{
							"internalType": "string",
							"name": "_ipfs",
							"type": "string"
						},
						{
							"internalType": "string",
							"name": "_fileName",
							"type": "string"
						},
						{
							"internalType": "string",
							"name": "_subject",
							"type": "string"
						}
					],
					"name": "uploadFile",
					"outputs": [],
					"stateMutability": "nonpayable",
					"type": "function"
				}
			],
			"devdoc": {
				"kind": "dev",
				"methods": {},
				"version": 1
			},
			"evm": {
				"assembly": "    /* \"Final Project/FinalProject_Contract.sol\":640:2257  contract P2PFileShare{... */\n  mstore(0x40, 0x80)\n    /* \"Final Project/FinalProject_Contract.sol\":1121:1122  0 */\n  0x00\n    /* \"Final Project/FinalProject_Contract.sol\":1094:1122  uint256 public fileCount = 0 */\n  0x01\n  sstore\n    /* \"Final Project/FinalProject_Contract.sol\":640:2257  contract P2PFileShare{... */\n  callvalue\n  dup1\n  iszero\n  tag_1\n  jumpi\n  revert(0x00, 0x00)\ntag_1:\n  pop\n  dataSize(sub_0)\n  dup1\n  dataOffset(sub_0)\n  0x00\n  codecopy\n  0x00\n  return\nstop\n\nsub_0: assembly {\n        /* \"Final Project/FinalProject_Contract.sol\":640:2257  contract P2PFileShare{... */\n      mstore(0x40, 0x80)\n      callvalue\n      dup1\n      iszero\n      tag_1\n      jumpi\n      revert(0x00, 0x00)\n    tag_1:\n      pop\n      jumpi(tag_2, lt(calldatasize, 0x04))\n      shr(0xe0, calldataload(0x00))\n      dup1\n      0x2bfda313\n      eq\n      tag_3\n      jumpi\n      dup1\n      0x43953519\n      eq\n      tag_4\n      jumpi\n      dup1\n      0x92bb481a\n      eq\n      tag_5\n      jumpi\n      dup1\n      0xf4c714b4\n      eq\n      tag_6\n      jumpi\n    tag_2:\n      revert(0x00, 0x00)\n        /* \"Final Project/FinalProject_Contract.sol\":2141:2254  function getFile(uint _idnumber) public view returns (FileInfo memory) {... */\n    tag_3:\n      tag_7\n      0x04\n      dup1\n      calldatasize\n      sub\n      dup2\n      add\n      swap1\n      tag_8\n      swap2\n      swap1\n      tag_9\n      jump\t// in\n    tag_8:\n      tag_10\n      jump\t// in\n    tag_7:\n      mload(0x40)\n      tag_11\n      swap2\n      swap1\n      tag_12\n      jump\t// in\n    tag_11:\n      mload(0x40)\n      dup1\n      swap2\n      sub\n      swap1\n      return\n        /* \"Final Project/FinalProject_Contract.sol\":1094:1122  uint256 public fileCount = 0 */\n    tag_4:\n      tag_13\n      tag_14\n      jump\t// in\n    tag_13:\n      mload(0x40)\n      tag_15\n      swap2\n      swap1\n      tag_16\n      jump\t// in\n    tag_15:\n      mload(0x40)\n      dup1\n      swap2\n      sub\n      swap1\n      return\n        /* \"Final Project/FinalProject_Contract.sol\":1460:2089  function uploadFile(string memory _ipfs, string memory _fileName, string memory _subject) public {... */\n    tag_5:\n      tag_17\n      0x04\n      dup1\n      calldatasize\n      sub\n      dup2\n      add\n      swap1\n      tag_18\n      swap2\n      swap1\n      tag_19\n      jump\t// in\n    tag_18:\n      tag_20\n      jump\t// in\n    tag_17:\n      stop\n        /* \"Final Project/FinalProject_Contract.sol\":1046:1087  mapping(uint256 => FileInfo) public files */\n    tag_6:\n      tag_21\n      0x04\n      dup1\n      calldatasize\n      sub\n      dup2\n      add\n      swap1\n      tag_22\n      swap2\n      swap1\n      tag_9\n      jump\t// in\n    tag_22:\n      tag_23\n      jump\t// in\n    tag_21:\n      mload(0x40)\n      tag_24\n      swap6\n      swap5\n      swap4\n      swap3\n      swap2\n      swap1\n      tag_25\n      jump\t// in\n    tag_24:\n      mload(0x40)\n      dup1\n      swap2\n      sub\n      swap1\n      return\n        /* \"Final Project/FinalProject_Contract.sol\":2141:2254  function getFile(uint _idnumber) public view returns (FileInfo memory) {... */\n    tag_10:\n        /* \"Final Project/FinalProject_Contract.sol\":2195:2210  FileInfo memory */\n      tag_26\n      tag_27\n      jump\t// in\n    tag_26:\n        /* \"Final Project/FinalProject_Contract.sol\":2230:2235  files */\n      0x00\n        /* \"Final Project/FinalProject_Contract.sol\":2230:2246  files[_idnumber] */\n      0x00\n        /* \"Final Project/FinalProject_Contract.sol\":2236:2245  _idnumber */\n      dup4\n        /* \"Final Project/FinalProject_Contract.sol\":2230:2246  files[_idnumber] */\n      dup2\n      mstore\n      0x20\n      add\n      swap1\n      dup2\n      mstore\n      0x20\n      add\n      0x00\n      keccak256\n        /* \"Final Project/FinalProject_Contract.sol\":2223:2246  return files[_idnumber] */\n      mload(0x40)\n      dup1\n      0xa0\n      add\n      0x40\n      mstore\n      swap1\n      dup2\n      0x00\n      dup3\n      add\n      sload\n      dup2\n      mstore\n      0x20\n      add\n      0x01\n      dup3\n      add\n      dup1\n      sload\n      tag_29\n      swap1\n      tag_30\n      jump\t// in\n    tag_29:\n      dup1\n      0x1f\n      add\n      0x20\n      dup1\n      swap2\n      div\n      mul\n      0x20\n      add\n      mload(0x40)\n      swap1\n      dup2\n      add\n      0x40\n      mstore\n      dup1\n      swap3\n      swap2\n      swap1\n      dup2\n      dup2\n      mstore\n      0x20\n      add\n      dup3\n      dup1\n      sload\n      tag_31\n      swap1\n      tag_30\n      jump\t// in\n    tag_31:\n      dup1\n      iszero\n      tag_32\n      jumpi\n      dup1\n      0x1f\n      lt\n      tag_33\n      jumpi\n      0x0100\n      dup1\n      dup4\n      sload\n      div\n      mul\n      dup4\n      mstore\n      swap2\n      0x20\n      add\n      swap2\n      jump(tag_32)\n    tag_33:\n      dup3\n      add\n      swap2\n      swap1\n      0x00\n      mstore\n      keccak256(0x00, 0x20)\n      swap1\n    tag_34:\n      dup2\n      sload\n      dup2\n      mstore\n      swap1\n      0x01\n      add\n      swap1\n      0x20\n      add\n      dup1\n      dup4\n      gt\n      tag_34\n      jumpi\n      dup3\n      swap1\n      sub\n      0x1f\n      and\n      dup3\n      add\n      swap2\n    tag_32:\n      pop\n      pop\n      pop\n      pop\n      pop\n      dup2\n      mstore\n      0x20\n      add\n      0x02\n      dup3\n      add\n      dup1\n      sload\n      tag_35\n      swap1\n      tag_30\n      jump\t// in\n    tag_35:\n      dup1\n      0x1f\n      add\n      0x20\n      dup1\n      swap2\n      div\n      mul\n      0x20\n      add\n      mload(0x40)\n      swap1\n      dup2\n      add\n      0x40\n      mstore\n      dup1\n      swap3\n      swap2\n      swap1\n      dup2\n      dup2\n      mstore\n      0x20\n      add\n      dup3\n      dup1\n      sload\n      tag_36\n      swap1\n      tag_30\n      jump\t// in\n    tag_36:\n      dup1\n      iszero\n      tag_37\n      jumpi\n      dup1\n      0x1f\n      lt\n      tag_38\n      jumpi\n      0x0100\n      dup1\n      dup4\n      sload\n      div\n      mul\n      dup4\n      mstore\n      swap2\n      0x20\n      add\n      swap2\n      jump(tag_37)\n    tag_38:\n      dup3\n      add\n      swap2\n      swap1\n      0x00\n      mstore\n      keccak256(0x00, 0x20)\n      swap1\n    tag_39:\n      dup2\n      sload\n      dup2\n      mstore\n      swap1\n      0x01\n      add\n      swap1\n      0x20\n      add\n      dup1\n      dup4\n      gt\n      tag_39\n      jumpi\n      dup3\n      swap1\n      sub\n      0x1f\n      and\n      dup3\n      add\n      swap2\n    tag_37:\n      pop\n      pop\n      pop\n      pop\n      pop\n      dup2\n      mstore\n      0x20\n      add\n      0x03\n      dup3\n      add\n      dup1\n      sload\n      tag_40\n      swap1\n      tag_30\n      jump\t// in\n    tag_40:\n      dup1\n      0x1f\n      add\n      0x20\n      dup1\n      swap2\n      div\n      mul\n      0x20\n      add\n      mload(0x40)\n      swap1\n      dup2\n      add\n      0x40\n      mstore\n      dup1\n      swap3\n      swap2\n      swap1\n      dup2\n      dup2\n      mstore\n      0x20\n      add\n      dup3\n      dup1\n      sload\n      tag_41\n      swap1\n      tag_30\n      jump\t// in\n    tag_41:\n      dup1\n      iszero\n      tag_42\n      jumpi\n      dup1\n      0x1f\n      lt\n      tag_43\n      jumpi\n      0x0100\n      dup1\n      dup4\n      sload\n      div\n      mul\n      dup4\n      mstore\n      swap2\n      0x20\n      add\n      swap2\n      jump(tag_42)\n    tag_43:\n      dup3\n      add\n      swap2\n      swap1\n      0x00\n      mstore\n      keccak256(0x00, 0x20)\n      swap1\n    tag_44:\n      dup2\n      sload\n      dup2\n      mstore\n      swap1\n      0x01\n      add\n      swap1\n      0x20\n      add\n      dup1\n      dup4\n      gt\n      tag_44\n      jumpi\n      dup3\n      swap1\n      sub\n      0x1f\n      and\n      dup3\n      add\n      swap2\n    tag_42:\n      pop\n      pop\n      pop\n      pop\n      pop\n      dup2\n      mstore\n      0x20\n      add\n      0x04\n      dup3\n      add\n      0x00\n      swap1\n      sload\n      swap1\n      0x0100\n      exp\n      swap1\n      div\n      0xffffffffffffffffffffffffffffffffffffffff\n      and\n      0xffffffffffffffffffffffffffffffffffffffff\n      and\n      0xffffffffffffffffffffffffffffffffffffffff\n      and\n      dup2\n      mstore\n      pop\n      pop\n      swap1\n      pop\n        /* \"Final Project/FinalProject_Contract.sol\":2141:2254  function getFile(uint _idnumber) public view returns (FileInfo memory) {... */\n      swap2\n      swap1\n      pop\n      jump\t// out\n        /* \"Final Project/FinalProject_Contract.sol\":1094:1122  uint256 public fileCount = 0 */\n    tag_14:\n      sload(0x01)\n      dup2\n      jump\t// out\n        /* \"Final Project/FinalProject_Contract.sol\":1460:2089  function uploadFile(string memory _ipfs, string memory _fileName, string memory _subject) public {... */\n    tag_20:\n        /* \"Final Project/FinalProject_Contract.sol\":1598:1599  0 */\n      0x00\n        /* \"Final Project/FinalProject_Contract.sol\":1582:1587  _ipfs */\n      dup4\n        /* \"Final Project/FinalProject_Contract.sol\":1576:1595  bytes(_ipfs).length */\n      mload\n        /* \"Final Project/FinalProject_Contract.sol\":1576:1599  bytes(_ipfs).length > 0 */\n      gt\n        /* \"Final Project/FinalProject_Contract.sol\":1568:1625  require(bytes(_ipfs).length > 0, \"IPFS Hash is required\") */\n      tag_46\n      jumpi\n      mload(0x40)\n      0x08c379a000000000000000000000000000000000000000000000000000000000\n      dup2\n      mstore\n      0x04\n      add\n      tag_47\n      swap1\n      tag_48\n      jump\t// in\n    tag_47:\n      mload(0x40)\n      dup1\n      swap2\n      sub\n      swap1\n      revert\n    tag_46:\n        /* \"Final Project/FinalProject_Contract.sol\":1670:1671  0 */\n      0x00\n        /* \"Final Project/FinalProject_Contract.sol\":1650:1659  _fileName */\n      dup3\n        /* \"Final Project/FinalProject_Contract.sol\":1644:1667  bytes(_fileName).length */\n      mload\n        /* \"Final Project/FinalProject_Contract.sol\":1644:1671  bytes(_fileName).length > 0 */\n      gt\n        /* \"Final Project/FinalProject_Contract.sol\":1636:1697  require(bytes(_fileName).length > 0, \"File Name is required\") */\n      tag_49\n      jumpi\n      mload(0x40)\n      0x08c379a000000000000000000000000000000000000000000000000000000000\n      dup2\n      mstore\n      0x04\n      add\n      tag_50\n      swap1\n      tag_51\n      jump\t// in\n    tag_50:\n      mload(0x40)\n      dup1\n      swap2\n      sub\n      swap1\n      revert\n    tag_49:\n        /* \"Final Project/FinalProject_Contract.sol\":1741:1742  0 */\n      0x00\n        /* \"Final Project/FinalProject_Contract.sol\":1722:1730  _subject */\n      dup2\n        /* \"Final Project/FinalProject_Contract.sol\":1716:1738  bytes(_subject).length */\n      mload\n        /* \"Final Project/FinalProject_Contract.sol\":1716:1742  bytes(_subject).length > 0 */\n      gt\n        /* \"Final Project/FinalProject_Contract.sol\":1708:1766  require(bytes(_subject).length > 0, \"Subject is required\") */\n      tag_52\n      jumpi\n      mload(0x40)\n      0x08c379a000000000000000000000000000000000000000000000000000000000\n      dup2\n      mstore\n      0x04\n      add\n      tag_53\n      swap1\n      tag_54\n      jump\t// in\n    tag_53:\n      mload(0x40)\n      dup1\n      swap2\n      sub\n      swap1\n      revert\n    tag_52:\n        /* \"Final Project/FinalProject_Contract.sol\":1779:1788  fileCount */\n      0x01\n      0x00\n        /* \"Final Project/FinalProject_Contract.sol\":1779:1790  fileCount++ */\n      dup2\n      sload\n      dup1\n      swap3\n      swap2\n      swap1\n      tag_55\n      swap1\n      tag_56\n      jump\t// in\n    tag_55:\n      swap2\n      swap1\n      pop\n      sstore\n      pop\n        /* \"Final Project/FinalProject_Contract.sol\":1822:1957  FileInfo(... */\n      mload(0x40)\n      dup1\n      0xa0\n      add\n      0x40\n      mstore\n      dup1\n        /* \"Final Project/FinalProject_Contract.sol\":1845:1854  fileCount */\n      sload(0x01)\n        /* \"Final Project/FinalProject_Contract.sol\":1822:1957  FileInfo(... */\n      dup2\n      mstore\n      0x20\n      add\n        /* \"Final Project/FinalProject_Contract.sol\":1869:1874  _ipfs */\n      dup5\n        /* \"Final Project/FinalProject_Contract.sol\":1822:1957  FileInfo(... */\n      dup2\n      mstore\n      0x20\n      add\n        /* \"Final Project/FinalProject_Contract.sol\":1889:1897  _subject */\n      dup3\n        /* \"Final Project/FinalProject_Contract.sol\":1822:1957  FileInfo(... */\n      dup2\n      mstore\n      0x20\n      add\n        /* \"Final Project/FinalProject_Contract.sol\":1912:1921  _fileName */\n      dup4\n        /* \"Final Project/FinalProject_Contract.sol\":1822:1957  FileInfo(... */\n      dup2\n      mstore\n      0x20\n      add\n        /* \"Final Project/FinalProject_Contract.sol\":1936:1946  msg.sender */\n      caller\n        /* \"Final Project/FinalProject_Contract.sol\":1822:1957  FileInfo(... */\n      0xffffffffffffffffffffffffffffffffffffffff\n      and\n      dup2\n      mstore\n      pop\n        /* \"Final Project/FinalProject_Contract.sol\":1803:1808  files */\n      0x00\n        /* \"Final Project/FinalProject_Contract.sol\":1803:1819  files[fileCount] */\n      0x00\n        /* \"Final Project/FinalProject_Contract.sol\":1809:1818  fileCount */\n      sload(0x01)\n        /* \"Final Project/FinalProject_Contract.sol\":1803:1819  files[fileCount] */\n      dup2\n      mstore\n      0x20\n      add\n      swap1\n      dup2\n      mstore\n      0x20\n      add\n      0x00\n      keccak256\n        /* \"Final Project/FinalProject_Contract.sol\":1803:1957  files[fileCount] = FileInfo(... */\n      0x00\n      dup3\n      add\n      mload\n      dup2\n      0x00\n      add\n      sstore\n      0x20\n      dup3\n      add\n      mload\n      dup2\n      0x01\n      add\n      swap1\n      dup2\n      tag_57\n      swap2\n      swap1\n      tag_58\n      jump\t// in\n    tag_57:\n      pop\n      0x40\n      dup3\n      add\n      mload\n      dup2\n      0x02\n      add\n      swap1\n      dup2\n      tag_59\n      swap2\n      swap1\n      tag_58\n      jump\t// in\n    tag_59:\n      pop\n      0x60\n      dup3\n      add\n      mload\n      dup2\n      0x03\n      add\n      swap1\n      dup2\n      tag_60\n      swap2\n      swap1\n      tag_58\n      jump\t// in\n    tag_60:\n      pop\n      0x80\n      dup3\n      add\n      mload\n      dup2\n      0x04\n      add\n      exp(0x0100, 0x00)\n      dup2\n      sload\n      dup2\n      0xffffffffffffffffffffffffffffffffffffffff\n      mul\n      not\n      and\n      swap1\n      dup4\n      0xffffffffffffffffffffffffffffffffffffffff\n      and\n      mul\n      or\n      swap1\n      sstore\n      pop\n      swap1\n      pop\n      pop\n        /* \"Final Project/FinalProject_Contract.sol\":2070:2080  msg.sender */\n      caller\n        /* \"Final Project/FinalProject_Contract.sol\":2022:2081  FileUploaded(fileCount,_ipfs,_subject,_fileName,msg.sender) */\n      0xffffffffffffffffffffffffffffffffffffffff\n      and\n        /* \"Final Project/FinalProject_Contract.sol\":2051:2059  _subject */\n      dup2\n        /* \"Final Project/FinalProject_Contract.sol\":2022:2081  FileUploaded(fileCount,_ipfs,_subject,_fileName,msg.sender) */\n      mload(0x40)\n      tag_61\n      swap2\n      swap1\n      tag_62\n      jump\t// in\n    tag_61:\n      mload(0x40)\n      dup1\n      swap2\n      sub\n      swap1\n      keccak256\n      0xa840b93cbcb6e31291b2769d43a3ae3e9518b9eddbf4bc0737e3073f93476e0e\n        /* \"Final Project/FinalProject_Contract.sol\":2035:2044  fileCount */\n      sload(0x01)\n        /* \"Final Project/FinalProject_Contract.sol\":2045:2050  _ipfs */\n      dup7\n        /* \"Final Project/FinalProject_Contract.sol\":2060:2069  _fileName */\n      dup7\n        /* \"Final Project/FinalProject_Contract.sol\":2022:2081  FileUploaded(fileCount,_ipfs,_subject,_fileName,msg.sender) */\n      mload(0x40)\n      tag_63\n      swap4\n      swap3\n      swap2\n      swap1\n      tag_64\n      jump\t// in\n    tag_63:\n      mload(0x40)\n      dup1\n      swap2\n      sub\n      swap1\n      log3\n        /* \"Final Project/FinalProject_Contract.sol\":1460:2089  function uploadFile(string memory _ipfs, string memory _fileName, string memory _subject) public {... */\n      pop\n      pop\n      pop\n      jump\t// out\n        /* \"Final Project/FinalProject_Contract.sol\":1046:1087  mapping(uint256 => FileInfo) public files */\n    tag_23:\n      mstore(0x20, 0x00)\n      dup1\n      0x00\n      mstore\n      keccak256(0x00, 0x40)\n      0x00\n      swap2\n      pop\n      swap1\n      pop\n      dup1\n      0x00\n      add\n      sload\n      swap1\n      dup1\n      0x01\n      add\n      dup1\n      sload\n      tag_65\n      swap1\n      tag_30\n      jump\t// in\n    tag_65:\n      dup1\n      0x1f\n      add\n      0x20\n      dup1\n      swap2\n      div\n      mul\n      0x20\n      add\n      mload(0x40)\n      swap1\n      dup2\n      add\n      0x40\n      mstore\n      dup1\n      swap3\n      swap2\n      swap1\n      dup2\n      dup2\n      mstore\n      0x20\n      add\n      dup3\n      dup1\n      sload\n      tag_66\n      swap1\n      tag_30\n      jump\t// in\n    tag_66:\n      dup1\n      iszero\n      tag_67\n      jumpi\n      dup1\n      0x1f\n      lt\n      tag_68\n      jumpi\n      0x0100\n      dup1\n      dup4\n      sload\n      div\n      mul\n      dup4\n      mstore\n      swap2\n      0x20\n      add\n      swap2\n      jump(tag_67)\n    tag_68:\n      dup3\n      add\n      swap2\n      swap1\n      0x00\n      mstore\n      keccak256(0x00, 0x20)\n      swap1\n    tag_69:\n      dup2\n      sload\n      dup2\n      mstore\n      swap1\n      0x01\n      add\n      swap1\n      0x20\n      add\n      dup1\n      dup4\n      gt\n      tag_69\n      jumpi\n      dup3\n      swap1\n      sub\n      0x1f\n      and\n      dup3\n      add\n      swap2\n    tag_67:\n      pop\n      pop\n      pop\n      pop\n      pop\n      swap1\n      dup1\n      0x02\n      add\n      dup1\n      sload\n      tag_70\n      swap1\n      tag_30\n      jump\t// in\n    tag_70:\n      dup1\n      0x1f\n      add\n      0x20\n      dup1\n      swap2\n      div\n      mul\n      0x20\n      add\n      mload(0x40)\n      swap1\n      dup2\n      add\n      0x40\n      mstore\n      dup1\n      swap3\n      swap2\n      swap1\n      dup2\n      dup2\n      mstore\n      0x20\n      add\n      dup3\n      dup1\n      sload\n      tag_71\n      swap1\n      tag_30\n      jump\t// in\n    tag_71:\n      dup1\n      iszero\n      tag_72\n      jumpi\n      dup1\n      0x1f\n      lt\n      tag_73\n      jumpi\n      0x0100\n      dup1\n      dup4\n      sload\n      div\n      mul\n      dup4\n      mstore\n      swap2\n      0x20\n      add\n      swap2\n      jump(tag_72)\n    tag_73:\n      dup3\n      add\n      swap2\n      swap1\n      0x00\n      mstore\n      keccak256(0x00, 0x20)\n      swap1\n    tag_74:\n      dup2\n      sload\n      dup2\n      mstore\n      swap1\n      0x01\n      add\n      swap1\n      0x20\n      add\n      dup1\n      dup4\n      gt\n      tag_74\n      jumpi\n      dup3\n      swap1\n      sub\n      0x1f\n      and\n      dup3\n      add\n      swap2\n    tag_72:\n      pop\n      pop\n      pop\n      pop\n      pop\n      swap1\n      dup1\n      0x03\n      add\n      dup1\n      sload\n      tag_75\n      swap1\n      tag_30\n      jump\t// in\n    tag_75:\n      dup1\n      0x1f\n      add\n      0x20\n      dup1\n      swap2\n      div\n      mul\n      0x20\n      add\n      mload(0x40)\n      swap1\n      dup2\n      add\n      0x40\n      mstore\n      dup1\n      swap3\n      swap2\n      swap1\n      dup2\n      dup2\n      mstore\n      0x20\n      add\n      dup3\n      dup1\n      sload\n      tag_76\n      swap1\n      tag_30\n      jump\t// in\n    tag_76:\n      dup1\n      iszero\n      tag_77\n      jumpi\n      dup1\n      0x1f\n      lt\n      tag_78\n      jumpi\n      0x0100\n      dup1\n      dup4\n      sload\n      div\n      mul\n      dup4\n      mstore\n      swap2\n      0x20\n      add\n      swap2\n      jump(tag_77)\n    tag_78:\n      dup3\n      add\n      swap2\n      swap1\n      0x00\n      mstore\n      keccak256(0x00, 0x20)\n      swap1\n    tag_79:\n      dup2\n      sload\n      dup2\n      mstore\n      swap1\n      0x01\n      add\n      swap1\n      0x20\n      add\n      dup1\n      dup4\n      gt\n      tag_79\n      jumpi\n      dup3\n      swap1\n      sub\n      0x1f\n      and\n      dup3\n      add\n      swap2\n    tag_77:\n      pop\n      pop\n      pop\n      pop\n      pop\n      swap1\n      dup1\n      0x04\n      add\n      0x00\n      swap1\n      sload\n      swap1\n      0x0100\n      exp\n      swap1\n      div\n      0xffffffffffffffffffffffffffffffffffffffff\n      and\n      swap1\n      pop\n      dup6\n      jump\t// out\n    tag_27:\n      mload(0x40)\n      dup1\n      0xa0\n      add\n      0x40\n      mstore\n      dup1\n      0x00\n      dup2\n      mstore\n      0x20\n      add\n      0x60\n      dup2\n      mstore\n      0x20\n      add\n      0x60\n      dup2\n      mstore\n      0x20\n      add\n      0x60\n      dup2\n      mstore\n      0x20\n      add\n      and(0xffffffffffffffffffffffffffffffffffffffff, 0x00)\n      dup2\n      mstore\n      pop\n      swap1\n      jump\t// out\n        /* \"#utility.yul\":7:82   */\n    tag_80:\n        /* \"#utility.yul\":40:46   */\n      0x00\n        /* \"#utility.yul\":73:75   */\n      0x40\n        /* \"#utility.yul\":67:76   */\n      mload\n        /* \"#utility.yul\":57:76   */\n      swap1\n      pop\n        /* \"#utility.yul\":7:82   */\n      swap1\n      jump\t// out\n        /* \"#utility.yul\":88:205   */\n    tag_81:\n        /* \"#utility.yul\":197:198   */\n      0x00\n        /* \"#utility.yul\":194:195   */\n      0x00\n        /* \"#utility.yul\":187:199   */\n      revert\n        /* \"#utility.yul\":211:328   */\n    tag_82:\n        /* \"#utility.yul\":320:321   */\n      0x00\n        /* \"#utility.yul\":317:318   */\n      0x00\n        /* \"#utility.yul\":310:322   */\n      revert\n        /* \"#utility.yul\":334:411   */\n    tag_83:\n        /* \"#utility.yul\":371:378   */\n      0x00\n        /* \"#utility.yul\":400:405   */\n      dup2\n        /* \"#utility.yul\":389:405   */\n      swap1\n      pop\n        /* \"#utility.yul\":334:411   */\n      swap2\n      swap1\n      pop\n      jump\t// out\n        /* \"#utility.yul\":417:539   */\n    tag_84:\n        /* \"#utility.yul\":490:514   */\n      tag_140\n        /* \"#utility.yul\":508:513   */\n      dup2\n        /* \"#utility.yul\":490:514   */\n      tag_83\n      jump\t// in\n    tag_140:\n        /* \"#utility.yul\":483:488   */\n      dup2\n        /* \"#utility.yul\":480:515   */\n      eq\n        /* \"#utility.yul\":470:533   */\n      tag_141\n      jumpi\n        /* \"#utility.yul\":529:530   */\n      0x00\n        /* \"#utility.yul\":526:527   */\n      0x00\n        /* \"#utility.yul\":519:531   */\n      revert\n        /* \"#utility.yul\":470:533   */\n    tag_141:\n        /* \"#utility.yul\":417:539   */\n      pop\n      jump\t// out\n        /* \"#utility.yul\":545:684   */\n    tag_85:\n        /* \"#utility.yul\":591:596   */\n      0x00\n        /* \"#utility.yul\":629:635   */\n      dup2\n        /* \"#utility.yul\":616:636   */\n      calldataload\n        /* \"#utility.yul\":607:636   */\n      swap1\n      pop\n        /* \"#utility.yul\":645:678   */\n      tag_143\n        /* \"#utility.yul\":672:677   */\n      dup2\n        /* \"#utility.yul\":645:678   */\n      tag_84\n      jump\t// in\n    tag_143:\n        /* \"#utility.yul\":545:684   */\n      swap3\n      swap2\n      pop\n      pop\n      jump\t// out\n        /* \"#utility.yul\":690:1019   */\n    tag_9:\n        /* \"#utility.yul\":749:755   */\n      0x00\n        /* \"#utility.yul\":798:800   */\n      0x20\n        /* \"#utility.yul\":786:795   */\n      dup3\n        /* \"#utility.yul\":777:784   */\n      dup5\n        /* \"#utility.yul\":773:796   */\n      sub\n        /* \"#utility.yul\":769:801   */\n      slt\n        /* \"#utility.yul\":766:885   */\n      iszero\n      tag_145\n      jumpi\n        /* \"#utility.yul\":804:883   */\n      tag_146\n      tag_81\n      jump\t// in\n    tag_146:\n        /* \"#utility.yul\":766:885   */\n    tag_145:\n        /* \"#utility.yul\":924:925   */\n      0x00\n        /* \"#utility.yul\":949:1002   */\n      tag_147\n        /* \"#utility.yul\":994:1001   */\n      dup5\n        /* \"#utility.yul\":985:991   */\n      dup3\n        /* \"#utility.yul\":974:983   */\n      dup6\n        /* \"#utility.yul\":970:992   */\n      add\n        /* \"#utility.yul\":949:1002   */\n      tag_85\n      jump\t// in\n    tag_147:\n        /* \"#utility.yul\":939:1002   */\n      swap2\n      pop\n        /* \"#utility.yul\":895:1012   */\n      pop\n        /* \"#utility.yul\":690:1019   */\n      swap3\n      swap2\n      pop\n      pop\n      jump\t// out\n        /* \"#utility.yul\":1025:1133   */\n    tag_86:\n        /* \"#utility.yul\":1102:1126   */\n      tag_149\n        /* \"#utility.yul\":1120:1125   */\n      dup2\n        /* \"#utility.yul\":1102:1126   */\n      tag_83\n      jump\t// in\n    tag_149:\n        /* \"#utility.yul\":1097:1100   */\n      dup3\n        /* \"#utility.yul\":1090:1127   */\n      mstore\n        /* \"#utility.yul\":1025:1133   */\n      pop\n      pop\n      jump\t// out\n        /* \"#utility.yul\":1139:1238   */\n    tag_87:\n        /* \"#utility.yul\":1191:1197   */\n      0x00\n        /* \"#utility.yul\":1225:1230   */\n      dup2\n        /* \"#utility.yul\":1219:1231   */\n      mload\n        /* \"#utility.yul\":1209:1231   */\n      swap1\n      pop\n        /* \"#utility.yul\":1139:1238   */\n      swap2\n      swap1\n      pop\n      jump\t// out\n        /* \"#utility.yul\":1244:1403   */\n    tag_88:\n        /* \"#utility.yul\":1318:1329   */\n      0x00\n        /* \"#utility.yul\":1352:1358   */\n      dup3\n        /* \"#utility.yul\":1347:1350   */\n      dup3\n        /* \"#utility.yul\":1340:1359   */\n      mstore\n        /* \"#utility.yul\":1392:1396   */\n      0x20\n        /* \"#utility.yul\":1387:1390   */\n      dup3\n        /* \"#utility.yul\":1383:1397   */\n      add\n        /* \"#utility.yul\":1368:1397   */\n      swap1\n      pop\n        /* \"#utility.yul\":1244:1403   */\n      swap3\n      swap2\n      pop\n      pop\n      jump\t// out\n        /* \"#utility.yul\":1409:1548   */\n    tag_89:\n        /* \"#utility.yul\":1498:1504   */\n      dup3\n        /* \"#utility.yul\":1493:1496   */\n      dup2\n        /* \"#utility.yul\":1488:1491   */\n      dup4\n        /* \"#utility.yul\":1482:1505   */\n      mcopy\n        /* \"#utility.yul\":1539:1540   */\n      0x00\n        /* \"#utility.yul\":1530:1536   */\n      dup4\n        /* \"#utility.yul\":1525:1528   */\n      dup4\n        /* \"#utility.yul\":1521:1537   */\n      add\n        /* \"#utility.yul\":1514:1541   */\n      mstore\n        /* \"#utility.yul\":1409:1548   */\n      pop\n      pop\n      pop\n      jump\t// out\n        /* \"#utility.yul\":1554:1656   */\n    tag_90:\n        /* \"#utility.yul\":1595:1601   */\n      0x00\n        /* \"#utility.yul\":1646:1648   */\n      0x1f\n        /* \"#utility.yul\":1642:1649   */\n      not\n        /* \"#utility.yul\":1637:1639   */\n      0x1f\n        /* \"#utility.yul\":1630:1635   */\n      dup4\n        /* \"#utility.yul\":1626:1640   */\n      add\n        /* \"#utility.yul\":1622:1650   */\n      and\n        /* \"#utility.yul\":1612:1650   */\n      swap1\n      pop\n        /* \"#utility.yul\":1554:1656   */\n      swap2\n      swap1\n      pop\n      jump\t// out\n        /* \"#utility.yul\":1662:2019   */\n    tag_91:\n        /* \"#utility.yul\":1740:1743   */\n      0x00\n        /* \"#utility.yul\":1768:1807   */\n      tag_155\n        /* \"#utility.yul\":1801:1806   */\n      dup3\n        /* \"#utility.yul\":1768:1807   */\n      tag_87\n      jump\t// in\n    tag_155:\n        /* \"#utility.yul\":1823:1884   */\n      tag_156\n        /* \"#utility.yul\":1877:1883   */\n      dup2\n        /* \"#utility.yul\":1872:1875   */\n      dup6\n        /* \"#utility.yul\":1823:1884   */\n      tag_88\n      jump\t// in\n    tag_156:\n        /* \"#utility.yul\":1816:1884   */\n      swap4\n      pop\n        /* \"#utility.yul\":1893:1958   */\n      tag_157\n        /* \"#utility.yul\":1951:1957   */\n      dup2\n        /* \"#utility.yul\":1946:1949   */\n      dup6\n        /* \"#utility.yul\":1939:1943   */\n      0x20\n        /* \"#utility.yul\":1932:1937   */\n      dup7\n        /* \"#utility.yul\":1928:1944   */\n      add\n        /* \"#utility.yul\":1893:1958   */\n      tag_89\n      jump\t// in\n    tag_157:\n        /* \"#utility.yul\":1983:2012   */\n      tag_158\n        /* \"#utility.yul\":2005:2011   */\n      dup2\n        /* \"#utility.yul\":1983:2012   */\n      tag_90\n      jump\t// in\n    tag_158:\n        /* \"#utility.yul\":1978:1981   */\n      dup5\n        /* \"#utility.yul\":1974:2013   */\n      add\n        /* \"#utility.yul\":1967:2013   */\n      swap2\n      pop\n        /* \"#utility.yul\":1744:2019   */\n      pop\n        /* \"#utility.yul\":1662:2019   */\n      swap3\n      swap2\n      pop\n      pop\n      jump\t// out\n        /* \"#utility.yul\":2025:2151   */\n    tag_92:\n        /* \"#utility.yul\":2062:2069   */\n      0x00\n        /* \"#utility.yul\":2102:2144   */\n      0xffffffffffffffffffffffffffffffffffffffff\n        /* \"#utility.yul\":2095:2100   */\n      dup3\n        /* \"#utility.yul\":2091:2145   */\n      and\n        /* \"#utility.yul\":2080:2145   */\n      swap1\n      pop\n        /* \"#utility.yul\":2025:2151   */\n      swap2\n      swap1\n      pop\n      jump\t// out\n        /* \"#utility.yul\":2157:2253   */\n    tag_93:\n        /* \"#utility.yul\":2194:2201   */\n      0x00\n        /* \"#utility.yul\":2223:2247   */\n      tag_161\n        /* \"#utility.yul\":2241:2246   */\n      dup3\n        /* \"#utility.yul\":2223:2247   */\n      tag_92\n      jump\t// in\n    tag_161:\n        /* \"#utility.yul\":2212:2247   */\n      swap1\n      pop\n        /* \"#utility.yul\":2157:2253   */\n      swap2\n      swap1\n      pop\n      jump\t// out\n        /* \"#utility.yul\":2259:2367   */\n    tag_94:\n        /* \"#utility.yul\":2336:2360   */\n      tag_163\n        /* \"#utility.yul\":2354:2359   */\n      dup2\n        /* \"#utility.yul\":2336:2360   */\n      tag_93\n      jump\t// in\n    tag_163:\n        /* \"#utility.yul\":2331:2334   */\n      dup3\n        /* \"#utility.yul\":2324:2361   */\n      mstore\n        /* \"#utility.yul\":2259:2367   */\n      pop\n      pop\n      jump\t// out\n        /* \"#utility.yul\":2441:3724   */\n    tag_95:\n        /* \"#utility.yul\":2558:2561   */\n      0x00\n        /* \"#utility.yul\":2594:2598   */\n      0xa0\n        /* \"#utility.yul\":2589:2592   */\n      dup4\n        /* \"#utility.yul\":2585:2599   */\n      add\n        /* \"#utility.yul\":2685:2689   */\n      0x00\n        /* \"#utility.yul\":2678:2683   */\n      dup4\n        /* \"#utility.yul\":2674:2690   */\n      add\n        /* \"#utility.yul\":2668:2691   */\n      mload\n        /* \"#utility.yul\":2704:2767   */\n      tag_165\n        /* \"#utility.yul\":2761:2765   */\n      0x00\n        /* \"#utility.yul\":2756:2759   */\n      dup7\n        /* \"#utility.yul\":2752:2766   */\n      add\n        /* \"#utility.yul\":2738:2750   */\n      dup3\n        /* \"#utility.yul\":2704:2767   */\n      tag_86\n      jump\t// in\n    tag_165:\n        /* \"#utility.yul\":2609:2777   */\n      pop\n        /* \"#utility.yul\":2859:2863   */\n      0x20\n        /* \"#utility.yul\":2852:2857   */\n      dup4\n        /* \"#utility.yul\":2848:2864   */\n      add\n        /* \"#utility.yul\":2842:2865   */\n      mload\n        /* \"#utility.yul\":2912:2915   */\n      dup5\n        /* \"#utility.yul\":2906:2910   */\n      dup3\n        /* \"#utility.yul\":2902:2916   */\n      sub\n        /* \"#utility.yul\":2895:2899   */\n      0x20\n        /* \"#utility.yul\":2890:2893   */\n      dup7\n        /* \"#utility.yul\":2886:2900   */\n      add\n        /* \"#utility.yul\":2879:2917   */\n      mstore\n        /* \"#utility.yul\":2938:3011   */\n      tag_166\n        /* \"#utility.yul\":3006:3010   */\n      dup3\n        /* \"#utility.yul\":2992:3004   */\n      dup3\n        /* \"#utility.yul\":2938:3011   */\n      tag_91\n      jump\t// in\n    tag_166:\n        /* \"#utility.yul\":2930:3011   */\n      swap2\n      pop\n        /* \"#utility.yul\":2787:3022   */\n      pop\n        /* \"#utility.yul\":3107:3111   */\n      0x40\n        /* \"#utility.yul\":3100:3105   */\n      dup4\n        /* \"#utility.yul\":3096:3112   */\n      add\n        /* \"#utility.yul\":3090:3113   */\n      mload\n        /* \"#utility.yul\":3160:3163   */\n      dup5\n        /* \"#utility.yul\":3154:3158   */\n      dup3\n        /* \"#utility.yul\":3150:3164   */\n      sub\n        /* \"#utility.yul\":3143:3147   */\n      0x40\n        /* \"#utility.yul\":3138:3141   */\n      dup7\n        /* \"#utility.yul\":3134:3148   */\n      add\n        /* \"#utility.yul\":3127:3165   */\n      mstore\n        /* \"#utility.yul\":3186:3259   */\n      tag_167\n        /* \"#utility.yul\":3254:3258   */\n      dup3\n        /* \"#utility.yul\":3240:3252   */\n      dup3\n        /* \"#utility.yul\":3186:3259   */\n      tag_91\n      jump\t// in\n    tag_167:\n        /* \"#utility.yul\":3178:3259   */\n      swap2\n      pop\n        /* \"#utility.yul\":3032:3270   */\n      pop\n        /* \"#utility.yul\":3356:3360   */\n      0x60\n        /* \"#utility.yul\":3349:3354   */\n      dup4\n        /* \"#utility.yul\":3345:3361   */\n      add\n        /* \"#utility.yul\":3339:3362   */\n      mload\n        /* \"#utility.yul\":3409:3412   */\n      dup5\n        /* \"#utility.yul\":3403:3407   */\n      dup3\n        /* \"#utility.yul\":3399:3413   */\n      sub\n        /* \"#utility.yul\":3392:3396   */\n      0x60\n        /* \"#utility.yul\":3387:3390   */\n      dup7\n        /* \"#utility.yul\":3383:3397   */\n      add\n        /* \"#utility.yul\":3376:3414   */\n      mstore\n        /* \"#utility.yul\":3435:3508   */\n      tag_168\n        /* \"#utility.yul\":3503:3507   */\n      dup3\n        /* \"#utility.yul\":3489:3501   */\n      dup3\n        /* \"#utility.yul\":3435:3508   */\n      tag_91\n      jump\t// in\n    tag_168:\n        /* \"#utility.yul\":3427:3508   */\n      swap2\n      pop\n        /* \"#utility.yul\":3280:3519   */\n      pop\n        /* \"#utility.yul\":3605:3609   */\n      0x80\n        /* \"#utility.yul\":3598:3603   */\n      dup4\n        /* \"#utility.yul\":3594:3610   */\n      add\n        /* \"#utility.yul\":3588:3611   */\n      mload\n        /* \"#utility.yul\":3624:3687   */\n      tag_169\n        /* \"#utility.yul\":3681:3685   */\n      0x80\n        /* \"#utility.yul\":3676:3679   */\n      dup7\n        /* \"#utility.yul\":3672:3686   */\n      add\n        /* \"#utility.yul\":3658:3670   */\n      dup3\n        /* \"#utility.yul\":3624:3687   */\n      tag_94\n      jump\t// in\n    tag_169:\n        /* \"#utility.yul\":3529:3697   */\n      pop\n        /* \"#utility.yul\":3714:3718   */\n      dup1\n        /* \"#utility.yul\":3707:3718   */\n      swap2\n      pop\n        /* \"#utility.yul\":2563:3724   */\n      pop\n        /* \"#utility.yul\":2441:3724   */\n      swap3\n      swap2\n      pop\n      pop\n      jump\t// out\n        /* \"#utility.yul\":3730:4099   */\n    tag_12:\n        /* \"#utility.yul\":3871:3875   */\n      0x00\n        /* \"#utility.yul\":3909:3911   */\n      0x20\n        /* \"#utility.yul\":3898:3907   */\n      dup3\n        /* \"#utility.yul\":3894:3912   */\n      add\n        /* \"#utility.yul\":3886:3912   */\n      swap1\n      pop\n        /* \"#utility.yul\":3958:3967   */\n      dup2\n        /* \"#utility.yul\":3952:3956   */\n      dup2\n        /* \"#utility.yul\":3948:3968   */\n      sub\n        /* \"#utility.yul\":3944:3945   */\n      0x00\n        /* \"#utility.yul\":3933:3942   */\n      dup4\n        /* \"#utility.yul\":3929:3946   */\n      add\n        /* \"#utility.yul\":3922:3969   */\n      mstore\n        /* \"#utility.yul\":3986:4092   */\n      tag_171\n        /* \"#utility.yul\":4087:4091   */\n      dup2\n        /* \"#utility.yul\":4078:4084   */\n      dup5\n        /* \"#utility.yul\":3986:4092   */\n      tag_95\n      jump\t// in\n    tag_171:\n        /* \"#utility.yul\":3978:4092   */\n      swap1\n      pop\n        /* \"#utility.yul\":3730:4099   */\n      swap3\n      swap2\n      pop\n      pop\n      jump\t// out\n        /* \"#utility.yul\":4105:4223   */\n    tag_96:\n        /* \"#utility.yul\":4192:4216   */\n      tag_173\n        /* \"#utility.yul\":4210:4215   */\n      dup2\n        /* \"#utility.yul\":4192:4216   */\n      tag_83\n      jump\t// in\n    tag_173:\n        /* \"#utility.yul\":4187:4190   */\n      dup3\n        /* \"#utility.yul\":4180:4217   */\n      mstore\n        /* \"#utility.yul\":4105:4223   */\n      pop\n      pop\n      jump\t// out\n        /* \"#utility.yul\":4229:4451   */\n    tag_16:\n        /* \"#utility.yul\":4322:4326   */\n      0x00\n        /* \"#utility.yul\":4360:4362   */\n      0x20\n        /* \"#utility.yul\":4349:4358   */\n      dup3\n        /* \"#utility.yul\":4345:4363   */\n      add\n        /* \"#utility.yul\":4337:4363   */\n      swap1\n      pop\n        /* \"#utility.yul\":4373:4444   */\n      tag_175\n        /* \"#utility.yul\":4441:4442   */\n      0x00\n        /* \"#utility.yul\":4430:4439   */\n      dup4\n        /* \"#utility.yul\":4426:4443   */\n      add\n        /* \"#utility.yul\":4417:4423   */\n      dup5\n        /* \"#utility.yul\":4373:4444   */\n      tag_96\n      jump\t// in\n    tag_175:\n        /* \"#utility.yul\":4229:4451   */\n      swap3\n      swap2\n      pop\n      pop\n      jump\t// out\n        /* \"#utility.yul\":4457:4574   */\n    tag_97:\n        /* \"#utility.yul\":4566:4567   */\n      0x00\n        /* \"#utility.yul\":4563:4564   */\n      0x00\n        /* \"#utility.yul\":4556:4568   */\n      revert\n        /* \"#utility.yul\":4580:4697   */\n    tag_98:\n        /* \"#utility.yul\":4689:4690   */\n      0x00\n        /* \"#utility.yul\":4686:4687   */\n      0x00\n        /* \"#utility.yul\":4679:4691   */\n      revert\n        /* \"#utility.yul\":4703:4883   */\n    tag_99:\n        /* \"#utility.yul\":4751:4828   */\n      0x4e487b7100000000000000000000000000000000000000000000000000000000\n        /* \"#utility.yul\":4748:4749   */\n      0x00\n        /* \"#utility.yul\":4741:4829   */\n      mstore\n        /* \"#utility.yul\":4848:4852   */\n      0x41\n        /* \"#utility.yul\":4845:4846   */\n      0x04\n        /* \"#utility.yul\":4838:4853   */\n      mstore\n        /* \"#utility.yul\":4872:4876   */\n      0x24\n        /* \"#utility.yul\":4869:4870   */\n      0x00\n        /* \"#utility.yul\":4862:4877   */\n      revert\n        /* \"#utility.yul\":4889:5170   */\n    tag_100:\n        /* \"#utility.yul\":4972:4999   */\n      tag_180\n        /* \"#utility.yul\":4994:4998   */\n      dup3\n        /* \"#utility.yul\":4972:4999   */\n      tag_90\n      jump\t// in\n    tag_180:\n        /* \"#utility.yul\":4964:4970   */\n      dup2\n        /* \"#utility.yul\":4960:5000   */\n      add\n        /* \"#utility.yul\":5102:5108   */\n      dup2\n        /* \"#utility.yul\":5090:5100   */\n      dup2\n        /* \"#utility.yul\":5087:5109   */\n      lt\n        /* \"#utility.yul\":5066:5084   */\n      0xffffffffffffffff\n        /* \"#utility.yul\":5054:5064   */\n      dup3\n        /* \"#utility.yul\":5051:5085   */\n      gt\n        /* \"#utility.yul\":5048:5110   */\n      or\n        /* \"#utility.yul\":5045:5133   */\n      iszero\n      tag_181\n      jumpi\n        /* \"#utility.yul\":5113:5131   */\n      tag_182\n      tag_99\n      jump\t// in\n    tag_182:\n        /* \"#utility.yul\":5045:5133   */\n    tag_181:\n        /* \"#utility.yul\":5153:5163   */\n      dup1\n        /* \"#utility.yul\":5149:5151   */\n      0x40\n        /* \"#utility.yul\":5142:5164   */\n      mstore\n        /* \"#utility.yul\":4932:5170   */\n      pop\n        /* \"#utility.yul\":4889:5170   */\n      pop\n      pop\n      jump\t// out\n        /* \"#utility.yul\":5176:5305   */\n    tag_101:\n        /* \"#utility.yul\":5210:5216   */\n      0x00\n        /* \"#utility.yul\":5237:5257   */\n      tag_184\n      tag_80\n      jump\t// in\n    tag_184:\n        /* \"#utility.yul\":5227:5257   */\n      swap1\n      pop\n        /* \"#utility.yul\":5266:5299   */\n      tag_185\n        /* \"#utility.yul\":5294:5298   */\n      dup3\n        /* \"#utility.yul\":5286:5292   */\n      dup3\n        /* \"#utility.yul\":5266:5299   */\n      tag_100\n      jump\t// in\n    tag_185:\n        /* \"#utility.yul\":5176:5305   */\n      swap2\n      swap1\n      pop\n      jump\t// out\n        /* \"#utility.yul\":5311:5619   */\n    tag_102:\n        /* \"#utility.yul\":5373:5377   */\n      0x00\n        /* \"#utility.yul\":5463:5481   */\n      0xffffffffffffffff\n        /* \"#utility.yul\":5455:5461   */\n      dup3\n        /* \"#utility.yul\":5452:5482   */\n      gt\n        /* \"#utility.yul\":5449:5505   */\n      iszero\n      tag_187\n      jumpi\n        /* \"#utility.yul\":5485:5503   */\n      tag_188\n      tag_99\n      jump\t// in\n    tag_188:\n        /* \"#utility.yul\":5449:5505   */\n    tag_187:\n        /* \"#utility.yul\":5523:5552   */\n      tag_189\n        /* \"#utility.yul\":5545:5551   */\n      dup3\n        /* \"#utility.yul\":5523:5552   */\n      tag_90\n      jump\t// in\n    tag_189:\n        /* \"#utility.yul\":5515:5552   */\n      swap1\n      pop\n        /* \"#utility.yul\":5607:5611   */\n      0x20\n        /* \"#utility.yul\":5601:5605   */\n      dup2\n        /* \"#utility.yul\":5597:5612   */\n      add\n        /* \"#utility.yul\":5589:5612   */\n      swap1\n      pop\n        /* \"#utility.yul\":5311:5619   */\n      swap2\n      swap1\n      pop\n      jump\t// out\n        /* \"#utility.yul\":5625:5773   */\n    tag_103:\n        /* \"#utility.yul\":5723:5729   */\n      dup3\n        /* \"#utility.yul\":5718:5721   */\n      dup2\n        /* \"#utility.yul\":5713:5716   */\n      dup4\n        /* \"#utility.yul\":5700:5730   */\n      calldatacopy\n        /* \"#utility.yul\":5764:5765   */\n      0x00\n        /* \"#utility.yul\":5755:5761   */\n      dup4\n        /* \"#utility.yul\":5750:5753   */\n      dup4\n        /* \"#utility.yul\":5746:5762   */\n      add\n        /* \"#utility.yul\":5739:5766   */\n      mstore\n        /* \"#utility.yul\":5625:5773   */\n      pop\n      pop\n      pop\n      jump\t// out\n        /* \"#utility.yul\":5779:6204   */\n    tag_104:\n        /* \"#utility.yul\":5857:5862   */\n      0x00\n        /* \"#utility.yul\":5882:5948   */\n      tag_192\n        /* \"#utility.yul\":5898:5947   */\n      tag_193\n        /* \"#utility.yul\":5940:5946   */\n      dup5\n        /* \"#utility.yul\":5898:5947   */\n      tag_102\n      jump\t// in\n    tag_193:\n        /* \"#utility.yul\":5882:5948   */\n      tag_101\n      jump\t// in\n    tag_192:\n        /* \"#utility.yul\":5873:5948   */\n      swap1\n      pop\n        /* \"#utility.yul\":5971:5977   */\n      dup3\n        /* \"#utility.yul\":5964:5969   */\n      dup2\n        /* \"#utility.yul\":5957:5978   */\n      mstore\n        /* \"#utility.yul\":6009:6013   */\n      0x20\n        /* \"#utility.yul\":6002:6007   */\n      dup2\n        /* \"#utility.yul\":5998:6014   */\n      add\n        /* \"#utility.yul\":6047:6050   */\n      dup5\n        /* \"#utility.yul\":6038:6044   */\n      dup5\n        /* \"#utility.yul\":6033:6036   */\n      dup5\n        /* \"#utility.yul\":6029:6045   */\n      add\n        /* \"#utility.yul\":6026:6051   */\n      gt\n        /* \"#utility.yul\":6023:6135   */\n      iszero\n      tag_194\n      jumpi\n        /* \"#utility.yul\":6054:6133   */\n      tag_195\n      tag_98\n      jump\t// in\n    tag_195:\n        /* \"#utility.yul\":6023:6135   */\n    tag_194:\n        /* \"#utility.yul\":6144:6198   */\n      tag_196\n        /* \"#utility.yul\":6191:6197   */\n      dup5\n        /* \"#utility.yul\":6186:6189   */\n      dup3\n        /* \"#utility.yul\":6181:6184   */\n      dup6\n        /* \"#utility.yul\":6144:6198   */\n      tag_103\n      jump\t// in\n    tag_196:\n        /* \"#utility.yul\":5863:6204   */\n      pop\n        /* \"#utility.yul\":5779:6204   */\n      swap4\n      swap3\n      pop\n      pop\n      pop\n      jump\t// out\n        /* \"#utility.yul\":6224:6564   */\n    tag_105:\n        /* \"#utility.yul\":6280:6285   */\n      0x00\n        /* \"#utility.yul\":6329:6332   */\n      dup3\n        /* \"#utility.yul\":6322:6326   */\n      0x1f\n        /* \"#utility.yul\":6314:6320   */\n      dup4\n        /* \"#utility.yul\":6310:6327   */\n      add\n        /* \"#utility.yul\":6306:6333   */\n      slt\n        /* \"#utility.yul\":6296:6418   */\n      tag_198\n      jumpi\n        /* \"#utility.yul\":6337:6416   */\n      tag_199\n      tag_97\n      jump\t// in\n    tag_199:\n        /* \"#utility.yul\":6296:6418   */\n    tag_198:\n        /* \"#utility.yul\":6454:6460   */\n      dup2\n        /* \"#utility.yul\":6441:6461   */\n      calldataload\n        /* \"#utility.yul\":6479:6558   */\n      tag_200\n        /* \"#utility.yul\":6554:6557   */\n      dup5\n        /* \"#utility.yul\":6546:6552   */\n      dup3\n        /* \"#utility.yul\":6539:6543   */\n      0x20\n        /* \"#utility.yul\":6531:6537   */\n      dup7\n        /* \"#utility.yul\":6527:6544   */\n      add\n        /* \"#utility.yul\":6479:6558   */\n      tag_104\n      jump\t// in\n    tag_200:\n        /* \"#utility.yul\":6470:6558   */\n      swap2\n      pop\n        /* \"#utility.yul\":6286:6564   */\n      pop\n        /* \"#utility.yul\":6224:6564   */\n      swap3\n      swap2\n      pop\n      pop\n      jump\t// out\n        /* \"#utility.yul\":6570:7729   */\n    tag_19:\n        /* \"#utility.yul\":6677:6683   */\n      0x00\n        /* \"#utility.yul\":6685:6691   */\n      0x00\n        /* \"#utility.yul\":6693:6699   */\n      0x00\n        /* \"#utility.yul\":6742:6744   */\n      0x60\n        /* \"#utility.yul\":6730:6739   */\n      dup5\n        /* \"#utility.yul\":6721:6728   */\n      dup7\n        /* \"#utility.yul\":6717:6740   */\n      sub\n        /* \"#utility.yul\":6713:6745   */\n      slt\n        /* \"#utility.yul\":6710:6829   */\n      iszero\n      tag_202\n      jumpi\n        /* \"#utility.yul\":6748:6827   */\n      tag_203\n      tag_81\n      jump\t// in\n    tag_203:\n        /* \"#utility.yul\":6710:6829   */\n    tag_202:\n        /* \"#utility.yul\":6896:6897   */\n      0x00\n        /* \"#utility.yul\":6885:6894   */\n      dup5\n        /* \"#utility.yul\":6881:6898   */\n      add\n        /* \"#utility.yul\":6868:6899   */\n      calldataload\n        /* \"#utility.yul\":6926:6944   */\n      0xffffffffffffffff\n        /* \"#utility.yul\":6918:6924   */\n      dup2\n        /* \"#utility.yul\":6915:6945   */\n      gt\n        /* \"#utility.yul\":6912:7029   */\n      iszero\n      tag_204\n      jumpi\n        /* \"#utility.yul\":6948:7027   */\n      tag_205\n      tag_82\n      jump\t// in\n    tag_205:\n        /* \"#utility.yul\":6912:7029   */\n    tag_204:\n        /* \"#utility.yul\":7053:7116   */\n      tag_206\n        /* \"#utility.yul\":7108:7115   */\n      dup7\n        /* \"#utility.yul\":7099:7105   */\n      dup3\n        /* \"#utility.yul\":7088:7097   */\n      dup8\n        /* \"#utility.yul\":7084:7106   */\n      add\n        /* \"#utility.yul\":7053:7116   */\n      tag_105\n      jump\t// in\n    tag_206:\n        /* \"#utility.yul\":7043:7116   */\n      swap4\n      pop\n        /* \"#utility.yul\":6839:7126   */\n      pop\n        /* \"#utility.yul\":7193:7195   */\n      0x20\n        /* \"#utility.yul\":7182:7191   */\n      dup5\n        /* \"#utility.yul\":7178:7196   */\n      add\n        /* \"#utility.yul\":7165:7197   */\n      calldataload\n        /* \"#utility.yul\":7224:7242   */\n      0xffffffffffffffff\n        /* \"#utility.yul\":7216:7222   */\n      dup2\n        /* \"#utility.yul\":7213:7243   */\n      gt\n        /* \"#utility.yul\":7210:7327   */\n      iszero\n      tag_207\n      jumpi\n        /* \"#utility.yul\":7246:7325   */\n      tag_208\n      tag_82\n      jump\t// in\n    tag_208:\n        /* \"#utility.yul\":7210:7327   */\n    tag_207:\n        /* \"#utility.yul\":7351:7414   */\n      tag_209\n        /* \"#utility.yul\":7406:7413   */\n      dup7\n        /* \"#utility.yul\":7397:7403   */\n      dup3\n        /* \"#utility.yul\":7386:7395   */\n      dup8\n        /* \"#utility.yul\":7382:7404   */\n      add\n        /* \"#utility.yul\":7351:7414   */\n      tag_105\n      jump\t// in\n    tag_209:\n        /* \"#utility.yul\":7341:7414   */\n      swap3\n      pop\n        /* \"#utility.yul\":7136:7424   */\n      pop\n        /* \"#utility.yul\":7491:7493   */\n      0x40\n        /* \"#utility.yul\":7480:7489   */\n      dup5\n        /* \"#utility.yul\":7476:7494   */\n      add\n        /* \"#utility.yul\":7463:7495   */\n      calldataload\n        /* \"#utility.yul\":7522:7540   */\n      0xffffffffffffffff\n        /* \"#utility.yul\":7514:7520   */\n      dup2\n        /* \"#utility.yul\":7511:7541   */\n      gt\n        /* \"#utility.yul\":7508:7625   */\n      iszero\n      tag_210\n      jumpi\n        /* \"#utility.yul\":7544:7623   */\n      tag_211\n      tag_82\n      jump\t// in\n    tag_211:\n        /* \"#utility.yul\":7508:7625   */\n    tag_210:\n        /* \"#utility.yul\":7649:7712   */\n      tag_212\n        /* \"#utility.yul\":7704:7711   */\n      dup7\n        /* \"#utility.yul\":7695:7701   */\n      dup3\n        /* \"#utility.yul\":7684:7693   */\n      dup8\n        /* \"#utility.yul\":7680:7702   */\n      add\n        /* \"#utility.yul\":7649:7712   */\n      tag_105\n      jump\t// in\n    tag_212:\n        /* \"#utility.yul\":7639:7712   */\n      swap2\n      pop\n        /* \"#utility.yul\":7434:7722   */\n      pop\n        /* \"#utility.yul\":6570:7729   */\n      swap3\n      pop\n      swap3\n      pop\n      swap3\n      jump\t// out\n        /* \"#utility.yul\":7735:7904   */\n    tag_106:\n        /* \"#utility.yul\":7819:7830   */\n      0x00\n        /* \"#utility.yul\":7853:7859   */\n      dup3\n        /* \"#utility.yul\":7848:7851   */\n      dup3\n        /* \"#utility.yul\":7841:7860   */\n      mstore\n        /* \"#utility.yul\":7893:7897   */\n      0x20\n        /* \"#utility.yul\":7888:7891   */\n      dup3\n        /* \"#utility.yul\":7884:7898   */\n      add\n        /* \"#utility.yul\":7869:7898   */\n      swap1\n      pop\n        /* \"#utility.yul\":7735:7904   */\n      swap3\n      swap2\n      pop\n      pop\n      jump\t// out\n        /* \"#utility.yul\":7910:8287   */\n    tag_107:\n        /* \"#utility.yul\":7998:8001   */\n      0x00\n        /* \"#utility.yul\":8026:8065   */\n      tag_215\n        /* \"#utility.yul\":8059:8064   */\n      dup3\n        /* \"#utility.yul\":8026:8065   */\n      tag_87\n      jump\t// in\n    tag_215:\n        /* \"#utility.yul\":8081:8152   */\n      tag_216\n        /* \"#utility.yul\":8145:8151   */\n      dup2\n        /* \"#utility.yul\":8140:8143   */\n      dup6\n        /* \"#utility.yul\":8081:8152   */\n      tag_106\n      jump\t// in\n    tag_216:\n        /* \"#utility.yul\":8074:8152   */\n      swap4\n      pop\n        /* \"#utility.yul\":8161:8226   */\n      tag_217\n        /* \"#utility.yul\":8219:8225   */\n      dup2\n        /* \"#utility.yul\":8214:8217   */\n      dup6\n        /* \"#utility.yul\":8207:8211   */\n      0x20\n        /* \"#utility.yul\":8200:8205   */\n      dup7\n        /* \"#utility.yul\":8196:8212   */\n      add\n        /* \"#utility.yul\":8161:8226   */\n      tag_89\n      jump\t// in\n    tag_217:\n        /* \"#utility.yul\":8251:8280   */\n      tag_218\n        /* \"#utility.yul\":8273:8279   */\n      dup2\n        /* \"#utility.yul\":8251:8280   */\n      tag_90\n      jump\t// in\n    tag_218:\n        /* \"#utility.yul\":8246:8249   */\n      dup5\n        /* \"#utility.yul\":8242:8281   */\n      add\n        /* \"#utility.yul\":8235:8281   */\n      swap2\n      pop\n        /* \"#utility.yul\":8002:8287   */\n      pop\n        /* \"#utility.yul\":7910:8287   */\n      swap3\n      swap2\n      pop\n      pop\n      jump\t// out\n        /* \"#utility.yul\":8293:8411   */\n    tag_108:\n        /* \"#utility.yul\":8380:8404   */\n      tag_220\n        /* \"#utility.yul\":8398:8403   */\n      dup2\n        /* \"#utility.yul\":8380:8404   */\n      tag_93\n      jump\t// in\n    tag_220:\n        /* \"#utility.yul\":8375:8378   */\n      dup3\n        /* \"#utility.yul\":8368:8405   */\n      mstore\n        /* \"#utility.yul\":8293:8411   */\n      pop\n      pop\n      jump\t// out\n        /* \"#utility.yul\":8417:9354   */\n    tag_25:\n        /* \"#utility.yul\":8682:8686   */\n      0x00\n        /* \"#utility.yul\":8720:8723   */\n      0xa0\n        /* \"#utility.yul\":8709:8718   */\n      dup3\n        /* \"#utility.yul\":8705:8724   */\n      add\n        /* \"#utility.yul\":8697:8724   */\n      swap1\n      pop\n        /* \"#utility.yul\":8734:8805   */\n      tag_222\n        /* \"#utility.yul\":8802:8803   */\n      0x00\n        /* \"#utility.yul\":8791:8800   */\n      dup4\n        /* \"#utility.yul\":8787:8804   */\n      add\n        /* \"#utility.yul\":8778:8784   */\n      dup9\n        /* \"#utility.yul\":8734:8805   */\n      tag_96\n      jump\t// in\n    tag_222:\n        /* \"#utility.yul\":8852:8861   */\n      dup2\n        /* \"#utility.yul\":8846:8850   */\n      dup2\n        /* \"#utility.yul\":8842:8862   */\n      sub\n        /* \"#utility.yul\":8837:8839   */\n      0x20\n        /* \"#utility.yul\":8826:8835   */\n      dup4\n        /* \"#utility.yul\":8822:8840   */\n      add\n        /* \"#utility.yul\":8815:8863   */\n      mstore\n        /* \"#utility.yul\":8880:8958   */\n      tag_223\n        /* \"#utility.yul\":8953:8957   */\n      dup2\n        /* \"#utility.yul\":8944:8950   */\n      dup8\n        /* \"#utility.yul\":8880:8958   */\n      tag_107\n      jump\t// in\n    tag_223:\n        /* \"#utility.yul\":8872:8958   */\n      swap1\n      pop\n        /* \"#utility.yul\":9005:9014   */\n      dup2\n        /* \"#utility.yul\":8999:9003   */\n      dup2\n        /* \"#utility.yul\":8995:9015   */\n      sub\n        /* \"#utility.yul\":8990:8992   */\n      0x40\n        /* \"#utility.yul\":8979:8988   */\n      dup4\n        /* \"#utility.yul\":8975:8993   */\n      add\n        /* \"#utility.yul\":8968:9016   */\n      mstore\n        /* \"#utility.yul\":9033:9111   */\n      tag_224\n        /* \"#utility.yul\":9106:9110   */\n      dup2\n        /* \"#utility.yul\":9097:9103   */\n      dup7\n        /* \"#utility.yul\":9033:9111   */\n      tag_107\n      jump\t// in\n    tag_224:\n        /* \"#utility.yul\":9025:9111   */\n      swap1\n      pop\n        /* \"#utility.yul\":9158:9167   */\n      dup2\n        /* \"#utility.yul\":9152:9156   */\n      dup2\n        /* \"#utility.yul\":9148:9168   */\n      sub\n        /* \"#utility.yul\":9143:9145   */\n      0x60\n        /* \"#utility.yul\":9132:9141   */\n      dup4\n        /* \"#utility.yul\":9128:9146   */\n      add\n        /* \"#utility.yul\":9121:9169   */\n      mstore\n        /* \"#utility.yul\":9186:9264   */\n      tag_225\n        /* \"#utility.yul\":9259:9263   */\n      dup2\n        /* \"#utility.yul\":9250:9256   */\n      dup6\n        /* \"#utility.yul\":9186:9264   */\n      tag_107\n      jump\t// in\n    tag_225:\n        /* \"#utility.yul\":9178:9264   */\n      swap1\n      pop\n        /* \"#utility.yul\":9274:9347   */\n      tag_226\n        /* \"#utility.yul\":9342:9345   */\n      0x80\n        /* \"#utility.yul\":9331:9340   */\n      dup4\n        /* \"#utility.yul\":9327:9346   */\n      add\n        /* \"#utility.yul\":9318:9324   */\n      dup5\n        /* \"#utility.yul\":9274:9347   */\n      tag_108\n      jump\t// in\n    tag_226:\n        /* \"#utility.yul\":8417:9354   */\n      swap7\n      swap6\n      pop\n      pop\n      pop\n      pop\n      pop\n      pop\n      jump\t// out\n        /* \"#utility.yul\":9360:9540   */\n    tag_109:\n        /* \"#utility.yul\":9408:9485   */\n      0x4e487b7100000000000000000000000000000000000000000000000000000000\n        /* \"#utility.yul\":9405:9406   */\n      0x00\n        /* \"#utility.yul\":9398:9486   */\n      mstore\n        /* \"#utility.yul\":9505:9509   */\n      0x22\n        /* \"#utility.yul\":9502:9503   */\n      0x04\n        /* \"#utility.yul\":9495:9510   */\n      mstore\n        /* \"#utility.yul\":9529:9533   */\n      0x24\n        /* \"#utility.yul\":9526:9527   */\n      0x00\n        /* \"#utility.yul\":9519:9534   */\n      revert\n        /* \"#utility.yul\":9546:9866   */\n    tag_30:\n        /* \"#utility.yul\":9590:9596   */\n      0x00\n        /* \"#utility.yul\":9627:9628   */\n      0x02\n        /* \"#utility.yul\":9621:9625   */\n      dup3\n        /* \"#utility.yul\":9617:9629   */\n      div\n        /* \"#utility.yul\":9607:9629   */\n      swap1\n      pop\n        /* \"#utility.yul\":9674:9675   */\n      0x01\n        /* \"#utility.yul\":9668:9672   */\n      dup3\n        /* \"#utility.yul\":9664:9676   */\n      and\n        /* \"#utility.yul\":9695:9713   */\n      dup1\n        /* \"#utility.yul\":9685:9766   */\n      tag_229\n      jumpi\n        /* \"#utility.yul\":9751:9755   */\n      0x7f\n        /* \"#utility.yul\":9743:9749   */\n      dup3\n        /* \"#utility.yul\":9739:9756   */\n      and\n        /* \"#utility.yul\":9729:9756   */\n      swap2\n      pop\n        /* \"#utility.yul\":9685:9766   */\n    tag_229:\n        /* \"#utility.yul\":9813:9815   */\n      0x20\n        /* \"#utility.yul\":9805:9811   */\n      dup3\n        /* \"#utility.yul\":9802:9816   */\n      lt\n        /* \"#utility.yul\":9782:9800   */\n      dup2\n        /* \"#utility.yul\":9779:9817   */\n      sub\n        /* \"#utility.yul\":9776:9860   */\n      tag_230\n      jumpi\n        /* \"#utility.yul\":9832:9850   */\n      tag_231\n      tag_109\n      jump\t// in\n    tag_231:\n        /* \"#utility.yul\":9776:9860   */\n    tag_230:\n        /* \"#utility.yul\":9597:9866   */\n      pop\n        /* \"#utility.yul\":9546:9866   */\n      swap2\n      swap1\n      pop\n      jump\t// out\n        /* \"#utility.yul\":9872:10043   */\n    tag_110:\n        /* \"#utility.yul\":10012:10035   */\n      0x4950465320486173682069732072657175697265640000000000000000000000\n        /* \"#utility.yul\":10008:10009   */\n      0x00\n        /* \"#utility.yul\":10000:10006   */\n      dup3\n        /* \"#utility.yul\":9996:10010   */\n      add\n        /* \"#utility.yul\":9989:10036   */\n      mstore\n        /* \"#utility.yul\":9872:10043   */\n      pop\n      jump\t// out\n        /* \"#utility.yul\":10049:10415   */\n    tag_111:\n        /* \"#utility.yul\":10191:10194   */\n      0x00\n        /* \"#utility.yul\":10212:10279   */\n      tag_234\n        /* \"#utility.yul\":10276:10278   */\n      0x15\n        /* \"#utility.yul\":10271:10274   */\n      dup4\n        /* \"#utility.yul\":10212:10279   */\n      tag_106\n      jump\t// in\n    tag_234:\n        /* \"#utility.yul\":10205:10279   */\n      swap2\n      pop\n        /* \"#utility.yul\":10288:10381   */\n      tag_235\n        /* \"#utility.yul\":10377:10380   */\n      dup3\n        /* \"#utility.yul\":10288:10381   */\n      tag_110\n      jump\t// in\n    tag_235:\n        /* \"#utility.yul\":10406:10408   */\n      0x20\n        /* \"#utility.yul\":10401:10404   */\n      dup3\n        /* \"#utility.yul\":10397:10409   */\n      add\n        /* \"#utility.yul\":10390:10409   */\n      swap1\n      pop\n        /* \"#utility.yul\":10049:10415   */\n      swap2\n      swap1\n      pop\n      jump\t// out\n        /* \"#utility.yul\":10421:10840   */\n    tag_48:\n        /* \"#utility.yul\":10587:10591   */\n      0x00\n        /* \"#utility.yul\":10625:10627   */\n      0x20\n        /* \"#utility.yul\":10614:10623   */\n      dup3\n        /* \"#utility.yul\":10610:10628   */\n      add\n        /* \"#utility.yul\":10602:10628   */\n      swap1\n      pop\n        /* \"#utility.yul\":10674:10683   */\n      dup2\n        /* \"#utility.yul\":10668:10672   */\n      dup2\n        /* \"#utility.yul\":10664:10684   */\n      sub\n        /* \"#utility.yul\":10660:10661   */\n      0x00\n        /* \"#utility.yul\":10649:10658   */\n      dup4\n        /* \"#utility.yul\":10645:10662   */\n      add\n        /* \"#utility.yul\":10638:10685   */\n      mstore\n        /* \"#utility.yul\":10702:10833   */\n      tag_237\n        /* \"#utility.yul\":10828:10832   */\n      dup2\n        /* \"#utility.yul\":10702:10833   */\n      tag_111\n      jump\t// in\n    tag_237:\n        /* \"#utility.yul\":10694:10833   */\n      swap1\n      pop\n        /* \"#utility.yul\":10421:10840   */\n      swap2\n      swap1\n      pop\n      jump\t// out\n        /* \"#utility.yul\":10846:11017   */\n    tag_112:\n        /* \"#utility.yul\":10986:11009   */\n      0x46696c65204e616d652069732072657175697265640000000000000000000000\n        /* \"#utility.yul\":10982:10983   */\n      0x00\n        /* \"#utility.yul\":10974:10980   */\n      dup3\n        /* \"#utility.yul\":10970:10984   */\n      add\n        /* \"#utility.yul\":10963:11010   */\n      mstore\n        /* \"#utility.yul\":10846:11017   */\n      pop\n      jump\t// out\n        /* \"#utility.yul\":11023:11389   */\n    tag_113:\n        /* \"#utility.yul\":11165:11168   */\n      0x00\n        /* \"#utility.yul\":11186:11253   */\n      tag_240\n        /* \"#utility.yul\":11250:11252   */\n      0x15\n        /* \"#utility.yul\":11245:11248   */\n      dup4\n        /* \"#utility.yul\":11186:11253   */\n      tag_106\n      jump\t// in\n    tag_240:\n        /* \"#utility.yul\":11179:11253   */\n      swap2\n      pop\n        /* \"#utility.yul\":11262:11355   */\n      tag_241\n        /* \"#utility.yul\":11351:11354   */\n      dup3\n        /* \"#utility.yul\":11262:11355   */\n      tag_112\n      jump\t// in\n    tag_241:\n        /* \"#utility.yul\":11380:11382   */\n      0x20\n        /* \"#utility.yul\":11375:11378   */\n      dup3\n        /* \"#utility.yul\":11371:11383   */\n      add\n        /* \"#utility.yul\":11364:11383   */\n      swap1\n      pop\n        /* \"#utility.yul\":11023:11389   */\n      swap2\n      swap1\n      pop\n      jump\t// out\n        /* \"#utility.yul\":11395:11814   */\n    tag_51:\n        /* \"#utility.yul\":11561:11565   */\n      0x00\n        /* \"#utility.yul\":11599:11601   */\n      0x20\n        /* \"#utility.yul\":11588:11597   */\n      dup3\n        /* \"#utility.yul\":11584:11602   */\n      add\n        /* \"#utility.yul\":11576:11602   */\n      swap1\n      pop\n        /* \"#utility.yul\":11648:11657   */\n      dup2\n        /* \"#utility.yul\":11642:11646   */\n      dup2\n        /* \"#utility.yul\":11638:11658   */\n      sub\n        /* \"#utility.yul\":11634:11635   */\n      0x00\n        /* \"#utility.yul\":11623:11632   */\n      dup4\n        /* \"#utility.yul\":11619:11636   */\n      add\n        /* \"#utility.yul\":11612:11659   */\n      mstore\n        /* \"#utility.yul\":11676:11807   */\n      tag_243\n        /* \"#utility.yul\":11802:11806   */\n      dup2\n        /* \"#utility.yul\":11676:11807   */\n      tag_113\n      jump\t// in\n    tag_243:\n        /* \"#utility.yul\":11668:11807   */\n      swap1\n      pop\n        /* \"#utility.yul\":11395:11814   */\n      swap2\n      swap1\n      pop\n      jump\t// out\n        /* \"#utility.yul\":11820:11989   */\n    tag_114:\n        /* \"#utility.yul\":11960:11981   */\n      0x5375626a65637420697320726571756972656400000000000000000000000000\n        /* \"#utility.yul\":11956:11957   */\n      0x00\n        /* \"#utility.yul\":11948:11954   */\n      dup3\n        /* \"#utility.yul\":11944:11958   */\n      add\n        /* \"#utility.yul\":11937:11982   */\n      mstore\n        /* \"#utility.yul\":11820:11989   */\n      pop\n      jump\t// out\n        /* \"#utility.yul\":11995:12361   */\n    tag_115:\n        /* \"#utility.yul\":12137:12140   */\n      0x00\n        /* \"#utility.yul\":12158:12225   */\n      tag_246\n        /* \"#utility.yul\":12222:12224   */\n      0x13\n        /* \"#utility.yul\":12217:12220   */\n      dup4\n        /* \"#utility.yul\":12158:12225   */\n      tag_106\n      jump\t// in\n    tag_246:\n        /* \"#utility.yul\":12151:12225   */\n      swap2\n      pop\n        /* \"#utility.yul\":12234:12327   */\n      tag_247\n        /* \"#utility.yul\":12323:12326   */\n      dup3\n        /* \"#utility.yul\":12234:12327   */\n      tag_114\n      jump\t// in\n    tag_247:\n        /* \"#utility.yul\":12352:12354   */\n      0x20\n        /* \"#utility.yul\":12347:12350   */\n      dup3\n        /* \"#utility.yul\":12343:12355   */\n      add\n        /* \"#utility.yul\":12336:12355   */\n      swap1\n      pop\n        /* \"#utility.yul\":11995:12361   */\n      swap2\n      swap1\n      pop\n      jump\t// out\n        /* \"#utility.yul\":12367:12786   */\n    tag_54:\n        /* \"#utility.yul\":12533:12537   */\n      0x00\n        /* \"#utility.yul\":12571:12573   */\n      0x20\n        /* \"#utility.yul\":12560:12569   */\n      dup3\n        /* \"#utility.yul\":12556:12574   */\n      add\n        /* \"#utility.yul\":12548:12574   */\n      swap1\n      pop\n        /* \"#utility.yul\":12620:12629   */\n      dup2\n        /* \"#utility.yul\":12614:12618   */\n      dup2\n        /* \"#utility.yul\":12610:12630   */\n      sub\n        /* \"#utility.yul\":12606:12607   */\n      0x00\n        /* \"#utility.yul\":12595:12604   */\n      dup4\n        /* \"#utility.yul\":12591:12608   */\n      add\n        /* \"#utility.yul\":12584:12631   */\n      mstore\n        /* \"#utility.yul\":12648:12779   */\n      tag_249\n        /* \"#utility.yul\":12774:12778   */\n      dup2\n        /* \"#utility.yul\":12648:12779   */\n      tag_115\n      jump\t// in\n    tag_249:\n        /* \"#utility.yul\":12640:12779   */\n      swap1\n      pop\n        /* \"#utility.yul\":12367:12786   */\n      swap2\n      swap1\n      pop\n      jump\t// out\n        /* \"#utility.yul\":12792:12972   */\n    tag_116:\n        /* \"#utility.yul\":12840:12917   */\n      0x4e487b7100000000000000000000000000000000000000000000000000000000\n        /* \"#utility.yul\":12837:12838   */\n      0x00\n        /* \"#utility.yul\":12830:12918   */\n      mstore\n        /* \"#utility.yul\":12937:12941   */\n      0x11\n        /* \"#utility.yul\":12934:12935   */\n      0x04\n        /* \"#utility.yul\":12927:12942   */\n      mstore\n        /* \"#utility.yul\":12961:12965   */\n      0x24\n        /* \"#utility.yul\":12958:12959   */\n      0x00\n        /* \"#utility.yul\":12951:12966   */\n      revert\n        /* \"#utility.yul\":12978:13211   */\n    tag_56:\n        /* \"#utility.yul\":13017:13020   */\n      0x00\n        /* \"#utility.yul\":13040:13064   */\n      tag_252\n        /* \"#utility.yul\":13058:13063   */\n      dup3\n        /* \"#utility.yul\":13040:13064   */\n      tag_83\n      jump\t// in\n    tag_252:\n        /* \"#utility.yul\":13031:13064   */\n      swap2\n      pop\n        /* \"#utility.yul\":13086:13152   */\n      0xffffffffffffffffffffffffffffffffffffffffffffffffffffffffffffffff\n        /* \"#utility.yul\":13079:13084   */\n      dup3\n        /* \"#utility.yul\":13076:13153   */\n      sub\n        /* \"#utility.yul\":13073:13176   */\n      tag_253\n      jumpi\n        /* \"#utility.yul\":13156:13174   */\n      tag_254\n      tag_116\n      jump\t// in\n    tag_254:\n        /* \"#utility.yul\":13073:13176   */\n    tag_253:\n        /* \"#utility.yul\":13203:13204   */\n      0x01\n        /* \"#utility.yul\":13196:13201   */\n      dup3\n        /* \"#utility.yul\":13192:13205   */\n      add\n        /* \"#utility.yul\":13185:13205   */\n      swap1\n      pop\n        /* \"#utility.yul\":12978:13211   */\n      swap2\n      swap1\n      pop\n      jump\t// out\n        /* \"#utility.yul\":13217:13358   */\n    tag_117:\n        /* \"#utility.yul\":13266:13270   */\n      0x00\n        /* \"#utility.yul\":13289:13292   */\n      dup2\n        /* \"#utility.yul\":13281:13292   */\n      swap1\n      pop\n        /* \"#utility.yul\":13312:13315   */\n      dup2\n        /* \"#utility.yul\":13309:13310   */\n      0x00\n        /* \"#utility.yul\":13302:13316   */\n      mstore\n        /* \"#utility.yul\":13346:13350   */\n      0x20\n        /* \"#utility.yul\":13343:13344   */\n      0x00\n        /* \"#utility.yul\":13333:13351   */\n      keccak256\n        /* \"#utility.yul\":13325:13351   */\n      swap1\n      pop\n        /* \"#utility.yul\":13217:13358   */\n      swap2\n      swap1\n      pop\n      jump\t// out\n        /* \"#utility.yul\":13364:13457   */\n    tag_118:\n        /* \"#utility.yul\":13401:13407   */\n      0x00\n        /* \"#utility.yul\":13448:13450   */\n      0x20\n        /* \"#utility.yul\":13443:13445   */\n      0x1f\n        /* \"#utility.yul\":13436:13441   */\n      dup4\n        /* \"#utility.yul\":13432:13446   */\n      add\n        /* \"#utility.yul\":13428:13451   */\n      div\n        /* \"#utility.yul\":13418:13451   */\n      swap1\n      pop\n        /* \"#utility.yul\":13364:13457   */\n      swap2\n      swap1\n      pop\n      jump\t// out\n        /* \"#utility.yul\":13463:13570   */\n    tag_119:\n        /* \"#utility.yul\":13507:13515   */\n      0x00\n        /* \"#utility.yul\":13557:13562   */\n      dup3\n        /* \"#utility.yul\":13551:13555   */\n      dup3\n        /* \"#utility.yul\":13547:13563   */\n      shl\n        /* \"#utility.yul\":13526:13563   */\n      swap1\n      pop\n        /* \"#utility.yul\":13463:13570   */\n      swap3\n      swap2\n      pop\n      pop\n      jump\t// out\n        /* \"#utility.yul\":13576:13969   */\n    tag_120:\n        /* \"#utility.yul\":13645:13651   */\n      0x00\n        /* \"#utility.yul\":13695:13696   */\n      0x08\n        /* \"#utility.yul\":13683:13693   */\n      dup4\n        /* \"#utility.yul\":13679:13697   */\n      mul\n        /* \"#utility.yul\":13718:13815   */\n      tag_259\n        /* \"#utility.yul\":13748:13814   */\n      0xffffffffffffffffffffffffffffffffffffffffffffffffffffffffffffffff\n        /* \"#utility.yul\":13737:13746   */\n      dup3\n        /* \"#utility.yul\":13718:13815   */\n      tag_119\n      jump\t// in\n    tag_259:\n        /* \"#utility.yul\":13836:13875   */\n      tag_260\n        /* \"#utility.yul\":13866:13874   */\n      dup7\n        /* \"#utility.yul\":13855:13864   */\n      dup4\n        /* \"#utility.yul\":13836:13875   */\n      tag_119\n      jump\t// in\n    tag_260:\n        /* \"#utility.yul\":13824:13875   */\n      swap6\n      pop\n        /* \"#utility.yul\":13908:13912   */\n      dup1\n        /* \"#utility.yul\":13904:13913   */\n      not\n        /* \"#utility.yul\":13897:13902   */\n      dup5\n        /* \"#utility.yul\":13893:13914   */\n      and\n        /* \"#utility.yul\":13884:13914   */\n      swap4\n      pop\n        /* \"#utility.yul\":13957:13961   */\n      dup1\n        /* \"#utility.yul\":13947:13955   */\n      dup7\n        /* \"#utility.yul\":13943:13962   */\n      and\n        /* \"#utility.yul\":13936:13941   */\n      dup5\n        /* \"#utility.yul\":13933:13963   */\n      or\n        /* \"#utility.yul\":13923:13963   */\n      swap3\n      pop\n        /* \"#utility.yul\":13652:13969   */\n      pop\n      pop\n        /* \"#utility.yul\":13576:13969   */\n      swap4\n      swap3\n      pop\n      pop\n      pop\n      jump\t// out\n        /* \"#utility.yul\":13975:14035   */\n    tag_121:\n        /* \"#utility.yul\":14003:14006   */\n      0x00\n        /* \"#utility.yul\":14024:14029   */\n      dup2\n        /* \"#utility.yul\":14017:14029   */\n      swap1\n      pop\n        /* \"#utility.yul\":13975:14035   */\n      swap2\n      swap1\n      pop\n      jump\t// out\n        /* \"#utility.yul\":14041:14183   */\n    tag_122:\n        /* \"#utility.yul\":14091:14100   */\n      0x00\n        /* \"#utility.yul\":14124:14177   */\n      tag_263\n        /* \"#utility.yul\":14142:14176   */\n      tag_264\n        /* \"#utility.yul\":14151:14175   */\n      tag_265\n        /* \"#utility.yul\":14169:14174   */\n      dup5\n        /* \"#utility.yul\":14151:14175   */\n      tag_83\n      jump\t// in\n    tag_265:\n        /* \"#utility.yul\":14142:14176   */\n      tag_121\n      jump\t// in\n    tag_264:\n        /* \"#utility.yul\":14124:14177   */\n      tag_83\n      jump\t// in\n    tag_263:\n        /* \"#utility.yul\":14111:14177   */\n      swap1\n      pop\n        /* \"#utility.yul\":14041:14183   */\n      swap2\n      swap1\n      pop\n      jump\t// out\n        /* \"#utility.yul\":14189:14264   */\n    tag_123:\n        /* \"#utility.yul\":14232:14235   */\n      0x00\n        /* \"#utility.yul\":14253:14258   */\n      dup2\n        /* \"#utility.yul\":14246:14258   */\n      swap1\n      pop\n        /* \"#utility.yul\":14189:14264   */\n      swap2\n      swap1\n      pop\n      jump\t// out\n        /* \"#utility.yul\":14270:14539   */\n    tag_124:\n        /* \"#utility.yul\":14380:14419   */\n      tag_268\n        /* \"#utility.yul\":14411:14418   */\n      dup4\n        /* \"#utility.yul\":14380:14419   */\n      tag_122\n      jump\t// in\n    tag_268:\n        /* \"#utility.yul\":14441:14532   */\n      tag_269\n        /* \"#utility.yul\":14490:14531   */\n      tag_270\n        /* \"#utility.yul\":14514:14530   */\n      dup3\n        /* \"#utility.yul\":14490:14531   */\n      tag_123\n      jump\t// in\n    tag_270:\n        /* \"#utility.yul\":14482:14488   */\n      dup5\n        /* \"#utility.yul\":14475:14479   */\n      dup5\n        /* \"#utility.yul\":14469:14480   */\n      sload\n        /* \"#utility.yul\":14441:14532   */\n      tag_120\n      jump\t// in\n    tag_269:\n        /* \"#utility.yul\":14435:14439   */\n      dup3\n        /* \"#utility.yul\":14428:14533   */\n      sstore\n        /* \"#utility.yul\":14346:14539   */\n      pop\n        /* \"#utility.yul\":14270:14539   */\n      pop\n      pop\n      pop\n      jump\t// out\n        /* \"#utility.yul\":14545:14618   */\n    tag_125:\n        /* \"#utility.yul\":14590:14593   */\n      0x00\n        /* \"#utility.yul\":14611:14612   */\n      0x00\n        /* \"#utility.yul\":14604:14612   */\n      swap1\n      pop\n        /* \"#utility.yul\":14545:14618   */\n      swap1\n      jump\t// out\n        /* \"#utility.yul\":14624:14813   */\n    tag_126:\n        /* \"#utility.yul\":14701:14733   */\n      tag_273\n      tag_125\n      jump\t// in\n    tag_273:\n        /* \"#utility.yul\":14742:14807   */\n      tag_274\n        /* \"#utility.yul\":14800:14806   */\n      dup2\n        /* \"#utility.yul\":14792:14798   */\n      dup5\n        /* \"#utility.yul\":14786:14790   */\n      dup5\n        /* \"#utility.yul\":14742:14807   */\n      tag_124\n      jump\t// in\n    tag_274:\n        /* \"#utility.yul\":14677:14813   */\n      pop\n        /* \"#utility.yul\":14624:14813   */\n      pop\n      pop\n      jump\t// out\n        /* \"#utility.yul\":14819:15005   */\n    tag_127:\n        /* \"#utility.yul\":14879:14999   */\n    tag_276:\n        /* \"#utility.yul\":14896:14899   */\n      dup2\n        /* \"#utility.yul\":14889:14894   */\n      dup2\n        /* \"#utility.yul\":14886:14900   */\n      lt\n        /* \"#utility.yul\":14879:14999   */\n      iszero\n      tag_278\n      jumpi\n        /* \"#utility.yul\":14950:14989   */\n      tag_279\n        /* \"#utility.yul\":14987:14988   */\n      0x00\n        /* \"#utility.yul\":14980:14985   */\n      dup3\n        /* \"#utility.yul\":14950:14989   */\n      tag_126\n      jump\t// in\n    tag_279:\n        /* \"#utility.yul\":14923:14924   */\n      0x01\n        /* \"#utility.yul\":14916:14921   */\n      dup2\n        /* \"#utility.yul\":14912:14925   */\n      add\n        /* \"#utility.yul\":14903:14925   */\n      swap1\n      pop\n        /* \"#utility.yul\":14879:14999   */\n      jump(tag_276)\n    tag_278:\n        /* \"#utility.yul\":14819:15005   */\n      pop\n      pop\n      jump\t// out\n        /* \"#utility.yul\":15011:15554   */\n    tag_128:\n        /* \"#utility.yul\":15112:15114   */\n      0x1f\n        /* \"#utility.yul\":15107:15110   */\n      dup3\n        /* \"#utility.yul\":15104:15115   */\n      gt\n        /* \"#utility.yul\":15101:15547   */\n      iszero\n      tag_281\n      jumpi\n        /* \"#utility.yul\":15146:15184   */\n      tag_282\n        /* \"#utility.yul\":15178:15183   */\n      dup2\n        /* \"#utility.yul\":15146:15184   */\n      tag_117\n      jump\t// in\n    tag_282:\n        /* \"#utility.yul\":15230:15259   */\n      tag_283\n        /* \"#utility.yul\":15248:15258   */\n      dup5\n        /* \"#utility.yul\":15230:15259   */\n      tag_118\n      jump\t// in\n    tag_283:\n        /* \"#utility.yul\":15220:15228   */\n      dup2\n        /* \"#utility.yul\":15216:15260   */\n      add\n        /* \"#utility.yul\":15413:15415   */\n      0x20\n        /* \"#utility.yul\":15401:15411   */\n      dup6\n        /* \"#utility.yul\":15398:15416   */\n      lt\n        /* \"#utility.yul\":15395:15444   */\n      iszero\n      tag_284\n      jumpi\n        /* \"#utility.yul\":15434:15442   */\n      dup2\n        /* \"#utility.yul\":15419:15442   */\n      swap1\n      pop\n        /* \"#utility.yul\":15395:15444   */\n    tag_284:\n        /* \"#utility.yul\":15457:15537   */\n      tag_285\n        /* \"#utility.yul\":15513:15535   */\n      tag_286\n        /* \"#utility.yul\":15531:15534   */\n      dup6\n        /* \"#utility.yul\":15513:15535   */\n      tag_118\n      jump\t// in\n    tag_286:\n        /* \"#utility.yul\":15503:15511   */\n      dup4\n        /* \"#utility.yul\":15499:15536   */\n      add\n        /* \"#utility.yul\":15486:15497   */\n      dup3\n        /* \"#utility.yul\":15457:15537   */\n      tag_127\n      jump\t// in\n    tag_285:\n        /* \"#utility.yul\":15116:15547   */\n      pop\n      pop\n        /* \"#utility.yul\":15101:15547   */\n    tag_281:\n        /* \"#utility.yul\":15011:15554   */\n      pop\n      pop\n      pop\n      jump\t// out\n        /* \"#utility.yul\":15560:15677   */\n    tag_129:\n        /* \"#utility.yul\":15614:15622   */\n      0x00\n        /* \"#utility.yul\":15664:15669   */\n      dup3\n        /* \"#utility.yul\":15658:15662   */\n      dup3\n        /* \"#utility.yul\":15654:15670   */\n      shr\n        /* \"#utility.yul\":15633:15670   */\n      swap1\n      pop\n        /* \"#utility.yul\":15560:15677   */\n      swap3\n      swap2\n      pop\n      pop\n      jump\t// out\n        /* \"#utility.yul\":15683:15852   */\n    tag_130:\n        /* \"#utility.yul\":15727:15733   */\n      0x00\n        /* \"#utility.yul\":15760:15811   */\n      tag_289\n        /* \"#utility.yul\":15808:15809   */\n      0x00\n        /* \"#utility.yul\":15804:15810   */\n      not\n        /* \"#utility.yul\":15796:15801   */\n      dup5\n        /* \"#utility.yul\":15793:15794   */\n      0x08\n        /* \"#utility.yul\":15789:15802   */\n      mul\n        /* \"#utility.yul\":15760:15811   */\n      tag_129\n      jump\t// in\n    tag_289:\n        /* \"#utility.yul\":15756:15812   */\n      not\n        /* \"#utility.yul\":15841:15845   */\n      dup1\n        /* \"#utility.yul\":15835:15839   */\n      dup4\n        /* \"#utility.yul\":15831:15846   */\n      and\n        /* \"#utility.yul\":15821:15846   */\n      swap2\n      pop\n        /* \"#utility.yul\":15734:15852   */\n      pop\n        /* \"#utility.yul\":15683:15852   */\n      swap3\n      swap2\n      pop\n      pop\n      jump\t// out\n        /* \"#utility.yul\":15857:16152   */\n    tag_131:\n        /* \"#utility.yul\":15933:15937   */\n      0x00\n        /* \"#utility.yul\":16079:16108   */\n      tag_291\n        /* \"#utility.yul\":16104:16107   */\n      dup4\n        /* \"#utility.yul\":16098:16102   */\n      dup4\n        /* \"#utility.yul\":16079:16108   */\n      tag_130\n      jump\t// in\n    tag_291:\n        /* \"#utility.yul\":16071:16108   */\n      swap2\n      pop\n        /* \"#utility.yul\":16141:16144   */\n      dup3\n        /* \"#utility.yul\":16138:16139   */\n      0x02\n        /* \"#utility.yul\":16134:16145   */\n      mul\n        /* \"#utility.yul\":16128:16132   */\n      dup3\n        /* \"#utility.yul\":16125:16146   */\n      or\n        /* \"#utility.yul\":16117:16146   */\n      swap1\n      pop\n        /* \"#utility.yul\":15857:16152   */\n      swap3\n      swap2\n      pop\n      pop\n      jump\t// out\n        /* \"#utility.yul\":16157:17552   */\n    tag_58:\n        /* \"#utility.yul\":16274:16311   */\n      tag_293\n        /* \"#utility.yul\":16307:16310   */\n      dup3\n        /* \"#utility.yul\":16274:16311   */\n      tag_87\n      jump\t// in\n    tag_293:\n        /* \"#utility.yul\":16376:16394   */\n      0xffffffffffffffff\n        /* \"#utility.yul\":16368:16374   */\n      dup2\n        /* \"#utility.yul\":16365:16395   */\n      gt\n        /* \"#utility.yul\":16362:16418   */\n      iszero\n      tag_294\n      jumpi\n        /* \"#utility.yul\":16398:16416   */\n      tag_295\n      tag_99\n      jump\t// in\n    tag_295:\n        /* \"#utility.yul\":16362:16418   */\n    tag_294:\n        /* \"#utility.yul\":16442:16480   */\n      tag_296\n        /* \"#utility.yul\":16474:16478   */\n      dup3\n        /* \"#utility.yul\":16468:16479   */\n      sload\n        /* \"#utility.yul\":16442:16480   */\n      tag_30\n      jump\t// in\n    tag_296:\n        /* \"#utility.yul\":16527:16594   */\n      tag_297\n        /* \"#utility.yul\":16587:16593   */\n      dup3\n        /* \"#utility.yul\":16579:16585   */\n      dup3\n        /* \"#utility.yul\":16573:16577   */\n      dup6\n        /* \"#utility.yul\":16527:16594   */\n      tag_128\n      jump\t// in\n    tag_297:\n        /* \"#utility.yul\":16621:16622   */\n      0x00\n        /* \"#utility.yul\":16645:16649   */\n      0x20\n        /* \"#utility.yul\":16632:16649   */\n      swap1\n      pop\n        /* \"#utility.yul\":16677:16679   */\n      0x1f\n        /* \"#utility.yul\":16669:16675   */\n      dup4\n        /* \"#utility.yul\":16666:16680   */\n      gt\n        /* \"#utility.yul\":16694:16695   */\n      0x01\n        /* \"#utility.yul\":16689:17307   */\n      dup2\n      eq\n      tag_299\n      jumpi\n        /* \"#utility.yul\":17351:17352   */\n      0x00\n        /* \"#utility.yul\":17368:17374   */\n      dup5\n        /* \"#utility.yul\":17365:17442   */\n      iszero\n      tag_300\n      jumpi\n        /* \"#utility.yul\":17417:17426   */\n      dup3\n        /* \"#utility.yul\":17412:17415   */\n      dup8\n        /* \"#utility.yul\":17408:17427   */\n      add\n        /* \"#utility.yul\":17402:17428   */\n      mload\n        /* \"#utility.yul\":17393:17428   */\n      swap1\n      pop\n        /* \"#utility.yul\":17365:17442   */\n    tag_300:\n        /* \"#utility.yul\":17468:17535   */\n      tag_301\n        /* \"#utility.yul\":17528:17534   */\n      dup6\n        /* \"#utility.yul\":17521:17526   */\n      dup3\n        /* \"#utility.yul\":17468:17535   */\n      tag_131\n      jump\t// in\n    tag_301:\n        /* \"#utility.yul\":17462:17466   */\n      dup7\n        /* \"#utility.yul\":17455:17536   */\n      sstore\n        /* \"#utility.yul\":17324:17546   */\n      pop\n        /* \"#utility.yul\":16659:17546   */\n      jump(tag_298)\n        /* \"#utility.yul\":16689:17307   */\n    tag_299:\n        /* \"#utility.yul\":16741:16745   */\n      0x1f\n        /* \"#utility.yul\":16737:16746   */\n      not\n        /* \"#utility.yul\":16729:16735   */\n      dup5\n        /* \"#utility.yul\":16725:16747   */\n      and\n        /* \"#utility.yul\":16775:16812   */\n      tag_302\n        /* \"#utility.yul\":16807:16811   */\n      dup7\n        /* \"#utility.yul\":16775:16812   */\n      tag_117\n      jump\t// in\n    tag_302:\n        /* \"#utility.yul\":16834:16835   */\n      0x00\n        /* \"#utility.yul\":16848:17056   */\n    tag_303:\n        /* \"#utility.yul\":16862:16869   */\n      dup3\n        /* \"#utility.yul\":16859:16860   */\n      dup2\n        /* \"#utility.yul\":16856:16870   */\n      lt\n        /* \"#utility.yul\":16848:17056   */\n      iszero\n      tag_305\n      jumpi\n        /* \"#utility.yul\":16941:16950   */\n      dup5\n        /* \"#utility.yul\":16936:16939   */\n      dup10\n        /* \"#utility.yul\":16932:16951   */\n      add\n        /* \"#utility.yul\":16926:16952   */\n      mload\n        /* \"#utility.yul\":16918:16924   */\n      dup3\n        /* \"#utility.yul\":16911:16953   */\n      sstore\n        /* \"#utility.yul\":16992:16993   */\n      0x01\n        /* \"#utility.yul\":16984:16990   */\n      dup3\n        /* \"#utility.yul\":16980:16994   */\n      add\n        /* \"#utility.yul\":16970:16994   */\n      swap2\n      pop\n        /* \"#utility.yul\":17039:17041   */\n      0x20\n        /* \"#utility.yul\":17028:17037   */\n      dup6\n        /* \"#utility.yul\":17024:17042   */\n      add\n        /* \"#utility.yul\":17011:17042   */\n      swap5\n      pop\n        /* \"#utility.yul\":16885:16889   */\n      0x20\n        /* \"#utility.yul\":16882:16883   */\n      dup2\n        /* \"#utility.yul\":16878:16890   */\n      add\n        /* \"#utility.yul\":16873:16890   */\n      swap1\n      pop\n        /* \"#utility.yul\":16848:17056   */\n      jump(tag_303)\n    tag_305:\n        /* \"#utility.yul\":17084:17090   */\n      dup7\n        /* \"#utility.yul\":17075:17082   */\n      dup4\n        /* \"#utility.yul\":17072:17091   */\n      lt\n        /* \"#utility.yul\":17069:17248   */\n      iszero\n      tag_306\n      jumpi\n        /* \"#utility.yul\":17142:17151   */\n      dup5\n        /* \"#utility.yul\":17137:17140   */\n      dup10\n        /* \"#utility.yul\":17133:17152   */\n      add\n        /* \"#utility.yul\":17127:17153   */\n      mload\n        /* \"#utility.yul\":17185:17233   */\n      tag_307\n        /* \"#utility.yul\":17227:17231   */\n      0x1f\n        /* \"#utility.yul\":17219:17225   */\n      dup10\n        /* \"#utility.yul\":17215:17232   */\n      and\n        /* \"#utility.yul\":17204:17213   */\n      dup3\n        /* \"#utility.yul\":17185:17233   */\n      tag_130\n      jump\t// in\n    tag_307:\n        /* \"#utility.yul\":17177:17183   */\n      dup4\n        /* \"#utility.yul\":17170:17234   */\n      sstore\n        /* \"#utility.yul\":17092:17248   */\n      pop\n        /* \"#utility.yul\":17069:17248   */\n    tag_306:\n        /* \"#utility.yul\":17294:17295   */\n      0x01\n        /* \"#utility.yul\":17290:17291   */\n      0x02\n        /* \"#utility.yul\":17282:17288   */\n      dup9\n        /* \"#utility.yul\":17278:17292   */\n      mul\n        /* \"#utility.yul\":17274:17296   */\n      add\n        /* \"#utility.yul\":17268:17272   */\n      dup9\n        /* \"#utility.yul\":17261:17297   */\n      sstore\n        /* \"#utility.yul\":16696:17307   */\n      pop\n      pop\n      pop\n        /* \"#utility.yul\":16659:17546   */\n    tag_298:\n      pop\n        /* \"#utility.yul\":16249:17552   */\n      pop\n      pop\n      pop\n        /* \"#utility.yul\":16157:17552   */\n      pop\n      pop\n      jump\t// out\n        /* \"#utility.yul\":17558:17706   */\n    tag_132:\n        /* \"#utility.yul\":17660:17671   */\n      0x00\n        /* \"#utility.yul\":17697:17700   */\n      dup2\n        /* \"#utility.yul\":17682:17700   */\n      swap1\n      pop\n        /* \"#utility.yul\":17558:17706   */\n      swap3\n      swap2\n      pop\n      pop\n      jump\t// out\n        /* \"#utility.yul\":17712:18102   */\n    tag_133:\n        /* \"#utility.yul\":17818:17821   */\n      0x00\n        /* \"#utility.yul\":17846:17885   */\n      tag_310\n        /* \"#utility.yul\":17879:17884   */\n      dup3\n        /* \"#utility.yul\":17846:17885   */\n      tag_87\n      jump\t// in\n    tag_310:\n        /* \"#utility.yul\":17901:17990   */\n      tag_311\n        /* \"#utility.yul\":17983:17989   */\n      dup2\n        /* \"#utility.yul\":17978:17981   */\n      dup6\n        /* \"#utility.yul\":17901:17990   */\n      tag_132\n      jump\t// in\n    tag_311:\n        /* \"#utility.yul\":17894:17990   */\n      swap4\n      pop\n        /* \"#utility.yul\":17999:18064   */\n      tag_312\n        /* \"#utility.yul\":18057:18063   */\n      dup2\n        /* \"#utility.yul\":18052:18055   */\n      dup6\n        /* \"#utility.yul\":18045:18049   */\n      0x20\n        /* \"#utility.yul\":18038:18043   */\n      dup7\n        /* \"#utility.yul\":18034:18050   */\n      add\n        /* \"#utility.yul\":17999:18064   */\n      tag_89\n      jump\t// in\n    tag_312:\n        /* \"#utility.yul\":18089:18095   */\n      dup1\n        /* \"#utility.yul\":18084:18087   */\n      dup5\n        /* \"#utility.yul\":18080:18096   */\n      add\n        /* \"#utility.yul\":18073:18096   */\n      swap2\n      pop\n        /* \"#utility.yul\":17822:18102   */\n      pop\n        /* \"#utility.yul\":17712:18102   */\n      swap3\n      swap2\n      pop\n      pop\n      jump\t// out\n        /* \"#utility.yul\":18108:18383   */\n    tag_62:\n        /* \"#utility.yul\":18240:18243   */\n      0x00\n        /* \"#utility.yul\":18262:18357   */\n      tag_314\n        /* \"#utility.yul\":18353:18356   */\n      dup3\n        /* \"#utility.yul\":18344:18350   */\n      dup5\n        /* \"#utility.yul\":18262:18357   */\n      tag_133\n      jump\t// in\n    tag_314:\n        /* \"#utility.yul\":18255:18357   */\n      swap2\n      pop\n        /* \"#utility.yul\":18374:18377   */\n      dup2\n        /* \"#utility.yul\":18367:18377   */\n      swap1\n      pop\n        /* \"#utility.yul\":18108:18383   */\n      swap3\n      swap2\n      pop\n      pop\n      jump\t// out\n        /* \"#utility.yul\":18389:19013   */\n    tag_64:\n        /* \"#utility.yul\":18578:18582   */\n      0x00\n        /* \"#utility.yul\":18616:18618   */\n      0x60\n        /* \"#utility.yul\":18605:18614   */\n      dup3\n        /* \"#utility.yul\":18601:18619   */\n      add\n        /* \"#utility.yul\":18593:18619   */\n      swap1\n      pop\n        /* \"#utility.yul\":18629:18700   */\n      tag_316\n        /* \"#utility.yul\":18697:18698   */\n      0x00\n        /* \"#utility.yul\":18686:18695   */\n      dup4\n        /* \"#utility.yul\":18682:18699   */\n      add\n        /* \"#utility.yul\":18673:18679   */\n      dup7\n        /* \"#utility.yul\":18629:18700   */\n      tag_96\n      jump\t// in\n    tag_316:\n        /* \"#utility.yul\":18747:18756   */\n      dup2\n        /* \"#utility.yul\":18741:18745   */\n      dup2\n        /* \"#utility.yul\":18737:18757   */\n      sub\n        /* \"#utility.yul\":18732:18734   */\n      0x20\n        /* \"#utility.yul\":18721:18730   */\n      dup4\n        /* \"#utility.yul\":18717:18735   */\n      add\n        /* \"#utility.yul\":18710:18758   */\n      mstore\n        /* \"#utility.yul\":18775:18853   */\n      tag_317\n        /* \"#utility.yul\":18848:18852   */\n      dup2\n        /* \"#utility.yul\":18839:18845   */\n      dup6\n        /* \"#utility.yul\":18775:18853   */\n      tag_107\n      jump\t// in\n    tag_317:\n        /* \"#utility.yul\":18767:18853   */\n      swap1\n      pop\n        /* \"#utility.yul\":18900:18909   */\n      dup2\n        /* \"#utility.yul\":18894:18898   */\n      dup2\n        /* \"#utility.yul\":18890:18910   */\n      sub\n        /* \"#utility.yul\":18885:18887   */\n      0x40\n        /* \"#utility.yul\":18874:18883   */\n      dup4\n        /* \"#utility.yul\":18870:18888   */\n      add\n        /* \"#utility.yul\":18863:18911   */\n      mstore\n        /* \"#utility.yul\":18928:19006   */\n      tag_318\n        /* \"#utility.yul\":19001:19005   */\n      dup2\n        /* \"#utility.yul\":18992:18998   */\n      dup5\n        /* \"#utility.yul\":18928:19006   */\n      tag_107\n      jump\t// in\n    tag_318:\n        /* \"#utility.yul\":18920:19006   */\n      swap1\n      pop\n        /* \"#utility.yul\":18389:19013   */\n      swap5\n      swap4\n      pop\n      pop\n      pop\n      pop\n      jump\t// out\n\n    auxdata: 0xa26469706673582212204df7e3dd03449a30e36701cf678e714054a185be505c34619f7dc521df7c127c64736f6c634300081e0033\n}\n",
				"bytecode": {
					"linkReferences": {},
					"object": "60806040525f6001553480156012575f5ffd5b50611146806100205f395ff3fe608060405234801561000f575f5ffd5b506004361061004a575f3560e01c80632bfda3131461004e578063439535191461007e57806392bb481a1461009c578063f4c714b4146100b8575b5f5ffd5b610068600480360381019061006391906107c6565b6100ec565b6040516100759190610930565b60405180910390f35b610086610324565b604051610093919061095f565b60405180910390f35b6100b660048036038101906100b19190610aa4565b61032a565b005b6100d260048036038101906100cd91906107c6565b61055d565b6040516100e3959493929190610b9f565b60405180910390f35b6100f461073f565b5f5f8381526020019081526020015f206040518060a00160405290815f820154815260200160018201805461012890610c32565b80601f016020809104026020016040519081016040528092919081815260200182805461015490610c32565b801561019f5780601f106101765761010080835404028352916020019161019f565b820191905f5260205f20905b81548152906001019060200180831161018257829003601f168201915b505050505081526020016002820180546101b890610c32565b80601f01602080910402602001604051908101604052809291908181526020018280546101e490610c32565b801561022f5780601f106102065761010080835404028352916020019161022f565b820191905f5260205f20905b81548152906001019060200180831161021257829003601f168201915b5050505050815260200160038201805461024890610c32565b80601f016020809104026020016040519081016040528092919081815260200182805461027490610c32565b80156102bf5780601f10610296576101008083540402835291602001916102bf565b820191905f5260205f20905b8154815290600101906020018083116102a257829003601f168201915b50505050508152602001600482015f9054906101000a900473ffffffffffffffffffffffffffffffffffffffff1673ffffffffffffffffffffffffffffffffffffffff1673ffffffffffffffffffffffffffffffffffffffff16815250509050919050565b60015481565b5f83511161036d576040517f08c379a000000000000000000000000000000000000000000000000000000000815260040161036490610cac565b60405180910390fd5b5f8251116103b0576040517f08c379a00000000000000000000000000000000000000000000000000000000081526004016103a790610d14565b60405180910390fd5b5f8151116103f3576040517f08c379a00000000000000000000000000000000000000000000000000000000081526004016103ea90610d7c565b60405180910390fd5b60015f81548092919061040590610dc7565b91905055506040518060a0016040528060015481526020018481526020018281526020018381526020013373ffffffffffffffffffffffffffffffffffffffff168152505f5f60015481526020019081526020015f205f820151815f015560208201518160010190816104789190610fae565b50604082015181600201908161048e9190610fae565b5060608201518160030190816104a49190610fae565b506080820151816004015f6101000a81548173ffffffffffffffffffffffffffffffffffffffff021916908373ffffffffffffffffffffffffffffffffffffffff1602179055509050503373ffffffffffffffffffffffffffffffffffffffff168160405161051391906110b7565b60405180910390207fa840b93cbcb6e31291b2769d43a3ae3e9518b9eddbf4bc0737e3073f93476e0e6001548686604051610550939291906110cd565b60405180910390a3505050565b5f602052805f5260405f205f91509050805f01549080600101805461058190610c32565b80601f01602080910402602001604051908101604052809291908181526020018280546105ad90610c32565b80156105f85780601f106105cf576101008083540402835291602001916105f8565b820191905f5260205f20905b8154815290600101906020018083116105db57829003601f168201915b50505050509080600201805461060d90610c32565b80601f016020809104026020016040519081016040528092919081815260200182805461063990610c32565b80156106845780601f1061065b57610100808354040283529160200191610684565b820191905f5260205f20905b81548152906001019060200180831161066757829003601f168201915b50505050509080600301805461069990610c32565b80601f01602080910402602001604051908101604052809291908181526020018280546106c590610c32565b80156107105780601f106106e757610100808354040283529160200191610710565b820191905f5260205f20905b8154815290600101906020018083116106f357829003601f168201915b505050505090806004015f9054906101000a900473ffffffffffffffffffffffffffffffffffffffff16905085565b6040518060a001604052805f81526020016060815260200160608152602001606081526020015f73ffffffffffffffffffffffffffffffffffffffff1681525090565b5f604051905090565b5f5ffd5b5f5ffd5b5f819050919050565b6107a581610793565b81146107af575f5ffd5b50565b5f813590506107c08161079c565b92915050565b5f602082840312156107db576107da61078b565b5b5f6107e8848285016107b2565b91505092915050565b6107fa81610793565b82525050565b5f81519050919050565b5f82825260208201905092915050565b8281835e5f83830152505050565b5f601f19601f8301169050919050565b5f61084282610800565b61084c818561080a565b935061085c81856020860161081a565b61086581610828565b840191505092915050565b5f73ffffffffffffffffffffffffffffffffffffffff82169050919050565b5f61089982610870565b9050919050565b6108a98161088f565b82525050565b5f60a083015f8301516108c45f8601826107f1565b50602083015184820360208601526108dc8282610838565b915050604083015184820360408601526108f68282610838565b915050606083015184820360608601526109108282610838565b915050608083015161092560808601826108a0565b508091505092915050565b5f6020820190508181035f83015261094881846108af565b905092915050565b61095981610793565b82525050565b5f6020820190506109725f830184610950565b92915050565b5f5ffd5b5f5ffd5b7f4e487b71000000000000000000000000000000000000000000000000000000005f52604160045260245ffd5b6109b682610828565b810181811067ffffffffffffffff821117156109d5576109d4610980565b5b80604052505050565b5f6109e7610782565b90506109f382826109ad565b919050565b5f67ffffffffffffffff821115610a1257610a11610980565b5b610a1b82610828565b9050602081019050919050565b828183375f83830152505050565b5f610a48610a43846109f8565b6109de565b905082815260208101848484011115610a6457610a6361097c565b5b610a6f848285610a28565b509392505050565b5f82601f830112610a8b57610a8a610978565b5b8135610a9b848260208601610a36565b91505092915050565b5f5f5f60608486031215610abb57610aba61078b565b5b5f84013567ffffffffffffffff811115610ad857610ad761078f565b5b610ae486828701610a77565b935050602084013567ffffffffffffffff811115610b0557610b0461078f565b5b610b1186828701610a77565b925050604084013567ffffffffffffffff811115610b3257610b3161078f565b5b610b3e86828701610a77565b9150509250925092565b5f82825260208201905092915050565b5f610b6282610800565b610b6c8185610b48565b9350610b7c81856020860161081a565b610b8581610828565b840191505092915050565b610b998161088f565b82525050565b5f60a082019050610bb25f830188610950565b8181036020830152610bc48187610b58565b90508181036040830152610bd88186610b58565b90508181036060830152610bec8185610b58565b9050610bfb6080830184610b90565b9695505050505050565b7f4e487b71000000000000000000000000000000000000000000000000000000005f52602260045260245ffd5b5f6002820490506001821680610c4957607f821691505b602082108103610c5c57610c5b610c05565b5b50919050565b7f49504653204861736820697320726571756972656400000000000000000000005f82015250565b5f610c96601583610b48565b9150610ca182610c62565b602082019050919050565b5f6020820190508181035f830152610cc381610c8a565b9050919050565b7f46696c65204e616d6520697320726571756972656400000000000000000000005f82015250565b5f610cfe601583610b48565b9150610d0982610cca565b602082019050919050565b5f6020820190508181035f830152610d2b81610cf2565b9050919050565b7f5375626a656374206973207265717569726564000000000000000000000000005f82015250565b5f610d66601383610b48565b9150610d7182610d32565b602082019050919050565b5f6020820190508181035f830152610d9381610d5a565b9050919050565b7f4e487b71000000000000000000000000000000000000000000000000000000005f52601160045260245ffd5b5f610dd182610793565b91507fffffffffffffffffffffffffffffffffffffffffffffffffffffffffffffffff8203610e0357610e02610d9a565b5b600182019050919050565b5f819050815f5260205f209050919050565b5f6020601f8301049050919050565b5f82821b905092915050565b5f60088302610e6a7fffffffffffffffffffffffffffffffffffffffffffffffffffffffffffffffff82610e2f565b610e748683610e2f565b95508019841693508086168417925050509392505050565b5f819050919050565b5f610eaf610eaa610ea584610793565b610e8c565b610793565b9050919050565b5f819050919050565b610ec883610e95565b610edc610ed482610eb6565b848454610e3b565b825550505050565b5f5f905090565b610ef3610ee4565b610efe818484610ebf565b505050565b5b81811015610f2157610f165f82610eeb565b600181019050610f04565b5050565b601f821115610f6657610f3781610e0e565b610f4084610e20565b81016020851015610f4f578190505b610f63610f5b85610e20565b830182610f03565b50505b505050565b5f82821c905092915050565b5f610f865f1984600802610f6b565b1980831691505092915050565b5f610f9e8383610f77565b9150826002028217905092915050565b610fb782610800565b67ffffffffffffffff811115610fd057610fcf610980565b5b610fda8254610c32565b610fe5828285610f25565b5f60209050601f831160018114611016575f8415611004578287015190505b61100e8582610f93565b865550611075565b601f19841661102486610e0e565b5f5b8281101561104b57848901518255600182019150602085019450602081019050611026565b868310156110685784890151611064601f891682610f77565b8355505b6001600288020188555050505b505050505050565b5f81905092915050565b5f61109182610800565b61109b818561107d565b93506110ab81856020860161081a565b80840191505092915050565b5f6110c28284611087565b915081905092915050565b5f6060820190506110e05f830186610950565b81810360208301526110f28185610b58565b905081810360408301526111068184610b58565b905094935050505056fea26469706673582212204df7e3dd03449a30e36701cf678e714054a185be505c34619f7dc521df7c127c64736f6c634300081e0033",
					"opcodes": "PUSH1 0x80 PUSH1 0x40 MSTORE PUSH0 PUSH1 0x1 SSTORE CALLVALUE DUP1 ISZERO PUSH1 0x12 JUMPI PUSH0 PUSH0 REVERT JUMPDEST POP PUSH2 0x1146 DUP1 PUSH2 0x20 PUSH0 CODECOPY PUSH0 RETURN INVALID PUSH1 0x80 PUSH1 0x40 MSTORE CALLVALUE DUP1 ISZERO PUSH2 0xF JUMPI PUSH0 PUSH0 REVERT JUMPDEST POP PUSH1 0x4 CALLDATASIZE LT PUSH2 0x4A JUMPI PUSH0 CALLDATALOAD PUSH1 0xE0 SHR DUP1 PUSH4 0x2BFDA313 EQ PUSH2 0x4E JUMPI DUP1 PUSH4 0x43953519 EQ PUSH2 0x7E JUMPI DUP1 PUSH4 0x92BB481A EQ PUSH2 0x9C JUMPI DUP1 PUSH4 0xF4C714B4 EQ PUSH2 0xB8 JUMPI JUMPDEST PUSH0 PUSH0 REVERT JUMPDEST PUSH2 0x68 PUSH1 0x4 DUP1 CALLDATASIZE SUB DUP2 ADD SWAP1 PUSH2 0x63 SWAP2 SWAP1 PUSH2 0x7C6 JUMP JUMPDEST PUSH2 0xEC JUMP JUMPDEST PUSH1 0x40 MLOAD PUSH2 0x75 SWAP2 SWAP1 PUSH2 0x930 JUMP JUMPDEST PUSH1 0x40 MLOAD DUP1 SWAP2 SUB SWAP1 RETURN JUMPDEST PUSH2 0x86 PUSH2 0x324 JUMP JUMPDEST PUSH1 0x40 MLOAD PUSH2 0x93 SWAP2 SWAP1 PUSH2 0x95F JUMP JUMPDEST PUSH1 0x40 MLOAD DUP1 SWAP2 SUB SWAP1 RETURN JUMPDEST PUSH2 0xB6 PUSH1 0x4 DUP1 CALLDATASIZE SUB DUP2 ADD SWAP1 PUSH2 0xB1 SWAP2 SWAP1 PUSH2 0xAA4 JUMP JUMPDEST PUSH2 0x32A JUMP JUMPDEST STOP JUMPDEST PUSH2 0xD2 PUSH1 0x4 DUP1 CALLDATASIZE SUB DUP2 ADD SWAP1 PUSH2 0xCD SWAP2 SWAP1 PUSH2 0x7C6 JUMP JUMPDEST PUSH2 0x55D JUMP JUMPDEST PUSH1 0x40 MLOAD PUSH2 0xE3 SWAP6 SWAP5 SWAP4 SWAP3 SWAP2 SWAP1 PUSH2 0xB9F JUMP JUMPDEST PUSH1 0x40 MLOAD DUP1 SWAP2 SUB SWAP1 RETURN JUMPDEST PUSH2 0xF4 PUSH2 0x73F JUMP JUMPDEST PUSH0 PUSH0 DUP4 DUP2 MSTORE PUSH1 0x20 ADD SWAP1 DUP2 MSTORE PUSH1 0x20 ADD PUSH0 KECCAK256 PUSH1 0x40 MLOAD DUP1 PUSH1 0xA0 ADD PUSH1 0x40 MSTORE SWAP1 DUP2 PUSH0 DUP3 ADD SLOAD DUP2 MSTORE PUSH1 0x20 ADD PUSH1 0x1 DUP3 ADD DUP1 SLOAD PUSH2 0x128 SWAP1 PUSH2 0xC32 JUMP JUMPDEST DUP1 PUSH1 0x1F ADD PUSH1 0x20 DUP1 SWAP2 DIV MUL PUSH1 0x20 ADD PUSH1 0x40 MLOAD SWAP1 DUP2 ADD PUSH1 0x40 MSTORE DUP1 SWAP3 SWAP2 SWAP1 DUP2 DUP2 MSTORE PUSH1 0x20 ADD DUP3 DUP1 SLOAD PUSH2 0x154 SWAP1 PUSH2 0xC32 JUMP JUMPDEST DUP1 ISZERO PUSH2 0x19F JUMPI DUP1 PUSH1 0x1F LT PUSH2 0x176 JUMPI PUSH2 0x100 DUP1 DUP4 SLOAD DIV MUL DUP4 MSTORE SWAP2 PUSH1 0x20 ADD SWAP2 PUSH2 0x19F JUMP JUMPDEST DUP3 ADD SWAP2 SWAP1 PUSH0 MSTORE PUSH1 0x20 PUSH0 KECCAK256 SWAP1 JUMPDEST DUP2 SLOAD DUP2 MSTORE SWAP1 PUSH1 0x1 ADD SWAP1 PUSH1 0x20 ADD DUP1 DUP4 GT PUSH2 0x182 JUMPI DUP3 SWAP1 SUB PUSH1 0x1F AND DUP3 ADD SWAP2 JUMPDEST POP POP POP POP POP DUP2 MSTORE PUSH1 0x20 ADD PUSH1 0x2 DUP3 ADD DUP1 SLOAD PUSH2 0x1B8 SWAP1 PUSH2 0xC32 JUMP JUMPDEST DUP1 PUSH1 0x1F ADD PUSH1 0x20 DUP1 SWAP2 DIV MUL PUSH1 0x20 ADD PUSH1 0x40 MLOAD SWAP1 DUP2 ADD PUSH1 0x40 MSTORE DUP1 SWAP3 SWAP2 SWAP1 DUP2 DUP2 MSTORE PUSH1 0x20 ADD DUP3 DUP1 SLOAD PUSH2 0x1E4 SWAP1 PUSH2 0xC32 JUMP JUMPDEST DUP1 ISZERO PUSH2 0x22F JUMPI DUP1 PUSH1 0x1F LT PUSH2 0x206 JUMPI PUSH2 0x100 DUP1 DUP4 SLOAD DIV MUL DUP4 MSTORE SWAP2 PUSH1 0x20 ADD SWAP2 PUSH2 0x22F JUMP JUMPDEST DUP3 ADD SWAP2 SWAP1 PUSH0 MSTORE PUSH1 0x20 PUSH0 KECCAK256 SWAP1 JUMPDEST DUP2 SLOAD DUP2 MSTORE SWAP1 PUSH1 0x1 ADD SWAP1 PUSH1 0x20 ADD DUP1 DUP4 GT PUSH2 0x212 JUMPI DUP3 SWAP1 SUB PUSH1 0x1F AND DUP3 ADD SWAP2 JUMPDEST POP POP POP POP POP DUP2 MSTORE PUSH1 0x20 ADD PUSH1 0x3 DUP3 ADD DUP1 SLOAD PUSH2 0x248 SWAP1 PUSH2 0xC32 JUMP JUMPDEST DUP1 PUSH1 0x1F ADD PUSH1 0x20 DUP1 SWAP2 DIV MUL PUSH1 0x20 ADD PUSH1 0x40 MLOAD SWAP1 DUP2 ADD PUSH1 0x40 MSTORE DUP1 SWAP3 SWAP2 SWAP1 DUP2 DUP2 MSTORE PUSH1 0x20 ADD DUP3 DUP1 SLOAD PUSH2 0x274 SWAP1 PUSH2 0xC32 JUMP JUMPDEST DUP1 ISZERO PUSH2 0x2BF JUMPI DUP1 PUSH1 0x1F LT PUSH2 0x296 JUMPI PUSH2 0x100 DUP1 DUP4 SLOAD DIV MUL DUP4 MSTORE SWAP2 PUSH1 0x20 ADD SWAP2 PUSH2 0x2BF JUMP JUMPDEST DUP3 ADD SWAP2 SWAP1 PUSH0 MSTORE PUSH1 0x20 PUSH0 KECCAK256 SWAP1 JUMPDEST DUP2 SLOAD DUP2 MSTORE SWAP1 PUSH1 0x1 ADD SWAP1 PUSH1 0x20 ADD DUP1 DUP4 GT PUSH2 0x2A2 JUMPI DUP3 SWAP1 SUB PUSH1 0x1F AND DUP3 ADD SWAP2 JUMPDEST POP POP POP POP POP DUP2 MSTORE PUSH1 0x20 ADD PUSH1 0x4 DUP3 ADD PUSH0 SWAP1 SLOAD SWAP1 PUSH2 0x100 EXP SWAP1 DIV PUSH20 0xFFFFFFFFFFFFFFFFFFFFFFFFFFFFFFFFFFFFFFFF AND PUSH20 0xFFFFFFFFFFFFFFFFFFFFFFFFFFFFFFFFFFFFFFFF AND PUSH20 0xFFFFFFFFFFFFFFFFFFFFFFFFFFFFFFFFFFFFFFFF AND DUP2 MSTORE POP POP SWAP1 POP SWAP2 SWAP1 POP JUMP JUMPDEST PUSH1 0x1 SLOAD DUP2 JUMP JUMPDEST PUSH0 DUP4 MLOAD GT PUSH2 0x36D JUMPI PUSH1 0x40 MLOAD PUSH32 0x8C379A000000000000000000000000000000000000000000000000000000000 DUP2 MSTORE PUSH1 0x4 ADD PUSH2 0x364 SWAP1 PUSH2 0xCAC JUMP JUMPDEST PUSH1 0x40 MLOAD DUP1 SWAP2 SUB SWAP1 REVERT JUMPDEST PUSH0 DUP3 MLOAD GT PUSH2 0x3B0 JUMPI PUSH1 0x40 MLOAD PUSH32 0x8C379A000000000000000000000000000000000000000000000000000000000 DUP2 MSTORE PUSH1 0x4 ADD PUSH2 0x3A7 SWAP1 PUSH2 0xD14 JUMP JUMPDEST PUSH1 0x40 MLOAD DUP1 SWAP2 SUB SWAP1 REVERT JUMPDEST PUSH0 DUP2 MLOAD GT PUSH2 0x3F3 JUMPI PUSH1 0x40 MLOAD PUSH32 0x8C379A000000000000000000000000000000000000000000000000000000000 DUP2 MSTORE PUSH1 0x4 ADD PUSH2 0x3EA SWAP1 PUSH2 0xD7C JUMP JUMPDEST PUSH1 0x40 MLOAD DUP1 SWAP2 SUB SWAP1 REVERT JUMPDEST PUSH1 0x1 PUSH0 DUP2 SLOAD DUP1 SWAP3 SWAP2 SWAP1 PUSH2 0x405 SWAP1 PUSH2 0xDC7 JUMP JUMPDEST SWAP2 SWAP1 POP SSTORE POP PUSH1 0x40 MLOAD DUP1 PUSH1 0xA0 ADD PUSH1 0x40 MSTORE DUP1 PUSH1 0x1 SLOAD DUP2 MSTORE PUSH1 0x20 ADD DUP5 DUP2 MSTORE PUSH1 0x20 ADD DUP3 DUP2 MSTORE PUSH1 0x20 ADD DUP4 DUP2 MSTORE PUSH1 0x20 ADD CALLER PUSH20 0xFFFFFFFFFFFFFFFFFFFFFFFFFFFFFFFFFFFFFFFF AND DUP2 MSTORE POP PUSH0 PUSH0 PUSH1 0x1 SLOAD DUP2 MSTORE PUSH1 0x20 ADD SWAP1 DUP2 MSTORE PUSH1 0x20 ADD PUSH0 KECCAK256 PUSH0 DUP3 ADD MLOAD DUP2 PUSH0 ADD SSTORE PUSH1 0x20 DUP3 ADD MLOAD DUP2 PUSH1 0x1 ADD SWAP1 DUP2 PUSH2 0x478 SWAP2 SWAP1 PUSH2 0xFAE JUMP JUMPDEST POP PUSH1 0x40 DUP3 ADD MLOAD DUP2 PUSH1 0x2 ADD SWAP1 DUP2 PUSH2 0x48E SWAP2 SWAP1 PUSH2 0xFAE JUMP JUMPDEST POP PUSH1 0x60 DUP3 ADD MLOAD DUP2 PUSH1 0x3 ADD SWAP1 DUP2 PUSH2 0x4A4 SWAP2 SWAP1 PUSH2 0xFAE JUMP JUMPDEST POP PUSH1 0x80 DUP3 ADD MLOAD DUP2 PUSH1 0x4 ADD PUSH0 PUSH2 0x100 EXP DUP2 SLOAD DUP2 PUSH20 0xFFFFFFFFFFFFFFFFFFFFFFFFFFFFFFFFFFFFFFFF MUL NOT AND SWAP1 DUP4 PUSH20 0xFFFFFFFFFFFFFFFFFFFFFFFFFFFFFFFFFFFFFFFF AND MUL OR SWAP1 SSTORE POP SWAP1 POP POP CALLER PUSH20 0xFFFFFFFFFFFFFFFFFFFFFFFFFFFFFFFFFFFFFFFF AND DUP2 PUSH1 0x40 MLOAD PUSH2 0x513 SWAP2 SWAP1 PUSH2 0x10B7 JUMP JUMPDEST PUSH1 0x40 MLOAD DUP1 SWAP2 SUB SWAP1 KECCAK256 PUSH32 0xA840B93CBCB6E31291B2769D43A3AE3E9518B9EDDBF4BC0737E3073F93476E0E PUSH1 0x1 SLOAD DUP7 DUP7 PUSH1 0x40 MLOAD PUSH2 0x550 SWAP4 SWAP3 SWAP2 SWAP1 PUSH2 0x10CD JUMP JUMPDEST PUSH1 0x40 MLOAD DUP1 SWAP2 SUB SWAP1 LOG3 POP POP POP JUMP JUMPDEST PUSH0 PUSH1 0x20 MSTORE DUP1 PUSH0 MSTORE PUSH1 0x40 PUSH0 KECCAK256 PUSH0 SWAP2 POP SWAP1 POP DUP1 PUSH0 ADD SLOAD SWAP1 DUP1 PUSH1 0x1 ADD DUP1 SLOAD PUSH2 0x581 SWAP1 PUSH2 0xC32 JUMP JUMPDEST DUP1 PUSH1 0x1F ADD PUSH1 0x20 DUP1 SWAP2 DIV MUL PUSH1 0x20 ADD PUSH1 0x40 MLOAD SWAP1 DUP2 ADD PUSH1 0x40 MSTORE DUP1 SWAP3 SWAP2 SWAP1 DUP2 DUP2 MSTORE PUSH1 0x20 ADD DUP3 DUP1 SLOAD PUSH2 0x5AD SWAP1 PUSH2 0xC32 JUMP JUMPDEST DUP1 ISZERO PUSH2 0x5F8 JUMPI DUP1 PUSH1 0x1F LT PUSH2 0x5CF JUMPI PUSH2 0x100 DUP1 DUP4 SLOAD DIV MUL DUP4 MSTORE SWAP2 PUSH1 0x20 ADD SWAP2 PUSH2 0x5F8 JUMP JUMPDEST DUP3 ADD SWAP2 SWAP1 PUSH0 MSTORE PUSH1 0x20 PUSH0 KECCAK256 SWAP1 JUMPDEST DUP2 SLOAD DUP2 MSTORE SWAP1 PUSH1 0x1 ADD SWAP1 PUSH1 0x20 ADD DUP1 DUP4 GT PUSH2 0x5DB JUMPI DUP3 SWAP1 SUB PUSH1 0x1F AND DUP3 ADD SWAP2 JUMPDEST POP POP POP POP POP SWAP1 DUP1 PUSH1 0x2 ADD DUP1 SLOAD PUSH2 0x60D SWAP1 PUSH2 0xC32 JUMP JUMPDEST DUP1 PUSH1 0x1F ADD PUSH1 0x20 DUP1 SWAP2 DIV MUL PUSH1 0x20 ADD PUSH1 0x40 MLOAD SWAP1 DUP2 ADD PUSH1 0x40 MSTORE DUP1 SWAP3 SWAP2 SWAP1 DUP2 DUP2 MSTORE PUSH1 0x20 ADD DUP3 DUP1 SLOAD PUSH2 0x639 SWAP1 PUSH2 0xC32 JUMP JUMPDEST DUP1 ISZERO PUSH2 0x684 JUMPI DUP1 PUSH1 0x1F LT PUSH2 0x65B JUMPI PUSH2 0x100 DUP1 DUP4 SLOAD DIV MUL DUP4 MSTORE SWAP2 PUSH1 0x20 ADD SWAP2 PUSH2 0x684 JUMP JUMPDEST DUP3 ADD SWAP2 SWAP1 PUSH0 MSTORE PUSH1 0x20 PUSH0 KECCAK256 SWAP1 JUMPDEST DUP2 SLOAD DUP2 MSTORE SWAP1 PUSH1 0x1 ADD SWAP1 PUSH1 0x20 ADD DUP1 DUP4 GT PUSH2 0x667 JUMPI DUP3 SWAP1 SUB PUSH1 0x1F AND DUP3 ADD SWAP2 JUMPDEST POP POP POP POP POP SWAP1 DUP1 PUSH1 0x3 ADD DUP1 SLOAD PUSH2 0x699 SWAP1 PUSH2 0xC32 JUMP JUMPDEST DUP1 PUSH1 0x1F ADD PUSH1 0x20 DUP1 SWAP2 DIV MUL PUSH1 0x20 ADD PUSH1 0x40 MLOAD SWAP1 DUP2 ADD PUSH1 0x40 MSTORE DUP1 SWAP3 SWAP2 SWAP1 DUP2 DUP2 MSTORE PUSH1 0x20 ADD DUP3 DUP1 SLOAD PUSH2 0x6C5 SWAP1 PUSH2 0xC32 JUMP JUMPDEST DUP1 ISZERO PUSH2 0x710 JUMPI DUP1 PUSH1 0x1F LT PUSH2 0x6E7 JUMPI PUSH2 0x100 DUP1 DUP4 SLOAD DIV MUL DUP4 MSTORE SWAP2 PUSH1 0x20 ADD SWAP2 PUSH2 0x710 JUMP JUMPDEST DUP3 ADD SWAP2 SWAP1 PUSH0 MSTORE PUSH1 0x20 PUSH0 KECCAK256 SWAP1 JUMPDEST DUP2 SLOAD DUP2 MSTORE SWAP1 PUSH1 0x1 ADD SWAP1 PUSH1 0x20 ADD DUP1 DUP4 GT PUSH2 0x6F3 JUMPI DUP3 SWAP1 SUB PUSH1 0x1F AND DUP3 ADD SWAP2 JUMPDEST POP POP POP POP POP SWAP1 DUP1 PUSH1 0x4 ADD PUSH0 SWAP1 SLOAD SWAP1 PUSH2 0x100 EXP SWAP1 DIV PUSH20 0xFFFFFFFFFFFFFFFFFFFFFFFFFFFFFFFFFFFFFFFF AND SWAP1 POP DUP6 JUMP JUMPDEST PUSH1 0x40 MLOAD DUP1 PUSH1 0xA0 ADD PUSH1 0x40 MSTORE DUP1 PUSH0 DUP2 MSTORE PUSH1 0x20 ADD PUSH1 0x60 DUP2 MSTORE PUSH1 0x20 ADD PUSH1 0x60 DUP2 MSTORE PUSH1 0x20 ADD PUSH1 0x60 DUP2 MSTORE PUSH1 0x20 ADD PUSH0 PUSH20 0xFFFFFFFFFFFFFFFFFFFFFFFFFFFFFFFFFFFFFFFF AND DUP2 MSTORE POP SWAP1 JUMP JUMPDEST PUSH0 PUSH1 0x40 MLOAD SWAP1 POP SWAP1 JUMP JUMPDEST PUSH0 PUSH0 REVERT JUMPDEST PUSH0 PUSH0 REVERT JUMPDEST PUSH0 DUP2 SWAP1 POP SWAP2 SWAP1 POP JUMP JUMPDEST PUSH2 0x7A5 DUP2 PUSH2 0x793 JUMP JUMPDEST DUP2 EQ PUSH2 0x7AF JUMPI PUSH0 PUSH0 REVERT JUMPDEST POP JUMP JUMPDEST PUSH0 DUP2 CALLDATALOAD SWAP1 POP PUSH2 0x7C0 DUP2 PUSH2 0x79C JUMP JUMPDEST SWAP3 SWAP2 POP POP JUMP JUMPDEST PUSH0 PUSH1 0x20 DUP3 DUP5 SUB SLT ISZERO PUSH2 0x7DB JUMPI PUSH2 0x7DA PUSH2 0x78B JUMP JUMPDEST JUMPDEST PUSH0 PUSH2 0x7E8 DUP5 DUP3 DUP6 ADD PUSH2 0x7B2 JUMP JUMPDEST SWAP2 POP POP SWAP3 SWAP2 POP POP JUMP JUMPDEST PUSH2 0x7FA DUP2 PUSH2 0x793 JUMP JUMPDEST DUP3 MSTORE POP POP JUMP JUMPDEST PUSH0 DUP2 MLOAD SWAP1 POP SWAP2 SWAP1 POP JUMP JUMPDEST PUSH0 DUP3 DUP3 MSTORE PUSH1 0x20 DUP3 ADD SWAP1 POP SWAP3 SWAP2 POP POP JUMP JUMPDEST DUP3 DUP2 DUP4 MCOPY PUSH0 DUP4 DUP4 ADD MSTORE POP POP POP JUMP JUMPDEST PUSH0 PUSH1 0x1F NOT PUSH1 0x1F DUP4 ADD AND SWAP1 POP SWAP2 SWAP1 POP JUMP JUMPDEST PUSH0 PUSH2 0x842 DUP3 PUSH2 0x800 JUMP JUMPDEST PUSH2 0x84C DUP2 DUP6 PUSH2 0x80A JUMP JUMPDEST SWAP4 POP PUSH2 0x85C DUP2 DUP6 PUSH1 0x20 DUP7 ADD PUSH2 0x81A JUMP JUMPDEST PUSH2 0x865 DUP2 PUSH2 0x828 JUMP JUMPDEST DUP5 ADD SWAP2 POP POP SWAP3 SWAP2 POP POP JUMP JUMPDEST PUSH0 PUSH20 0xFFFFFFFFFFFFFFFFFFFFFFFFFFFFFFFFFFFFFFFF DUP3 AND SWAP1 POP SWAP2 SWAP1 POP JUMP JUMPDEST PUSH0 PUSH2 0x899 DUP3 PUSH2 0x870 JUMP JUMPDEST SWAP1 POP SWAP2 SWAP1 POP JUMP JUMPDEST PUSH2 0x8A9 DUP2 PUSH2 0x88F JUMP JUMPDEST DUP3 MSTORE POP POP JUMP JUMPDEST PUSH0 PUSH1 0xA0 DUP4 ADD PUSH0 DUP4 ADD MLOAD PUSH2 0x8C4 PUSH0 DUP7 ADD DUP3 PUSH2 0x7F1 JUMP JUMPDEST POP PUSH1 0x20 DUP4 ADD MLOAD DUP5 DUP3 SUB PUSH1 0x20 DUP7 ADD MSTORE PUSH2 0x8DC DUP3 DUP3 PUSH2 0x838 JUMP JUMPDEST SWAP2 POP POP PUSH1 0x40 DUP4 ADD MLOAD DUP5 DUP3 SUB PUSH1 0x40 DUP7 ADD MSTORE PUSH2 0x8F6 DUP3 DUP3 PUSH2 0x838 JUMP JUMPDEST SWAP2 POP POP PUSH1 0x60 DUP4 ADD MLOAD DUP5 DUP3 SUB PUSH1 0x60 DUP7 ADD MSTORE PUSH2 0x910 DUP3 DUP3 PUSH2 0x838 JUMP JUMPDEST SWAP2 POP POP PUSH1 0x80 DUP4 ADD MLOAD PUSH2 0x925 PUSH1 0x80 DUP7 ADD DUP3 PUSH2 0x8A0 JUMP JUMPDEST POP DUP1 SWAP2 POP POP SWAP3 SWAP2 POP POP JUMP JUMPDEST PUSH0 PUSH1 0x20 DUP3 ADD SWAP1 POP DUP2 DUP2 SUB PUSH0 DUP4 ADD MSTORE PUSH2 0x948 DUP2 DUP5 PUSH2 0x8AF JUMP JUMPDEST SWAP1 POP SWAP3 SWAP2 POP POP JUMP JUMPDEST PUSH2 0x959 DUP2 PUSH2 0x793 JUMP JUMPDEST DUP3 MSTORE POP POP JUMP JUMPDEST PUSH0 PUSH1 0x20 DUP3 ADD SWAP1 POP PUSH2 0x972 PUSH0 DUP4 ADD DUP5 PUSH2 0x950 JUMP JUMPDEST SWAP3 SWAP2 POP POP JUMP JUMPDEST PUSH0 PUSH0 REVERT JUMPDEST PUSH0 PUSH0 REVERT JUMPDEST PUSH32 0x4E487B7100000000000000000000000000000000000000000000000000000000 PUSH0 MSTORE PUSH1 0x41 PUSH1 0x4 MSTORE PUSH1 0x24 PUSH0 REVERT JUMPDEST PUSH2 0x9B6 DUP3 PUSH2 0x828 JUMP JUMPDEST DUP2 ADD DUP2 DUP2 LT PUSH8 0xFFFFFFFFFFFFFFFF DUP3 GT OR ISZERO PUSH2 0x9D5 JUMPI PUSH2 0x9D4 PUSH2 0x980 JUMP JUMPDEST JUMPDEST DUP1 PUSH1 0x40 MSTORE POP POP POP JUMP JUMPDEST PUSH0 PUSH2 0x9E7 PUSH2 0x782 JUMP JUMPDEST SWAP1 POP PUSH2 0x9F3 DUP3 DUP3 PUSH2 0x9AD JUMP JUMPDEST SWAP2 SWAP1 POP JUMP JUMPDEST PUSH0 PUSH8 0xFFFFFFFFFFFFFFFF DUP3 GT ISZERO PUSH2 0xA12 JUMPI PUSH2 0xA11 PUSH2 0x980 JUMP JUMPDEST JUMPDEST PUSH2 0xA1B DUP3 PUSH2 0x828 JUMP JUMPDEST SWAP1 POP PUSH1 0x20 DUP2 ADD SWAP1 POP SWAP2 SWAP1 POP JUMP JUMPDEST DUP3 DUP2 DUP4 CALLDATACOPY PUSH0 DUP4 DUP4 ADD MSTORE POP POP POP JUMP JUMPDEST PUSH0 PUSH2 0xA48 PUSH2 0xA43 DUP5 PUSH2 0x9F8 JUMP JUMPDEST PUSH2 0x9DE JUMP JUMPDEST SWAP1 POP DUP3 DUP2 MSTORE PUSH1 0x20 DUP2 ADD DUP5 DUP5 DUP5 ADD GT ISZERO PUSH2 0xA64 JUMPI PUSH2 0xA63 PUSH2 0x97C JUMP JUMPDEST JUMPDEST PUSH2 0xA6F DUP5 DUP3 DUP6 PUSH2 0xA28 JUMP JUMPDEST POP SWAP4 SWAP3 POP POP POP JUMP JUMPDEST PUSH0 DUP3 PUSH1 0x1F DUP4 ADD SLT PUSH2 0xA8B JUMPI PUSH2 0xA8A PUSH2 0x978 JUMP JUMPDEST JUMPDEST DUP2 CALLDATALOAD PUSH2 0xA9B DUP5 DUP3 PUSH1 0x20 DUP7 ADD PUSH2 0xA36 JUMP JUMPDEST SWAP2 POP POP SWAP3 SWAP2 POP POP JUMP JUMPDEST PUSH0 PUSH0 PUSH0 PUSH1 0x60 DUP5 DUP7 SUB SLT ISZERO PUSH2 0xABB JUMPI PUSH2 0xABA PUSH2 0x78B JUMP JUMPDEST JUMPDEST PUSH0 DUP5 ADD CALLDATALOAD PUSH8 0xFFFFFFFFFFFFFFFF DUP2 GT ISZERO PUSH2 0xAD8 JUMPI PUSH2 0xAD7 PUSH2 0x78F JUMP JUMPDEST JUMPDEST PUSH2 0xAE4 DUP7 DUP3 DUP8 ADD PUSH2 0xA77 JUMP JUMPDEST SWAP4 POP POP PUSH1 0x20 DUP5 ADD CALLDATALOAD PUSH8 0xFFFFFFFFFFFFFFFF DUP2 GT ISZERO PUSH2 0xB05 JUMPI PUSH2 0xB04 PUSH2 0x78F JUMP JUMPDEST JUMPDEST PUSH2 0xB11 DUP7 DUP3 DUP8 ADD PUSH2 0xA77 JUMP JUMPDEST SWAP3 POP POP PUSH1 0x40 DUP5 ADD CALLDATALOAD PUSH8 0xFFFFFFFFFFFFFFFF DUP2 GT ISZERO PUSH2 0xB32 JUMPI PUSH2 0xB31 PUSH2 0x78F JUMP JUMPDEST JUMPDEST PUSH2 0xB3E DUP7 DUP3 DUP8 ADD PUSH2 0xA77 JUMP JUMPDEST SWAP2 POP POP SWAP3 POP SWAP3 POP SWAP3 JUMP JUMPDEST PUSH0 DUP3 DUP3 MSTORE PUSH1 0x20 DUP3 ADD SWAP1 POP SWAP3 SWAP2 POP POP JUMP JUMPDEST PUSH0 PUSH2 0xB62 DUP3 PUSH2 0x800 JUMP JUMPDEST PUSH2 0xB6C DUP2 DUP6 PUSH2 0xB48 JUMP JUMPDEST SWAP4 POP PUSH2 0xB7C DUP2 DUP6 PUSH1 0x20 DUP7 ADD PUSH2 0x81A JUMP JUMPDEST PUSH2 0xB85 DUP2 PUSH2 0x828 JUMP JUMPDEST DUP5 ADD SWAP2 POP POP SWAP3 SWAP2 POP POP JUMP JUMPDEST PUSH2 0xB99 DUP2 PUSH2 0x88F JUMP JUMPDEST DUP3 MSTORE POP POP JUMP JUMPDEST PUSH0 PUSH1 0xA0 DUP3 ADD SWAP1 POP PUSH2 0xBB2 PUSH0 DUP4 ADD DUP9 PUSH2 0x950 JUMP JUMPDEST DUP2 DUP2 SUB PUSH1 0x20 DUP4 ADD MSTORE PUSH2 0xBC4 DUP2 DUP8 PUSH2 0xB58 JUMP JUMPDEST SWAP1 POP DUP2 DUP2 SUB PUSH1 0x40 DUP4 ADD MSTORE PUSH2 0xBD8 DUP2 DUP7 PUSH2 0xB58 JUMP JUMPDEST SWAP1 POP DUP2 DUP2 SUB PUSH1 0x60 DUP4 ADD MSTORE PUSH2 0xBEC DUP2 DUP6 PUSH2 0xB58 JUMP JUMPDEST SWAP1 POP PUSH2 0xBFB PUSH1 0x80 DUP4 ADD DUP5 PUSH2 0xB90 JUMP JUMPDEST SWAP7 SWAP6 POP POP POP POP POP POP JUMP JUMPDEST PUSH32 0x4E487B7100000000000000000000000000000000000000000000000000000000 PUSH0 MSTORE PUSH1 0x22 PUSH1 0x4 MSTORE PUSH1 0x24 PUSH0 REVERT JUMPDEST PUSH0 PUSH1 0x2 DUP3 DIV SWAP1 POP PUSH1 0x1 DUP3 AND DUP1 PUSH2 0xC49 JUMPI PUSH1 0x7F DUP3 AND SWAP2 POP JUMPDEST PUSH1 0x20 DUP3 LT DUP2 SUB PUSH2 0xC5C JUMPI PUSH2 0xC5B PUSH2 0xC05 JUMP JUMPDEST JUMPDEST POP SWAP2 SWAP1 POP JUMP JUMPDEST PUSH32 0x4950465320486173682069732072657175697265640000000000000000000000 PUSH0 DUP3 ADD MSTORE POP JUMP JUMPDEST PUSH0 PUSH2 0xC96 PUSH1 0x15 DUP4 PUSH2 0xB48 JUMP JUMPDEST SWAP2 POP PUSH2 0xCA1 DUP3 PUSH2 0xC62 JUMP JUMPDEST PUSH1 0x20 DUP3 ADD SWAP1 POP SWAP2 SWAP1 POP JUMP JUMPDEST PUSH0 PUSH1 0x20 DUP3 ADD SWAP1 POP DUP2 DUP2 SUB PUSH0 DUP4 ADD MSTORE PUSH2 0xCC3 DUP2 PUSH2 0xC8A JUMP JUMPDEST SWAP1 POP SWAP2 SWAP1 POP JUMP JUMPDEST PUSH32 0x46696C65204E616D652069732072657175697265640000000000000000000000 PUSH0 DUP3 ADD MSTORE POP JUMP JUMPDEST PUSH0 PUSH2 0xCFE PUSH1 0x15 DUP4 PUSH2 0xB48 JUMP JUMPDEST SWAP2 POP PUSH2 0xD09 DUP3 PUSH2 0xCCA JUMP JUMPDEST PUSH1 0x20 DUP3 ADD SWAP1 POP SWAP2 SWAP1 POP JUMP JUMPDEST PUSH0 PUSH1 0x20 DUP3 ADD SWAP1 POP DUP2 DUP2 SUB PUSH0 DUP4 ADD MSTORE PUSH2 0xD2B DUP2 PUSH2 0xCF2 JUMP JUMPDEST SWAP1 POP SWAP2 SWAP1 POP JUMP JUMPDEST PUSH32 0x5375626A65637420697320726571756972656400000000000000000000000000 PUSH0 DUP3 ADD MSTORE POP JUMP JUMPDEST PUSH0 PUSH2 0xD66 PUSH1 0x13 DUP4 PUSH2 0xB48 JUMP JUMPDEST SWAP2 POP PUSH2 0xD71 DUP3 PUSH2 0xD32 JUMP JUMPDEST PUSH1 0x20 DUP3 ADD SWAP1 POP SWAP2 SWAP1 POP JUMP JUMPDEST PUSH0 PUSH1 0x20 DUP3 ADD SWAP1 POP DUP2 DUP2 SUB PUSH0 DUP4 ADD MSTORE PUSH2 0xD93 DUP2 PUSH2 0xD5A JUMP JUMPDEST SWAP1 POP SWAP2 SWAP1 POP JUMP JUMPDEST PUSH32 0x4E487B7100000000000000000000000000000000000000000000000000000000 PUSH0 MSTORE PUSH1 0x11 PUSH1 0x4 MSTORE PUSH1 0x24 PUSH0 REVERT JUMPDEST PUSH0 PUSH2 0xDD1 DUP3 PUSH2 0x793 JUMP JUMPDEST SWAP2 POP PUSH32 0xFFFFFFFFFFFFFFFFFFFFFFFFFFFFFFFFFFFFFFFFFFFFFFFFFFFFFFFFFFFFFFFF DUP3 SUB PUSH2 0xE03 JUMPI PUSH2 0xE02 PUSH2 0xD9A JUMP JUMPDEST JUMPDEST PUSH1 0x1 DUP3 ADD SWAP1 POP SWAP2 SWAP1 POP JUMP JUMPDEST PUSH0 DUP2 SWAP1 POP DUP2 PUSH0 MSTORE PUSH1 0x20 PUSH0 KECCAK256 SWAP1 POP SWAP2 SWAP1 POP JUMP JUMPDEST PUSH0 PUSH1 0x20 PUSH1 0x1F DUP4 ADD DIV SWAP1 POP SWAP2 SWAP1 POP JUMP JUMPDEST PUSH0 DUP3 DUP3 SHL SWAP1 POP SWAP3 SWAP2 POP POP JUMP JUMPDEST PUSH0 PUSH1 0x8 DUP4 MUL PUSH2 0xE6A PUSH32 0xFFFFFFFFFFFFFFFFFFFFFFFFFFFFFFFFFFFFFFFFFFFFFFFFFFFFFFFFFFFFFFFF DUP3 PUSH2 0xE2F JUMP JUMPDEST PUSH2 0xE74 DUP7 DUP4 PUSH2 0xE2F JUMP JUMPDEST SWAP6 POP DUP1 NOT DUP5 AND SWAP4 POP DUP1 DUP7 AND DUP5 OR SWAP3 POP POP POP SWAP4 SWAP3 POP POP POP JUMP JUMPDEST PUSH0 DUP2 SWAP1 POP SWAP2 SWAP1 POP JUMP JUMPDEST PUSH0 PUSH2 0xEAF PUSH2 0xEAA PUSH2 0xEA5 DUP5 PUSH2 0x793 JUMP JUMPDEST PUSH2 0xE8C JUMP JUMPDEST PUSH2 0x793 JUMP JUMPDEST SWAP1 POP SWAP2 SWAP1 POP JUMP JUMPDEST PUSH0 DUP2 SWAP1 POP SWAP2 SWAP1 POP JUMP JUMPDEST PUSH2 0xEC8 DUP4 PUSH2 0xE95 JUMP JUMPDEST PUSH2 0xEDC PUSH2 0xED4 DUP3 PUSH2 0xEB6 JUMP JUMPDEST DUP5 DUP5 SLOAD PUSH2 0xE3B JUMP JUMPDEST DUP3 SSTORE POP POP POP POP JUMP JUMPDEST PUSH0 PUSH0 SWAP1 POP SWAP1 JUMP JUMPDEST PUSH2 0xEF3 PUSH2 0xEE4 JUMP JUMPDEST PUSH2 0xEFE DUP2 DUP5 DUP5 PUSH2 0xEBF JUMP JUMPDEST POP POP POP JUMP JUMPDEST JUMPDEST DUP2 DUP2 LT ISZERO PUSH2 0xF21 JUMPI PUSH2 0xF16 PUSH0 DUP3 PUSH2 0xEEB JUMP JUMPDEST PUSH1 0x1 DUP2 ADD SWAP1 POP PUSH2 0xF04 JUMP JUMPDEST POP POP JUMP JUMPDEST PUSH1 0x1F DUP3 GT ISZERO PUSH2 0xF66 JUMPI PUSH2 0xF37 DUP2 PUSH2 0xE0E JUMP JUMPDEST PUSH2 0xF40 DUP5 PUSH2 0xE20 JUMP JUMPDEST DUP2 ADD PUSH1 0x20 DUP6 LT ISZERO PUSH2 0xF4F JUMPI DUP2 SWAP1 POP JUMPDEST PUSH2 0xF63 PUSH2 0xF5B DUP6 PUSH2 0xE20 JUMP JUMPDEST DUP4 ADD DUP3 PUSH2 0xF03 JUMP JUMPDEST POP POP JUMPDEST POP POP POP JUMP JUMPDEST PUSH0 DUP3 DUP3 SHR SWAP1 POP SWAP3 SWAP2 POP POP JUMP JUMPDEST PUSH0 PUSH2 0xF86 PUSH0 NOT DUP5 PUSH1 0x8 MUL PUSH2 0xF6B JUMP JUMPDEST NOT DUP1 DUP4 AND SWAP2 POP POP SWAP3 SWAP2 POP POP JUMP JUMPDEST PUSH0 PUSH2 0xF9E DUP4 DUP4 PUSH2 0xF77 JUMP JUMPDEST SWAP2 POP DUP3 PUSH1 0x2 MUL DUP3 OR SWAP1 POP SWAP3 SWAP2 POP POP JUMP JUMPDEST PUSH2 0xFB7 DUP3 PUSH2 0x800 JUMP JUMPDEST PUSH8 0xFFFFFFFFFFFFFFFF DUP2 GT ISZERO PUSH2 0xFD0 JUMPI PUSH2 0xFCF PUSH2 0x980 JUMP JUMPDEST JUMPDEST PUSH2 0xFDA DUP3 SLOAD PUSH2 0xC32 JUMP JUMPDEST PUSH2 0xFE5 DUP3 DUP3 DUP6 PUSH2 0xF25 JUMP JUMPDEST PUSH0 PUSH1 0x20 SWAP1 POP PUSH1 0x1F DUP4 GT PUSH1 0x1 DUP2 EQ PUSH2 0x1016 JUMPI PUSH0 DUP5 ISZERO PUSH2 0x1004 JUMPI DUP3 DUP8 ADD MLOAD SWAP1 POP JUMPDEST PUSH2 0x100E DUP6 DUP3 PUSH2 0xF93 JUMP JUMPDEST DUP7 SSTORE POP PUSH2 0x1075 JUMP JUMPDEST PUSH1 0x1F NOT DUP5 AND PUSH2 0x1024 DUP7 PUSH2 0xE0E JUMP JUMPDEST PUSH0 JUMPDEST DUP3 DUP2 LT ISZERO PUSH2 0x104B JUMPI DUP5 DUP10 ADD MLOAD DUP3 SSTORE PUSH1 0x1 DUP3 ADD SWAP2 POP PUSH1 0x20 DUP6 ADD SWAP5 POP PUSH1 0x20 DUP2 ADD SWAP1 POP PUSH2 0x1026 JUMP JUMPDEST DUP7 DUP4 LT ISZERO PUSH2 0x1068 JUMPI DUP5 DUP10 ADD MLOAD PUSH2 0x1064 PUSH1 0x1F DUP10 AND DUP3 PUSH2 0xF77 JUMP JUMPDEST DUP4 SSTORE POP JUMPDEST PUSH1 0x1 PUSH1 0x2 DUP9 MUL ADD DUP9 SSTORE POP POP POP JUMPDEST POP POP POP POP POP POP JUMP JUMPDEST PUSH0 DUP2 SWAP1 POP SWAP3 SWAP2 POP POP JUMP JUMPDEST PUSH0 PUSH2 0x1091 DUP3 PUSH2 0x800 JUMP JUMPDEST PUSH2 0x109B DUP2 DUP6 PUSH2 0x107D JUMP JUMPDEST SWAP4 POP PUSH2 0x10AB DUP2 DUP6 PUSH1 0x20 DUP7 ADD PUSH2 0x81A JUMP JUMPDEST DUP1 DUP5 ADD SWAP2 POP POP SWAP3 SWAP2 POP POP JUMP JUMPDEST PUSH0 PUSH2 0x10C2 DUP3 DUP5 PUSH2 0x1087 JUMP JUMPDEST SWAP2 POP DUP2 SWAP1 POP SWAP3 SWAP2 POP POP JUMP JUMPDEST PUSH0 PUSH1 0x60 DUP3 ADD SWAP1 POP PUSH2 0x10E0 PUSH0 DUP4 ADD DUP7 PUSH2 0x950 JUMP JUMPDEST DUP2 DUP2 SUB PUSH1 0x20 DUP4 ADD MSTORE PUSH2 0x10F2 DUP2 DUP6 PUSH2 0xB58 JUMP JUMPDEST SWAP1 POP DUP2 DUP2 SUB PUSH1 0x40 DUP4 ADD MSTORE PUSH2 0x1106 DUP2 DUP5 PUSH2 0xB58 JUMP JUMPDEST SWAP1 POP SWAP5 SWAP4 POP POP POP POP JUMP INVALID LOG2 PUSH5 0x6970667358 0x22 SLT KECCAK256 0x4D 0xF7 CALLF 0xDD03 PREVRANDAO SWAP11 ADDRESS CALLF 0x6701 0xCF PUSH8 0x8E714054A185BE50 TLOAD CALLVALUE PUSH2 0x9F7D 0xC5 0x21 0xDF PUSH29 0x127C64736F6C634300081E003300000000000000000000000000000000 "
				},
				"gasEstimates": {
					"creation": {
						"codeDepositCost": "884400",
						"executionCost": "5925",
						"totalCost": "890325"
					},
					"external": {
						"fileCount()": "2425",
						"files(uint256)": "infinite",
						"getFile(uint256)": "infinite",
						"uploadFile(string,string,string)": "infinite"
					}
				},
				"methodIdentifiers": {
					"fileCount()": "43953519",
					"files(uint256)": "f4c714b4",
					"getFile(uint256)": "2bfda313",
					"uploadFile(string,string,string)": "92bb481a"
				}
			},
			"storageLayout": {
				"storage": [
					{
						"astId": 17,
						"contract": "Final Project/FinalProject_Contract.sol:P2PFileShare",
						"label": "files",
						"offset": 0,
						"slot": "0",
						"type": "t_mapping(t_uint256,t_struct(FileInfo)12_storage)"
					},
					{
						"astId": 20,
						"contract": "Final Project/FinalProject_Contract.sol:P2PFileShare",
						"label": "fileCount",
						"offset": 0,
						"slot": "1",
						"type": "t_uint256"
					}
				],
				"types": {
					"t_address": {
						"encoding": "inplace",
						"label": "address",
						"numberOfBytes": "20"
					},
					"t_mapping(t_uint256,t_struct(FileInfo)12_storage)": {
						"encoding": "mapping",
						"key": "t_uint256",
						"label": "mapping(uint256 => struct P2PFileShare.FileInfo)",
						"numberOfBytes": "32",
						"value": "t_struct(FileInfo)12_storage"
					},
					"t_string_storage": {
						"encoding": "bytes",
						"label": "string",
						"numberOfBytes": "32"
					},
					"t_struct(FileInfo)12_storage": {
						"encoding": "inplace",
						"label": "struct P2PFileShare.FileInfo",
						"members": [
							{
								"astId": 3,
								"contract": "Final Project/FinalProject_Contract.sol:P2PFileShare",
								"label": "idnumber",
								"offset": 0,
								"slot": "0",
								"type": "t_uint256"
							},
							{
								"astId": 5,
								"contract": "Final Project/FinalProject_Contract.sol:P2PFileShare",
								"label": "ipfs",
								"offset": 0,
								"slot": "1",
								"type": "t_string_storage"
							},
							{
								"astId": 7,
								"contract": "Final Project/FinalProject_Contract.sol:P2PFileShare",
								"label": "subject",
								"offset": 0,
								"slot": "2",
								"type": "t_string_storage"
							},
							{
								"astId": 9,
								"contract": "Final Project/FinalProject_Contract.sol:P2PFileShare",
								"label": "fileName",
								"offset": 0,
								"slot": "3",
								"type": "t_string_storage"
							},
							{
								"astId": 11,
								"contract": "Final Project/FinalProject_Contract.sol:P2PFileShare",
								"label": "uploader",
								"offset": 0,
								"slot": "4",
								"type": "t_address"
							}
						],
						"numberOfBytes": "160"
					},
					"t_uint256": {
						"encoding": "inplace",
						"label": "uint256",
						"numberOfBytes": "32"
					}
				}
			},
			"userdoc": {
				"kind": "user",
				"methods": {},
				"version": 1
			}
		}
	}
}